:020000040800F2
:20000000082B002031AA020875980208799802087D9802087D9802087D9802080000000019
:20002000000000000000000000000000E1AC0208E5AC020800000000F9840108956B0108FF
:20004000ED4F0108F5AC0208F9AC0208FDAC020801AD020805AD020809AD02080DAD020856
:2000600011AD020815AD020819AD02081DAD020821AD020825AD020829AD02082DAD0208D0
:2000800031AD020835AD0208F15301083DAD020841AD020845AD020849AD02084DAD020853
:2000A00051AD020855AD020859AD02085DAD020861AD020865AD020869AD02086DAD020890
:2000C00071AD020875AD020879AD02087DAD020881AD020885AD020889AD02088DAD020870
:2000E00091AD020895AD020899AD02089DAD020869540108A5AD0208A9AD0208ADAD0208E2
:20010000B1AD0208B5AD0208B9AD0208BDAD0208C1AD0208C5AD0208735C0108CDAD0208D7
:20012000D1AD0208D5AD0208D9AD0208DDAD0208E1AD02081DD50108E9AD0208EDAD0208B0
:20014000F1AD0208F5AD0208F9AD020829D5010801AE020805AE020809AE0208B954010847
:2001600011AE020815AE020819AE02081DAE020821AE020861D5010829AE02082DAE020865
:2001800031AE0208FFFFFFFFFFFFFFFFFFFFFFFFFFFFFFFFFFFFFFFFFFFFFFFFFFFFFFFF92
:2001A000FFFFFFFFFFFFFFFFFFFFFFFFFFFFFFFFFFFFFFFFFFFFFFFFFFFFFFFFFFFFFFFF5F
:2001C000FFFFFFFFFFFFFFFFFFFFFFFFFFFFFFFFFFFFFFFFFFFFFFFFFFFFFFFFFFFFFFFF3F
:2001E000FFFFFFFFFFFFFFFFFFFFFFFFFFFFFFFFFFFFFFFFFFFFFFFFFFFFFFFFFFFFFFFF1F
:20020000000000000000000000000000000000004A2D4C696E6B20563920636F6D70696C86
:200220006564204A616E20203920323031352031303A33323A333200436F70797269676857
:200240007420323030332D32303132205345474745523A207777772E7365676765722E637B
:200260006F6D000000000000000000000000000000000000000000000000000000000000A2
:20028000FFFFFFFFFFFFFFFFFFFFFFFFFFFFFFFFFFFFFFFFFFFFFFFFFFFFFFFFFFFFFFFF7E
:2002A000FFFFFFFFFFFFFFFFFFFFFFFFFFFFFFFFFFFFFFFFFFFFFFFFFFFFFFFFFFFFFFFF5E
:2002C000FFFFFFFFFFFFFFFFFFFFFFFFFFFFFFFFFFFFFFFFFFFFFFFFFFFFFFFFFFFFFFFF3E
:2002E000FFFFFFFFFFFFFFFFFFFFFFFFFFFFFFFFFFFFFFFFFFFFFFFFFFFFFFFFFFFFFFFF1E
:200300002DE9FF5F9DE8001C0124A103A501264E264FDFF89C805FF4802E1AF8010B1BF84B
:20032000012B120210430822082B48BF1A46440834BFA8F81A10A8F81810440A34BF75835C
:20034000358300BF00BF5B1E7D83BEF1010E24D0D8F81040A408F8D23D83BEF1010E1CD03C
:20036000D8F81040A408F8D33C69240A4FEA3000521EDCD1000E0CF8010B002BCBD1039C09
:2003800014F007041EBFC4F10804E0400CF8010C7583BDE8FF5F002070473D837583BDE850
:2003A000FF5F01207047000000000240000802400004024000000000000000000000000035
:2003C0002DE9FF5FDDF838E07F4C2468240009D000F0DEFABDE8FF9F2DE9FF5F7B4ED6F852
:2003E00000E0F1E79DE8001C0124A501A600784F78493C6844F480543C60BEF1000F43D48A
:200400001AF8010B1BF8012B120210430822082B48BF1A469B1A5FEA0208400812D3040A11
:2004200001D33D8300E07D830E837446641EFDD50D837446641EFDD54D835FEA5909521E20
:20044000EBD10EE04E837446641EFDD50D837446641EFDD54D833C69240A4FEA3909521EE7
:20046000DBD15FEA19690CF8019B002BC8D1C8F1080829FA08F90CF8019C3C6824F44054C3
:200480003C604E83BDE8FF9F1AF8014B1BF8010B0822082B48BF1A469B1A5FEA0208082A31
:2004A00068D1002C39D0FF2C64D1440834BF7D833D830E83400834BF7D833D8340080D830B
:2004C00000BF00BF00BF4D8300BF00BF34BF7D833D8340080D8300BF00BF00BF4D8300BF3A
:2004E00000BF34BF7D833D8340080D8300BF00BF00BF4D8300BF00BF34BF7D833D83121F43
:200500000D8300BF00BF00BF4D8300BF00BFD1D11CF1010C002BB7D1A9E74E8300BF0D83A1
:2005200000BF00BF00BF4D8300BF3C69240A4FEA39090D8300BF00BF00BF4D8300BF3C69A0
:20054000240A4FEA39090D8300BF00BF00BF4D8300BF3C69240A4FEA39090D8300BF00BF3A
:2005600000BF4D8300BF3C69240A4FEA3909121FD5D120E00002204340080ED24E8300BFEB
:200580000D8300BF00BF00BF4D8300BF3C69240A4FEA3909521EEFD10DE0040A34BF7D8393
:2005A0003D830E834FEA39090D83521E00BF00BF4D8300BFE0D15FEA19690CF8019B002B1B
:2005C0007FF462AF53E70000E8170020BC0E002000000240000802400000000000000000C8
:2005E00030B40100104A114B002000241D692D0A03D2641C0F2CF9D10EE01470521C002401
:200600001D692D0A03D3641C0F2CF9D104E01470801C521C8842E8D30421A3F818180024B7
:20062000147030BC7047000070120020000002402DE9F05F4A4C4B4D002681468A46934686
:200640004020494A1268002A52D4092B2CBF4FF00808984619F8011B1AF8017B3F020F4343
:2006600079082CBF18211A216852208304212183114600BF491EFDD560831146491EFDD5B2
:20068000790A2CBF18211A2168522083114600BF491EFDD560831146491EFDD52083042191
:2006A00061831146491EFDD560831146491EFDD520831146491EFDD52969090A4FEA360606
:2006C00060831146491EFDD57F08B8F10108C7D1092B04D3083BF10D0BF8011BB5E7C3F11B
:2006E0001F0026FA00F08BF800000020BDE8F09F092B2CBF4FF00808984619F8011B1AF869
:20070000017B3F020F4379082CBF18211A2168522083790A60832CBF18211A21685220836B
:2007200000BF608300BF00BF208304216183608300BF00BF00BF00BF04227F08208329692C
:20074000090A4FEA360660832283B8F10108DAD1092BC4D3083BF10D0BF8011BC8E7000052
:200760000008024000000240BC0E0020000000002DE9FF5F474BD3F800E05FF0000E9DE870
:20078000000301239C039D01434E444FDFF810C108B119B948E03483A1B35FE018F8010B10
:2007A0001CF800000823082A48BF1346410834BF74833483521E7D837146491EFDD539697C
:2007C000090A4FEA30003D837146491EFDD55B1EECD1000E1CF8000009F8010B002ADDD1B0
:2007E000029911F0070109D0C1F108011CF8000020FA01F01CF8000009F8010C4FF0000041
:20080000BDE8FF9F0823082A48BF1346521E7D837146491EFDD53D837146491EFDD55B1E4F
:20082000F4D1002AEED1E9E718F8010B1CF800000823082A48BF1346400834BF7483348364
:20084000521E7D837146491EFDD53D837146491EFDD55B1EF0D1002AE6D1CFE70823082A5A
:2008600048BF1346521E7D837146491EFDD53969090A4FEA30003D837146491EFDD55B1E71
:20088000F0D1000E1CF8000009F8010B002AE5D1A6E70000BC0E0020000402400008024081
:2008A000B0190108DFF800F0ED040020DFF800F0FD0500202DE9F84380460C4615461F467C
:2008C000002667B12527082D09D1A01CC01010F80800A11C0841C00705D4032703E0002D03
:2008E00054D0192D01DA294600E0102100200022012912DB23464FEAE30C1CF808C003F07A
:20090000070E4CFA0EFC0CF0010C0CFA02FC4CEA0000521C5B1C8A42EDDB6D1A0C19CA0739
:2009200048BF491C15B90FB1891C3E4672B63246FFF7BCFF62B626B33D4A10780F2820D21A
:200940003C48002100230AC00838521C13780F2B14D2032B12D3092B0CD3CB0813F800C0E8
:200960004FF0010E01F007090EFA09FE4EEA0C0C03F800C0491C521C4029E7D32E48002181
:2009800001601DB10220FFF78DFFAAE7BDE8F1832DE9F84F05468A4693461C464FF00008E0
:2009A000DFF89090244E0022404601E0521C401CA24206DAC110495D00F00703D940C9075D
:2009C000F4D4A41A002302EB0807394601E05B1C491CA34207DAC810405D01F0070E20FADB
:2009E0000EF0C007F3D51AB141465046FFF762FFB8460027404601E07F1C401CA74206DADF
:200A0000C110495D00F00702D140C907F4D55FB1009733684A464146584600F027F930681D
:200A200038183060B844E41B002CBCD1BDE8F18F70120020B0120020B8120020010A41EA59
:200A4000002080B2704700EBD10001F0070100F0030201EBC20182089200106831B1C840B6
:200A60005268C1F1200102FA01F108437047F0B505460C461E4612F0070F09D1D7083A4602
:200A80002146284600F010FA7D19761EF7D1F0BD002021461346FF278740FF4301E06D1C6F
:200AA000083B11F801CB70B10CFA00FC95F800E007EA0E0E4CEA0E0E85F800E04FEA1C2C51
:200AC00085F801C001E085F800C0082BE7DA181805EBD00500F00700761EDAD1F0BD09499C
:200AE000020E525C03021B0E5B5C42EA032203041B0E5B5C42EA0342C0B2405C42EA006010
:200B000070470000B019010830B400EBD20002F0070200F0030302EBC3028008800082B1CD
:200B2000012393405B1E04681C4001FA02F52C4340F8044B046824EA0303C2F12002D1402F
:200B40001943016030BC7047F0B5FF240125059E04E09A1800EBD20002F0070251F8047B8E
:200B600090F800C005FA02FEAEF1010E0EEA0C0C07FA02FE4EEA0C0C80F800C0C2F1080C20
:200B800027FA0CF747703F0A87703F0AC77090F804C004FA02FE0EEA0C0C4CEA1727077174
:200BA000761ED6D1F0BDF0B4002400EBD10011F007010ED0A1F10804E31812F8014B057876
:200BC000FF268E40F643354004FA01F6354300F8015B082B3BD3DD08042D28D3C1F10806A1
:200BE00012F8017B44EA072424FA06F700F8017B12F8017B3F0247EA142424FA06F700F844
:200C0000017B12F8017B3F0247EA142424FA06F700F8017B12F8017B3F0247EA142424FA4B
:200C200006F700F8017B240A2D1F042DD8D265B112F8016B44EA0624C1F1080624FA06F630
:200C400000F8016B240A6D1EF2D103F007035BB1127844EA0222C1F1080122FA01F10122E3
:200C60009A40521E11400170F0BC7047F0B500EBD10002EBD30201F0070103F0070312F8E2
:200C8000014B24FA03F5C3F108060123059C25E012F8017BB7403D43083603FA01F7A7F19E
:200CA000010CC1F10807BC4208D2274601EB040E03FA0EFECEF5807E4EEA0C0C90F800E0A1
:200CC0000CEA0E0E05FA01F121EA0C0141EA0E0100F8011B0021FD40E41BF61B002CD7D169
:200CE000F0BD8842C8BF0846704702680BE0026806E0026802F8011B090A02F8011B090A90
:200D000002F8011B090A02F8011B02607047017006E00170090A00F8011F090A00F8011F5D
:200D2000090A00F8011F70470178427841EA0221827841EA0241C07841EA00607047012A43
:200D400009DB10F8013B11F801CB634501D001207047521EF5D100207047012A03DB00F837
:200D6000011B521EFBD170474FF0000C02E019460CF1010C002902D44B009842F7D20023BE
:200D8000BCF1000F09D45B00884224BF401A43F001034908BCF1010CF5D502B110601846CB
:200DA000704780B500AAFFF7DFFF009802BD0022DAE780B5002805D500224042FFF7D4FFEB
:200DC000404202BD0022BDE80840CDE738B40B4648B3D118491E012203F0070502FA05F470
:200DE000641EE4B201F007056D1CAA40521ED243D2B2DB08C9081D5C8B4204D142EA040162
:200E000065EA01013CE065EA04041C540C5C64EA02020A54C91A491E05D0FF221818401CBA
:200E200038BC00F07DB831BC704738B40B4628B3D118491E012203F0070502FA05F4641EF4
:200E4000E4B201F007056D1CAA40521ED243D2B2DB08C9081D5C8B4203D142EA040129401B
:200E60000EE02C401C540C5C22400A54C91A491E04D01818401C34BC00F086B831BC704714
:200E8000195431BC704750F8041B61B150F8042BD30744BFA9F101039A18002342F8043B88
:200EA000091FFAD1EFE7704762B38B0708D0521E11F8013B00F8013B00F024808B07F6D15D
:200EC000830740F0208000BF103A07D330B4B1E83810103AA0E83810F9D230BC530724BF02
:200EE000B1E80810A0E8081044BF51F8043B40F8043BD20724BF31F8022B20F8022B44BF45
:200F00000B7803707047083A07D3B1E80810083A40F8043B40F804CBF7D25307E4E70000A9
:200F200062F30F2262F31F42401810F0030308D0C91A1FD3DB0748BF00F8012D28BF20F85C
:200F4000022D130030B414461546103928BF20E93C00FAD8490728BF20E90C0048BF40F8E4
:200F6000042D890028BF20F8022D48BF00F8012D30BC7047C91818BF00F8012DCB0728BF22
:200F800000F8012D704700000022FFF7CDBF0000F7FEFFFF882000006007002004000000AA
:200FA000E829002000000000E36C01000200000002000000186E0100F60500000800002002
:200FC00058070000000000000000000000000000A1780208B9790208BD1E0108A91D0108A0
:200FE000D722010800000000772201085122010800000000000000006D2F0108ED25010811
:20100000C72601087D2901080000000000000000DD2901080000000000000000000000001C
:2010200000000000000000004344435F5553423255415254205278004344435F5553423200
:2010400055415254205478000000000000000000000000000000000000000000A178020845
:20106000B979020891ED010847ED010845EF010819F0010827EF01087FEE0108000000008C
:2010800081F001084FF30108C3E9010817EB01086DEC010887F301080000000000000000E6
:2010A00000000000000000000000000000000000A1780208B9790208C19901080D9A0108BE
:2010C0002D9B01087F9B0108ED9A0108659A010800000000DD9B01083B9C01084397010840
:2010E0002B99010800000000659C0108000000000000000000000000F59B01080000000080
:201100004944534547474552BF7BFFB96B790108056B01086D79010881790108B36E010811
:2011200073740108A1610108736E01081F74010891760108ED77010895790108896802089F
:20114000D57A0108ED7A01086B7901086B790108397B010887710108877001086B79010842
:20116000115F01081B720108217A01087F7301086B7901086B7901086B7901086B7901080D
:201180006B7901086B7901086B7901086B790108156F0108336F0108B16F0108A774010816
:2011A000859201081D9301080D9201083B74010897790108A1600108356101087D6001084E
:2011C00011610108A9790108AF790108B5790108C16C0108E36D01086B7901086B79010898
:2011E0001B700108BB790108C17901086B7901086B7901086B79010859600108ED600108FC
:201200009F740108A3740108016A0108056A0108D579010845AC01086B7901086B7901087B
:201220006B790108499201087570010853710108CF6E01084575010893750108DF88010898
:201240006B790108D96E01086B7901086B7901082B6F01085566020869710108137201089E
:2012600059DD0108E9DD0108297001086BDE010805DF01086B79010899DF01085966020848
:201280006B7901086B790108FB6F01086B7901081F8C0108218B0108878D0108DD8D01081B
:2012A000298E0108458E0108538E0108678E0108758E0108E58E0108479001085D9101084B
:2012C000038D0108A39001080BB30108000000000000000000000000000000000110C0E4BD
:2012E000B210C0E0015EA0EC00000100020003000400050006000700FE00FE0008D009D0D8
:201300000AD00BD00CD00DD00ED0FFD108D109D10AD10BD10CD10DD10ED1FFD30DD30ED31A
:20132000FFD70DD70ED7FFD20DD20ED2FFDB0DDB0EDBC0D3C1D3C8D380D381D382D383D3BF
:2013400084D385D386D387D388D389D38AD38BD38CD38DD38ED38FD390D391D392D393D3A5
:2013600094D395D396D397D398D399D39AD39BD39CD39DD39ED39FD3C7D3C6D30000000024
:20138000A1780208B97902084DFE01084FFD01082B0102087D020208A90002086900020860
:2013A00000000000FF070208DD0902080BFC0108D504020827060208D90702080000000019
:2013C000F10702085D0A020800000000890B02080110C0E4B210C0E0015EA0EC00000100F9
:2013E000020003000400050006000700FE00FE0008D009D00AD00BD00CD00DD00ED0FFD109
:2014000008D109D10AD10BD10CD10DD10ED1FFD30DD30ED3FFD70DD70ED7FFD20DD20ED206
:20142000FFDB0DDB0EDBC0D3C1D3C8D380D381D382D383D384D385D386D387D388D389D3D4
:201440008AD38BD38CD38DD38ED38FD390D391D392D393D394D395D396D397D398D399D344
:201460009AD39BD39CD39DD39ED39FD3C7D3C6D300000000A1780208B9790208C713020859
:20148000C9120208BF1602080118020833160208ED150208000000006D1C0208731C0208DA
:2014A00085110208E51902082B1B0208591C02080000000000000000CB1C020800000000C4
:2014C000F11D020800000000A1780208B97902080000000000000000000000000000000095
:2014E00000000000000000000000000000000000192702083F26020865250208000000009F
:201500000000000000000000000000000000000000000000000000000000248C000044AC2B
:20152000FFFF6324FCFF60140400212420FF043C08008000000000000000248C000044ACE7
:20154000FFFF6324FCFF60140400422420FF043C08008000000000003840485860616263A8
:201560006870787980818283B8B9BABBBCBDC0F0F8000000000810182022282930414250CF
:2015800064656C6D727A84858788C3C8C9CACBD0D8E0E1FAFB909192939495969798999AF7
:2015A0009B9C9D9E9F0000000000000400000000060708090A0606060101010201010101D3
:2015C00000000000A1780208B9790208493B02089D3C02085F3E020899420208F140020874
:2015E0007940020800000000614002086B4702084F3A0208553902085938020800000000FB
:20160000000000000000000000000000000000000000000000020000A1780208B979020869
:201620003D510208055002081D520208735202087B5102084B5102080000000000000000EF
:201640002F530208374C0208214B0208000000000000000000000000000000006F5302082F
:2016600000000000A353020800020000A1780208B979020800000000000000000000000009
:2016800000000000000000000000000000000000000000001D620208CD59020835570208FB
:2016A0002F58020800000000000000000000000057620208000000008B620208B2C2120A4F
:2016C000853B0108F93B01086D3B0108B53A0108BB360108773D01087D3D0108873D010814
:2016E000000000007F3801088B3D0108913D0108873D0108000000007F380108A13001081B
:20170000B7300108BD30010800000000C1300108953D01089B3D01089F3D01080000000048
:20172000A33D0108973A01089F3A0108A73A010800000000AB3A0108008793030800000007
:20174000FF7F0000000000000000000061640108636401086B640108000000006F640108B9
:20176000E97E0108177F01085B7F0108237E010853454747455200004A2D4C696E6B00000B
:201780004F84010853840108098401083D840108898201089D830108C9830108A782010869
:2017A00039830108B1840108089D0000080C101418202C2D00040C101114182024282C3093
:2017C000FFFFFF343500000029670208256702082D670208336702087F670208856702084B
:2017E0004D67020867670208736702088B670208916702089F670208AD670208BB67020817
:201800005D6802082368020800000000E803000000000000556301085B63010800000000F1
:20182000816C0208BF6C0208756D0208A96D0208CF6D02081F6D0208376D02080D6E020861
:20184000716E0208956C0208A36C02085B6E0208C76E02088D6D02088B6C02088B6C020863
:20186000816C0208BF6C02085D6D0208A96D0208ED6D02081F6D02083F6D0208336E0208ED
:20188000716E02088B6C02088B6C02088B6C02088B6C02088B6C02088B6C02088B6C020858
:2018A000515F01087B5F0108A55F0108BD5F010800000000D55F0108D75F0108E75F01088F
:2018C00000000000E95F010881C003000000000081E0030000200000FFFFFFFFFFFFFF9E58
:2018E000E7FFFFFFFFFFFFFFB6EDFFFFFFFFFFFFFF0000A50000000000000000FFFFFFFFCB
:20190000FFFFFFFFFFFFFFFFFFFFFFFFFFFFFFFFFFFFFFFFFFFFFFFF00000000F0000000EF
:201920004A2D4C696E6B00004344432041434D00434443204441544100000000A120000022
:20194000000002000000000000C2010000000800C774020883750208C9750208FD750208AF
:20196000437502086F750208E9760208CD7302087F730208B3730208DF7302082F740208CF
:2019800097760208FF750208BB760208ED760208B1770208000000006175020800000000F8
:2019A000436F6E66696775726174696F6E000000008040C020A060E0109050D030B070F04F
:2019C000088848C828A868E8189858D838B878F8048444C424A464E4149454D434B474F447
:2019E0000C8C4CCC2CAC6CEC1C9C5CDC3CBC7CFC028242C222A262E2129252D232B272F207
:201A00000A8A4ACA2AAA6AEA1A9A5ADA3ABA7AFA068646C626A666E6169656D636B676F6C6
:201A20000E8E4ECE2EAE6EEE1E9E5EDE3EBE7EFE018141C121A161E1119151D131B171F1B6
:201A4000098949C929A969E9199959D939B979F9058545C525A565E5159555D535B575F5A6
:201A60000D8D4DCD2DAD6DED1D9D5DDD3DBD7DFD038343C323A363E3139353D333B373F366
:201A80000B8B4BCB2BAB6BEB1B9B5BDB3BBB7BFB078747C727A767E7179757D737B777F726
:201AA0000F8F4FCF2FAF6FEF1F9F5FDF3FBF7FFF4A2D4C696E6B0000CA08105C01F007017A
:201AC000C84000F00300704780B583680A464168006802F021FE002804BFBDE8014002F0FF
:201AE0000CBE02BDF8B504461546A08F00F00702E36F03EBD000FFF707F8294604F17C00FE
:201B0000FFF7E2FF00281AD4E18F2846FFF7D4FFC0070FD4002604F1880729463846FFF7FA
:201B2000D3FF00280BD4B4F840102846FFF7C4FFC00701D50020F2BD761C642EEDDB4FF012
:201B4000FF30F2BD38B504460D46216804F1A000FFF7BAFF002801D500F0D4BBB4F84410D3
:201B60002068FEF770FF2860002032BD70B504461546E08E00F00702DFF8943C43EA0131AB
:201B8000636E03EBD000FEF7BFFF216804F16400FFF79AFF002823D4208F00F1200120682A
:201BA000FFF78AFFC00748BF218F10D40026216804F17000FFF788FF002811D4608F00F1C6
:201BC00020012068FFF778FFC00706D5618F2068FEF739FF2860002070BD761C642EE6DBEE
:201BE00039E070B504461546208E00F00702DFF8243C43EA0131A36D03EBD000FEF784FF7F
:201C0000608E00F007022946A36D03EBD000FEF77BFF216804F15800FFF756FF00281AD4FA
:201C2000A18E2068FFF748FFC0070FD4002504F1880621683046FFF747FF00280BD4B4F870
:201C400040102068FFF738FFC00701D5002070BD6D1C642DEDDB4FF0FF3070BD10B5044609
:201C6000606A00F01F028A4218D0400951EA4010DFF8A41B0840A16ADFF8A02B114041EAFA
:201C80000002626200212046FFF7ABFF38B92268DFF88C1B2046BDE8104023E7002010BD0C
:201CA00038B504462268DFF87C1BFFF71BFF050005D100AA00212046FFF758FF05460098A9
:201CC00020F010000090024600212046FFF789FF28B92268DFF8501B2046FFF703FF0543B4
:201CE000002200212046FFF77CFF28B92268DFF83C1B2046FFF7F6FE0543072000900722B9
:201D000000212046FFF76DFF28B92268DFF8201B2046FFF7E7FE284332BD2DE9F843044627
:201D2000216804F1E800FFF7CFFE002838D4002504F5807804F1F409DFF8F86A306A00F17A
:201D40000A0721684846FFF7BFFE002828D4B4F84A102068FFF7B0FEC00719D5216840468E
:201D6000FFF7B2FE00281BD4B4F84C102068FFF7A3FEC00711D42268DFF8BC1A2046FFF740
:201D8000B1FE00A92046FFF7DDFE0020BDE8F283306A381A0128D4DA02E06D1C642DCDDB13
:201DA0004FF0FF30BDE8F2832DE9F84F0546884693461E4695F8241001F01F09DFF87CAA11
:201DC00018F8014B5BF8047B242C00F27280DFE804F0131E1E1E1E1E1E1E21232525252529
:201DE0002525252C2E2E2E2E2E2E2E3638384042424A4C4C54666600AF610020761EDFD126
:201E000049462846FFF72AFF0020BDE8F28F3A4621464BE02F62F0E7EF61EEE71021284622
:201E2000FFF71CFF3A46A11E40E0112126E011212846FFF713FF3A46A4F10A0136E01321E8
:201E40001CE013212846FFF709FF3A46A4F10D012CE0172112E017212846FFF7FFFE3A4674
:201E6000A4F1100122E0122108E012212846FFF7F5FE3A46A4F1130118E01B212846FFF754
:201E8000EDFE3A4600212846FFF7ABFE040004D12A6851462846FFF725FE204609E01B2195
:201EA0002846FFF7DBFE3A46A4F116012846FFF798FE0028A2D5BDE8F28F00002DE9F047AD
:201EC00082B004460D4692461F4694F8241001F01F08DFF86C9915F8016B242E00F29F8066
:201EE000DFE806F013212121212121212426282828282828282F3D3D3D3D3D3D3D45535304
:201F00005B6969717E7E86939300A0690090002000994AF8041B7F1EDDD141462046FFF79A
:201F20009DFE00F024BD00AA314675E0206AEDE7E069EBE710212046FFF790FE00AAB11EB2
:201F40006AE011212046FFF789FE226849462046FFF7C8FD002862D100AA00215CE0112154
:201F60002046FFF77BFE00AAA6F10A0154E013212046FFF773FE226849462046FFF7B2FDE7
:201F800000284CD100AA002146E013212046FFF765FE00AAA6F10D013EE017212046FFF717
:201FA0005DFE226849462046FFF79CFD002836D100AA002130E017212046FFF74FFE00AA23
:201FC000A6F1100128E012212046FFF747FE226849462046FFF786FD08BB00AA00211BE0FC
:201FE00012212046FFF73AFE00AAA6F1130113E01B212046FFF732FE226849462046FFF795
:2020000071FD60B900AA002106E01B212046FFF725FE00AAA6F116012046FFF7A7FD00284D
:202020007FF576AFBDE8F68738B5044600A9FFF789FD0098E062216804F1B800FFF744FD42
:2020400000280ED4B4F848102068FEF7FCFC0090B4F8480000F121012068FFF72DFD00F0CE
:202060000105009820616573E06A40F40051E162B4F8420000F00702D4F8943003EBD00022
:20208000FEF742FD216804F19400FFF71DFD2046FFF743FE04F1180200212046FFF766FD5E
:2020A0002268DFF8A0172046FFF71CFD28B904F1280200212046FFF759FDA06A6062206272
:2020C0002268DFF884172046FFF70CFD28B904F11C0200212046FFF749FDA06AC10106D442
:2020E000E16980064CBF081FA1F10800E061E06AC0F3807068B92268DFF818172046FFF709
:20210000F1FC04F1140200212046FFF72FFD0120A0732046FFF7C4FD31BD70B504460D461D
:2021200000220021FFF75DFD28B92268DFF81C172046FFF7D7FC58B9002200212046FFF7B8
:2021400050FD28B92268DFF8E8162046FFF7CAFCDFF8BC66226831462046FFF7C3FC216832
:2021600004F1B800FFF7B0FC00280BD4B4F848102068FEF768FCB4F8480000F12101206895
:20218000FFF79AFC607B48B1226900212046FFF728FD226831462046FFF7A4FC206ADFF854
:2021A00078160840A16ADFF87426114041EA0002626200212046FFF714FD28B92268DFF8BB
:2021C00060162046FFF78EFCE069216AC1F340110843E061024600212046FFF702FD2268F0
:2021E000DFF84C1D2046FFF77DFCA26900212046FFF7F7FCE06A20F40050002D14BF40F46D
:20220000006020F40060E062B4F8420000F00702E16AD4F8943003EBD000FEF775FC216839
:2022200004F19400FFF750FCA07B80B1B4F8460000F007026169D4F8AC3003EBD000FEF777
:2022400063FC216804F1AC00BDE870403CE470BD10B582B0044600A9FFF774FC0098C007A4
:2022600007D5009880045CBF2046FFF7DDFE012016BD002016BD10B582B00446216804F16E
:20228000DC00FFF721FC00281ED400A92046FFF759FC009840F480400090B4F8420000F0E1
:2022A00007020099D4F8943003EBD000FEF72CFC216804F19400FFF707FC216804F1C400C4
:2022C000FFF702FC002802D54FF0FF3016BD2046FFF7BEFF16BD38B50446FFF71EFF21680B
:2022E00004F1D000FFF7F0FB00280BD4642500A92046FFF727FC0098800701D5002032BD7C
:202300006D1EF4D14FF0FF3032BD2DE9FC4F85B081460D461321FFF7A1FC2A46002148467A
:20232000FFF75FFC09F586700090D9F80000019000998968C91D00EBD1000290019ADFF836
:20234000F41B4846FFF7CEFB002862D100988368019A4168006802F0DFF9002859D1012753
:20236000059D02F0CAF9002853D1109E1C2D55D301A850F827402246DFF8B81B4846FFF7AD
:20238000B1FB002845D10098836822464168006802F0C2F900283CD187F00107DDF8188089
:2023A00001A850F8270004900024B9F84EA0B9F8500003904FF00E0B0AF12001D9F80000D5
:2023C000FFF77AFBC00701D400241AE051460498FEF739FB01464046FEF79BFC08F104081E
:2023E000641C03988244BBF1010BE5D14EB1B06800EB8400B060F168884202D330463168F1
:202400008847069800EB840006902D1B02F075F910B14FF0FF3037E0002CA7D1DDF818804B
:2024200087F0010001A951F8200000900027B9F84E40B9F850A04FF00E0B04F12001D9F83B
:202440000000FFF739FBC00701D4002719E021460098FEF7F8FA01464046FEF75AFC08F19F
:2024600004087F1C5444BBF1010BE6D14EB1B06800EB8700B060F168884202D3304631680E
:2024800088470598401B381807B0BDE8F08F2DE9F84F04460F4692469B461321FFF7DEFB92
:2024A0003A4600212046FFF79CFB0A98012101FA00F728B1022806D038BFDFF87C8A04E041
:2024C000DFF8788A01E0DFF8788AA08F00F007024146E36F03EBD000FEF716FBE08E00F046
:2024E0000702DFF8601A636E03EBD000FEF70CFBD04604F18809216804F17C00FFF7E4FA8D
:2025000000285FD4E18F2068FFF7D6FA10F0010612D1002521684846FFF7D6FA002851D469
:20252000B4F840102068FFF7C7FA10F0010603D16D1C642DEED345E0002E43D0216804F1C6
:202540006400FFF7C1FA00283CD4208F00F120012068FFF7B1FA10F0010619D100252168A5
:2025600004F17000FFF7B0FA00280BD4608F00F120012068FFF7A0FA10F0010602D16D1CD3
:20258000642DECD3618F2068FEF75DFA26B919E0218F2068FEF757FA012F08D0022F09D0BF
:2025A000042F02BF01465846FEF7B3FB06E08BF8000003E081B25846FEF7A9FBBB44B8F141
:2025C000010898D100A92046FFF7BCFA002805D40098400602D40098000603D54FF0FF3035
:2025E000BDE8F28FAAEB0800BDE8F28F2DE9F54F81B088469A4616460C980C900D9F022847
:202600002FD15446C1460E2E25D314F0030022D135464FF40060B5F5006F98BF28460E21C0
:20262000FEF7C5FBC0EBC0014FEA410B009723465A4649460198FFF768FE002840D45845F7
:2026400006D109EB800904EB80042D1A0E2DE0D2701B01D534E00020361A08EB80080AEB2A
:20266000800A5EB3002F0C981ED08640FC68B44288BF34460C98009053460C9824FA00F29C
:2026800041460198FFF703FF002819D4B8682018B860F968884202D3384639688847A044CB
:2026A000A244361BE2D109E000905346324641460198FFF7ECFE002802D4361A0298801B23
:2026C00003B0BDE8F08F2DE9F04782B004460F4692461E461321FFF7C1FA3A4600212046DD
:2026E000FFF77FFA0A98012101FA00F728B1022806D038BFDFF8508804E0DFF8508801E0C2
:20270000DFF84C88A08F00F007024146E36F03EBD000FEF7F9F9208E00F00702DFF834189E
:20272000A36D03EBD000FEF7EFF9D04604F188093178022FA2BF707841EA0021032F05DBD1
:20274000B078F278120642EA00400143608E00F00702A36D03EBD000FEF7D6F9216804F128
:202760005800FFF7B1F9002841D4A18E2068FFF7A3F910F0010012D1002521684846FFF7C5
:20278000A3F9002833D4B4F840102068FFF794F910F0010003D16D1C642DEED327E030B3CD
:2027A000216804F17C00FFF78FF900281FD4E18F2068FFF781F910F0010012D1002521688C
:2027C0004846FFF781F9002811D4B4F840102068FFF772F910F0010003D16D1C642DEED359
:2027E00005E000281CBFBE19B8F10108A0D100A92046FFF7A7F9002805D40098400602D49D
:202800000098000600D5B5E0AAEB0800BDE8F687150E00EE150E10EEDFFFFFFE20000001C3
:2028200000F02FE1300F11EE300F01EE1E0F07EE100FEFEE340000200000A0E100F069E1FF
:2028400000004FE100000FE10F00A0E1150F07EE2DE9F04782B004460F4615461E4613219E
:20286000FFF7FCF9324600212046FFF7BAF904F58C76B4F852000E210091B4F8543000F0EC
:2028800007023946D6F800C00CEBE000FEF75CF907F13808D4F8203122687168306801F0C0
:2028A0003BFF002862D14FF0000904F1880A6D1E3DD089F0010909EB490004EB800000F5F8
:2028C0008C76B4F852000E210091B4F8543000F007024146376807EBE000FEF735F908F1FB
:2028E000380801F00AFF002840D1B4F856102068FFF7E2F8C00711D4002721685046FFF713
:20290000E3F8002832D4B4F840102068FFF7D4F8C00703D47F1C642FEFDB27E0D4F82031AE
:2029200022687168306801F0F7FEF8B9BFE701F0E4FED8B9B4F856102068FFF7BDF810F0B6
:20294000010012D1002721685046FFF7BDF800280CD4B4F840102068FFF7AEF810F0010079
:2029600003D17F1C642FEEDB00E000B902E00020BDE8F6874FF0FF30BDE8F6872DE9F047F2
:2029800004460D46164698460E2E21D318F003001ED100274FF4006907E0CAEBCA004000BD
:2029A00015EB800508EB8008C719F01B0E2812D3B0F5006F28BF48460E21FEF7F8F98246AB
:2029C0002B46524641462046FFF742FF0028E4D50020BDE8F0873846BDE8F0874AF2D062A5
:2029E000904238BF0621084670472DE9F04FA1B005462B1D01A802F0D3FC00208DF8280072
:202A000005208DF858000522022101A802F0FCFB052216A901A802F030FC05221D2101A81D
:202A200002F0F2FB00208DF85400DFF8281514A8FEF76FF9212214A901A802F01EFC044692
:202A40000522002101A802F0DFFB002109A8FEF760F90123222209A901A802F054FC064648
:202A6000212209A901A802F008FC6E862C862030A88605F1580101A802F06CFCDFF8D86439
:202A800017A806CE06C0083E05208DF82F000246022101A802F0B8FB05220DF12F0101A807
:202AA00002F0EBFB05221D2101A802F0ADFB00208DF84C00DFF88C1412A8FEF72AF9212219
:202AC00012A901A802F0D9FB0446012101A802F073FB05220C2101A802F096FB222217A9D3
:202AE00001A802F0CAFB2887EC8605F1640101A802F030FC222219A901A802F0BEFB6887EA
:202B000005F1700101A802F025FC05221D2101A802F07AFB00208DF84400014610A8FEF740
:202B2000F8F8212210A901A802F0A7FB0446012101A802F041FB00208DF83C0001460EA84B
:202B4000FEF7E7F821220EA901A802F096FBAC872030E88705F17C0101A802F0FBFB212242
:202B600019A901A802F089FB2030A5F8400005F1880101A802F0EEFB01208DF82E00052249
:202B8000022101A802F040FB05220DF12E0101A802F073FB0522002101A802F035FB20228A
:202BA00019A901A802F069FBA5F8420005F1940101A802F0CFFB01208DF82D000522022168
:202BC00001A802F021FB05220DF12D0101A802F054FB05220C2101A802F016FB202219A9FD
:202BE00001A802F04AFBA5F8440005F1A00101A802F0B0FB05208DF82C000246022101A84D
:202C000002F002FB05220BA901A802F036FB0522002101A802F0F8FA222219A901A802F0A8
:202C20002CFBA5F8460005F1AC0101A802F092FB05208DF803000246022101A802F0E4FA2E
:202C400005220DF1030101A802F017FB05220C2101A802F0D9FA222219A901A802F00DFB33
:202C6000A5F8480005F1B80101A802F073FB0522082101A802F0C8FA032101A802F09CFAB5
:202C800005F1C40101A802F065FB0522042101A802F0BAFA012101A802F08EFA05F1D001D7
:202CA00001A802F057FB06231F22002101A802F067FA05F1DC0101A802F04CFB04208DF842
:202CC00002000522022101A802F09EFA05220DF1020101A802F0D1FA0522002101A802F004
:202CE00093FA00208DF834009C490CA8FEF711F821220CA901A802F0C0FA05F1E80101A802
:202D000002F028FB012101A802F056FA212219A901A802F0B2FA2030A5F84A0005F1F40123
:202D200001A802F017FB01208DF801000522022101A802F069FA05220DF1010101A802F035
:202D40009CFA05220C2101A802F05EFA202219A901A802F092FAC01DA5F84C0004208DF8FC
:202D600000000522022101A802F04EFA052200A901A802F082FA0522002101A802F044FA1E
:202D800005F5807101A802F0E5FA00274FF48054A0460DF124090DF1300A00208AF80400A1
:202DA00005208DF800000522022101A802F02CFA052200A901A802F060FA05221D2101A88B
:202DC00002F022FA002089F80400654840EA080109A8FDF79EFF212209A901A802F04DFA47
:202DE0000522002101A802F00FFA00210CA8FDF790FF012322220CA901A802F084FA834690
:202E000021220CA901A802F038FA17B9A5F852B007E0012F05D1B5F85200ABEB0000A5F85F
:202E200054007F1C08F580580E2FB6DB05221D2101A802F0E9F900208DF8340049490CA8FF
:202E4000FDF767FF21220CA901A802F016FA012101A802F0B1F900208DF82800002109A86F
:202E6000FDF757FF212209A901A802F006FA2030A5F8560005F58C77394601A802F06AFABA
:202E80003A4605F5927101A802F049FA0027DFF8D8800CA806CE06C0083E05208DF8000043
:202EA0000522022101A802F0AFF9052200A901A802F0E3F905221D2101A802F0A5F9002080
:202EC00089F8040048EA040109A8FDF722FF212209A901A802F0D1F9012101A802F06CF9F4
:202EE00005220C2101A802F08FF922220CA901A802F0C3F917B9A5F84E0006E0012F04D165
:202F0000B5F84E10401AA5F850007F1C04F580540E2FBEDB05F5867101A802F01BFA0698E2
:202F2000286007980899A0EB410021B0BDE8F08F10FF2FE1FE7FB0E8B210D0E00110D0E49D
:202F4000041090E4151E00EEB210C0E00110C0E4041080E4151E10EEC40F01089A0F07EE8E
:202F6000150E10EEFE7FA0E8150E00EE70B504460D4616464FF4987200212846FDF7EDFE41
:202F8000042204F10C01281DFDF78EFF2068A86060792873A6F5987205F598712846BDE884
:202FA000704022E5DFF800F0ED040020DFF800F059060020DFF800F0F9040020DFF800F091
:202FC00091050020F0B5059C069E079D01F00F0103F0030306F0030C4E00032707FA06FE31
:202FE0006FEA0E07CAB9012202FA01FE002C446814BF4EEA040424EA0E04446002FA01F125
:20300000002D14BF01834183816839400CFA06F421438160016839402EE0541EE4B2102C8D
:2030200021D284683C400CFA06F52C438460521E0F24082909D28900056A8C4025EA040457
:2030400002FA01F12143016209E008398900456A8C4025EA040402FA01F121434162016818
:203060003940022208E0122A016803D139404EEA010103E039400022B24011430160C16851
:20308000394003FA06F21143C160F0BD70B584B0089E099D0A9C02940195009601F07EBA6A
:2030A00010B582B004460846DFF83C1B09680091DB0001F05FBB10B501F055BB00207047CE
:2030C00070B584B001F02DFF08B902F06BFADFF81C4B0020029002200190002000900023EC
:2030E000024603212046FFF76DFFDFF8045B012002900220019000200090034611220821AB
:203100002846FFF75FFFDFF8EC6A002002900220019000200090034611220E213046FFF794
:2031200051FF0020029002200190002000900346024601212046FFF745FF00200290022003
:20314000019000200090034611220C213046FFF739FF002002900220019000200090034683
:20316000112202213046FFF72DFF0020029002200190002000900346024602212846FFF734
:2031800021FF0120029002200190002000900346112206212046FFF715FF00200290022012
:2031A0000190002000900346024606212846FFF709FF01200290022001900020009003464B
:2031C000024602212046FFF7FDFE0020029002200190002000900346024608213046FFF7F2
:2031E000F1FE0020029002200190002000900346112209212846FFF7E5FE0020029002200A
:203200000190002000900346112207212046FFF7D9FE002002900220019000200090034638
:20322000112208212046FFF7CDFE002002900220019000200090034611220A212046FFF7F3
:20324000C1FE0020029002200190002000900346112201213046FFF7B5FE00200290022009
:203260000190002000900346112205212846FFF7A9FE002002900220019000200090034602
:20328000092207212846FFF79DFE0020029002200190002000900346112204212846FFF7C2
:2032A00091FE0020029002200190002000900346112205212046FFF785FE00200290022015
:2032C000019000200090034611220D213046FFF779FE0020029002200190002000900346C2
:2032E00011220F213046FFF76DFE01F01AFE08B902F047F900F040BE2DE9F04F85B00446D6
:20330000DFF88CBD0020CBF80000DFF8E8580290022001900020009000230246082128469C
:20332000FFF750FEDFF8C8680020029002200190002000900346112208213046FFF742FEDC
:20334000002002900220019000200090034611220E212846FFF736FEDFF890780120029083
:2033600002200190002000900346112206213846FFF728FE00200290022001900020009098
:203380000346112206213046FFF71CFE002002900220019000200090034611220C212846D8
:2033A000FFF710FE0020029002200190002000900346112202212846FFF704FE002002903D
:2033C00002200190002000900346024603213846FFF7F8FD00200290022001900020009057
:2033E0000346024602213046FFF7ECFD00200290022001900020009003460246022138467D
:20340000FFF7E0FD0020029002200190002000900346024601213846FFF7D4FD002002901A
:2034200002200190002000900346112209213046FFF7C8FD0020029002200190002000903D
:203440000346112207213846FFF7BCFD002002900220019000200090034611220821384663
:20346000FFF7B0FD002002900220019000200090034611220A213846FFF7A4FD0020029026
:2034800002200190002000900346112201212846FFF798FD0020029002200190002000901D
:2034A0000346112205213046FFF78CFD002002900220019000200090034611220721304646
:2034C000FFF780FD0020029002200190002000900346112204213046FFF774FD4FF000089F
:2034E000DFF8B00BB0FBF4F050380390DFF8A80BB0FBF4F002900DF104090DF1040A2AE0C4
:20350000286820F0300040F0100028600220388340203883386820F4405040F4805038603B
:20352000042030834FF48070288340207883642002F01BFB4FF480706883642002F015FB4B
:2035400040203883BE2002F010FB04207083386820F440503860DFF8900603990160DFF841
:20356000C40E0299016000249D208DF8040043208AF8010075208AF80200C0208AF80300AF
:203580000020ADF80000DBF8000030B1022300AA042101A801F02CFC05E0022300AA042123
:2035A00001A8FFF703FD022809D19DF800009DF8011040EA012040F22321884254D0641CFE
:2035C000022CD1DB0120CBF8000040203083306820F4405040F48050306004203883002447
:2035E0009D208DF80400432089F80100752089F80200C02089F803000020ADF80000DBF88C
:20360000000030B1022300AA042101A801F0F0FB05E0022300AA042101A8FFF7C7FC0228EB
:2036200009D19DF800009DF8011040EA012040F22321884218D0641C022CD1DB0420788389
:20364000306820F4405030600020CBF80000B8F1020F09DA08F10108B8F1010F07BF042079
:203660002883042068834BE702207883286820F030002860DFF8700503990160DFF8A40D18
:2036800002990160002005B0BDE8F08FDFF80C0A81884FF6FC7211408180DFF8C41D8A8870
:2036A0004FF6FC731A408A8002884FF6BF731A400280088818400880704770B584B0DFF8BE
:2036C0002C450020029002200190002000900023024601212046FFF775FCDFF818550020A6
:2036E00002900220019000200090034611220C212846FFF767FC00200290022001900020E0
:2037000000900346112202212846FFF75BFC002002900220019000200090034602460E21EA
:203720002846FFF74FFC0020029002200190002000900346024606212046FFF743FCFFF77C
:20374000A5FFDFF85809018841F4A2710180DFF8101D0A8842F4A2720A8002894FF4B473DC
:203760001A421CBF828902890A891A421CBF8A890A89002282818A8102899207FCD50A8954
:20378000920740F26912FAD503891342FCD00B891342FCD0828902898A890A8902884FF6A7
:2037A000BB631A4002800A881A400A800222828003228A80028842F040020280088840F004
:2037C000400008800020029002200190002000900023024608212846FFF7F4FBDFF81064DA
:2037E0000120029002200190002000900346024608213046FFF7E6FB012002900220019046
:20380000002000900346024606213046FFF7DAFBDFF8300E01210180206820F4705040F4B7
:203820002050206028688001800940F028402860306820F4405040F40050306002910220D9
:203840000190002000900346024602213046FFF7B9FB0120029002200190002000900346F4
:20386000024602212046FFF7ADFB01200290022001900020009003460246032119E370B5ED
:2038800084B0DA4C0020029002200190002000900023024601212046FFF794FBD54D0020FF
:2038A00002900220019000200090034611220C212846FFF787FB00200290022001900020FF
:2038C00000900346112202212846FFF77BFB00200290022001900020009003460246082110
:2038E0002846FFF76FFBC24E0120029002200190002000900346024608213046FFF762FB51
:20390000002002900220019000200090034602460E212846FFF756FB0020029002200190B8
:20392000002000900346024606212046FFF74AFB01200290022001900020009003460246D7
:2039400006213046FFF73EFB0120029002200190002000900346024603212046FFF732FB47
:203960000120029002200190002000900346024602213046FFF726FB01200290022001908A
:20398000002000900346024602212046FFF71AFB00200290022001900020009003461122C1
:2039A00009213046FFF70EFB0020029002200190002000900346112207212046FFF702FB56
:2039C0000020029002200190002000900346112208212046FFF7F6FA00200290022001907C
:2039E00000200090034611220A212046FFF7EAFA002002900220019000200090034611229F
:203A000001212846FFF7DEFA0020029002200190002000900346112205213046FFF7D2FA59
:203A20000020029002200190002000900346112207213046FFF7C6FA00200290022001903C
:203A4000002000900346112204213046FFF7BAFA0020029002200190002000900346112264
:203A600005212046FFF7AEFA002002900220019000200090034611220D212846FFF7A2FA5D
:203A8000002002900220019000200090034611220F2128466EE21146DA0002F06DB8114608
:203AA0001A4602F069B80020704780B502F066F8002002BD30B583B0DFF8D44B2069800938
:203AC00000F00100029002200190002000900023024606212046FFF775FA464D2869800BF4
:203AE00000F0010002900220019000200090034602460E212846FFF765FADFF8640C0169AC
:203B0000890901F00101029102210191002100910B460A460621FFF755FA00200290022045
:203B20000190002000900346112205212046FFF749FA0020029002200190002000900346A5
:203B400011220D212846FFF73DFA002002900220019000200090034611220F212846FFF744
:203B600031FAFFF793FD002003B030BDDFF8A40B0068800204D5DFF8D40C00680001FAD59C
:203B80000020704730B4DFF8A04B2360DFF89C4B4FF074652560E1656365216D41F00101FB
:203BA0002165DFF88C1B0D603D244C604867CB66886E40F001008866CA654B65086D40F00E
:203BC00001000865202B88BF2023DFF8840CD900491E018601218182018841F00101018012
:203BE000002030BC70470000BC0E00200000024000080240000402402DE9FC4E82B08346EB
:203C00008A4699465FEAD90412D02346FFF7BAFF0546FFF7ABFF09F0070915B9B9F1000F5A
:203C200001D12846A4E0A244A344029820440290DFF85C5A2869400647BF4020288340208E
:203C40006883DFF85C444FF48040216949044CBF20836083DFF8446430884FF6BF710840A3
:203C60003080DFF8FC77388808403880286820F4705040F48050286020688001800940F0D8
:203C800080502060DFF8D80A006820F4405040F48050DFF8CC1A0860C9F108009AF8001082
:203CA00081408DF801109BF8001001FA00F08DF800004B46029A51465846FFF77BF9FFF7D8
:203CC000E5FC308840F4A2703080388840F4A270388030894FF4B47108421CBFB08930895F
:203CE000388908421CBFB88938899DF80100B0819DF80000B88130898007FCD538898007EE
:203D000040F26910FAD531890142FCD039890142FCD0B0893089B889388930884FF6BB6182
:203D2000084030803888084038800220B0800320B880308840F040003080388840F0400016
:203D40003880286820F4705040F42050286020688001800940F028402060DFF8040A006824
:203D600020F4405040F40050DFF8F4190860002004B0BDE8F08E80B5DB0000E080B5FFF7BD
:203D800019F9002002BD00207047DB00FCF7B8BAFCF7B6BADB00FCF74BBCFCF749BC0020CB
:203DA000704770B584B0DFF8E8480020029002200190002000900023024601212046FFF7EE
:203DC00001F9B74D002002900220019000200090034611220C212846FFF7F4F80020029025
:203DE00002200190002000900346112202212846FFF7E8F800200290022001900020009068
:203E00000346024603212046FFF7DCF8DFF85069012002900220019000200090034611229B
:203E200008213046FFF7CEF8002002900220019000200090034611220E212846FFF7C2F849
:203E40000020029002200190002000900346024608212846FFF7B6F800200290022001901C
:203E6000002000900346024606212046FFF7AAF80020029002200190002000900346024636
:203E800006213046FFF79EF80120029002200190002000900346024602213046FFF792F839
:203EA0000120029002200190002000900346024602212046FFF786F80020029002200190F9
:203EC000002000900346112209213046FFF77AF8002002900220019000200090034611221D
:203EE00007212046FFF76EF80020029002200190002000900346112208212046FFF762F868
:203F0000002002900220019000200090034611220A212046FFF756F80020029002200190D6
:203F2000002000900346112201212846FFF74AF800200290022001900020009003461122FC
:203F400005213046FFF73EF80020029002200190002000900346112207213046FFF732F84A
:203F60000020029002200190002000900346112204213046FFF726F8002004B070BD2DE9EA
:203F8000F04188B0044604A8DFF8381A0A680260FFF707FFDFF8300AB0FBF4F00C384EBFD8
:203FA0004FF0FF34052190FBF1F43E4D2C600722002105A8FCF7D1FE0722002100A8FCF744
:203FC000CCFE1F208DF8000000A8202141708021417101208DF80600382302AA00A905A85D
:203FE000FCF726FB9DF80A009DF80B1040EA01200005000D532845D0DFF8D0694FF4807826
:20400000A6F80080022001F0B0FD202004A9DFF8502740235383136823F4405343F480531F
:204020001360DFF86C3604271F8340275F831F6827F4405747F480571F600427178301E00E
:20404000092802DB4FF0080C00E08446A0EB0C0011F801EB5FEACE7747BF40271F834027C5
:204060005F8317834FEA5E0E5783BCF1010CF1D10028E5D1022001F078FDA6F802800A2019
:2040800001F073FD2C60DFF8640C08B0BDE8F081200F002000389C1C0024F4000030014056
:2040A00000040240BC0E00202DE9F04184B0DFF86446206840F4C00040F0070020606069D8
:2040C00040F002006061606940F480506061206940F480402061DFF8B8754FF02050386016
:2040E000DFF8C85580202860DFF8746600203060F06840F08060F0603069DFF8D488400B74
:2041000000F0010080F0010088F800004FF0C840F860DFF8C008E860DFF8BC08F060DFF875
:20412000BC0810210160386A20F470003862386A40F4A0003862386A20F070603862386A9B
:2041400040F0A0603862686A20F470006862686A40F4A0006862686A20F070606862686AB7
:2041600040F0A0606862686A000100096862686A40F0A0406862306A20F070603062306A4D
:2041800040F040703062706820F040007060B86820F44050B860B86840F48050B860A8688D
:2041A00020F04050A860A86840F08050A860B06820F44050B060B06840F48050B060002027
:2041C0000290019000900023122201463846FEF7F9FE00200290019000900346122201468D
:2041E0003046FEF7EFFE00200290019000900346122201213046FEF7E5FE00200290019064
:2042000000900346122203213046FEF7DBFE98F8000048B100200290019000900023122276
:2042200004213846FEF7CEFE01200290002001900090002302460B212846FEF7C3FE01204A
:204240000290002001900090034602460A212846FEF7B8FE00200290019000900346024652
:2042600008212846FEF7AEFE01200290002001900120009000231A4607212846FEF7A2FE43
:204280000020029002200190002000900346024603213846FEF796FE0020029002200190E8
:2042A000002000900346024602213046FEF78AFE0020029002200190002000900346024601
:2042C00002213846FEF77EFE0020029002200190002000900346024601213846FEF772FE21
:2042E0004FF4006028834FF4806028832883606940F480606061DFF8700900210160DFF8B0
:204300006C0940F2013141604FF4907101604FF44011816242F66D1101630121C16040F278
:2043200009218160DFF8881910220A70DFF884194FF480220A60226842F480022260DFF8F0
:20434000EC2393685B085B009360DFF8A4391F6A9768FF07FBD43D231360DFF898391361A2
:20436000DFF8943953610423D360DFF8903993600023D361936843F001039360436843F09E
:204380008043436098F8000048B1206940F000502061DFF86C0903230360002383604FF486
:2043A00080706883DFF8A80401238381038B43F068030383DFF84C394FF400441C808C2397
:2043C00003804FF480534B60018C41F001010184DFF8B009DFF8B0198160002343614FF439
:2043E0000133036001620021C162DFF8A0198161DFF8BC09906500205066DFF8C809106589
:2044000040F28320DFF8C01908801549088004B0BDE8F081DFF8B80B0078042818BFFEF7D5
:20442000CDBD05E3240F0020DFF8BC09006848B1DFF8A00B006840F6E4414843C01264288C
:2044400038BF00207047DFF8900B0DE0DFF89C090068400A0AE0DFF8800B0068000A05E05E
:2044600000380040DFF884090068C00900F00100704780B5FFF7D8FF08B9012002BDDFF80D
:204480006C090068400900F0010002BDDFF8480B0068800AEAE7DFF8441B29E170B584B0C0
:2044A00072B6AF4C7A4D01F055F9002847D1029002200190002000900023024603212846A1
:2044C000FEF780FD0020029002200190002000900346024601212846FEF774FD012002901B
:2044E00002200190002000900346112208212046FEF768FD6D4E00200290022001900020B4
:204500000090034611220E213046FEF75BFD002002900220019000200090034611220C21DF
:204520003046FEF74FFD0020029002200190002000900346112202213046FEF743FD62B64D
:204540000020029002200190002000900023024602212046FEF736FD0020029002200190C5
:20456000002000900346024602212846FEF72AFD01200290022001900020009003461122BB
:2045800006212846FEF71EFD0020029002200190002000900346112206212046FEF712FD54
:2045A00004B070BD10B5DFF8AC49207858BB012001F0DBFA4FF4FA70FEF7F4FCDFF89809ED
:2045C00080210180012001F0D0FADFF8900900210160DFF80C0A0160DFF8080A0160DFF87C
:2045E000080A0160DFF8040A0160DFF8040ADFF8041A0322002320F8023B41F8043B521EA3
:20460000F9D10120207010BDDFF8480900210170DFF8B803802101807047DFF8B00308E0BB
:20462000DFF8340905E002E0DFF8CC0901E0DFF8CC094FF4807101807047DFF8C4094021F5
:20464000418304E014040140114840210183016821F4405141F480510160DFF89C09042104
:2046600001807047DFF89C094FF48041418303E00E484FF480410183016821F0405141F0C1
:2046800080510160DFF88009082101807047000000000240324840214183016821F4405137
:2046A00041F480510160DFF86009D8E7000402402B4840210183016821F4405141F48051E1
:2046C0000160DFF84409CAE7254840214183016821F4405141F480510160DFF82C1904225A
:2046E0000A80402101837047DFF8200900687047DFF8DC08007801F078BCDFF814090068C1
:204700008068004710B5DFF8084924682468A04710BD00003038024010B5DFF8F4482468A3
:204720006468A04710BD0000280F00200864024008600240DFF898180978012902D003291A
:2047400004D007E0DFF8CC18012206E0DFF8C818642202E0DFF8C4180822828001607047C4
:204760000008024010B582B004460846DFF8B018096800912146FBF723FE002016BD2DE93C
:20478000F843064672B601F007FD01F05BFEDFF89408016841F007010160DFF8687838685E
:2047A00020F4400040F480003860386820F4401040F4801038604FF4006038834FF4806474
:2047C0007C834FF0C80942F21078DFF85C587F2028604046FEF7E6FBB9F10109F7D1022E54
:2047E0001ADB761E46F2A8197F2028603C834846FEF7D8FB7F2028604846FEF7D3FB7F20E4
:2048000028607C834846FEF7CDFB7F2028604846FEF7C8FB761EE7D164267F2028604046D6
:20482000FEF7C0FB761EF8D1BDE8F143B7E0DFF8FC07012101600120A1E7DFF8EC077F218B
:2048400001607047DFF8E80770470000006002400004014070B506460C46DFF8C457002007
:204860002860032E05D1DFF8CC07844203D2044601E0012E49D000F054FB08B900F092FE71
:20488000062E00F28A80DFE806F0044088666B6F840034B140F6B830844202D3FEF70DFFFC
:2048A00004E0FEF7ECFFFEF7F1FE5CB3DFF88807844224D204EB44008000DFF880170918DD
:2048C000B1FBF0F0001F48BF0020286040F6B83084420BD3DFF84407B0FBF4F0401EDFF8D6
:2048E000601700220A804208CA60486040F6B83084422CBFDFF84C57DFF84C5726E0002090
:204900002860E7E7DFF8445720E0FEF7D9FBDFF80407844228BF4FF0FF3009D2DFF8FC0655
:2049200004EB44014900B0FBF1F0C01E48BF00202860DFF81C57012E08D100F0F2FA28B9D2
:20494000DFF88C060121017000F01BFEDFF8BC060460284670BD2046FEF7CEFC0546F5E76E
:204960002046FFF70CFBF9E701F008F9DFF8E406844209D204EB44008000DFF8C01609181F
:20498000B1FBF0F0001F00D500202860DFF8C856DCE7204601F0F3FFE0E70025D6E772B61D
:2049A00001F050FDDFF8B406016841F002010160DFF8AC06FEF7F6FADFF8A806DFF8A816A2
:2049C0000160FEE7BC16010800E1F50518040240DD27002000150400000040500C0C024056
:2049E0000C2825D8DFE800F0070B0E11142424242424181C2000DFF85C0500787047DFF844
:204A00005C0507E0DFF8DC0504E0DFF8DC0501E0DFF8D80500687047DFF8D4050088704757
:204A2000DFF8CC0540887047DFF8C405808870474FF0FF307047F8B5AF48DFF830160A6898
:204A400083681B0512EB1353DFF824261468641C082C30D1DD10DFF87C351D60002400235D
:204A6000DFF8106636781EB340F27C667543AD12DFF804663560B5F5487F03DADFF8FC5593
:204A80002B600BE0B5F57A7F08DBDFF8F0653768EF1B48BF7F42642FA8BF3560DFF8DC55E6
:204AA0002D684FF42F767543AD12DFF8D4653560CD4D01262E6014600B60DFF898140978AB
:204AC00000297AD0DFF818251168491C1160DFF8B4255278C2B902681205120D40680005BE
:204AE000B2EB105004D4DFF8A0255043C00901D5002005E0DFF894259042A8BFDFF89005D9
:204B0000DFF8E024106002E0DFF8D8040068DFF8D82413688342B8BF03461360642906DB99
:204B2000DFF8C8140A688242B8BF02460A60DFF8C414DFF8602590420EDB0868401C086069
:204B4000DFF8AC241388834238BF1080022809D3DFF80804012128E000220A60DFF83825F4
:204B600090420EDB4868401C4860DFF884245388834238BF50800A2809D3DFF8E0030221F5
:204B800013E000224A60DFF81425904213DB8868401C8860DFF858249188814238BF90801C
:204BA00028280AD3DFF8B4030321016001F035FF01F040FF01E000208860DFF8E4048168CF
:204BC0004908490081608168C907FCD43D210160816841F001018160DFF8C804016841F4D4
:204BE00080610160DFF8C004016841F001010160016841F080410160BDE8F14000F02BBD71
:204C0000DFF8A8044FF480210160DFF89C040168490849000160DFF88C04016821F480612B
:204C20000160704710B1012804D07047CA484FF4006102E0C8484FF480610180704710B122
:204C4000012805D07047DFF868044FF4006103E0DFF85C044FF480610180704770477047D4
:204C6000DFF85004704700000423014004220140DFF844044FF480510160234841F6FE71DE
:204C80000182DFF838140A682023202A98BF1346D21A0A600BD0202A88BF2022D100491E83
:204CA000018601218182018841F001010180704712E400E000E100E0DFF80404018880884D
:204CC0000F22114211D1DFF8FC134A696AB10A6910700869401C0A684B689B18984208BF81
:204CE000104608614869401E4861704710170108340000204C220140D40E002000550004F8
:204D0000007400404404014000040140DFF8B4038161026043600261436100218160C16072
:204D20008069DFF8A41301EB5001B1FBF0F0082838BF082004D3B0F5004F28BF47F6FF7086
:204D4000802181F3118800BF00BFD6490A6842F020020A60002181F31188DC49C20800F0CB
:204D6000070040EA021008804AF224008880002008818881D64800210170D648802101607E
:204D800070470000586002400C38004040040100D14801884FF6DB7211400180CF48016813
:204DA00041F020010160016821F02001016070470C30014072B6C34A53690B6011690160D9
:204DC00062B67047400400060030014072B6BD490A69824231BF801A4B689A1A80184861B2
:204DE00062B67047BE487047100F0020100802402DE9F04704464FF000090020804E40275A
:204E00003783376827F4405747F4805737607A4F04253D80DFF8CCC214F8015B6D0045F4BC
:204E2000C06E01290CBF4FF00A084FF00B085FEACE7547BF4025358340257583DCF800507C
:204E40004FF0400AA7F802A000BF00BF00BFA7F800A06D1EF6D14FEA5E0EB8F10108E6D1AC
:204E6000491ED9D1316821F440513160042179804FF47A710D4640247C8000BF00BF00BF15
:204E80003C803469640634D4DCF800406400A51E40247C8000BF00BF00BF3C806D1EF8D15F
:204EA00008244FEA590935696D0648BF49F08009DCF80050D646A7F802E000BF00BF00BF53
:204EC000A7F800E06D1EF5D1641EEAD102F8019B401C5B1ECED1DCF8001001EB4101402247
:204EE0007A8000BF00BF00BF3A80491EF8D1BDE8F0876D1EBFD1EEE718B47B4C246804B1B1
:204F000006E008E018B4784C246804B100E002E001B010BC6CE701B010BCFEF747B80020CF
:204F2000704780B50122892100A801F058F99DF80000012801D1002002BD012002BD10B5BA
:204F40000C460C2C28BF0C2422466849FBF7ACFF204610BDDC2700201A040240080F00200D
:204F600030B583B00C46032828D1614D244864B100210291022101910021009100230A46E6
:204F80000621FEF71FF801200AE002910221019100210091002311220621FEF713F800203C
:204FA000029002200190002000900023024602212846FEF707F84F48046001E0042802D131
:204FC000012003B030BD6FF0010003B030BD0000E62700200C0F00201000024040420F00C5
:204FE000040F0020F80E0020FC0E0020000F0020F00E0020E40E0020180802401A08024009
:20500000000002400004024018000240140F002030010020001BB70000C2EB0B000E270754
:20502000BC0E002030380240002C0040082C0040905F0100A0860100C0C62D00FF0D2707F8
:2050400028040140C0160108D4160108E8160108FC16010800127A002417010804080050C3
:2050600020A107000CED00E00400FA05300F00202C0F0020DD270020180F00201C0F00201C
:2050800008740040C00E0020544B0600414B4C00404B4C00C1C62D0041420F00811A06002B
:2050A00008640240443802400822014080E200E018040240FF3F012084E200E0280F00207D
:2050C00000140140340F0020008793030814014047E400E008E100E00C10014024380240CF
:2050E00038170108240F0020200F0020107AFF1F00080240E81700200120704781690029BA
:2051000048BF00214910426942608A188260C90001610021C1607047F0B5C76807F0070443
:20512000456815EBD705D0F808C00CEBD706DF19C7600069B84222D3C4F108008342D8BFF2
:205140001846012787407F1EFFB207EA020C0F4094B195F800E0A74047EA0E072F70377839
:205160000CFA04F43C4334701B1A08D00141697042FA00F07070F0BD86F800C02F70F0BDA3
:205180002DE9F84381460D4616461F46D9F80C8008E02346F2B2E9B24846FFF7BDFF3F1B5C
:2051A000360A2D0A012F04DB092FACBF08243C46EFE74046BDE8F28370B504460D00E668D8
:2051C00007D00123002200212046FFF7D9FF6D1EF7D1304670BD38B504460D46082D08DBC5
:2051E00008230022FF212046FFF7CAFF083D082DF6DA012D07DB0123002201212046FFF7FF
:20520000BFFF6D1EF5E731BD2DE9F0410446884616462068C7780078C01B851B04230322BA
:2052200000212046FFF7ACFF1DB129462046FFF7D2FFE568002F334605D10120711E00FA67
:2052400001F241460DE0002241462046FFF798FF022F03DB791E2046FFF7BDFF0123012246
:2052600011462046FFF78CFF0123012200212046FFF786FF2846BDE8F0812DE9F04704468C
:2052800088461646206887784078C01B451E0323012200212046FFF773FF2DB12B460022BE
:2052A00000212046FFF76CFFE5684FF0010909E000225346D2B218F8011B2046FFF760FF61
:2052C000A6EB0A06012E0CDB4FF0080A082ED8BFB246002FECD1092EEADA701E09FA00F297
:2052E000E7E73FB13B46791E09FA01F200212046FFF746FF01231A4600212046FFF740FFE0
:205300002846BDE8F08770B504461D46FFF7B5FF064629462046FFF74FFF304670BD70B55A
:2053200004460D4610468168C91DCE080EC80EC50C380C3DA169891BA1610AD43246016830
:205340006069FBF7B1FD6069286060693018606122E070BD70B504460D46E068C11DCE08D4
:205360002169814209D33246A16860683018FBF79BFDE069B042B8BFE661606828606068D8
:2053800030186860E068A860606900EB46006061A069A0EB4600A0612046BDE87040ADE6C9
:2053A0000360416182610021C161A7E64169CA43521C02F00302511841618169891A81619F
:2053C0007047000070B584B0DFF8904300202080A0810120029002200190002000900023F9
:2053E00002460821DFF87803FDF750FEDFF874530020029002200190002000900346024664
:205400000E212846FDF742FEDFF85C630120029002200190002000900346024603213046E4
:20542000FDF734FE0020029002200190002000900346024601213046FDF728FE002002903C
:205440000220019000200090034611220C212846FDF71CFE002002900220019000200090AF
:205460000346112202212846FDF710FE0120A08185202080BD480121016004B070BD38B540
:20548000BB4800210180BB4C20684FF48045BA490A68BA490968800800F0010001F0D8FAAB
:2054A00008B1258131BD658131BDAC4900220A808A81B34A904228BFB24800EB4000B0F59F
:2054C000167F0AD3B04B13EB5002B2FBF0F0B3FBF0F200234B62012309E0AC4B13EB5002CE
:2054E000B2FBF0F0B3FBF0F200234B623B230B85401EC8620320B2FBF0F0A54A1060012217
:205500008A8185220A80704710B504469748006808B9FFF757FF2046BDE8104001F0D7BA58
:20552000954B1960954908609A4802609A48016841F0100101608948002101808180818124
:2055400041620121018540F21A61C16200214162012101854FF40271C1628D4844F6F921C2
:2055600001608E48102101708D484FF4800101608C4801210160704700207047704700209C
:2055800070478848006800B9704780B502F01CF8012803DB84480078012802D1BDE8014044
:2055A00010E701BD7F48006800B9704730B583B06A480021018081810120029002200190C3
:2055C00000910023112208216548FDF75FFD654C002002900220019000200090034611227C
:2055E0000E212046FDF752FD5F4D0020029002200190002000900346024603212846FDF7FB
:2056000045FD0020029002200190002000900346024601212846FDF739FD00200290022014
:20562000019000200090034611220C212046FDF72DFD00200290022001900020009003469E
:20564000112202212046FDF721FD48480021016003B030BD704780B55448006838B1434866
:20566000006820B901F0B0FF08B9FFF7ABFE4948006801001CBFBDE80240004701BD30B543
:2056800083B0044647480068002861D001F09CFF012803DB44480078012859D1434D2CB1E6
:2056A000FFF790FE0120286003B030BD002028602A480021018081810120029002200190F9
:2056C00000910023112208212548FDF7DFFC254C002002900220019000200090034611227C
:2056E0000E212046FDF7D2FC1F4D0020029002200190002000900346024603212846FDF7BB
:20570000C5FC0020029002200190002000900346024601212846FDF7B9FC00200290022015
:20572000019000200090034611220C212046FDF7ADFC00200290022001900020009003461E
:20574000112202212046FDF7A1FC08480021016003B030BD154800687047000000100040BE
:20576000000802400004024000000240540F00201010004010040240600F0020640F0020FC
:20578000819698008096980080C3C90140420F005C0F0020680F00204038024036E400E038
:2057A00004E100E0500F0020E6270020580F002030B4802080F3118800BF00BFDFF8B40355
:2057C00081680022027182F3118800291CBF0A68002A21D04B7C547C9C421DD100E0224601
:2057E000146814B1657C9D42F9D0802383F3118800BF00BF0B6804698C4208BF0361C869A5
:205800000360D861CA611068086000B1C161116092F8350082F83400002080F3118830BC18
:20582000704738B5DFF84C4300206071206A00F180406062E16908001CBF204688470020EE
:2058400080F31188E56826E0802080F3118800BF00BF206920B1687C2169497C884221D374
:20586000287C400713D5E868216A401A012809DA284600F0DDF8802080F3118800BF00BFB7
:20588000287C78B1E868616A411A48BF6062002080F311882D68002DD6D1802080F31188BB
:2058A00000BF00BF31BD70B5DFF8C8420020607001202070A06B68B1802080F3118800BF46
:2058C00000BFA06B8047002080F31188A063206384F8340002F0B2F90078CD281CBF7D2053
:2058E00002F0B2F9A06800281CBF816B002904D009680A001CBF4068884794F82D0040B1A0
:20590000A06894F82C1080F83410207908B1FFF74FFFA06820B1017C11B9016B491C016310
:20592000206948B304E028682061002080F31188802080F3118800BF00BF256925B32E7C88
:2059400016B370070ED5E868216A411A012905DA284600F06DF8287C20B90DE0616A411A92
:2059600048BF606206F0FB001028DCD1A86880684068007C0028D6D1802080F3118800BF32
:2059800000BF01E0FFF74DFF60790028FAD1206910B32069007C0028206902D080688068B5
:2059A0004068A060806A0078CD281CBF782002F04BF9A068816B21B149680A001CBF40683B
:2059C0008847A06890F8341084F82C1084F82D10C16A491CC16207E084F82D0084F82C00C8
:2059E000A060207080F31188204670BD6148407808B980F31188704710B55E4C2078401E2E
:205A00002070C0B298B9606888B1802080F3118800BF00BF606830B101202070204602F056
:205A20006CF900202070607808B980F3118810BD38B581684F4C41B1226AC2600A684968AB
:205A400002B151600A6000218160017C11F00301017412D1216989B92061207838B90120A5
:205A60002070204602F049F90020207001E001206071607808B980F3118831BD427C4B7C61
:205A80009342E9DB8142E8D09A42F6D103461B68002BEED05D7CAA42EBD18B42F7D1DBE7C2
:205AA00038B5417C334C2278521C227004F10C0200E01A46136813B15D7CA942F9DB0360A6
:205AC000C261106043B1D8615A7C8A420CBF90F83510002180F83410017C51B9802181F353
:205AE000118800BF00BFFFF7A3FF607808B980F31188BDE831407FE738B51E4C2578681C5E
:205B00002070204602F0F9F82570607808B980F3118831BD10B502F023F9164801210170C0
:205B200002F08CF8044602F08DF8001BA0F12001012905DBCD222046BDE81040FBF7F0B972
:205B400010BD0C490A7832B1002282F311880A6A121AFCD47047802282F3118800BF00BF39
:205B60008968C86004200874C6E70249096A0818E7E7000034000020FAF7FABD70B584B0BE
:205B8000754C0020029002200190002000900023024608212046FDF779FA704D012002905E
:205BA00002200190002000900346024608212846FDF76CFA002002900220019000200090EB
:205BC000034602460E212046FDF760FA644E012002900220019000200090034602460621D1
:205BE0003046FDF753FA5F48006800B1012002900220019000200090002302460621284618
:205C0000FDF744FA002002900220019000200090034611220C212046FDF738FA0020029056
:205C200002200190002000900346112202212046FDF72CFA012002900220019000200090CC
:205C40000346024603213046FDF720FA0120029002200190002000900346024602212846D3
:205C6000FDF714FA0120029002200190002000900346024602213046FDF708FA002002903A
:205C800002200190002000900346024601213046FDF7FCF90020029002200190002000907A
:205CA0000346112209212846FDF7F0F90020029002200190002000900346112207213046C4
:205CC000FDF7E4F90020029002200190002000900346112208213046FDF7D8F9002002904C
:205CE0000220019000200090034611220A213046FDF7CCF900200290022001900020009056
:205D00000346112201212046FDF7C0F90020029002200190002000900346112205212846AD
:205D2000FDF7B4F90020029002200190002000900346112207212846FDF7A8F90020029054
:205D400002200190002000900346112204212846FDF79CF904B070BD0004024000080240D7
:205D600000000240100000202DE9F84F80468A4616460027314602F0CEF800244FF400792C
:205D8000B8F1000F0BD002F0E8F8311A0D1B18B1FF2DF8DD25F03F0504EB080006E0301BE0
:205DA000B0F5007F34BF351B4D460020BAF1000F14BF04EB0A0B4FF0000BFFB247B9EA0053
:205DC0005946FAF7D5FC0746BBF1000F0CD007E0BBF1000F08D02A4600215846FAF7BDFF28
:205DE0002946584602F059F82C19B442C8D13046BDE8F28F2DE9F04F87B0002700251021DA
:205E000003A802F071F803A8FAF78EFF044604A8FAF78AFF804605A8FAF786FF064606A800
:205E2000FAF782FF8146F01DC0080090824609F00300022802D100F033F903E0032808BF12
:205E400000F078F958EA040005D132460021FAF78FFCAA4639E002F016F9009E864288BFF9
:205E60000646FF2E98BF4FF4807604D9B6F5805F84BF300A0602304602F013F9050025D0BF
:205E800054B1B8F1000F03D076080295701901E002950020019002E0002002900195BAF1D6
:205EA000000F12D0B24534BFD346B346AAEB0B0A5A4601990298FFF757FF0746002F05D4D6
:205EC0005F45ECD04FF0FF3700E0009F09F00C00082802D100F0E4F803E00C2808BF00F0CC
:205EE00029F9BAF1000F09D014B1504602F003F8B8F1000F1CBF504601F0B4FF15B12846A4
:205F000002F0F2F8384601F0E0FF07B0BDE8F08F30B585B00B2100A802F076FA9DF8000097
:205F200018B9FFF767FF05B030BD0DF10300FAF7FBFE04460DF10700FAF7F6FE05462046C2
:205F400001F0D9FF284601F08DFF05B030BD00002DE9F04104460D46164698467E4800689F
:205F60007E4F38600069804743463246294620463C682468A047BDE8F0812DE9F0410446F8
:205F80000D461646984674480068744F38600069804743463246294620463C686468A04798
:205FA000BDE8F08110B56C4800686C4C20600069804720688068BDE81040004710B5664863
:205FC0000068664C2060006980472068C068BDE81040004700E000BF614801680029FCD065
:205FE0004FF0FF307047F7E7F6E780B5FEF732FC00B95C4859490860002002BD80B50146A7
:2060000059480078FFF7F1FF002002BDFEF705BB38B5524C2068554DA84207D0C06801004E
:2060200018BF80474C48216801602560BDE83140FEF7F9BA38B5494C20684C4DA84207D09D
:20604000C068010018BF80474348216801602560BDE83140FEF738BB38B5404C2068434DF0
:20606000A84207D0C068010018BF80473A48216801602560BDE83140FEF70CBB38B5374C65
:2060800020683A4DA84207D0C068010018BF80473148216801602560BDE83140FEF7E2BADA
:2060A00038B52E4C2068314DA84207D0C068010018BF80472848216801602560BDE83140F6
:2060C000FEF7BBBAFEF7ACBA38B5244C2068274DA84207D0C068010018BF80471E4821682B
:2060E00001602560BDE83140FEF79EBA38B51B4C20681E4DA84207D0C068010018BF804788
:206100001548216801602560BDE83140FEF7D0BA38B5124C2068154DA84207D0C0680100FF
:2061200018BF80470C48216801602560BDE83140FEF79EBA38B5094C20680C4DA84207D0B7
:20614000C068010018BF80470348216801602560BDE83140FEF778BA901900203001002067
:20616000BC120020B4180108E6270020A0180108FEF76CB9FEF76FB9FEF774B9FEF763B904
:20618000FEF777B9FEF782B9DFF800F03B040020DFF800F0950200205748584901607047AE
:2061A00080B5574800210160012001F085FE6420FFF7DBFC802080F3118800BF00BF5148E0
:2061C0004178491C41704C484C490160BDE80140FEF7E5BB4C48017801B94C4870472DE9C3
:2061E000F04104000D46164618BF002E1DD07019B0F5106F19D8464FFF2D0FD84FF4807848
:20620000B6F5807F98BFB046424679192046FAF74BFE4444B6EB0806454406D0324679192D
:206220002046BDE8F041FAF73FBEBDE8F081F0B5C1B00446B1F5106F00D104B970E0344D3A
:206240002846FFF7A1FF4FF48072214600A8FAF72BFE00234FF4807200A92846FFF798FFE0
:2062600004F58074002508262A4F5DE0F0B504000D46164618BF002E21D07019B0F5106F2D
:206280001DD8FF2D11D84FF48077B6F5807F98BF37463A4605F1006101F53F412046FAF798
:2062A00003FE3C19F61B7D194EB1324605F1006101F536412046BDE8F040FAF7F5BDF0BD1B
:2062C000F0B5C1B00446B1F5106F00D104B927E04FF48072214600A8FAF7E6FD00234FF426
:2062E000807200A90C48FFF753FF04F58074002508260A4F18E0000000000020214334120C
:206300007417002034000020E81600201002010800C0000800C1000800BF000800B700082E
:206320004FF0FF3041B0F0BD4FF48072214600A8FAF7BAFD00234FF4807200A97819FFF7DD
:2063400027FF04F5807405F58075761EECD1002041B0F0BD3148006870473148006800F0C3
:206360008060704738B52F4D2878401C28702E4C2078401C2070FEF75EFB01F0D0FA02F090
:20638000A1F82878401E28702078012803D1606808B101F0C5FC2078401E207031BD70B56D
:2063A00086B000A821497CC97CC0214D28680090802080F3118800BF00BF1B4C6078401CC1
:2063C000607002F022F928684FF47A71B0FBF1F0B0F1807F1BD217490002000A401E486097
:2063E0001548F022C27600228A6007220A6013490160E021C17600A802F054F96078401E45
:206400006070C0B208B980F3118806B070BDFEE730BFFDE708480A491AE0000018E000E05D
:2064200004ED00E0E227002034000020081801088801002010E000E008ED00E0000001088E
:2064400000000108004801E008ED00E04FF000610160002070470000DFF800F0F30400207F
:2064600000E000BF4FF0FF3070470020704770B584B0DFF83845002002900220019000204F
:2064800000900023024601212046FCF7FFFDDFF820550020029002200190002000900346E0
:2064A00011220C212846FCF7F1FD0020029002200190002000900346112202212846FCF718
:2064C000E5FD0020029002200190002000900346024603212046FCF7D9FDDFF8D8640020AE
:2064E000029002200190002000900346112208213046FCF7CBFD002002900220019000204C
:206500000090034611220E212846FCF7BFFD0020029002200190002000900346024602215A
:206520003046FCF7B3FD0020029002200190002000900346024606212046FCF7A7FD002058
:20654000029002200190002000900346024602212046FCF79BFD012002900220019000201B
:2065600000900346024606213046FCF78FFD0020029002200190002000900346024608210F
:206580002846FCF783FD0020029002200190002000900346112209213046FCF777FD002062
:2065A000029002200190002000900346112207212046FCF76BFD00200290022001900020FC
:2065C00000900346112208212046FCF75FFD002002900220019000200090034611220A2115
:2065E0002046FCF753FD0020029002200190002000900346112201212846FCF747FD00207A
:20660000029002200190002000900346112205213046FCF73BFD00200290022001900020BD
:2066200000900346112207213046FCF72FFD002002900220019000200090034611220421DB
:206640003046FCF723FD0020029002200190002000900346112205212046FCF717FD00206D
:2066600002900220019000200090034611220D212846FCF70BFD002002900220019000208D
:206680000090034611220F212846FCF7FFFC002004B070BD2DE9F04789468046C64E042047
:2066A0003081C64FC64C72B6402078802068FFF7D3FE402038802068FFF7CEFE01254FF06C
:2066C000040AE80747BF402030814020708104203880402078802068FFF7BEFE40203880CF
:2066E0002068FFF7B9FE6D08BAF1010AE9D118F8015B4FF0080AE80747BF4020308140205D
:20670000708178802068FFF7A7FE6D08402038802068FFF7A1FEBAF1010AECD10420788034
:206720001025402078802068FFF796FE402038802068FFF791FE3068C0F3C01008B96D1E2E
:20674000EFD1402078802068FFF786FE402038802068FFF781FE62B6B9F10109A3D165E085
:206760002DE9F04789468046934E04203081934F934C72B6402078802068FFF76DFE4020F7
:2067800038802068FFF768FE00254FF0040AE80747BF402030814020708104203880402058
:2067A00078802068FFF758FE402038802068FFF753FEBAF1010AEAD1042078801025402004
:2067C00078802068FFF748FE402038802068FFF743FE3068C0F3C01008B96D1EEFD10025DA
:2067E0004FF0080A402078802068FFF735FE402038802068FFF730FE6D083068C0F3C010EB
:2068000008B145F08005BAF1010AEBD108F8015B402078802068FFF71FFE402038802068A4
:20682000FFF71AFE62B6B9F10109A2D104207081BDE8F0872DE9F8438046624D0420288048
:2068400072B65E4E402070805D4F3868FFF704FE402030803868FFF7FFFD03244FF00209BD
:20686000E00747BF402028804020688004203080402070803868FFF7EFFD40203080386885
:20688000FFF7EAFD6408B9F10109E9D108245FEAC87047BF402028804020688070803868AE
:2068A000FFF7DAFD4FEA5808402030803868FFF7D3FD641EEBD104207080402070803868BA
:2068C000FFF7CAFD402030803868FFF7C5FD62B604206880BDE8F1832DE9F8438046364DBC
:2068E0000420288172B6354E40207080344F3868FFF7B2FD402030803868FFF7ADFD022492
:20690000A146E00747BF402028814020688104203080402070803868FFF79EFD40203080EC
