:020000040800F2
:1000000000500020BD060008F5050008FB050008AB
:1000100001060008070600080D06000800000000A1
:1000200000000000000000000000000013060008AF
:100030001F060008000000002B0600083706000815
:100040000507000805070008050700080507000860
:100050000507000805070008050700080507000850
:100060000507000805070008050700080507000840
:100070000507000805070008050700080507000830
:100080000507000805070008050700080507000820
:100090000507000805070008050700080507000810
:1000A0000507000805070008050700080507000800
:1000B00005070008050700080507000805070008F0
:1000C00005070008050700080507000805070008E0
:1000D00005070008050700080507000805070008D0
:1000E00005070008050700080507000800000000D4
:1000F0000000000000000000000000000000000000
:0C01000000000000000000005FF808F1A3
:10010C0010B5054C237833B9044B13B10448AFF345
:10011C0000800123237010BD70000020000000003F
:10012C00442A000808B5034B1BB103490348AFF33D
:10013C00008008BD0000000074000020442A000864
:10014C0080B483B000AF786000BF0C37BD4680BC74
:10015C007047000080B584B002AF03460A46FB71BD
:10016C001346BB71FB7999B2BA1D0A230093012384
:10017C00034800F025FF00BF0837BD4680BD00BF17
:10018C00A000002080B588B000AF3B1D00221A6093
:10019C005A609A60DA6000237B610023FB830023A2
:1001AC00BB8304237B601123BB600023FB603B1DDE
:1001BC001946304800F00CFC002204212D4800F0B8
:1001CC00A2FD122000F0FCFA01220421294800F0C3
:1001DC009AFD1E20FFF7B4FF04237B600023BB6055
:1001EC000123FB603B1D1946224800F0F1FBA020C7
:1001FC00FFF7A6FF0023FB76FB7E272B29D8FB7E7F
:10020C000F2B0ED804211B4800F066FD03461AB2D2
:10021C00B7F91E3013431BB2FB83FB8B5B00FB83D4
:10022C0013E0FB7E0F2B10D9FB7E1F2B0DD8042166
:10023C00104800F051FD03461AB2B7F91C301343B5
:10024C001BB2BB83BB8B5B00BB83FB7E0133FB769A
:10025C00D2E7FB8B7A6913437B617B691B047B615F
:10026C00BB8B7A6913437B617B6918462037BD468B
:10027C0080BD00BF0008014080B500AF00F03EFA21
:10028C0000F054F800F0CCF800F096F82049214822
:10029C0001F056FF1F4801F0C1FD1E4801F092FE0F
:1002AC000D221D491B4801F02DFFFFF76BFF034684
:1002BC001A4A1360194B1B681B0EDBB21A46174BFC
:1002CC001B681B0CDBB21649164801F07BFF0022A1
:1002DC000021104801F02CFE102212490D4801F0AB
:1002EC0011FF0E4B1B681B0ADBB21A460B4B1B682B
:1002FC00DBB20D490B4801F065FF012200210548D6
:10030C0001F016FE10220749024801F0FBFECCE773
:10031C0061010008F40000205C2A00088C00002019
:10032C006C2A0008900000207C2A000880B590B050
:10033C0000AF07F1180328220021184601F03AFFFC
:10034C003B1D00221A605A609A60DA601A6102231F
:10035C00BB610123BB621023FB6200237B6307F1AB
:10036C001803184601F032F90346002B14BF012381
:10037C000023DBB2002B01D000F09CF80F237B6034
:10038C000023BB600023FB6000233B6100237B61E7
:10039C003B1D0021184601F099FB0346002B14BFAE
:1003AC0001230023DBB2002B01D000F083F800BF47
:1003BC004037BD4680BD000080B500AF154B164AD6
:1003CC001A60144B154A5A60124B00229A60114B5A
:1003DC000022DA600F4B4FF480421A610D4B002261
:1003EC005A610C4B00229A610A4B0022DA61094BCC
:1003FC0000221A62074800F09FFC0346002B14BF32
:10040C0001230023DBB2002B01D000F053F800BF16
:10041C0080BD00BFA000002000540040A086010059
:10042C0080B586B000AF07F1080300221A605A604D
:10043C009A60DA601D4B9B691C4A43F0040393617C
:10044C001A4B9B6903F004037B607B68174B9B6919
:10045C00164A43F008039361144B9B6903F008039D
:10046C003B603B6801220421114800F04CFC022344
:10047C00BB600023FB6000233B6107F108031946B6
:10048C000B4800F0A5FA0423BB600123FB6000239A
:10049C003B6102237B6107F108031946044800F015
:1004AC0097FA00BF1837BD4680BD00BF0010024050
:1004BC000008014080B400AF72B600BFFEE7000038
:1004CC0080B584B002AF786039607B68012B0CD1A9
:1004DC003B684FF6FF72934207D10023009302232F
:1004EC0010222721034801F077FC00BF0837BD46D6
:1004FC0080BD00BFF400002080B500AF4FF6FF7147
:10050C000120FFF7DDFF80BD80B485B000AF154B37
:10051C009B69144A43F001039361124B9B6903F0EE
:10052C000103BB60BB680F4BDB690E4A43F0805381
:10053C00D3610C4BDB6903F080537B607B680A4B07
:10054C005B68FB60FB6823F0E063FB60FB6843F0D7
:10055C000073FB60044AFB68536000BF1437BD4650
:10056C0080BC7047001002400000014080B588B08C
:10057C0000AF786007F1100300221A605A609A608D
:10058C00DA607B681B68154A934223D1144B9B6934
:10059C00134A43F008039361114B9B6903F0080362
:1005AC00FB60FB68C0233B6112237B610323FB616F
:1005BC0007F1100319460B4800F00AFA084BDB69E7
:1005CC00074A43F40013D361054BDB6903F40013B2
:1005DC00BB60BB6800BF2037BD4680BD00540040E7
:1005EC0000100240000C014080B400AFFEE780B464
:1005FC0000AFFEE780B400AFFEE780B400AFFEE7CB
:10060C0080B400AFFEE780B400AF00BFBD4680BC35
:10061C00704780B400AF00BFBD4680BC704780B44B
:10062C0000AF00BFBD4680BC704780B500AF00F086
:10063C00ABF800BF80BD000080B586B000AF78601D
:10064C00144A154BD31A7B617B693B61134B1B68B6
:10065C00002B02D1114B124A1A60104B1A687B689E
:10066C0013443A699A4207D201F07AFD03460C22F0
:10067C001A604FF0FF3309E0084B1B68FB60074B17
:10068C001A687B681344054A1360FB6818461837D0
:10069C00BD4680BD0050002000040000FC0000207E
:1006AC002001002080B400AF00BFBD4680BC704765
:1006BC000C480D490D4A002302E0D458C4500433B1
:1006CC00C4188C42F9D30A4A0A4C002301E0136087
:1006DC000432A242FBD3FFF7E5FF01F047FDFFF721
:1006EC00CBFD70470000002070000020082B000894
:1006FC007000002020010020FEE7000080B500AF54
:10070C00084B1B68074A43F010031360032000F0EA
:10071C002BF90F2000F008F8FFF7F6FE002318461F
:10072C0080BD00BF0020024080B582B000AF786071
:10073C00124B1A68124B1B7819464FF47A73B3FBA1
:10074C00F1F3B2FBF3F3184600F035F90346002B36
:10075C0001D001230EE07B680F2B0AD800227968A8
:10076C004FF0FF3000F00BF9064A7B681360002352
:10077C0000E0012318460837BD4680BD000000206C
:10078C00080000200400002080B400AF054B1B784B
:10079C001A46054B1B681344034A136000BFBD4641
:1007AC0080BC7047080000200C01002080B400AF12
:1007BC00024B1B681846BD4680BC70470C010020DC
:1007CC0080B584B000AF7860FFF7F0FFB8607B684D
:1007DC00FB60FB68B3F1FF3F05D00A4B1B781A4650
:1007EC00FB681344FB6000BFFFF7E0FF0246BB68E9
:1007FC00D31AFA689A42F7D800BF00BF1037BD462B
:10080C0080BD00BF0800002080B485B000AF7860C8
:10081C007B6803F00703FB600C4BDB68BB60BA68BA
:10082C004FF6FF031340BB60FB681A02BB6813430F
:10083C0043F0BF6343F40033BB60044ABB68D3602E
:10084C0000BF1437BD4680BC704700BF00ED00E010
:10085C0080B400AF044BDB681B0A03F00703184697
:10086C00BD4680BC704700BF00ED00E080B483B093
:10087C0000AF03463960FB7197F90730002B0ADB98
:10088C003B68DAB20C4997F907301201D2B20B442B
:10089C0083F800230AE03B68DAB20849FB7903F0DD
:1008AC000F03043B1201D2B20B441A7600BF0C3773
:1008BC00BD4680BC704700BF00E100E000ED00E0E9
:1008CC0080B489B000AFF860B9607A60FB6803F05F
:1008DC000703FB61FB69C3F10703042B28BF042347
:1008EC00BB61FB690433062B02D9FB69033B00E0B7
:1008FC0000237B614FF0FF32BB6902FA03F3DA434A
:10090C00BB681A407B699A404FF0FF317B6901FA52
:10091C0003F3D9437B680B40134318462437BD4679
:10092C0080BC704780B582B000AF78607B68013BBB
:10093C00B3F1807F01D301230FE00A4A7B68013BAE
:10094C0053600F214FF0FF30FFF790FF054B002253
:10095C009A60044B07221A60002318460837BD46DC
:10096C0080BD00BF10E000E080B582B000AF7860C1
:10097C007868FFF749FF00BF0837BD4680BD80B5DA
:10098C0086B000AF0346B9607A60FB7300237B61CD
:10099C00FFF75EFF78617A68B9687869FFF790FFB6
:1009AC00024697F90F3011461846FFF75FFF00BF5C
:1009BC001837BD4680BD80B582B000AF78607868CE
:1009CC00FFF7B0FF034618460837BD4680BD000050
:1009DC0080B48BB000AF7860396000237B62002359
:1009EC003B6269E101227B6A02FA03F3FB613B681B
:1009FC001B68FA691340BB61BA69FB699A4240F003
:100A0C0058813B685B689A4A93425ED0984A9342FD
:100A1C0075D8984A934258D0964A93426FD8964AC2
:100A2C00934252D0944A934269D8944A93424CD000
:100A3C00924A934263D8924A934246D0904A934248
:100A4C005DD8122B2AD8122B59D801A252F823F0B8
:100A5C00D70A0008B10A0008C30A0008050B0008F1
:100A6C000B0B00080B0B00080B0B00080B0B000802
:100A7C000B0B00080B0B00080B0B00080B0B0008F2
:100A8C000B0B00080B0B00080B0B00080B0B0008E2
:100A9C000B0B0008B90A0008CD0A0008794A9342EA
:100AAC0013D02CE03B68DB683B6229E03B68DB68D9
:100ABC0004333B6224E03B68DB6808333B621FE095
:100ACC003B68DB680C333B621AE03B689B68002B8D
:100ADC0002D104233B6213E03B689B68012B05D1D8
:100AEC0008233B627B68FA691A6109E008233B62C0
:100AFC007B68FA695A6103E000233B6200E000BFA7
:100B0C00BB69FF2B01D87B6801E07B6804337B61F8
:100B1C00BB69FF2B02D87B6A9B0002E07B6A083B17
:100B2C009B003B617B691A680F213B6901FA03F357
:100B3C00DB431A40396A3B6901FA03F31A437B69B8
:100B4C001A603B685B6803F08053002B00F0B180A7
:100B5C004D4B9B694C4A43F0010393614A4B9B6993
:100B6C0003F00103BB60BB68484A7B6A9B080233F5
:100B7C0052F82330FB607B6A03F003039B000F22C7
:100B8C0002FA03F3DB43FA681340FB607B68404ACC
:100B9C00934213D07B683F4A93420DD07B683E4A08
:100BAC00934207D07B683D4A934201D1032306E070
:100BBC00042304E0022302E0012300E000237A6A0C
:100BCC0002F0030292009340FA681343FB602F4932
:100BDC007B6A9B080233FA6841F823203B685B6808
:100BEC0003F48033002B06D02D4B1A682C49BB69BB
:100BFC0013430B6006E02A4B1A68BB69DB43284998
:100C0C0013400B603B685B6803F40033002B06D089
:100C1C00234B5A682249BB6913434B6006E0204BB7
:100C2C005A68BB69DB431E4913404B603B685B68E9
:100C3C0003F48013002B06D0194B9A681849BB6932
:100C4C0013438B6006E0164B9A68BB69DB4314496F
:100C5C0013408B603B685B6803F40013002B21D0BE
:100C6C000F4BDA680E49BB691343CB6021E000BF20
:100C7C000000321000003110000022100000211082
:100C8C000000121000001110001002400000014082
:100C9C0000080140000C014000100140001401400C
:100CAC00000401400B4BDA68BB69DB430949134074
:100CBC00CB607B6A01337B623B681A687B6A22FAE1
:100CCC0003F3002B7FF48EAE00BF00BF2C37BD4664
:100CDC0080BC70470004014080B485B000AF7860E0
:100CEC000B467B807B689A687B881340002B02D074
:100CFC000123FB7301E00023FB73FB7B18461437C5
:100D0C00BD4680BC704780B483B000AF78600B46A2
:100D1C007B8013467B707B78002B03D07A887B68B2
:100D2C001A6103E07B881A047B681A6100BF0C37D8
:100D3C00BD4680BC7047000080B584B000AF7860C1
:100D4C007B68002B01D101232BE17B6893F83D30AC
:100D5C00DBB2002B06D17B68002283F83C2078683C
:100D6C00FFF704FC7B68242283F83D207B681B681A
:100D7C001A687B681B6822F001021A607B681B688A
:100D8C001A687B681B6842F400421A607B681B6817
:100D9C001A687B681B6822F400421A6000F0EAFFB4
:100DAC00F8607B685B68814A934207D8FB68804A8D
:100DBC00934294BF01230023DBB206E0FB687D4A1B
:100DCC00934294BF01230023DBB2002B01D00123FB
:100DDC00E7E0FB68784AA2FB03239B0CBB607B68B3
:100DEC001B685B6823F03F017B681B68BA680A4389
:100DFC005A607B681B681B6A23F03F017B685B6849
:100E0C006A4A934202D8BB68013309E0BB684FF4CD
:100E1C00967202FB03F3694AA2FB03239B0901337D
:100E2C007A6812680B4313627B681B68DB6923F4D6
:100E3C004F4222F0FF027B685B685C498B4219D8F9
:100E4C00FB68591E7B685B685B00B1FBF3F3591CB4
:100E5C0040F6FC730B40002B0AD0FB68591E7B68D4
:100E6C005B685B00B1FBF3F30133C3F30B0351E09D
:100E7C0004234FE07B689B68002B11D1FB68581E44
:100E8C007B6859680B465B000B44B0FBF3F30133F2
:100E9C00C3F30B03002B0CBF01230023DBB212E0C6
:100EAC00FB68581E7B6859680B469B000B449900E5
:100EBC000B44B0FBF3F30133C3F30B03002B0CBF58
:100ECC0001230023DBB2002B01D0012322E07B683D
:100EDC009B68002B0ED1FB68581E7B6859680B462B
:100EEC005B000B44B0FBF3F30133C3F30B0343F48C
:100EFC0000430FE0FB68581E7B6859680B469B004B
:100F0C000B4499000B44B0FBF3F30133C3F30B0315
:100F1C0043F44043796809681343CB617B681B68D1
:100F2C001B6823F0C0017B68DA697B681B6A1A4373
:100F3C007B681B680A431A607B681B689B6823F4F8
:100F4C00034323F0FF037A6811697A68D26811436E
:100F5C007A6812680B4393607B681B68DB6823F02C
:100F6C00FF017B685A697B689B691A437B681B6825
:100F7C000A43DA607B681B681A687B681B6842F05E
:100F8C0001021A607B6800221A647B68202283F8B5
:100F9C003D207B6800221A637B68002283F83E2088
:100FAC00002318461037BD4680BD00BFA086010047
:100FBC007F841E00FF083D0083DE1B43D34D62106F
:100FCC0080B588B002AFF8607A601A460B467B8118
:100FDC0013463B81FFF7EAFB7861FB6893F83D30E1
:100FEC00DBB2202B40F0E0807B69009319230122B7
:100FFC007049F86800F064F90346002B01D0022315
:10100C00D3E0FB6893F83C30012B01D10223CCE0F8
:10101C00FB68012283F83C20FB681B681B6803F00B
:10102C000103012B07D0FB681B681A68FB681B685F
:10103C0042F001021A60FB681B681A68FB681B68A7
:10104C0022F400621A60FB68212283F83D20FB68C1
:10105C00102283F83E20FB6800221A64FB687A6831
:10106C005A62FB683A895A85FB685B8D9AB2FB68B9
:10107C001A85FB68504ADA6279897B693A6AF868A2
:10108C0000F09CF80346002B01D001238DE00023D7
:10109C003B61FB681B685B693B61FB681B689B6978
:1010AC003B613B6966E07A69396AF86800F0DEF901
:1010BC000346002B0DD0FB681B6C042B07D1FB687F
:1010CC001B681A68FB681B6842F400721A600123E3
:1010DC006BE0FB685B6A1A78FB681B681A61FB683B
:1010EC005B6A5A1CFB685A62FB685B8D9BB2013BC6
:1010FC009AB2FB685A85FB681B8D013B9AB2FB6860
:10110C001A85FB681B685B6903F00403042B1BD175
:10111C00FB681B8D002B17D0FB685B6A1A78FB6889
:10112C001B681A61FB685B6A5A1CFB685A62FB6895
:10113C005B8D9BB2013B9AB2FB685A85FB681B8D99
:10114C00013B9AB2FB681A857A69396AF86800F033
:10115C00CEF90346002B0DD0FB681B6C042B07D17A
:10116C00FB681B681A68FB681B6842F400721A6003
:10117C0001231AE0FB681B8D002B94D1FB681B68C4
:10118C001A68FB681B6842F400721A60FB68202224
:10119C0083F83D20FB68002283F83E20FB68002288
:1011AC0083F83C20002300E0022318461837BD4684
:1011BC0080BD00BF020010000000FFFF80B588B0AA
:1011CC0002AFF8607A603B600B467B81FB68DB6AA0
:1011DC007B617B69082B06D07B69012B03D07B6973
:1011EC0013F5803F08D1FB681B681A68FB681B6805
:1011FC0042F480721A600BE0FB681B6B122B07D158
:10120C00FB681B681A68FB681B6842F480721A60E2
:10121C003B6800937B6800224FF00111F86800F0E6
:10122C004FF80346002B0DD0FB681B681B6803F4BA
:10123C008073B3F5807F03D1FB684FF400721A649E
:10124C00032335E0FB681B69B3F5804F08D17B891C
:10125C00DBB21A46FB681B6802F0FE021A611BE047
:10126C007B89DB11DBB203F00603DBB263F00F0307
:10127C00DAB2FB681B681A613B687A680E49F86839
:10128C0000F075F80346002B01D0012310E07B8998
:10129C00DAB2FB681B681A613B687A680749F86820
:1012AC0000F065F80346002B01D0012300E0002379
:1012BC0018461837BD4680BD080001000200010029
:1012CC0080B584B000AFF860B9603B601346FB7129
:1012DC0025E03B68B3F1FF3F21D0FFF767FA0246E8
:1012EC00BB69D31A3A689A4202D33B68002B16D1D9
:1012FC00FB6800221A63FB68202283F83D20FB6800
:10130C00002283F83E20FB681B6C43F02002FB6834
:10131C001A64FB68002283F83C20012323E0BB689D
:10132C001B0CDBB2012B0DD1FB681B685B69DA432C
:10133C00BB6813409BB2002B0CBF01230023DBB214
:10134C001A460CE0FB681B689B69DA43BB681340C8
:10135C009BB2002B0CBF01230023DBB21A46FB7996
:10136C009A42B6D0002318461037BD4680BD80B5D2
:10137C0084B000AFF860B9607A603B6051E0FB6804
:10138C001B685B6903F48063B3F5806F23D1FB6842
:10139C001B681A68FB681B6842F400721A60FB68D1
:1013AC001B686FF480625A61FB6800221A63FB6849
:1013BC00202283F83D20FB68002283F83E20FB6846
:1013CC001B6C43F00402FB681A64FB68002283F870
:1013DC003C20012346E07B68B3F1FF3F21D0FFF7AF
:1013EC00E5F902463B68D31A7A689A4202D37B68C5
:1013FC00002B16D1FB6800221A63FB68202283F8AD
:10140C003D20FB68002283F83E20FB681B6C43F0F8
:10141C002002FB681A64FB68002283F83C2001233D
:10142C0020E0BB681B0CDBB2012B0CD1FB681B68EA
:10143C005B69DA43BB6813409BB2002B14BF0123DA
:10144C000023DBB20BE0FB681B689B69DA43BB68CB
:10145C0013409BB2002B14BF01230023DBB2002BE3
:10146C008DD1002318461037BD4680BD80B584B0A1
:10147C0000AFF860B9607A602DE0F86800F078F899
:10148C000346002B01D001232DE0BB68B3F1FF3FD5
:10149C0021D0FFF78BF902467B68D31ABA689A42BF
:1014AC0002D3BB68002B16D1FB6800221A63FB68C1
:1014BC00202283F83D20FB68002283F83E20FB6845
:1014CC001B6C43F02002FB681A64FB68002283F853
:1014DC003C20012307E0FB681B685B6903F0800379
:1014EC00802BCAD1002318461037BD4680BD80B56D
:1014FC0084B000AFF860B9607A602DE0F86800F055
:10150C0037F80346002B01D001232DE0BB68B3F163
:10151C00FF3F21D0FFF74AF902467B68D31ABA681D
:10152C009A4202D3BB68002B16D1FB6800221A63C7
:10153C00FB68202283F83D20FB68002283F83E20C4
:10154C00FB681B6C43F02002FB681A64FB680022EA
:10155C0083F83C20012307E0FB681B685B6903F000
:10156C000403042BCAD1002318461037BD4680BD96
:10157C0080B483B000AF78607B681B685B6903F450
:10158C008063B3F5806F1BD17B681B686FF480623E
:10159C005A617B6800221A637B68202283F83D2005
:1015AC007B68002283F83E207B681B6C43F00402AE
:1015BC007B681A647B68002283F83C20012300E0DE
:1015CC00002318460C37BD4680BC704780B586B0EA
:1015DC0000AF78607B68002B01D101236CE27B6843
:1015EC001B6803F00103002B00F08780924B5B68B3
:1015FC0003F00C03042B0CD08F4B5B6803F00C0333
:10160C00082B12D18C4B5B6803F48033B3F5803F0D
:10161C000BD1894B1B6803F40033002B6CD07B6817
:10162C005B68002B68D1012346E27B685B68B3F5ED
:10163C00803F06D1804B1B687F4A43F48033136094
:10164C002EE07B685B68002B0CD17B4B1B687A4AC5
:10165C0023F480331360784B1B68774A23F4802380
:10166C0013601DE07B685B68B3F5A02F0CD1724B47
:10167C001B68714A43F4802313606F4B1B686E4ADE
:10168C0043F4803313600BE06B4B1B686A4A23F402
:10169C0080331360684B1B68674A23F48023136004
:1016AC007B685B68002B13D0FFF780F8386108E08B
:1016BC00FFF77CF802463B69D31A642B01D903234C
:1016CC00FAE15D4B1B6803F40033002BF0D014E0FF
:1016DC00FFF76CF8386108E0FFF768F802463B69E1
:1016EC00D31A642B01D90323E6E1534B1B6803F493
:1016FC000033002BF0D100E000BF7B681B6803F0C7
:10170C000203002B63D04C4B5B6803F00C03002BE3
:10171C000BD0494B5B6803F00C03082B1CD1464BD8
:10172C005B6803F48033002B16D1434B1B6803F02A
:10173C000203002B05D07B681B69012B01D0012310
:10174C00BAE13D4B1B6823F0F8027B685B69DB0058
:10175C00394913430B603AE07B681B69002B20D09E
:10176C00364B01221A60FFF721F8386108E0FFF7C9
:10177C001DF802463B69D31A022B01D903239BE1C6
:10178C002D4B1B6803F00203002BF0D02A4B1B6877
:10179C0023F0F8027B685B69DB00274913430B607D
:1017AC0015E0264B00221A60FFF700F8386108E0BC
:1017BC00FEF7FCFF02463B69D31A022B01D9032327
:1017CC007AE11D4B1B6803F00203002BF0D17B6800
:1017DC001B6803F00803002B3AD07B689B69002B35
:1017EC0019D0174B01221A60FEF7E0FF386108E0B0
:1017FC00FEF7DCFF02463B69D31A022B01D9032307
:10180C005AE10D4B5B6A03F00203002BF0D0012070
:10181C0000F0C4FA1CE00A4B00221A60FEF7C6FF67
:10182C0038610FE0FEF7C2FF02463B69D31A022B68
:10183C0008D9032340E100BF0010024000004242DF
:10184C00800442429E4B5B6A03F00203002BE9D1F9
:10185C007B681B6803F00403002B00F0A6800023B8
:10186C00FB75974BDB6903F08053002B0DD1944B28
:10187C00DB69934A43F08053D361914BDB6903F0EE
:10188C008053BB60BB680123FB758E4B1B6803F454
:10189C008073002B18D18B4B1B688A4A43F48073DE
:1018AC001360FEF783FF386108E0FEF77FFF024606
:1018BC003B69D31A642B01D90323FDE0814B1B68D0
:1018CC0003F48073002BF0D07B68DB68012B06D10E
:1018DC007B4B1B6A7A4A43F0010313622DE07B6851
:1018EC00DB68002B0CD1764B1B6A754A23F0010385
:1018FC001362734B1B6A724A23F0040313621CE0DD
:10190C007B68DB68052B0CD16D4B1B6A6C4A43F072
:10191C00040313626A4B1B6A694A43F001031362A6
:10192C000BE0674B1B6A664A23F001031362644B9E
:10193C001B6A634A23F0040313627B68DB68002B89
:10194C0015D0FEF733FF38610AE0FEF72FFF024691
:10195C003B69D31A41F28832934201D90323ABE09D
:10196C00574B1B6A03F00203002BEED014E0FEF77A
:10197C001DFF38610AE0FEF719FF02463B69D31AD6
:10198C0041F28832934201D9032395E04C4B1B6AF8
:10199C0003F00203002BEED1FB7D012B05D1484B4C
:1019AC00DB69474A23F08053D3617B68DB69002BEA
:1019BC0000F08180424B5B6803F00C03082B61D074
:1019CC007B68DB69022B46D13F4B00221A60FEF785
:1019DC00EDFE386108E0FEF7E9FE02463B69D31ADA
:1019EC00022B01D9032367E0354B1B6803F000730E
:1019FC00002BF0D17B681B6AB3F5803F08D1304BCC
:101A0C005B6823F400327B689B682D4913434B6061
:101A1C002B4B5B6823F474127B68196A7B685B6AD6
:101A2C000B43274913434B60274B01221A60FEF7E7
:101A3C00BDFE386108E0FEF7B9FE02463B69D31AD9
:101A4C00022B01D9032337E01D4B1B6803F00073F5
:101A5C00002BF0D02FE01C4B00221A60FEF7A6FEE4
:101A6C00386108E0FEF7A2FE02463B69D31A022B4E
:101A7C0001D9032320E0124B1B6803F00073002BE9
:101A8C00F0D118E07B68DB69012B01D1012313E055
:101A9C000B4B5B68FB60FB6803F480327B681B6A52
:101AAC009A4206D1FB6803F470127B685B6A9A4217
:101ABC0001D0012300E0002318461837BD4680BD35
:101ACC0000100240007000406000424280B584B0BB
:101ADC0000AF786039607B68002B01D10123D0E026
:101AEC006A4B1B6803F007033A689A4210D9674B9C
:101AFC001B6823F0070265493B6813430B60634B7B
:101B0C001B6803F007033A689A4201D00123B8E03E
:101B1C007B681B6803F00203002B20D07B681B68DA
:101B2C0003F00403002B05D0594B5B68584A43F46F
:101B3C00E06353607B681B6803F00803002B05D03F
:101B4C00534B5B68524A43F460535360504B5B6891
:101B5C0023F0F0027B689B684D4913434B607B6814
:101B6C001B6803F00103002B40D07B685B68012BE2
:101B7C0007D1474B1B6803F40033002B15D101230D
:101B8C007FE07B685B68022B07D1414B1B6803F03D
:101B9C000073002B09D1012373E03D4B1B6803F04C
:101BAC000203002B01D101236BE0394B5B6823F05E
:101BBC0003027B685B68364913434B60FEF7F6FD06
:101BCC00F8600AE0FEF7F2FD0246FB68D31A41F218
:101BDC008832934201D9032353E02D4B5B6803F009
:101BEC000C027B685B689B009A42EBD1274B1B680D
:101BFC0003F007033A689A4210D2244B1B6823F077
:101C0C00070222493B6813430B60204B1B6803F00F
:101C1C0007033A689A4201D0012332E07B681B68C3
:101C2C0003F00403002B08D0194B5B6823F4E0622B
:101C3C007B68DB68164913434B607B681B6803F0B9
:101C4C000803002B09D0124B5B6823F460527B68AD
:101C5C001B69DB000E4913434B6000F021F8024670
:101C6C000B4B5B681B0903F00F030A49CB5C22FA90
:101C7C0003F3094A1360094B1B681846FEF754FD21
:101C8C00002318461037BD4680BD00BF002002401F
:101C9C0000100240B02A00080000002004000020C0
:101CAC0090B48AB000AF2A4B3C1D0FCB84E80F00D8
:101CBC0040F201233B800023FB610023BB61002326
:101CCC007B6200237B6100233B62224B5B68FB61E0
:101CDC00FB6903F00C03042B02D0082B03D02DE07E
:101CEC001D4B3B622DE0FB699B0C03F00F0307F1CE
:101CFC002802134413F8243C7B61FB6903F4803302
:101D0C00002B13D0134B5B685B0C03F0010307F142
:101D1C002802134413F8283CBB617B690E4A02FB72
:101D2C0003F2BB69B2FBF3F37B6204E07B690B4A01
:101D3C0002FB03F37B627B6A3B6202E0064B3B6275
:101D4C0000BF3B6A18462837BD4690BC704700BFA1
:101D5C00902A00080010024000127A0000093D0091
:101D6C0080B400AF024B1B681846BD4680BC704760
:101D7C000000002080B500AFFFF7F2FF0246054BD4
:101D8C005B681B0A03F007030349CB5C22FA03F3DD
:101D9C00184680BD00100240C02A000880B485B0EF
:101DAC0000AF78600A4B1B680A4AA2FB03235B0A4C
:101DBC007A6802FB03F3FB6000BFFB685A1EFA60F3
:101DCC00002BF9D100BF00BF1437BD4680BC704753
:101DDC0000000020D34D621080B483B000AF786057
:101DEC00084611461A460346FB700B46BB70134659
:101DFC007B707B68FA781A707B68BA781A717B688A
:101E0C007A785A717B683A7C9A717B680822DA710D
:101E1C007B6818460C37BD4680BC704780B582B0D5
:101E2C0000AF78607B6800225A707B685B79012B6D
:101E3C0006D97B685B7843F00803DAB27B685A708A
:101E4C007B689B79002B0AD07B685B79012B06D1D0
:101E5C007B685B7843F00403DAB27B685A703220FB
:101E6C00FEF7AEFC7B68DB791946786800F012F956
:101E7C004FF47A70FEF7A4FC3021786800F0F5F886
:101E8C000520FEF79DFC3021786800F0EEF8052067
:101E9C00FEF796FC3021786800F0E7F80220FEF798
:101EAC008FFC2021786800F0E0F87B685B7843F0C9
:101EBC002003DBB21946786800F093F87B680422A3
:101ECC009A70786800F066F8786800F013F87B6810
:101EDC000222DA707B68DB7843F00403DBB219462C
:101EEC00786800F07EF8786800F013F800BF0837C7
:101EFC00BD4680BD80B582B000AF786001217868A6
:101F0C0000F06FF80220FEF75BFC00BF0837BD46FF
:101F1C0080BD80B582B000AF78600221786800F097
:101F2C0060F80220FEF74CFC00BF0837BD4680BDB0
:101F3C0090B587B000AF78600B46FB701346BB7052
:101F4C00134B07F108040FCB84E80F007B685B7917
:101F5C00BA789A4203D97B685B79013BBB70BB783A
:101F6C009B0007F11802134453F8103CDAB2FB78CB
:101F7C001344DBB25BB263F07F035BB2DBB2194696
:101F8C00786800F02EF800BF1C37BD4690BD00BF2E
:101F9C00A02A000880B582B000AF78607B689B787F
:101FAC0043F00403DAB27B689A707B689B7843F049
:101FBC000803DBB21946786800F013F800BF083745
:101FCC00BD4680BD80B582B000AF78607B680822CA
:101FDC00DA710021786800F05DF800BF0837BD4663
:101FEC0080BD80B582B000AF78600B46FB70FB788B
:101FFC0000221946786800F015F800BF0837BD4676
:10200C0080BD80B582B000AF78600B46FB70FB786A
:10201C0001221946786800F005F8012318460837A4
:10202C00BD4680BD80B584B000AF78600B46FB70B8
:10203C001346BB70FB7823F00F03FB73FB781B017B
:10204C00BB73FA7BBB781343DBB21946786800F09C
:10205C000CF8BA7BBB781343DBB21946786800F0F6
:10206C0004F800BF1037BD4680BD80B582B000AF0C
:10207C0078600B46FB70FB781946786800F00AF81C
:10208C00FB781946786800F01DF800BF0837BD468C
:10209C0080BD000080B582B000AF78600B46FB704D
:1020AC00074B1B687A6810787A68D179FA780A43FA
:1020BC00D2B21146984700BF0837BD4680BD00BF5D
:1020CC000001002080B582B000AF78600B46FB7039
:1020DC00FB7843F00403DBB219467868FFF7DAFFAC
:1020EC000120FEF76DFBFB7823F00403DBB21946ED
:1020FC007868FFF7CFFF0120FEF762FB00BF0837BF
:10210C00BD4680BD80B586B000AFF860B96013469F
:10211C00FB7100237B61FB797A699A420BDA7B694C
:10212C00BA6813441B781946F868FFF76AFF7B6995
:10213C0001337B61EFE700BF1837BD4680BD00005F
:10214C0080B483B000AF78603960044A3B68136098
:10215C0000BF0C37BD4680BC704700BF000100209B
:10216C00014B1868704700BF0C00002070B50026AA
:10217C000C4D0D4C641BA410A64209D100F05CFC64
:10218C0000260A4D0A4C641BA410A64205D170BD52
:10219C0055F8043B98470136EEE755F8043B984751
:1021AC000136F2E7FC2A0008FC2A0008FC2A000889
:1021BC00042B000803460244934200D1704703F8F5
:1021CC00011BF9E70EB46FF0004100B59CB01DABDC
:1021DC0002900690079104910848094953F8042B82
:1021EC000591006802A9019300F068F80022029B97
:1021FC001A701CB05DF804EB03B070470C000020A3
:10220C000802FFFF2DE9F0478E6882469E420C467D
:10221C0090461F4638D88A8912F4906F32D02568C0
:10222C0009690133A5EB010965694B4405EB4505CB
:10223C0005EBD5756D109D4238BF1D46530531D544
:10224C00294600F053FB064650B90C234FF0FF30E3
:10225C00CAF80030A38943F04003A381BDE8F0879E
:10226C004A46216900F0CEFAA38923F4906343F027
:10227C008003A38126614E4426603E466561A5EB32
:10228C000905A560BE4200D93E463246414620684B
:10229C0000F0C6FAA36822689B1B32440020A3609E
:1022AC002260DBE72A4600F07BFB06460028E1D1E2
:1022BC005046216900F0CEFAC7E700002DE9F04F37
:1022CC0098468B8907461B060D4614469DB00ED5C5
:1022DC000B6963B9402100F009FB2860286120B923
:1022EC000C233B604FF0FF30D1E040236B610023A7
:1022FC00099320238DF8293030234FF00109CDF8B4
:10230C000C80DFF8A4818DF82A3023469A4613F806
:10231C00012B0AB1252AF9D1BAEB040B0BD05B4681
:10232C00224629463846FFF76DFF013000F0AA809F
:10233C00099A5A4409929AF80030002B00F0A280B6
:10234C0000234FF0FF32CDE905230AF1010A049373
:10235C0007938DF853301A935446052214F8011B39
:10236C00514800F041FA049AD8B9D00644BF202352
:10237C008DF85330110744BF2B238DF853309AF846
:10238C0000302A2B15D0544600204FF00A0C079A27
:10239C00214611F8013B303B092B4ED9B0B10792C5
:1023AC0014E0A0EB080309FA03F31343A2460493C9
:1023BC00D2E7039B191D1B680391002BBBBF5B422B
:1023CC0042F0020207930793B8BF049223782E2B96
:1023DC000CD163782A2B35D1039B02341A1D1B6850
:1023EC000392002BB8BF4FF0FF330593DFF8C8A062
:1023FC0003225046217800F0F7F940B14023A0EBBE
:10240C000A0003FA00F0049B01340343049314F80C
:10241C00011B062225488DF8281000F0E5F900284C
:10242C0038D0234B1BBB039B073323F00703083324
:10243C000393099B3344099367E70C4601200CFB7B
:10244C000232A5E700234FF00A0C1946013405931C
:10245C00204610F8012B303A092A03D9002BC5D09D
:10246C000591C3E7044601230CFB0121F0E703AB04
:10247C0000932A4638460F4B04A9AFF30080421C48
:10248C000646D6D1AB895B063FF52CAF09981DB03B
:10249C00BDE8F08F03AB00932A463846054B04A9E0
:1024AC0000F07CF8EBE700BFC82A0008D22A00082D
:1024BC000000000011220008CE2A00082DE9F04788
:1024CC00164699468A680B6907469342B8BF13466D
:1024DC00336091F843200C46DDF820800AB10133BB
:1024EC0033602368990642BF336802333360256832
:1024FC0015F0060506D104F1190AE36832689B1A37
:10250C00AB4228DC94F84320131E226818BF012329
:10251C0092062DD44946384604F14302C047013097
:10252C0020D02368E56803F00603042B18BF0025B0
:10253C0032684FF00006A36808BFAD1A226908BFC5
:10254C0025EAE5759342C4BF9B1AED181A34B542BF
:10255C001AD1002008E00123524649463846C047AC
:10256C00013003D14FF0FF30BDE8F0870135C4E7EF
:10257C003020E11881F843005A1C94F8451022448D
:10258C00023382F84310C5E70123224649463846F8
:10259C00C0470130E6D00136D9E700002DE9FF47EE
:1025AC000C46277E9146782F80469A460C9904F16A
:1025BC00430207D8622F0AD8002F00F0D980582F79
:1025CC0000F0A48004F1420684F842703AE0A7F1CE
:1025DC006303152BF6D801A050F823F04126000810
:1025EC0055260008D1250008D1250008D125000862
:1025FC00D125000855260008D1250008D125000852
:10260C00D1250008D125000863270008852600087D
:10261C0045270008D1250008D1250008852700088A
:10262C00D125000885260008D1250008D1250008F1
:10263C004D2700080B6804F142061A1D1B680A603E
:10264C0084F842300123A4E0256808682E0600F1C6
:10265C0004030AD505680B60002D03DA2D236D42A7
:10266C0084F843300A235E4819E015F0400F0568E2
:10267C000B6018BF2DB2EFE70B682568181D0860BA
:10268C00280601D51D6802E06906FBD51D886F2F51
:10269C000CBF08230A235248002184F843106668B3
:1026AC00002EA8BF2168A660A4BF21F00401216000
:1026BC000DB9002E4DD01646B5FBF3F103FB1157A7
:1026CC00C75D06F8017D2F46BB420D46F4D9082B99
:1026DC000BD12368DF0708D5236961689942DEBFF7
:1026EC00302306F8013C06F1FF36921B22614B4663
:1026FC0021464046CDF800A003AAFFF7DFFE0130CB
:10270C004CD14FF0FF3004B0BDE8F087344884F86A
:10271C0045700E68236856F8045B1F060E6014D5CE
:10272C00D90744BF43F0200323601DB9236823F06D
:10273C00200323601023AFE7236843F020032360BA
:10274C007823284884F84530E3E75E0648BFADB2ED
:10275C00E6E71646BBE70B6826681D1D60690D6031
:10276C0035061B6801D5186002E07106FBD5188090
:10277C00002316462361BAE70B681A1D0A601E680F
:10278C0000213046626800F02FF808B1801B6060B1
:10279C0063682361002384F84330A8E73246494636
:1027AC0040462369D0470130ABD023689B0713D434
:1027BC00E068039B9842B8BF1846A4E70123324651
:1027CC0049464046D04701309BD00135E368039918
:1027DC005B1AAB42F2DCEBE7002504F11906F5E7D6
:1027EC00D92A0008EA2A0008034610B5C9B20244E7
:1027FC009342184601D1002003E0047801338C4247
:10280C00F6D110BD0A44914200F1FF3300D170475C
:10281C0010B511F8014B914203F8014FF9D110BDDD
:10282C00884210B501EB020402D98442234607D832
:10283C00431EA14208D011F8012B03F8012FF8E731
:10284C00014602448A4200D110BD13F8014D02F832
:10285C00014DF7E738B50546002943D051F8043C43
:10286C000C1F002BB8BFE41800F0D0F81E4A1368F8
:10287C00104633B9636014602846BDE8384000F058
:10288C00CBB8A3420AD921686218934201BF1A68D7
:10289C005B685218226063600460EDE71A465B685F
:1028AC000BB1A342FAD911685018A0420BD1206881
:1028BC000144501883421160DED118685B680144F2
:1028CC0011605360D8E702D90C232B60D4E7206841
:1028DC0021188B4201BF19685B680918216063607D
:1028EC005460C9E738BD00BF04010020F8B5CD1C09
:1028FC0025F0030508350C2D38BF0C25002D064698
:10290C0001DBA94203D90C2333600020F8BD00F091
:10291C007DF821490A6814469CB9204F3B6823B9BD
:10292C002146304600F062F838602946304600F007
:10293C005DF8431C23D10C233046336000F06CF857
:10294C00E3E723685B1B17D40B2B03D923601C44D0
:10295C00256004E06368A2420CBF0B6053603046F4
:10296C0000F05AF804F10B00231D20F00700C21AE6
:10297C00CCD01B1AA350C9E722466468CCE7C41C10
:10298C0024F00304A042E3D0211A304600F02EF8C4
:10299C000130DDD1CFE700BF040100200801002089
:1029AC00F8B5074614460E4621B91146BDE8F84065
:1029BC00FFF79CBF22B9FFF74DFF25462846F8BD0F
:1029CC0000F030F8A0420FD221463846FFF78EFFB8
:1029DC0005460028F2D031462246FFF713FF314658
:1029EC003846FFF737FFE9E73546E7E738B5002308
:1029FC00054D044608462B60FDF71EFE431C02D114
:102A0C002B6803B1236038BD10010020014800F091
:102A1C0011B800BF18010020014800F00CB800BF2D
:102A2C001801002051F8043C181F002BBCBF0B5898
:102A3C00C018704770477047F8B500BFF8BC08BCA9
:102A4C009E467047F8B500BFF8BC08BC9E46704760
:102A5C0048656C6C6F20576F726C6421000000002D
:102A6C00446F20616D203D2025642C2564000000FE
:102A7C004E6869657420446F203D2025642C2564C4
:102A8C000000000002030405060708090A0B0C0DE0
:102A9C000E0F101000000000400000001400000099
:102AAC0054000000000000000000000001020304BC
:102ABC00060708090000000001020304232D302B37
:102ACC002000686C4C006566674546470030313223
:102ADC00333435363738394142434445460030317A
:102AEC0032333435363738396162636465660000D9
:082AFC00310100080505000886
:042B04000D010008B7
:102B08000024F40010000000010000001000002064
:102B180000000000000000000000000000000000AD
:102B2800000000000000000000000000000000009D
:102B3800000000000000000000000000000000008D
:102B4800000000000000000000000000000000007D
:102B5800000000000000000000000000000000006D
:102B6800000000000000000000000000000000005D
:04000005080006BD2C
:00000001FF
