:1000000000100020CD070000150800004D0300007F
:100010001508000015080000150800000000000089
:1000200000000000000000000000000015080000B3
:100030001508000000000000150800001508000069
:10004000150800001508000015080000150800003C
:10005000150800001508000015080000150800002C
:100060001508000015080000000000000000000056
:100070001508000015080000150800000000000029
:1000800015080000150800001508000015080000FC
:100090000000000000000000000000000000000060
:1000A0000000000015080000000000000000000033
:1000B0001508000015080000000000000000000006
:1000C00010B5064C2378002B07D1054B002B02D02E
:1000D000044800E000BF0123237010BD8000002011
:1000E0000000000094390000084B10B5002B03D02D
:1000F0000749084800E000BF07480368002B00D10B
:1001000010BD064B002BFBD09847F9E7000000001C
:1001100084000020943900007C00002000000000D2
:10012000164B002B00D1144B9D46402292029A1A86
:10013000924600218B460F461348144A121A02F0C9
:10014000F0FA0F4B002B00D098470E4B002B00D03D
:1001500098470020002104000D000D48002802D01F
:100160000C4800E000BF02F0A5FA2000290000F0D2
:1001700065F802F089FAC04600000800001000206F
:10018000000000000000000080000020B8000020F7
:10019000000000000000000010B5012800D010BDD4
:1001A000064B9942FBD1064C200000F0A3F9054A0A
:1001B0000549200000F000FCF1E7C046FFFF000009
:1001C0009C00002000000020E504000010B5A022E3
:1001D000D20580235B005921D1504339D15072316F
:1001E000D150D358002BF2D08739072000F046F8C1
:1001F0000822054B9A6000F00FFB002180235B0072
:10020000A022D205D15010BD0002005070B50400EC
:100210000D00160000F054FA6400E0B200F084FA19
:100220000024B44206D2287800F07EFA0135013469
:10023000E4B2F6E700F05EFA70BD000010B5FFF71B
:10024000C5FF00F02BFA074C200000F099F90122BD
:100250000021200000F0C8F90349200000F0E5F972
:10026000FEE7C0469C000020B836000010B50249E9
:100270000120FFF791FF10BDFFFF000010B5074AF6
:1002800093690F24A34319439161136907218B4399
:100290001843106100F0C0FA10BDC04600020050C3
:1002A00070B5002300E00133072B0DD801249C40DA
:1002B0002142F8D004685E000325B540AC43150028
:1002C000B5402C430460EEE770BD000010B504009B
:1002D0000168104802F0D6FA61680F4802F0D2FABD
:1002E000A1680E4802F0CEFAE1680D4802F0CAFAA1
:1002F00021690C4802F0C6FA61690B4802F0C2FAA3
:10030000A1690A4802F0BEFAE169094802F0BAFAA6
:1003100010BDC046E4360000F0360000FC36000098
:100320000837000014370000203700002C37000089
:100330003837000010B50400034802F01DFB200010
:10034000FFF7C4FFFEE7C046CC360000064B042092
:100350007146084203D0EFF309807146EAE7EFF3F4
:100360000880E7E7FEE7C0463503000030B513001C
:1003700001E0230001005C1E002B14D00B4B9B6995
:100380001B02FBD4481C00254D57084B1D60012360
:10039000CB560A2BEDD1054B9B691B02FBD40D21DB
:1003A000024B1960E5E7100030BDC0460000054073
:1003B000044B9B695B04FBD4024B1B680B70012050
:1003C0007047C04600000540134B98420FD0134BB6
:1003D0005A69120B07231340002B10D10F4B1A68D8
:1003E00003231340012B08D08020000270470B4BE1
:1003F0005A69120A07231340EEE70948F6E7012B72
:1004000007D0022B02D0074B1868EFE7064B18689D
:10041000ECE70648EAE7C046000001400002005051
:10042000001BB70008000020B000002010270000CB
:10043000F0B583B005000F00FFF7C6FF0600244BA0
:100440001868310000F064FB040000232B606B612E
:10045000204B9E4221D0380009300A2100F058FB81
:1004600083001B1858001C4B9E421FD9B608032757
:1004700001F016F80190300001F012F8011C01980B
:1004800000F032FD154900F0E7FB00F0CDFB68609D
:100490008023DB053B432B6012E03800633064218E
:1004A00000F036FB030064205843DCE70C4B9E420F
:1004B00002D976080127DBE70027D9E7C046013CCF
:1004C000002CFBD12B689B01FCD403B0F0BDC046CF
:1004D000B000002010270000FFFFFF010024744936
:1004E000FFFFFF00704710B5040000F0F3FA200092
:1004F00010BD0000014B0833036070475437000003
:1005000000B583B06B46D97107330122190027204B
:10051000FFF77CFE03B000BD70B504000D000421A0
:100520002943C9B2FFF7ECFF084EFA2189003000D9
:10053000FFF77EFF0423290099432000FFF7E0FF27
:1005400003493000FFF774FF70BDC0462000014032
:1005500050C3000070B504000D00FFF7D1FF290063
:100560002000FFF7D9FF70BD70B504000D00090928
:10057000FFF7F0FF29002000FFF7ECFF70BD00003F
:1005800070B504000021FFF7E5FF134D1349280063
:10059000FFF74EFF03212000FFF7DCFF1049280082
:1005A000FFF746FF0F492800FFF742FF0221200016
:1005B000FFF7D0FF28212000FFF7D6FF0C212000F5
:1005C000FFF7D2FF06212000FFF7CEFF0121200018
:1005D000FFF7CAFF70BDC0462000014040420F0037
:1005E00080841E0000350C0070B50500002A10D074
:1005F0004039CCB2084EFA2149013000FFF718FF0C
:1006000021002800FFF7B0FF04493000FFF710FF7A
:1006100070BD8039CCB2EDE720000140801A0600A1
:1006200010B5C9B2FFF7A0FF10BD70B505000C00F2
:1006300000216156002904D02800FFF7F1FF0134A2
:10064000F6E770BD10B5012220210248FFF728FE11
:1006500010BDC0468040005010B501221021024854
:10066000FFF71EFE10BDC046804000500122014B26
:100670001A607047544200500022014B1A607047C4
:10068000544200500122014B1A6070475042005002
:100690000022014B1A6070475042005010B5FFF71E
:1006A000D1FFFFF7D9FFFA2189000448FFF7C0FE08
:1006B000FFF7DCFFFFF7E6FF10BDC046200001405A
:1006C00070B5FFF7BFFFFFF7D1FFFFF7DBFFC825CE
:1006D0006D00074C29002000FFF7AAFEFFF7CCFFB2
:1006E00029002000FFF7A4FEFFF7D2FF70BDC0462F
:1006F0002000014070B5FFF7A5FFFFF7BDFFFFF732
:10070000C7FFC8256D00074C29002000FFF790FEA9
:10071000FFF7ACFFFFF7B6FF29002000FFF788FEC8
:1007200070BDC0462000014070B50500FFF78AFF8C
:10073000FFF7AEFF082416E0FFF798FF6D00EDB25B
:100740000D4EC8213000FFF773FEFFF79BFFC82155
:100750003000FFF76DFEFFF79BFFC8213000FFF769
:1007600067FE013CE4B2002C05D06BB2002BE3DB4A
:10077000FFF782FFE2E770BD2000014010B501F0F5
:100780007DFF582303600120404210BD10B501F0E9
:1007900075FF582303600120404210BD10B501F0E1
:1007A0006DFF582303600120404210BD10B501F0D9
:1007B00065FF58230360002010BD10B501F05EFFF7
:1007C000582303600120404210BD00000B490C4A31
:1007D0000C4B9B1A03DD043BC858D050FBDC0A4885
:1007E00059210160162101608821016007480849EC
:1007F0000160054800210160FFF792FCD83A000033
:100800000000002080000020000100506000005027
:10081000A55A0000FEE7C04610B582B0234B1B6806
:100820000193234B1B6AA022D202134219D11A034F
:1008300015D520489A0315D4990B03220A4001A923
:100840008C5CDA05D20D02325B0A1F21194002319D
:1008500080085043614300F05BF9800002E01648D5
:10086000E8E70020154B1860114B1A690723134065
:1008700019D0022B02D0032B13D00E480C4B9B69CE
:100880000F211940013100F043F90D4B18600D4B59
:100890009C4660440C4900F03BF90C4B186002B0D8
:1008A00010BD0B48EAE70448E8E7C046643700009B
:1008B0000002005000805101001BB700040000201E
:1008C000B000002020A1070040420F00B40000202B
:1008D000102700007FB500246B461C711023029383
:1008E000036815009E6912686B4600940394B04734
:1008F0006B4606221B7920001340934202D1009BD5
:1009000001302B6004B070BD009B0620934200D0E4
:100910000538704710B50400034B0833036000F03E
:10092000DDF8200010BDC0469837000010B5040067
:10093000FFF7F0FF2000082100F0C8F8200010BDEC
:1009400070B515001C0000F0CCF8002804D0082376
:10095000E360023B2560237170BDF8B505000C0013
:1009600016001F0000F0BDF8002807D1032F05D89E
:10097000236832005B69290020009847F8BDF8B56C
:1009800014001F00089A069B0500099E934204D19B
:10099000079900F0A6F800280CD13900280000F0D3
:1009A000A0F8002804D0069B347133600123B37192
:1009B0000020F8BD7471FBE70B0010B501001800B2
:1009C00001F04EFE10BD000010B50400034B0833CB
:1009D0000360FFF79FFF200010BDC046F8370000FE
:1009E00010B50400FFF7F0FF20000C2100F06EF8B6
:1009F000200010BDF7B51C00089B06000F00150075
:100A0000934206D1210000F06CF8002801D00620A6
:100A1000FEBDB068089A036800921E6A2A0023008F
:100A20003900B047F4E7F0B50C0087B01900059322
:100A3000070004920F9E00F054F80C9B051E17D07F
:100A400033606B461B7C3371002C0BDB0C9B0E9AC6
:100A50001C190623A24200D0053B0025B3712800D3
:100A600007B0F0BD0025A31CF9D10123B371F6E74F
:100A70000E9A934205D10D99380000F032F8002803
:100A80000FD1B8680E9A036802920D9A03960192EC
:100A90000C9A21000092DD69049A059BA847050085
:100AA000DDE76B461B7C7371D9E7F8B507000C00D6
:100AB00015001E00FFF744FF002806D1B8682A0081
:100AC000036821009F693300B847F8BD10B500F0F6
:100AD00001F810BD10B501F011FE10BD70470020E7
:100AE000704710B5012381420FD04068002302787F
:100AF0002A2A0AD049680B782A3B5A425341C9181E
:100B000001F056FF43424341DBB2180010BD000024
:100B1000002243088B4274D303098B425FD3030A3C
:100B20008B4244D3030B8B4228D3030C8B420DD34F
:100B3000FF22090212BA030C8B4202D312120902DD
:100B400065D0030B8B4219D300E0090AC30B8B421B
:100B500001D3CB03C01A5241830B8B4201D38B03C9
:100B6000C01A5241430B8B4201D34B03C01A52416E
:100B7000030B8B4201D30B03C01A5241C30A8B42B1
:100B800001D3CB02C01A5241830A8B4201D38B029C
:100B9000C01A5241430A8B4201D34B02C01A524140
:100BA000030A8B4201D30B02C01A5241CDD2C309B2
:100BB0008B4201D3CB01C01A524183098B4201D32E
:100BC0008B01C01A524143098B4201D34B01C01A19
:100BD000524103098B4201D30B01C01A5241C30891
:100BE0008B4201D3CB00C01A524183088B4201D300
:100BF0008B00C01A524143088B4201D34B00C01AEC
:100C00005241411A00D20146524110467047FFE757
:100C100001B5002000F006F802BDC0460029F7D05B
:100C200076E770477047C0469E2110B5C905041C81
:100C300001F03EFC002803D1201C00F011FC10BD87
:100C40009E21201CC90500F06FFA00F009FC8023EA
:100C50001B069C466044F2E7F0B557464E46DE461A
:100C60004546E0B544024300C60F83B00F1C640A3A
:100C70001B0EB24653D0FF2B27D08022E400D204B3
:100C800014437F22524290469844002399469B4643
:100C90007D027800FB0F6D0A000E009324D0FF2820
:100CA00046D080230021ED00DB041D437F384746FA
:100CB000381A4F460F43BF00B9463300009A874F9A
:100CC00053404A46BA5801939746002C4ED1082308
:100CD0009946F7339846FD3B9B467D027800FB0F13
:100CE0006D0A000E0093DAD1002D26D100200121DB
:100CF0003300009A7A4F53404246101A4A460A433C
:100D00009200BA581D009746009B2C009A468B46CD
:100D10005B46022B31D15346FF21002438E0002CE2
:100D200017D1042399460023984601339B46AFE729
:100D3000FF20002D0BD10221DAE7280001F0C2FBD1
:100D4000431F9D4076235B42181A0021AFE7032121
:100D5000ADE7200001F0B6FB431F9C4076235B42C9
:100D60001B1A9846002399469B4691E70C23994607
:100D7000F3339846FC3B9B468AE7032B00D1A5E062
:100D80005546012B00D081E00123002100242B4097
:100D90006402C905600ADB070843184303B03CBC82
:100DA00090469946A246AB46F0BD80240023E4035A
:100DB000FF21EDE7FF210024EAE70123591A1B294F
:100DC00066DD019A134000210024E1E78023DB0364
:100DD0001C4238D01D4251D01C436402640A3300C7
:100DE000FF21D5E763016C01A3423BD21B26002102
:100DF000013801251F0049005B00002F01DB9C42E8
:100E000001D81B1B2943013E002EF3D11C00631E99
:100E10009C410C4301007F310029CEDD630704D0E3
:100E20000F232340042B00D00434230103D50100F9
:100E30002C4B80311C40FE290DDD0123019AFF213E
:100E400013400024A4E78023DB031C436402640AEC
:100E50003300FF219CE70123019AA401640AC9B26F
:100E6000134095E71B1B1A260121C2E7009B8B4606
:100E70009A4600244CE76302E5D500258024E4036C
:100E80002C436402640A009BFF2181E70195C1E7BE
:100E900023002020CB40411A8C40611E8C411C4312
:100EA000630704D00F232340042B00D004346301D4
:100EB00005D50123019A01211340002468E701238D
:100EC000019AA401640A1340002161E78023DB0337
:100ED0001C436402640A5346FF2159E73C38000072
:100EE0007C380000FFFFFFF7F8B557464E464546F1
:100EF000DE46E0B54702460088467F0A360EC40F3C
:100F0000002E47D0FF2E24D0FB008027FF041F4374
:100F1000002399469A467F3E43465D025800DB0F08
:100F20006D0A000E984643D0FF283BD0EB00802589
:100F30000022ED041D437F383618731C41469B4642
:100F40004B46614013430F2B64D875489B00C35830
:100F50009F46002F42D108239946063BFF269A461A
:100F6000DAE74146022A28D0032A00D1CEE0012A3E
:100F700000D0ACE0114000200022CCB24002D205EB
:100F8000400AE407104320433CBC90469946A246E1
:100F9000AB46F8BD002F15D104239946033B00262C
:100FA0009A46B9E7FF200222002DC5D00322C3E7ED
:100FB000002D19D100200122BEE70124FF220C40A0
:100FC0000020DBE7380001F07DFA7626431F9F40C2
:100FD00000237642361A99469A469DE70C23994695
:100FE000093BFF269A4697E7280001F06BFA431F5A
:100FF0009D4076235B42181A00229DE78020002442
:10100000C003FF22BAE73D005246ABE73D00210096
:101010005246A7E73B0C9C462A04120C2B0C1400EA
:10102000604665463F043F0C7C4342435D437B433F
:10103000270C9B18FF18BA4203D980235B029C46F9
:10104000654424043A04240C121993015C1EA34144
:101050003F0C920E7D191A43AD0115432B0104D5A7
:1010600001235E466A081D40154332007F32002A84
:1010700025DD6B0704D00F232B40042B00D0043553
:101080002B0103D53200274B80321D40FE2A94DC11
:101090000124A801400AD2B20C406FE78020C003AF
:1010A000074207D0054205D128434002400A444682
:1010B000FF2263E738434002400AFF225EE7012433
:1010C000A31A1B2B05DD0C400022002056E75E46CC
:1010D000CBE72A002020DA40C31A9D402B005D1E7A
:1010E000AB4113435A0704D00F221A40042A00D000
:1010F00004335A0104D5012401220C4000203DE7AD
:1011000001249B01580A0C40002237E7802001246B
:10111000C00328434002400A0C40FF222EE7C0468D
:10112000BC380000FFFFFFF7F0B54F46D6464646F5
:101130004400C0B5C20F47024802400A84466646D2
:101140007B0A4800C90F9A46240E1500DB00000EEA
:101150008946F600FF2800D18FE001214F464F401D
:101160003900914266D0221A002A00DC9DE0002856
:101170003DD1002E00D18BE0511E002900D0B5E0FA
:1011800001249B1B5A0144D59B019F09380001F0A3
:1011900099F905388740844200DD96E0041B3A0047
:1011A00020200134E240041BA7403B005F1EBB41EE
:1011B000002413435A0704D00F221A40042A00D0F7
:1011C00004335A0127D50134FF2C00D179E00122E4
:1011D0009B015B0AE4B22A405B02E405580AD2078D
:1011E000204310431CBC90469946A246F0BDFF2CFC
:1011F000E0D08021C9040E431B2A7BDC3100202073
:10120000D140821A9640721E96410E439B1B5A0192
:10121000BAD45A07D0D10122DF082A40FF2C33D19B
:10122000002F00D1A8E08023DB033B435B025B0A75
:10123000FF24D1E7211A00294CDD00282AD0FF2CF9
:10124000B8D08020C00406431B2900DDAFE0300089
:101250002027C840791A8E40711E8E4106439B1983
:101260005901D6D50134FF2C00D185E001227A49FD
:101270001A405B080B4013439CE7002E00D070E738
:101280006BE73B1EC5D100227B025B0AE4B2A3E7F9
:1012900014008FE7002E4DD0481E002857D19B190F
:1012A00001245A01B5D50224E0E7002A25D1621CA9
:1012B000D2B2012A72DD9F1B7A0135D5F71A0D00D3
:1012C00064E7012200232A4086E73B00634A241A90
:1012D00013406FE700296CD1611CC8B201284EDDB4
:1012E000FF2949D09B195B080C0063E7FF2A41D016
:1012F0000A0081E701269B1B89E7002C1CD0FF28F0
:1013000021D08024E404524223431B2A00DD96E0CE
:101310001C002025D440AA1A93405A1E934123430F
:10132000F31A04000D002DE7002F00D02EE7002255
:101330000024A9E70C003DE7002B58D0D243002A37
:10134000EED0FF28E1D13300FF240D0032E7FF2962
:1013500010D0010078E7002B6ED0FF24002E00D1C2
:1013600028E780225146D203114203D06146114240
:1013700000D13300FF241DE7FF2400232CE7002CBD
:10138000E9D1002B63D0002E00D113E79B195A013D
:1013900000D43EE7314A0C0013400BE7002C1ED16D
:1013A000002B2FD1002E4FD033000D0002E7012675
:1013B00055E7002C1FD1002B43D0C94300290BD087
:1013C000FF2839D01B2944DC1C002027CC40791A87
:1013D0008B40591E8B4123439B19040040E7002B8F
:1013E0001AD1002E24D180270022FF031BE73300EF
:1013F00004000D00DEE6FF281ED08024E4044942EC
:101400002343DFE7002E00D1D4E69F1B7A0100D4EE
:1014100037E7F31A0D00CDE6FF24002E00D1C9E610
:1014200080225046D2031042A4D060461042A1D17F
:1014300033000D00FF24BDE63300FF24BAE601238C
:101440006EE733000400B5E6002700221CE73300F6
:10145000B0E60123C0E7C046FFFFFF7DFFFFFFFBB3
:1014600041024300C20F490A1B0E00207E2B0DDDF6
:101470009D2B0CDC802000040143952B0ADC962078
:10148000C31AD9404842002A00D108007047034BD4
:10149000D018FBE7963B9940F4E7C046FFFFFF7F7B
:1014A00010B5041E27D001F00DF89E231B1A962BB1
:1014B0000ADC9622D21A94406402640ADBB2640207
:1014C000DB05600A184310BD992B17DC9922D21A4C
:1014D000002A27DD94402200134C1440510704D009
:1014E0000F210A40042A00D00434620112D4A4015E
:1014F000640ADBB2E3E700230024E0E7B92221001D
:10150000D21A91400A00511E8A410521091ACC4085
:101510001443DBE7044B1C409F23A4011B1A640AFD
:10152000DBB2CCE72200D7E7FFFFFFFB03685A00DE
:1015300003D45B005B08C018704780221206134377
:10154000F9E7C046F0B557464E46DE464546E0B59B
:10155000814683B09246002925D04B1E9B4600272A
:1015600001935B46FB18DC0FE4184B466410E50062
:101570005E193000FFF7DAFF019B8046A3420BD0D3
:10158000280008304844FFF7D1FFD04506D801387D
:10159000504509D2671CE4E7504505D9A74202D05F
:1015A000631E9B46DDE70026300003B03CBC90463E
:1015B0009946A246AB46F0BD012809D0022805D0C5
:1015C000002801D0002070470248FCE70248FAE7F3
:1015D0000248F8E7D91C0000F11C0000E51C0000DF
:1015E00030B5234B83B005008C1E002B2AD001A9F7
:1015F000200000E000BF002820D001992200FFF762
:10160000A1FF041E1AD0FFF791FF6368A864012BA5
:1016100010D0201D002B1BDBFFF788FF0023E864A0
:101620002B650368002B17DBFFF780FF2861002084
:1016300003B030BD002305202B61F9E7002309200A
:101640002B61F5E70B480C49091AC9100191D5E740
:101650000123E8642B65E4E71801000FFFF7ACFFF6
:101660002861002801D10930E2E70020E0E7C04608
:1016700000000000C8390000D83A0000036810B527
:101680000400DA0705D49B070FD5483000F084FC2E
:1016900023685A070FD51A0714D5DB0604D4200097
:1016A000D130FF3000F084FC10BD483000F070FCF9
:1016B00023685A07EFD42000D03000F071FC236873
:1016C0001A07EAD420005130FF3000F06DFC236887
:1016D000E3E7C0460368002B00D01B1818007047D2
:1016E000092070477047C04670B504000D0008E03F
:1016F0002B6C2A0063612100012023699847082888
:1017000007D1296C2000FFF76BFF0028F0D000F014
:101710009FFF0728FBD10020296CFFF7E3FF281D5E
:1017200000F020FCF0B5CE46474680B5C368324C89
:101730009846A5448369060014000431402205A898
:10174000994600F0E5FF002304AD296C30000493B6
:10175000FFF746FF631E9C4107000934002F15D098
:10176000AB6B10216B644B4621430193C9B20095CA
:10177000330032000120C047002833D13800F52360
:101780009B009D440CBC90469946F0BDF0222B6C0A
:101790005200736129007CA800F0BAFF7CAA3100D6
:1017A0003369200098478A9B07006B6403934B467C
:1017B000009501933200330021000120C04700282A
:1017C00010D1F0227CA95200280000F0A1FF082FC0
:1017D00006D1296C3000FFF703FF09240700BDE79D
:1017E000072F01D00927C9E70020296CFFF77AFFEE
:1017F00005A800F0B7FBC0462CFCFFFF406C70470B
:1018000070B5CB6BFAB00B6404000E0040220431BB
:1018100003A800F07DFF01235B42029306E002AAC9
:10182000210023699847050008280AD1129B20004F
:1018300019000193FFF7D4FE0028F0D009207AB0F8
:1018400070BD02A8FFF71AFF062DF7D13100200066
:10185000FFF74AFF10B58261DA6BC1601A641900A4
:101860000022FFF75FFF10BD436970B50B64C368CA
:1018700004000D00002B04D00122FFF753FF00F0FD
:10188000E7FE0A002369010002209847072807D0D5
:10189000082803D129002000FFF726FF00F0D8FE1A
:1018A0000020296CFFF71EFF281D00F05BFBC046DF
:1018B000C36810B5002B05D0CB6B00220B64FFF77B
:1018C00031FF10BDFFF79CFFFBE7C0467047C046E5
:1018D000836810B5002B02D001000120984710BD8D
:1018E00010B5012907D0002907D0033902240129A6
:1018F00001D9200010BD0124FBE70224002BF8D100
:101900000F2AF6D8920082185268029B00241A60AF
:10191000EFE7C04600B585B003AB0A000093002195
:101920000023FFF7DDFF039805B000BD10B50129C6
:1019300007D0002907D003390224012901D920004A
:1019400010BD0124FBE70224002BF8D10F2AF6D8A2
:10195000029B92001B68821853600024EFE7C04688
:1019600000B585B003AB039200930A000023002169
:10197000FFF7DCFF05B000BD70B51A4CD36BA54472
:10198000136406000D0019A8111D402200F0C0FECE
:1019900001235B42189314E00C2118A802AAFFF758
:1019A000DFFF290018A8B047002812D1069B18AA0B
:1019B00002A9083001939847040005280AD0092895
:1019C00007D0289B02A819000193FFF709FE002801
:1019D000E2D0092418A8FFF751FE200090239B00B5
:1019E0009D4470BDC0FDFFFFF0B5DE464E46454646
:1019F000574693460322E0B51E0013008BB0034008
:101A00000193CB6C0D001C1D1B6808940793002EDE
:101A100066D11B02079306AB5E731A73019B022B00
:101A200000D16EE02B6DDB0747D40023A846B246F9
:101A300002930833034003932568002D00D137E15A
:101A40005346022B49D02588668804340123370089
:101A500099469F4343469B6C0F219C4658466744DA
:101A6000FFF758FF0022874206D82A004B469A43C8
:101A7000D719B84280414242022301217600334007
:101A80000D402B43012B3ED0002B5AD0022B1CD1F2
:101A9000236801995F007F08002965D1002A06D0DC
:101AA000039A002A00D188E0002F00D1AAE0002B81
:101AB00065DB0137BF00E419BEE700230293022E65
:101AC00047DDFFF70DFE002849D009200BB03CBCD4
:101AD00090469946A246AB46F0BD66680834B5E725
:101AE000022E9BDC1A0C1B040793022306A90B731E
:101AF000FD3313409B00E418019B4A73022B00D076
:101B000090E7AC6B8EE7019B002B3AD1002A16D0F0
:101B10002368DD0F63689A1CD7D04246583206927C
:101B2000013300D1C6E0201DFFF7D4FD06AB010054
:101B30002A00404600E000BF002800D0A7E008349B
:101B40007AE7019B002B02D0002A00D08BE00434FE
:101B500072E707A9584600F0D1FA0028B5D1029BD8
:101B6000002B5DD10820B1E743460D2158461D6A80
:101B7000FFF7D0FE854263D02368002B99DA043446
:101B800097E743460D2158461D6AFFF7C3FE85427D
:101B9000D5D143469B6A9C42D1D145462000FFF7F0
:101BA000C5FC0F2102005846FFF7DAFE58462A000E
:101BB0000021FFF7D5FE072088E7002F22D0582309
:101BC0005146434406AABA46251D002604940591B1
:101BD0001F00914603E004352600A24514D02800DA
:101BE0000697FFF777FD4B46010000224046741C24
:101BF00000E000BF0028EED05746059B049C9A46A3
:101C0000B742B9D1454601E04546049C0D215846EE
:101C1000FFF780FE069B28626B62AC62062055E7E8
:101C20000F215846FFF776FE0E2102005846FFF7B7
:101C300097FE5846274A0F21FFF792FE072045E7F7
:101C400043469B6A9C4297D1434642469F6200238B
:101C5000D36204331363231D53632368002B32DBE9
:101C60000123029325E72000FFF760FC454604347A
:101C70000600AC63404600E000BF002800D124E726
:101C8000584632000F21FFF76BFE07201EE70700C2
:101C90000D2158464546FFF73DFE2862022F0FD121
:101CA000069BEB6243462C336B62AC6206200DE769
:101CB000564604E70D2158464546FFF72BFE28629D
:101CC000069B6B62F1E73800013080004546201822
:101CD00065E7C0460000000010B50023FFF784FE52
:101CE00010BDC04610B50123FFF77EFE10BDC046F3
:101CF00010B50223FFF778FE10BDC046F0B5CE4602
:101D0000474680B50600C3B014001D0001294ED01F
:101D1000002933D003290AD0042902D1002B00D195
:101D200089E0022043B00CBC90469946F0BD032BDD
:101D3000F7D11404150C240C2B19102BF1D8082200
:101D400003681A4200D0E7E020AB1800984600F084
:101D50002DF9B36BED001A00002C09D0E400EA1A4B
:101D60001C1942441968D15004339C42FAD1220014
:101D7000B263404600F018F90020D3E70220002BA0
:101D8000D0D1002301271004B56B000C321D39009F
:101D90009940084202D029680435116001330432A9
:101DA000102BF4D10020A304BCD4B563BAE714040B
:101DB000170C240C012B5FD0052BB2D13B19202B23
:101DC000AFD80F2F7DD9A146002C65D1002223006A
:101DD0009146B16B002B00DC88E020A88046FA0019
:101DE000DB00521ACB1842440868505004318B4231
:101DF000FAD119004B46002B10D04B4658003A0040
:101E0000102F00D210220023103AD2006A44800022
:101E1000CC58D45004338342FAD1C918012D5ED076
:101E2000B1630F2F74D94B46002BA5D0684600F044
:101E3000B7F8002076E7102A00D972E7102203686D
:101E40001A4245D120AB1800984600F0B3F80023A1
:101E50000120B16B02009A40144204D045460F683D
:101E60009A00AF5004310133042BF3D14046B163E3
:101E700000F09EF8002055E73B19102B00D950E7E1
:101E80000F2F00D94DE700239946012233681A42EB
:101E900030D14B46002B5AD0042233681A4242D12B
:101EA000012D47D00F2F06D820AB180000F076F890
:101EB0004B46002B8AD0684600F074F81023DB1BD9
:101EC00087E7102BDFD91022524291469944DCE774
:101ED00093430360D130FF3000F06CF8B2E7043177
:101EE00020A8B16300F054F800201BE74B46002BFC
:101EF00084D193E7190091430A003160052D1ED06B
:101F00000322300093433360483000F043F8C0E7C9
:101F100020A800F041F886E7934303605130FF307A
:101F200000F044F810E7300093433360D03000F005
:101F300039F8B5E720AB180000F02CF8BEE7022313
:101F400030001A433260483000F028F8A1E7012D34
:101F500003D00F2F00D939E7A6E720AB180000F017
:101F600019F833E7011C343138C9043B9C461D6025
:101F7000A646011C20313CC990469946A246AB4674
:101F8000011C0831FCC941680068E54600BDC04637
:101F90007047C0467047C0467047C0467047C0464D
:101FA0007047C0467047C0467047C0467047C0463D
:101FB0007047C0467047C04601B401A801B585B05E
:101FC000FFB408A841464A4653465C4665463EC0B3
:101FD00001A83EC80F98009000230CB401A9FFF798
:101FE0000FFC109B12B0184701B401A801B585B0D1
:101FF000FFB408A841464A4653465C4665463EC083
:1020000001A83EC80F98009000230CB401A9FFF767
:102010002BFC109B12B0184701B401A801B585B084
:10202000FFB408A841464A4653465C4665463EC052
:1020300001A83EC80F98009000230CB401A9FFF737
:1020400037FC109B12B0184701B401A801B585B048
:10205000FFB408A841464A4653465C4665463EC022
:1020600001A83EC80F98009000230CB401ABFFF705
:10207000F1FB109B12B0184701B401A801B585B05F
:10208000FFB408A841464A4653465C4665463EC0F2
:1020900001A83EC80F98009000230CB401AAFFF7D6
:1020A0006BFC109B12B01847027A0300002A04D17F
:1020B000427AB020002A07D17047013A02720268C2
:1020C000100E12021A60F7E7013A5A725A68111D8F
:1020D0005960032112681972F2E7C04600B585B055
:1020E00003AB00930C2200230021FFF7F9FB0398B8
:1020F00005B000BD10B5FFF7F1FF10BDF0B55746B4
:102100004E464546DE460023E0B587B003930F33C5
:102110009846083B994680231B0306000F009A4609
:102120003800FFF7C1FF0400B02821D0030632D4E5
:10213000FF2583001D4005AB9B4600930D22002325
:10214000002130000435FFF7CBFB63064CD5059B1F
:102150005D1B05955B46009300230D220021300096
:10216000FFF7E4FB3800FFF79FFF0400B028DDD144
:10217000039B0024002B2FD105AD00950E220021DA
:102180003000FFF7ADFB009500230F220021300047
:10219000FFF7CCFB20E0030042469343DBB2802BE9
:1021A00063D0902B25D0A02B32D0B02B45D0C02BA4
:1021B00000D173E003004A469343DBB2D02B0AD12F
:1021C0005346024001321A43052301213000FFF734
:1021D00095FD0028A4D00924200007B03CBC9046FF
:1021E0009946A246AB46F0BD059B9C4665440595C5
:1021F000B0E7833B03400D2BEDD0424605AD0240D6
:102200000095002300213000FFF76AFB0095A3E74B
:10221000FF234A461B011900824311410A001A405C
:10222000030702D58023DB011A430023002130007D
:10223000FFF764FD0028CED172E7B1284AD0B2285A
:102240005ED0B32800D18BE0FC230340B42BC2D076
:102250004A465346024001321A430121012330000D
:10226000FFF74CFD0028B6D15AE704023800FFF70B
:102270001BFF802520432D02A842ACD0040100059D
:10228000020C002300213000FFF738FD0028A2D106
:102290002C4200D144E70123039341E7C6286AD0CA
:1022A000C7287CD003004A469343DBB2C02B00D141
:1022B0008BE0C82800D18FE0C92800D08BE7380018
:1022C000FFF7F2FEF02302031B03134042460240D5
:1022D000013278E73800FFF7E7FE002800D17AE7FF
:1022E000030042469343DBB2002B00D073E70200A9
:1022F00000213000FFF702FD002800D06BE70FE758
:1023000005AB00939B460D22002300213000FFF710
:10231000E7FA3800FFF7C8FE03066AD57F25B03C10
:10232000059B2840A0409C46604405903800073437
:10233000FFF7BAFE0306F3D4812292009446863A50
:10234000FF3A1040A040059B723A634418185B4660
:1023500005900093002100233000FFF7E7FADFE645
:102360003800FFF7A1FEF02302031B03134042468F
:102370000240013270E73800FFF796FEF0230203B7
:102380001B0313404246024001321A430323032138
:102390003000FFF7B3FC002800D01CE7C0E638008F
:1023A000FFF782FE002800D115E703004246934361
:1023B000DBB2002B00D00EE7020004213000FFF753
:1023C0009DFC002800D006E7AAE64346A0221C4058
:1023D000013412032243D9E73800FFF765FE434674
:1023E00002009A43D2B21032184012030130024365
:1023F000EAE60224A0E7C046030000B5DB6C85B026
:102400005A680800120201921A0001A908324A60B3
:1024100003220A72DB794B72FFF770FE05B000BD34
:1024200010B5FFF767FE806C10BDC04610B5FFF712
:1024300061FEC26CD3799B000833D01810BDC04632
:1024400010B500F005F9C04610B5FFF7F9FFC0461A
:102450008446081C6146FFE71FB500F0B7F8002866
:1024600001D40021C8421FBD10B500F049F8404218
:10247000013010BD10B500F0A9F8002801DB0020E4
:1024800010BD012010BDC04610B500F09FF8002817
:1024900001DD002010BD012010BDC04610B500F0C8
:1024A00055F8002801DC002010BD012010BDC046F9
:1024B00010B500F04BF8002801DA002010BD012013
:1024C00010BDC0461C2101231B04984201D3000CFF
:1024D00010391B0A984201D3000A08391B09984297
:1024E00001D30009043902A2105C40187047C046AD
:1024F00004030202010101010000000000000000CD
:1025000070B5420045024E024C00C30F6D0A120E18
:10251000760A240EC90F0120FF2A06D0FF2C03D013
:10252000A24201D1B54206D070BD002DFCD1FF2CD6
:10253000FAD1002EF8D18B4206D00120002AF3D127
:102540002800451EA841EFE70020EDE7F0B5420066
:1025500045024C02C30F48006D0A120E640A000EB9
:10256000C90FFF2A1ED0FF2821D0002A0AD16E42AF
:102570006E41F6B200280FD1002C0DD10020002DA5
:1025800009D005E0002801D1002C01D08B4211D0E8
:10259000012158420843F0BD002EF7D00120013937
:1025A0000843F8E7002DDED002204042F3E7002C7C
:1025B000DBD0F9E78242EBDC04DBA542E8D800205F
:1025C000A542E8D20121581E0843E4E7F0B54200D5
:1025D0004D024C004602760A120EC30F6D0A240EFD
:1025E000C90FFF2A16D0FF2C18D0002A0AD170423A
:1025F0007041C0B2002C15D0002805D0012001394F
:102600000843F0BD002C13D0994214D001205B4246
:102610001843F6E70220002EF3D1E4E70220002D54
:10262000EFD1E2E7002DE7D10020002EE9D0EDE761
:10263000002DE9D1EAE7A24206DCDFDBAE4203D897
:102640000020AE42DAD3DCE7012049420843D8E754
:1026500010B50620FEF792F8012001F01FF80000E7
:1026600070B5054C05001300201E04D00A0002209E
:10267000290000E000BF70BD00000000014B186899
:102680007047C0460C000020084B10B50400002B1A
:1026900002D0002100E000BF054B1868836A002BC0
:1026A00000D09847200000F0F9FFC046000000006D
:1026B000FC38000070B500260C4D0D4C641BA410B6
:1026C000A64209D1002600F0EBFF0A4D0A4C641B1C
:1026D000A410A64205D170BDB300EB58984701364F
:1026E000EEE7B300EB5898470136F2E770000020A0
:1026F00070000020700000207800002010B5034B0F
:102700000100186800F016F810BDC0460C0000204B
:10271000002310B59A4200D110BDCC5CC4540133E3
:10272000F8E703008218934200D170471970013313
:10273000F9E7000070B50500002910D00C1F2368D0
:10274000002B00DAE418280000F002FC1D4A136890
:10275000002B05D163601460280000F0FAFB70BD07
:10276000A34209D9216860188342F3D118685B68D5
:1027700041182160EEE713005A68002A01D0A242F6
:10278000F9D919685818A0420BD1206809185818AF
:1027900019608242E0D110685268411819605A608D
:1027A000DAE7A04202D90C232B60D5E72168601834
:1027B000824203D1106852684118216062605C60F7
:1027C000CAE7C046A0000020032370B5CD1C9D437E
:1027D000083506000C2D1ED20C25A9421DD830004C
:1027E00000F0B6FB254A14682100002919D1244CB9
:1027F0002368002B03D1300000F0C8F820602900C6
:10280000300000F0C3F8431C2CD10C23300033609F
:1028100000F09FFB03E0002DDFDA0C233360002083
:1028200070BD0B685B1B1AD40B2B03D90B60CC1843
:10283000256003E08C420ED163681360300000F025
:1028400088FB200007220B30231D9043C31AE7D0DA
:102850005A42E250E4E74B6863600C00EEE70C007C
:102860004968C2E70323C41C9C43A042E0D0211A5C
:10287000300000F08BF8431CDAD1C6E7A00000203E
:10288000A40000200FB40B4B13B51C68002C05D01E
:10289000A369002B02D1200000F058FA05AB049A7E
:1028A000A1682000019300F07DFB16BC08BC04B0B9
:1028B0001847C0460C00002070B505000E00002827
:1028C00004D08369002B01D100F040FAAB69AC68F9
:1028D000002B02D1280000F039FA244B9C420FD182
:1028E0006C68A3891B0702D52369002B20D1210026
:1028F000280000F0BDF800281AD00120404270BD29
:102900001B4B9C4201D1AC68EBE71A4B9C42E8D1CF
:10291000EC68E6E7013B0136A360002B04DAA2690C
:10292000934216DB0A2914D023685A1C22601970BE
:102930003178A3680029EDD1013BA360002B0FDAA9
:1029400022000A31280000F03DF8431CD5D00A20AF
:10295000D5E72200280000F035F8431CE8D1CCE789
:102960000A2023685A1C22601870C8E7203900002A
:10297000403900000039000010B5034B0100186811
:10298000FFF79AFF10BDC0460C000020002370B571
:10299000064C05000800236000F072FE431C03D1C2
:1029A0002368002B00D02B6070BDC046AC00002017
:1029B00002780B78002A03D0013001319A42F7D017
:1029C000D01A7047F8B505000E001400002804D096
:1029D0008369002B01D100F0B9F9224B9C422DD123
:1029E0006C68A369A360A3891B0731D52369002BF9
:1029F0002ED023682269F7B2981A6369F6B298421A
:102A000005DB2100280000F033F9002826D1A36857
:102A10000130013BA36023685A1C22601F70636968
:102A2000984204D0A389DB071AD50A2E18D12100B9
:102A3000280000F01DF9002812D00FE00A4B9C423C
:102A400001D1AC68CDE7094B9C42CAD1EC68C8E71C
:102A50002100280000F00CF80028CAD00126764298
:102A60003000F8BD20390000403900000039000076
:102A7000364B70B51D6806000C00002D05D0AB6903
:102A8000002B02D1280000F061F9314B9C420FD19C
:102A90006C680C23E25E93B219072DD4D90611D4C9
:102AA00009230120336037331343A381404270BDB3
:102AB000284B9C4201D1AC68EBE7274B9C42E8D104
:102AC000EC68E6E75B0713D5616B002908D02300AB
:102AD0004433994202D03000FFF72CFE0023636399
:102AE0002422A3899343A381002363602369236085
:102AF0000823A2891343A3812369002B0BD1A021B2
:102B00008022A389890092000B40934203D02100C8
:102B1000300000F0D9F90123A289134011D000231D
:102B2000A36063695B42A361002023698342BED135
:102B30000C23E25E1306BAD540231343A381013868
:102B4000B5E7920700D46369A360EDE70C000020AD
:102B5000203900004039000000390000F7B58A89AB
:102B600005000C00130760D44B68002B04DC0B6CD1
:102B7000002B01DC0020FEBDE76A002FFAD0002305
:102B80002E682B6080235B011A4034D0606DA389CE
:102B90005B0706D56368C01A636B002B01D0236CFA
:102BA000C01A0200216A00232800E76AB847A189F9
:102BB000431C06D12B681D2B31D82C4ADA40D30791
:102BC0002DD50023636023692360CB0405D5431C06
:102BD00002D12B68002B00D16065616B2E6000294B
:102BE000C8D023004433994202D02800FFF7A2FD49
:102BF00000206063BFE70123216A2800B847431C17
:102C0000C5D12B68002BC2D01D2B01D0162B01D1B2
:102C10002E60AFE74023A2891343A381ABE7402393
:102C20000B430120A3814042A5E70F69002FA1D0EB
:102C30000B680F60DB1B01930023920700D14B69E7
:102C4000A360019B002B00DC94E7019B3A00216A02
:102C50002800A66AB047002803DC4023A28913435A
:102C6000DFE7019B3F181B1A0193EAE701004020B0
:102C70000B6970B505000C00002B01D1002070BD60
:102C8000002804D08369002B01D100F05FF80B4BC2
:102C90009C4209D16C680C22A35E002BEED021006F
:102CA0002800FFF75BFFEAE7054B9C4201D1AC68C7
:102CB000F1E7044B9C42EED1EC68ECE720390000D0
:102CC000403900000039000010B5024900F0B2F8A8
:102CD00010BDC046712C0000002310B50400036035
:102CE0004360836081814366C28103614361836184
:102CF000190008225C30FFF714FD054B2462636263
:102D0000044BA362044BE362044B236310BDC04633
:102D1000ED340000153500004D3500007935000018
:102D200070B568254A1E55430E0029007431FFF71F
:102D30004BFD041E08D000212A00016046600C30C3
:102D4000A0606832FFF7EDFC200070BD836913B509
:102D50000400002B28D18364C3640365134B144A19
:102D60001B6882620193984201D101238361200094
:102D700000F020F86060200000F01CF8A060200047
:102D800000F018F80022E06004216068FFF7A4FF5B
:102D900001220921A068FFF79FFF02221221E068AB
:102DA000FFF79AFF0123A36113BDC046FC38000062
:102DB000C92C0000F8B51E4B07001E68B369002B34
:102DC00002D13000FFF7C2FF4836B4687368013B98
:102DD00004D53368002B07D03668F6E70C22A55ED1
:102DE000002D0DD06834F2E704213800FFF798FF7A
:102DF00030600028F0D10C2304003B602000F8BDB7
:102E0000012320005B42E3810233A38165662560D4
:102E1000A560656025616561A561082229005C30B7
:102E2000FFF77FFC6563A563A564E564E6E7C0463C
:102E3000FC380000F7B50400070000260191483473
:102E4000002C01D13000FEBD6368A5680093009B93
:102E5000013B009301D52468F2E7AB89012B08D927
:102E60000E22AB5E013304D029003800019B984745
:102E700006436835EBE7000070B50E001D000E2319
:102E8000C95E90B01400002907DA00232B60B389D3
:102E90001B0611D48023DB000FE001AA00F098FB91
:102EA0000028F2DBF022029B12021340054A9B1815
:102EB0005A4253412B60EDE740230020236010B0BD
:102EC00070BDC04600E0FFFFF7B502268B89050004
:102ED0000C00334206D023004733236023610123D3
:102EE0006361F7BD01AB6A46FFF7C6FF00990700B3
:102EF0002800FFF769FC002808D10C22A35E9A0580
:102F0000EFD4032293431E43A681E4E70F4BAB6249
:102F10008023A28920601343A381009B2061636109
:102F2000019B002B0DD00E23E15E280000F062FB18
:102F3000002806D00322A38993431A0001231343D8
:102F4000A381A0893843A081CBE7C046C92C0000EB
:102F500070477047936810B5013B9360002B05DA0A
:102F60009469A34208DBCBB20A2B05D01368581C26
:102F700010601970C8B210BDFFF724FDFBE7F8B56B
:102F800006000F001400D518AC4201D1002007E064
:102F900021783A003000FFF7DDFF0134431CF3D104
:102FA000F8BD0000F0B59FB006000F0014000593B7
:102FB000002804D08369002B01D1FFF7C7FE7F4BA7
:102FC0009F425CD17768BB891B0762D53B69002BA8
:102FD0005FD0002306AD6B6120336B761033AB7688
:102FE0000294029C2378002B5DD1029BE31A049388
:102FF0000DD0049B029A39003000FFF7C0FF431C3C
:1030000000D1CCE06A69049B944663446B612378E9
:10301000002B00D1C3E00122002352426A6002A9C2
:103020005432521801342B60EB60AB601370AB6507
:1030300021780522624800F003FB631C9C460028AF
:1030400035D12968CB0604D5532302AA20309B181A
:1030500018700B0704D553232B2002AA9B18187055
:1030600023782A2B2CD000200A21099B2278303A81
:10307000092A00D86BE000282AD0099328E0514B98
:103080009F4201D1B7689EE74F4B9F429BD1F768A3
:1030900099E739003000FFF7EBFC002899D00120B8
:1030A00040421FB0F0BD252B9FD001349AE7444B1E
:1030B0002968C01A012383400B432B606446B7E79D
:1030C000059B181D1B680590002B3ADB099364468D
:1030D00023782E2B0BD16378621C2A2B3FD1059BC2
:1030E00002341A1D1B680592002B35DB07932178EB
:1030F0000322364800F0A4FA002807D0334B2A6890
:10310000C01A4023834013432B6001342178631C91
:1031100006222F480293297600F092FA002844D024
:103120002C4B002B2FD12968059B0722C90528D5D8
:103130009B189343083305936B69039A9B186B6143
:103140004FE75B42EB6002230B432B60BFE74B432F
:1031500001349B18012089E701235B42C6E7002365
:1031600014000A201A006B6021783039092903D92C
:10317000002BBCD00792BAE7424301345218012316
:10318000F2E70733D5E705AB00933A00124B29006D
:10319000300000E000BF0390039B0133CCD1BB891A
:1031A0005B0600D57BE70B987BE705AB00933A0005
:1031B000094B2900300000F07FF8ECE720390000CF
:1031C0006039000040390000003900006639000015
:1031D0006A390000000000007F2F0000F7B51500DD
:1031E00001938A680B6900900C00934200DA130087
:1031F00022002B6043321278002A01D001332B6069
:1032000023689B0602D52B6802332B6006272368B0
:103210001F4027D0230043331B785A1E9341226856
:10322000920630D42200019943320098089EB0479C
:10323000431C25D0062320682A68E1680340002546
:10324000042B03D18D1AEB43DB171D40A3682269C1
:10325000934201DD9B1AED180027BD4220D10020CA
:1032600010E00137E3682A689B1A9F42D2DA2200F5
:103270000123193201990098089EB047431CF0D1F0
:1032800001204042FEBD3020E1184331087021008A
:103290005A1C45310978A218433202331170C1E734
:1032A000220001231A3201990098089EB047431C5E
:1032B000E6D00137D1E70000F0B58BB006920A00E6
:1032C00043320793059004920A7E0C00109B6E2AED
:1032D00000D18FE017D8632A2CD008D8002A00D15B
:1032E00099E0582A54D026004236327029E0642AE8
:1032F00001D0692AF7D121681A68080623D5111D63
:103300001960156825E0732A00D188E008D86F2A73
:1033100029D0702AE7D1202209680A43226003E0FD
:10332000752A20D0782ADED122007821453211700A
:103330006C4A30E00E001A684236111D196013689D
:103340003370012379E04906D9D5111D1960002396
:10335000D55E002D03DA2D23049A6D421370624B63
:103360000A2703932FE020681968050603D5081D76
:1033700018600D6805E04006F9D50D68081D186055
:10338000ADB2594B082703936F2A18D00A2716E0CD
:1033900045310A70544A03921A682168101D18605A
:1033A0001568080622D5CB0702D5202319432160D2
:1033B0001027002D03D1202322689A432260230086
:1033C000002243331A706368A360002B5CDB042285
:1033D000216891432160002D58D1049E002B64D0B8
:1033E0002600039B42361B7833705EE04806DAD530
:1033F000ADB2D8E709681A68080605D5111D19602D
:10340000136862691A6006E04906F7D5111D196054
:103410001368A28A1A800023049E236154E01A686C
:10342000111D1960166800216268300000F008F96B
:10343000002801D0801B6060636823610023049A28
:10344000137041E02369320006990598079DA8474B
:10345000431C43D0236800259B070FD4099BE068D9
:1034600098423DDA18003BE0220001231932069908
:103470000598079EB047431C30D00135E368099A90
:103480009B1A9D42F0DBE9E7002DA9D0049E28009D
:103490003900FDF7C3FB039B013E5B5C28003370E2
:1034A0003900FDF735FB051EF1D1082F09D123683E
:1034B000DB0706D563682269934202DC3023013EB4
:1034C0003370049B9B1B2361079B09AA0093210077
:1034D000069B0598FFF782FE431CB3D101204042B2
:1034E0000BB0F0BD823900007139000070B50C00DE
:1034F0000E25495F00F0B0F8002803DB636D1B1850
:10350000636570BDA389024A1340A381F9E7C046F1
:10351000FFEFFFFFF8B51F008B8905000C001600B8
:10352000DB0505D50E23C95E0022022300F074F8E6
:10353000A389054A28001340A38132000E23E15ECF
:103540003B0000F01FF8F8BDFFEFFFFF70B50C0067
:103550000E25495F00F060F8A389421C03D1054A9B
:103560001340A38170BD802252011343A381606583
:10357000F8E7C046FFEFFFFF10B50E23C95E00F06D
:1035800015F810BD70B50500080011000022064CAA
:1035900022601A00FCF7EAFE431C03D12368002BCB
:1035A00000D02B6070BDC046AC000020002370B579
:1035B000064C050008002360FDF7E8F8431C03D122
:1035C0002368002B00D02B6070BDC046AC000020EB
:1035D000002370B5064C0500080011002360FDF7BC
:1035E000DDF8431C03D12368002B00D02B6070BD95
:1035F000AC000020002370B5064C050008002360D5
:10360000FDF7D4F8431C03D12368002B00D02B60B6
:1036100070BDC046AC00002070B505000800110068
:103620000022064C22601A00FDF7C7F8431C03D1A4
:103630002368002B00D02B6070BDC046AC0000207A
:10364000C9B28218904201D10020704703788B42A2
:10365000FBD00130F6E7000070B50500080011004E
:103660000022064C22601A00FCF7A2FE431C03D184
:103670002368002B00D02B6070BDC046AC0000203A
:10368000044A1368002B03D0181810601800704704
:10369000014BF9E7A8000020B8000020FEE7C04673
:1036A000F8B5C046F8BC08BC9E467047F8B5C046A1
:1036B000F8BC08BC9E467047736C696873696F6894
:1036C00067696F7368676F7300000000496E204878
:1036D000617264204661756C742048616E646C652B
:1036E00072000000723020203D20307825780A00DA
:1036F000723120203D20307825780A007232202057
:103700003D20307825780A00723320203D20307823
:1037100025780A00723132203D20307825780A0061
:103720006C7220203D20307825780A0070632020BC
:103730003D20307825780A00707372203D20307863
:1037400025780A00A03700004C370000334C434472
:10375000000000000000000044370000E504000005
:10376000E704000001020204003800007437000082
:10377000243800004E31305F5F637878616269768B
:103780003131375F5F636C6173735F747970655F4C
:10379000696E666F45000000000000006837000099
:1037A000150900002D090000DF0A0000DF0A0000F3
:1037B0005B090000D5080000410900007F090000F6
:1037C0000909000000380000D03700006837000009
:1037D0004E31305F5F637878616269763132305F95
:1037E0005F73695F636C6173735F747970655F6940
:1037F0006E666F450000000000000000C437000046
:10380000C9090000E1090000DF0A0000DF0A00002A
:103810005B090000D5080000AB0A0000270A000081
:10382000F5090000A03700002C38000053743974EB
:103830007970655F696E666F00000000E40D00003E
:10384000B40D0000C60D0000080D0000C60D0000FC
:10385000AA0D0000C60D0000080D0000B40D000008
:10386000B40D0000AA0D0000080D0000100D0000AE
:10387000100D0000100D0000CC0D0000B40D000074
:10388000B40D0000880D00006C0E0000880D0000D3
:10389000AA0D0000880D00006C0E0000B40D0000A1
:1038A000B40D0000AA0D00006C0E0000100D000009
:1038B000100D0000100D0000760E00001410000026
:1038C000640F0000640F0000620F0000061000008B
:1038D00006100000FC0F0000620F00000610000040
:1038E000FC0F000006100000620F00000C1000002A
:1038F0000C1000000C1000009C10000010000020B4
:1039000000000000000000000000000000000000B7
:1039100000000000000000000000000000000000A7
:103920000000000000000000000000000000000097
:103930000000000000000000000000000000000087
:103940000000000000000000000000000000000077
:103950000000000000000000000000000000000067
:10396000232D302B2000686C4C0065666745464768
:1039700000303132333435363738394142434445EB
:10398000460030313233343536373839616263645A
:08399000656600000000000064
:1039980074B20181B0AB308000000000800A018160
:1039A800B0B0ABF0000000003F020181B0AB308046
:1039B8000000000080060181B0B0ABF000000000FC
:1039C80058C7FF7F01000000FCC7FF7FB0B0A88088
:1039D80034C8FF7FB0B0AA805CC8FF7FB0B0A880B1
:1039E80084C8FF7F0100000010CBFF7F00840280A5
:1039F80020CBFF7FB0B0AA8020CCFF7FB0B0A880DA
:103A080022CCFF7FB0B0AA8034CCFF7F0100000039
:103A1800C8DBFF7FB0A902805CDCFF7FB0B0A88064
:103A2800ACDCFF7F01000000B8DCFF7FB0B0AA80EB
:103A3800ECDCFF7F5CFFFF7FBCDDFF7F0100000047
:103A4800B8DDFF7FAA3F398004DEFF7FB0B0A880D1
:103A580010DEFF7FB0B0AA8050DEFF7FB0B0A88034
:103A680064DEFF7F0100000060DEFF7FB0B0A88049
:103A780068DEFF7F01000000F8DEFF7FAA0FB2803A
:103A880060DFFF7F18FFFF7F48E2FF7FB0B0A880AC
:103A980064E2FF7F14FFFF7FC4E4FF7F01000000A2
:103AA80034E6FF7F0084048044E6FF7FB0B0A8803E
:103AB80044E6FF7F00FFFF7F38E9FF7F0084048032
:103AC80058E9FF7FB0B0A88070E9FF7F01000000CF
:103AD800000000000080510100805101100000200A
:103AE80000000000203900004039000000390000C3
:103AF80000000000000000000000000000000000BE
:103B080000000000000000000000000000000000AD
:103B1800000000000000000000000000000000009D
:103B2800000000000000000000000000000000008D
:103B3800000000000000000000000000000000007D
:103B4800E90000006D020000C10000000000000054
:04000003000007CD25
:00000001FF
