S01A000053544D333246313033524354365F455854492E737265631F
S3150800000000C00020E9080008090800080F080008D1
S31508000010150800081B080008210800080000000051
S31508000020000000000000000000000000270800088B
S3150800003033080008000000003F0800084D080008C3
S31508000040310900083109000831090008310900089A
S315080000503109000831090008310900086908000853
S31508000060310900083109000831090008310900087A
S31508000070310900083109000831090008310900086A
S31508000080310900083109000831090008310900085A
S31508000090310900083109000831090008310900084A
S315080000A031090008850800083109000831090008E7
S315080000B0310900083109000831090008310900082A
S315080000C0310900083109000831090008310900081A
S315080000D0310900083109000831090008310900080A
S315080000E031090008310900083109000831090008FA
S315080000F031090008310900083109000831090008EA
S3150800010031090008310900083109000831090008D9
S3150800011031090008310900083109000831090008C9
S3150800012031090008310900083109000831090008B9
S3150800013000000000000000000000000000000000B1
S3150800014000000000000000000000000000000000A1
S315080001500000000000000000000000000000000091
S315080001600000000000000000000000000000000081
S315080001700000000000000000000000000000000071
S315080001800000000000000000000000000000000061
S315080001900000000000000000000000000000000051
S315080001A00000000000000000000000000000000041
S315080001B00000000000000000000000000000000031
S315080001C00000000000000000000000000000000021
S315080001D00000000000000000000000000000000011
S309080001E05FF8E0F1E5
S315080001E410B5054C237833B9044B13B10448AFF35F
S315080001F400800123237010BD780000200000000051
S31508000204B42D000808B5034B1BB103490348AFF3E3
S31508000214008008BD000000007C000020B42D000802
S31508000224034613F8012B002AFBD1181A0138704724
S3150800023480B588B000AF0023BB6100237B6100232F
S31508000244FB77FB7F032B3AD8FB7FBB612E4802F072
S31508000254CFF8034683F00103DBB2002B00D0F5E7A1
S31508000264294802F0E5F87861FB7F002B08D1FB7F6B
S315080002749B0007F1200213447A6943F81C2C17E003
S31508000284FB7F013B9B0007F12002134453F81C3CF7
S315080002947A699A4208D0FB7F9B0007F1200213442F
S315080002A47A6943F81C2C03E0BB69DBB2013BFB7794
S315080002B4154802F0AFF8FB7F0133FB77C1E7134912
S315080002C4134802F043FA0023BB77BB7F032B16D8E7
S315080002D4BB7F9B0003F1006101F5FE31BB7F9B00E8
S315080002E407F12002134453F81C3C1A464FF0000346
S315080002F4022000F08DFCBB7F0133BB77E5E700BF26
S315080003042037BD4680BD00BFDC00002000FC010884
S31508000314F800002080B485B000AF78600023FB6045
S31508000324FB68032B10D8FB6803F1007303F5FE433F
S315080003349B001B687A689A4202D1FB68DBB204E028
S31508000344FB680133FB60EBE7042318461437BD4604
S3150800035480BC704780B582B000AF00237B6000F094
S31508000364E7FA00F081F800F031F900F0C7F83348ED
S3150800037401F0C2FB0021324802F012F83B46184647
S3150800038402F0ACFB3B46184602F0D8FB3B4618463F
S3150800039402F0B4FB08212B4800F016FF0346002B95
S315080003A40CBF01230023DBB2002B01D0FFF740FF6B
S315080003B4234802F01DF80346002B34D0204802F0E7
S315080003C437F803461846FFF7A5FF0346032B23D839
S315080003D401A252F823F000BFED030008F903000850
S315080003E4050400081104000801220121164800F03A
S315080003F402FF11E000220121134800F0FCFE0BE085
S3150800040401220221104800F0F6FE05E0002202212E
S315080004140D4800F0F0FE00BF094801F0FBFF022179
S31508000424094800F000FF7B6801337B607B68B3F5FD
S31508000434602FBDD300237B60BAE700BF9400002079
S31508000444DC000020000801400010014080B582B09D
S3150800045400AF0346FB80FB88022B01D102F0C8F8E3
S3150800046400BF0837BD4680BD80B590B000AF07F120
S31508000474180328220021184602F0F4FB3B1D00222B
S315080004841A605A609A60DA601A610223BB61012312
S31508000494BB621023FB6202237B630023BB634FF416
S315080004A4C013FB6307F11803184600F0EDFE034674
S315080004B4002B14BF01230023DBB2002B01D000F06C
S315080004C4E7F80F237B600223BB600023FB6000234D
S315080004D43B6100237B613B1D0121184601F054F959
S315080004E40346002B14BF01230023DBB2002B01D0E3
S315080004F400F0CEF800BF4037BD4680BD80B586B053
S3150800050400AF07F1080300221A605A609A60DA609D
S315080005143B4600221A605A602A4B2B4A1A60294B1A
S3150800052409225A60274B00229A60264B40F23F1252
S31508000534DA60244B00221A61224B00225A61214BAD
S3150800054400229A611F4801F087FA0346002B14BF5C
S3150800055401230023DBB2002B01D000F099F84FF4F5
S315080005648053BB6007F108031946164801F02CFCB2
S315080005740346002B14BF01230023DBB2002B01D052
S3150800058400F086F800233B6000237B603B4619464F
S315080005940C4801F01BFE0346002B14BF012300235D
S315080005A4DBB2002B01D000F073F8002200211920D9
S315080005B400F0F7FA192000F010FB00BF1837BD4603
S315080005C480BD00BF94000020002C014080B586B091
S315080005D400AF07F1080300221A605A609A60DA60CD
S315080005E4274B9B69264A43F010039361244B9B6966
S315080005F403F010037B607B68214B9B69204A43F018
S31508000604040393611E4B9B6903F004033B603B6838
S31508000614002203211B4800F0EEFD0323BB600123DF
S31508000624FB6000233B6102237B6107F1080319463B
S31508000634144800F035FC0223BB60134BFB6001230E
S315080006443B6107F108031946104800F029FC082302
S31508000654BB600023FB6001233B6107F108031946CD
S315080006640A4800F01DFC00220021072000F099FA30
S31508000674072000F0B2FA00BF1837BD4680BD00BF98
S31508000684001002400010014000003110000801402B
S3150800069480B400AF72B600BFFEE7000080B582B032
S315080006A400AF7860054A7B681A607B68184602F0D2
S315080006B425FA7B6818460837BD4680BDE42D000830
S315080006C480B582B000AF78607868FFF7E7FF1C2131
S315080006D4786802F067FA7B6818460837BD4680BD15
S315080006E480B582B000AF786039607B68012B0AD187
S315080006F43B684FF6FF72934205D10C4801F0E4FDBE
S315080007040B4801F0E9FF7B68002B0AD13B684FF6DA
S31508000714FF72934205D1064801F0EEFF0348FFF73E
S31508000724BDFF00BF0837BD4680BD00BFDC00002002
S31508000734F800002080B500AF4FF6FF710120FFF7DF
S31508000744CFFF80BD80B500AF4FF6FF710020FFF7DD
S31508000754C7FF80BD80B485B000AF154B9B69144AAA
S3150800076443F001039361124B9B6903F00103BB60D9
S31508000774BB680F4BDB690E4A43F08053D3610C4BBD
S31508000784DB6903F080537B607B680A4B5B68FB601C
S31508000794FB6823F0E063FB60FB6843F00073FB60CF
S315080007A4044AFB68536000BF1437BD4680BC7047D3
S315080007B4001002400000014080B584B000AF7860A4
S315080007C47B681B680D4A934213D10D4B9B690C4AEF
S315080007D443F4006393610A4B9B6903F40063FB606B
S315080007E4FB6800220021192000F0DBF9192000F02B
S315080007F4F4F900BF1037BD4680BD00BF002C014088
S315080008040010024080B400AFFEE780B400AFFEE7F4
S3150800081480B400AFFEE780B400AFFEE780B400AF53
S31508000824FEE780B400AF00BFBD4680BC704780B405
S3150800083400AF00BFBD4680BC704780B400AF00BFA0
S31508000844BD4680BC7047000080B500AF044B1B68EA
S315080008540133034A136000F0B1F800BF80BD00BF3E
S31508000864FC00002080B500AF044B1B680133034A23
S315080008741360022000F0F0FC00BF80BD00010020D8
S3150800088480B500AF024801F097F900BF80BD00BFEC
S315080008949400002080B400AF01231846BD4680BCEE
S315080008A4704780B582B000AF7860396002F09AF973
S315080008B4034616221A604FF0FF3318460837BD461A
S315080008C480BD80B582B000AF78604FF0FF3178689C
S315080008D4FFF7E7FFFEE780B400AF00BFBD4680BC64
S315080008E470470000002103E00B4B5B58435004316A
S315080008F40A480B4B42189A42F6D30A4A02E00023E6
S3150800090442F8043B084B9A42F9D3FFF7E4FF02F096
S315080009146FF9FFF71FFD7047342F00080000002009
S31508000924780000207800002070020020FEE700000E
S3150800093480B500AF084B1B68074A43F010031360E1
S31508000944032000F023F9002000F008F8FFF702FF5F
S315080009540023184680BD00BF0020024080B582B03F
S3150800096400AF7860124B1A68124B1B7819464FF47D
S315080009747A73B3FBF1F3B2FBF3F3184600F03BF9D1
S315080009840346002B01D001230EE07B680F2B0AD8FF
S31508000994002279684FF0FF3000F003F9064A7B68B5
S315080009A41360002300E0012318460837BD4680BDBE
S315080009B400000020080000200400002080B400AFD6
S315080009C4054B1B781A46054B1B681344034A1360E8
S315080009D400BFBD4680BC70470800002038020020CE
S315080009E480B400AF024B1B681846BD4680BC7047EE
S315080009F43802002080B485B000AF78607B6803F0C5
S31508000A040703FB600C4BDB68BB60BA684FF6FF0351
S31508000A141340BB60FB681A02BB68134343F0BF6309
S31508000A2443F40033BB60044ABB68D36000BF143781
S31508000A34BD4680BC704700BF00ED00E080B400AF3F
S31508000A44044BDB681B0A03F007031846BD4680BC43
S31508000A54704700BF00ED00E080B483B000AF0346E2
S31508000A64FB7197F90730002B0BDBFB7903F01F02A8
S31508000A74064997F907305B09012000FA02F241F8A2
S31508000A84232000BF0C37BD4680BC704700E100E058
S31508000A9480B483B000AF03463960FB7197F9073019
S31508000AA4002B0ADB3B68DAB20C4997F907301201C6
S31508000AB4D2B20B4483F800230AE03B68DAB2084949
S31508000AC4FB7903F00F03043B1201D2B20B441A76E6
S31508000AD400BF0C37BD4680BC704700BF00E100E08C
S31508000AE400ED00E080B489B000AFF860B9607A60C0
S31508000AF4FB6803F00703FB61FB69C3F10703042BD7
S31508000B0428BF0423BB61FB690433062B02D9FB699E
S31508000B14033B00E000237B614FF0FF32BB6902FA16
S31508000B2403F3DA43BB681A407B699A404FF0FF31F6
S31508000B347B6901FA03F3D9437B680B4013431846D0
S31508000B442437BD4680BC704780B582B000AF786054
S31508000B547B68013BB3F1807F01D301230FE00A4A86
S31508000B647B68013B53600F214FF0FF30FFF790FF7E
S31508000B74054B00229A60044B07221A600023184684
S31508000B840837BD4680BD00BF10E000E080B582B0DE
S31508000B9400AF78607868FFF72DFF00BF0837BD46B9
S31508000BA480BD80B586B000AF0346B9607A60FB7332
S31508000BB400237B61FFF742FF78617A68B968786930
S31508000BC4FFF790FF024697F90F3011461846FFF7CC
S31508000BD45FFF00BF1837BD4680BD80B582B000AF41
S31508000BE40346FB7197F907301846FFF735FF00BF30
S31508000BF40837BD4680BD80B582B000AF7860786896
S31508000C04FFF7A2FF034618460837BD4680BD000015
S31508000C14F0B587B000AFF860B960C7E900230123CF
S31508000C24FB750023BB7500237B752F4B1B7E012B9D
S31508000C3401D1022354E02C4B01221A764CF250308F
S31508000C4400F098F80346FB75FB7D002B44D1FB683E
S31508000C54012B02D101237B7507E0FB68022B02D125
S31508000C6402237B7501E004237B750023BB752DE005
S31508000C74BB7D5A00BB6802EB030CBB7D1901D7E99F
S31508000C840023C1F12006A1F1200022FA01F403FA97
S31508000C9406F6344323FA00F0044323FA01F5A3B213
S31508000CA41946604600F04AF84CF2503000F062F8F3
S31508000CB40346FB750D4B1B690C4A23F001031361AC
S31508000CC4FB7D002B07D1BB7D0133BB75BA7D7B7DCC
S31508000CD49A42CDD300E000BF034B00221A76FB7D6F
S31508000CE418461C37BD46F0BD4002002000200240CD
S31508000CF480B483B000AF0023FB710D4B1B6903F06E
S31508000D048003002B0DD00A4B0A4A5A60084B0A4A3C
S31508000D145A60074B1B6903F08003002B01D001239B
S31508000D24FB71FB7918460C37BD4680BC704700BF7B
S31508000D340020024023016745AB89EFCD80B483B018
S31508000D4400AF78600B467B80084B0022DA61084BBB
S31508000D541B69074A43F0010313617B687A881A8082
S31508000D6400BF0C37BD4680BC704700BF4002002058
S31508000D740020024080B584B000AF7860FFF730FEEB
S31508000D84F86010E07B68B3F1FF3F0CD07B68002B5A
S31508000D9407D0FFF725FE0246FB68D31A7A689A42FB
S31508000DA401D2032325E0154BDB6803F00103002B6E
S31508000DB4E8D1124BDB6803F02003002B02D00F4B5B
S31508000DC42022DA600D4BDB6803F01003002B0BD1ED
S31508000DD40A4BDB6903F00103002B05D1074BDB68DB
S31508000DE403F00403002B03D000F00AF8012300E003
S31508000DF4002318461037BD4680BD00BF00200240B8
S31508000E0480B483B000AF00237B60234BDB6803F018
S31508000E141003002B09D0214BDB6943F002031F4A58
S31508000E24D3617B6843F010037B601B4BDB6803F0DC
S31508000E340403002B09D0194BDB6943F00103174A55
S31508000E44D3617B6843F004037B60134BDB6903F0CF
S31508000E540103002B0BD0114BDB6943F004030F4A43
S31508000E64D3610D4BDB690C4A23F00103D3617B681C
S31508000E7440F20112934206D1074BDB69064A23F076
S31508000E840103D36102E0044A7B68D36000BF0C37D0
S31508000E94BD4680BC704700BF0020024040020020C7
S31508000EA480B48BB000AF7860396000237B6200237E
S31508000EB43B6279E101227B6A02FA03F3FB613B6830
S31508000EC41B68FA691340BB61BA69FB699A4240F028
S31508000ED468813B685B68A04A93425ED09E4A934207
S31508000EE475D89E4A934258D09C4A93426FD89C4AD6
S31508000EF4934252D09A4A934269D89A4A93424CD01A
S31508000F04984A934263D8984A934246D0964A93425B
S31508000F145DD8122B2AD8122B59D801A252F823F0DD
S31508000F249F0F0008790F00088B0F0008CD0F0008E3
S31508000F34D30F0008D30F0008D30F0008D30F0008F7
S31508000F44D30F0008D30F0008D30F0008D30F0008E7
S31508000F54D30F0008D30F0008D30F0008D30F0008D7
S31508000F64D30F0008810F0008950F00087F4A9342A3
S31508000F7413D02CE03B68DB683B6229E03B68DB68FE
S31508000F8404333B6224E03B68DB6808333B621FE0BA
S31508000F943B68DB680C333B621AE03B689B68002BB2
S31508000FA402D104233B6213E03B689B68012B05D1FD
S31508000FB408233B627B68FA691A6109E008233B62E5
S31508000FC47B68FA695A6103E000233B6200E000BFCC
S31508000FD4BB69FF2B01D87B6801E07B6804337B611E
S31508000FE4BB69FF2B02D87B6A9B0002E07B6A083B3D
S31508000FF49B003B617B691A680F213B6901FA03F37D
S31508001004DB431A40396A3B6901FA03F31A437B69DD
S315080010141A603B685B6803F08053002B00F0C180BC
S31508001024534B9B69524A43F001039361504B9B69A6
S3150800103403F00103BB60BB684E4A7B6A9B08023314
S3150800104452F82330FB607B6A03F003039B000F22EC
S3150800105402FA03F3DB43FA681340FB607B68464AEB
S3150800106493421FD07B68454A934219D07B68444A09
S31508001074934213D07B68434A93420DD07B68424A15
S31508001084934207D07B68414A934201D105230AE07B
S31508001094062308E0042306E0032304E0022302E00F
S315080010A4012300E000237A6A02F0030292009340C7
S315080010B4FA681343FB602F497B6A9B080233FA6874
S315080010C441F823203B685B6803F48033002B06D081
S315080010D42F4B1A682E49BB6913430B6006E02C4B49
S315080010E41A68BB69DB432A4913400B603B685B6893
S315080010F403F40033002B06D0254B5A682449BB69F0
S3150800110413434B6006E0224B5A68BB69DB4320490C
S3150800111413404B603B685B6803F48013002B06D0CE
S315080011241B4B9A681A49BB6913438B6006E0184B34
S315080011349A68BB69DB43164913408B603B685B6856
S3150800114403F40013002B25D0114BDA681049BB6948
S315080011541343CB6025E000BF0000321000003110B5
S3150800116400002210000021100000121000001110C7
S31508001174001002400000014000080140000C014034
S31508001184001001400014014000180140001C0140F1
S31508001194000401400B4BDA68BB69DB430949134079
S315080011A4CB607B6A01337B623B681A687B6A22FAE6
S315080011B403F3002B7FF47EAE00BF00BF2C37BD4679
S315080011C480BC70470004014080B485B000AF7860E5
S315080011D40B467B807B689A687B881340002B02D079
S315080011E40123FB7301E00023FB73FB7B18461437CA
S315080011F4BD4680BC704780B483B000AF78600B46A8
S315080012047B8013467B707B78002B03D07A887B68B7
S315080012141A6103E07B881A047B681A6100BF0C37DD
S31508001224BD4680BC704780B485B000AF78600B4675
S315080012347B807B68DB68FB607A88FB6813401A044A
S31508001244FB68D9437B880B401A437B681A6100BF45
S315080012541437BD4680BC704780B582B000AF0346DC
S31508001264FB80084B5A69FB881340002B06D0054AB5
S31508001274FB885361FB881846FFF7E8F800BF083770
S31508001284BD4680BD0004014080B586B000AF7860D5
S315080012947B68002B01D101236CE27B681B6803F091
S315080012A40103002B00F08780924B5B6803F00C0364
S315080012B4042B0CD08F4B5B6803F00C03082B12D15C
S315080012C48C4B5B6803F48033B3F5803F0BD1894BB1
S315080012D41B6803F40033002B6CD07B685B68002B17
S315080012E468D1012346E27B685B68B3F5803F06D183
S315080012F4804B1B687F4A43F4803313602EE07B6877
S315080013045B68002B0CD17B4B1B687A4A23F4803329
S315080013141360784B1B68774A23F4802313601DE017
S315080013247B685B68B3F5A02F0CD1724B1B68714AB6
S3150800133443F4802313606F4B1B686E4A43F480336F
S3150800134413600BE06B4B1B686A4A23F48033136003
S31508001354684B1B68674A23F4802313607B685B68C1
S31508001364002B13D0FFF73CFB386108E0FFF738FB86
S3150800137402463B69D31A642B01D90323FAE15D4B70
S315080013841B6803F40033002BF0D014E0FFF728FBA6
S31508001394386108E0FFF724FB02463B69D31A642B3D
S315080013A401D90323E6E1534B1B6803F40033002BEE
S315080013B4F0D100E000BF7B681B6803F00203002B32
S315080013C463D04C4B5B6803F00C03002B0BD0494BE2
S315080013D45B6803F00C03082B1CD1464B5B6803F4CB
S315080013E48033002B16D1434B1B6803F00203002BF2
S315080013F405D07B681B69012B01D00123BAE13D4B5B
S315080014041B6823F0F8027B685B69DB0039491343E0
S315080014140B603AE07B681B69002B20D0364B01220F
S315080014241A60FFF7DDFA386108E0FFF7D9FA0246D1
S315080014343B69D31A022B01D903239BE12D4B1B6865
S3150800144403F00203002BF0D02A4B1B6823F0F802A2
S315080014547B685B69DB00274913430B6015E0264B61
S3150800146400221A60FFF7BCFA386108E0FFF7B8FAF9
S3150800147402463B69D31A022B01D903237AE11D4B91
S315080014841B6803F00203002BF0D17B681B6803F08A
S315080014940803002B3AD07B689B69002B19D0174B9D
S315080014A401221A60FFF79CFA386108E0FFF798FAF8
S315080014B402463B69D31A022B01D903235AE10D4B81
S315080014C45B6A03F00203002BF0D0012000F0A6FAB1
S315080014D41CE00A4B00221A60FFF782FA38610FE013
S315080014E4FFF77EFA02463B69D31A022B08D903236F
S315080014F440E100BF0010024000004242800442421C
S315080015049E4B5B6A03F00203002BE9D17B681B68D8
S3150800151403F00403002B00F0A6800023FB75974B09
S31508001524DB6903F08053002B0DD1944BDB69934A96
S3150800153443F08053D361914BDB6903F08053BB605E
S31508001544BB680123FB758E4B1B6803F48073002B61
S3150800155418D18B4B1B688A4A43F480731360FFF7D0
S315080015643FFA386108E0FFF73BFA02463B69D31AAB
S31508001574642B01D90323FDE0814B1B6803F48073B4
S31508001584002BF0D07B68DB68012B06D17B4B1B6AEA
S315080015947A4A43F0010313622DE07B68DB68002B6B
S315080015A40CD1764B1B6A754A23F001031362734BFD
S315080015B41B6A724A23F0040313621CE07B68DB6827
S315080015C4052B0CD16D4B1B6A6C4A43F0040313625A
S315080015D46A4B1B6A694A43F0010313620BE0674BC3
S315080015E41B6A664A23F001031362644B1B6A634A47
S315080015F423F0040313627B68DB68002B15D0FFF71E
S31508001604EFF938610AE0FFF7EBF902463B69D31AAA
S3150800161441F28832934201D90323ABE0574B1B6A44
S3150800162403F00203002BEED014E0FFF7D9F9386172
S315080016340AE0FFF7D5F902463B69D31A41F2883224
S31508001644934201D9032395E04C4B1B6A03F002032A
S31508001654002BEED1FB7D012B05D1484BDB69474AAC
S3150800166423F08053D3617B68DB69002B00F081800B
S31508001674424B5B6803F00C03082B61D07B68DB697B
S31508001684022B46D13F4B00221A60FFF7A9F93861AD
S3150800169408E0FFF7A5F902463B69D31A022B01D9DC
S315080016A4032367E0354B1B6803F00073002BF0D166
S315080016B47B681B6AB3F5803F08D1304B5B6823F41B
S315080016C400327B689B682D4913434B602B4B5B6840
S315080016D423F474127B68196A7B685B6A0B4327498F
S315080016E413434B60274B01221A60FFF779F93861D7
S315080016F408E0FFF775F902463B69D31A022B01D9AC
S31508001704032337E01D4B1B6803F00073002BF0D04E
S315080017142FE01C4B00221A60FFF762F9386108E0D3
S31508001724FFF75EF902463B69D31A022B01D9032354
S3150800173420E0124B1B6803F00073002BF0D118E06D
S315080017447B68DB69012B01D1012313E00B4B5B6832
S31508001754FB60FB6803F480327B681B6A9A4206D1F5
S31508001764FB6803F470127B685B6A9A4201D0012312
S3150800177400E0002318461837BD4680BD0010024015
S31508001784007000406000424280B584B000AF7860C3
S3150800179439607B68002B01D10123D0E06A4B1B68B2
S315080017A403F007033A689A4210D9674B1B6823F07B
S315080017B4070265493B6813430B60634B1B6803F0D8
S315080017C407033A689A4201D00123B8E07B681B688C
S315080017D403F00203002B20D07B681B6803F0040384
S315080017E4002B05D0594B5B68584A43F4E0635360B1
S315080017F47B681B6803F00803002B05D0534B5B6812
S31508001804524A43F460535360504B5B6823F0F0022A
S315080018147B689B684D4913434B607B681B6803F0E0
S315080018240103002B40D07B685B68012B07D1474B2B
S315080018341B6803F40033002B15D101237FE07B6872
S315080018445B68022B07D1414B1B6803F00073002B1E
S3150800185409D1012373E03D4B1B6803F00203002BF7
S3150800186401D101236BE0394B5B6823F003027B68E3
S315080018745B68364913434B60FFF7B2F8F8600AE031
S31508001884FFF7AEF80246FB68D31A41F28832934250
S3150800189401D9032353E02D4B5B6803F00C027B68E4
S315080018A45B689B009A42EBD1274B1B6803F007033E
S315080018B43A689A4210D2244B1B6823F0070222493D
S315080018C43B6813430B60204B1B6803F007033A6815
S315080018D49A4201D0012332E07B681B6803F00403B3
S315080018E4002B08D0194B5B6823F4E0627B68DB683D
S315080018F4164913434B607B681B6803F00803002BE7
S3150800190409D0124B5B6823F460527B681B69DB00C1
S315080019140E4913434B6000F021F802460B4B5B68F3
S315080019241B0903F00F030A49CB5C22FA03F3094A9D
S315080019341360094B1B681846FFF710F8002318466E
S315080019441037BD4680BD00BF00200240001002408B
S31508001954EC2D0008000000200400002090B48AB092
S3150800196400AF2A4B3C1D0FCB84E80F0040F201233D
S315080019743B800023FB610023BB6100237B620023B9
S315080019847B6100233B62224B5B68FB61FB6903F0C6
S315080019940C03042B02D0082B03D02DE01D4B3B620D
S315080019A42DE0FB699B0C03F00F0307F1280213448F
S315080019B413F8243C7B61FB6903F48033002B13D0B2
S315080019C4134B5B685B0C03F0010307F1280213440D
S315080019D413F8283CBB617B690E4A02FB03F2BB6918
S315080019E4B2FBF3F37B6204E07B690B4A02FB03F365
S315080019F47B627B6A3B6202E0064B3B6200BF3B6A42
S31508001A0418462837BD4690BC704700BFCC2D000841
S31508001A140010024000127A0000093D0080B485B027
S31508001A2400AF78600A4B1B680A4AA2FB03235B0AC9
S31508001A347A6802FB03F3FB6000BFFB685A1EFA6070
S31508001A44002BF9D100BF00BF1437BD4680BC7047D0
S31508001A5400000020D34D621080B582B000AF7860D4
S31508001A647B68002B01D1012341E07B6893F83D3064
S31508001A74DBB2002B06D17B68002283F83C20786809
S31508001A84FEF79AFE7B68022283F83D207B681A6873
S31508001A947B6804331946104600F088FA7B680122ED
S31508001AA483F846207B68012283F83E207B6801225E
S31508001AB483F83F207B68012283F840207B68012253
S31508001AC483F841207B68012283F842207B6801223F
S31508001AD483F843207B68012283F844207B6801222B
S31508001AE483F845207B68012283F83D2000231846A5
S31508001AF40837BD4680BD000080B485B000AF786065
S31508001B047B6893F83D30DBB2012B01D0012344E016
S31508001B147B68022283F83D207B681B68DA687B6849
S31508001B241B6842F00102DA607B681B681D4A93420F
S31508001B3418D07B681B681C4A934213D07B681B68C1
S31508001B44B3F1804F0ED07B681B68184A934209D0BC
S31508001B547B681B68164A934204D07B681B68154A3F
S31508001B64934211D17B681B689B6803F00703FB60EB
S31508001B74FB68062B10D07B681B681A687B681B6891
S31508001B8442F001021A6007E07B681B681A687B68E2
S31508001B941B6842F001021A60002318461437BD4632
S31508001BA480BC7047002C014000340140000400400A
S31508001BB400080040000C004080B582B000AF786091
S31508001BC47B681B681B6903F00203022B22D17B681E
S31508001BD41B68DB6803F00203022B1BD17B681B68B6
S31508001BE46FF002021A617B6801221A777B681B6808
S31508001BF49B6903F00303002B03D0786800F0BAF955
S31508001C0405E0786800F0ADF9786800F0BCF97B68FF
S31508001C1400221A777B681B681B6903F00403042BEC
S31508001C2422D17B681B68DB6803F00403042B1BD1F1
S31508001C347B681B686FF004021A617B6802221A77B4
S31508001C447B681B689B6903F44073002B03D0786890
S31508001C5400F090F905E0786800F083F9786800F0F8
S31508001C6492F97B6800221A777B681B681B6903F064
S31508001C740803082B22D17B681B68DB6803F008037A
S31508001C84082B1BD17B681B686FF008021A617B68F6
S31508001C9404221A777B681B68DB6903F00303002BAD
S31508001CA403D0786800F066F905E0786800F059F919
S31508001CB4786800F068F97B6800221A777B681B68E5
S31508001CC41B6903F01003102B22D17B681B68DB68A1
S31508001CD403F01003102B1BD17B681B686FF01002EE
S31508001CE41A617B6808221A777B681B68DB6903F428
S31508001CF44073002B03D0786800F03CF905E0786857
S31508001D0400F02FF9786800F03EF97B6800221A770C
S31508001D147B681B681B6903F00103012B0ED17B68E2
S31508001D241B68DB6803F00103012B07D17B681B687A
S31508001D346FF001021A61786800F00AF97B681B687B
S31508001D441B6903F08003802B0ED17B681B68DB6854
S31508001D5403F08003802B07D17B681B686FF0800231
S31508001D641A61786800F0A7FA7B681B681B6903F098
S31508001D744003402B0ED17B681B68DB6803F04003E5
S31508001D84402B07D17B681B686FF040021A6178689C
S31508001D9400F002F97B681B681B6903F02003202BFB
S31508001DA40ED17B681B68DB6803F02003202B07D160
S31508001DB47B681B686FF020021A61786800F072FA73
S31508001DC400BF0837BD4680BD80B584B000AF7860D3
S31508001DD439607B6893F83C30012B01D10223B3E0C8
S31508001DE47B68012283F83C207B68022283F83D2025
S31508001DF47B681B689B68FB60FB6823F07703FB60C2
S31508001E04FB6823F47F43FB607B681B68FA689A6067
S31508001E143B681B68B3F5005F3ED0B3F5005F00F27C
S31508001E248780B3F5805F00F08580B3F5805F7FD83F
S31508001E34702B1AD0702B7BD8602B50D0602B77D898
S31508001E44502B3CD0502B73D8402B58D0402B6FD8EE
S31508001E54302B64D0302B6BD8202B60D0202B67D83E
S31508001E64002B5CD0102B5AD062E07B6818683B685C
S31508001E7499683B685A683B68DB6800F088F97B68B0
S31508001E841B689B68FB60FB6843F07703FB607B6811
S31508001E941B68FA689A604EE07B6818683B6899681C
S31508001EA43B685A683B68DB6800F071F97B681B6815
S31508001EB49A687B681B6842F480429A603BE07B68B8
S31508001EC418683B6859683B68DB681A4600F0E8F806
S31508001ED47B681B685021184600F03FF92BE07B68A5
S31508001EE418683B6859683B68DB681A4600F006F9C7
S31508001EF47B681B686021184600F02FF91BE07B6895
S31508001F0418683B6859683B68DB681A4600F0C8F8E5
S31508001F147B681B684021184600F01FF90BE07B68B4
S31508001F241A683B681B681946104600F016F902E061
S31508001F3400BF00E000BF7B68012283F83D207B6870
S31508001F44002283F83C20002318461037BD4680BD7E
S31508001F5480B483B000AF786000BF0C37BD4680BC40
S31508001F64704780B483B000AF786000BF0C37BD46B5
S31508001F7480BC704780B483B000AF786000BF0C376C
S31508001F84BD4680BC704780B483B000AF786000BF9C
S31508001F940C37BD4680BC704780B483B000AF786008
S31508001FA400BF0C37BD4680BC7047000080B485B0BE
S31508001FB400AF786039607B681B68FB607B68334ACE
S31508001FC4934213D07B68324A93420FD07B68B3F1AD
S31508001FD4804F0BD07B682F4A934207D07B682E4AE2
S31508001FE4934203D07B682D4A934208D1FB6823F0B9
S31508001FF47003FB603B685B68FA681343FB607B68A5
S31508002004224A934213D07B68214A93420FD07B68B5
S31508002014B3F1804F0BD07B681E4A934207D07B6886
S315080020241D4A934203D07B681C4A934208D1FB6835
S3150800203423F44073FB603B68DB68FA681343FB6070
S31508002044FB6823F080023B685B691343FB607B688B
S31508002054FA681A603B689A687B68DA623B681A68A9
S315080020647B689A627B68094A934203D07B68084A6C
S31508002074934203D13B681A697B681A637B68012219
S315080020845A6100BF1437BD4680BC7047002C014016
S31508002094003401400004004000080040000C0040E1
S315080020A480B487B000AFF860B9607A60FB681B6AD1
S315080020B47B61FB681B6A23F00102FB681A62FB68F2
S315080020C49B693B613B6923F0F0033B617B681B0119
S315080020D43A6913433B617B6923F00A037B617A6996
S315080020E4BB6813437B61FB683A699A61FB687A6942
S315080020F41A6200BF1C37BD4680BC704780B487B0DF
S3150800210400AFF860B9607A60FB681B6A23F01002B6
S31508002114FB681A62FB689B697B61FB681B6A3B6107
S315080021247B6923F470437B617B681B037A691343D9
S315080021347B613B6923F0A0033B61BB681B013A69D9
S3150800214413433B61FB687A699A61FB683A691A62C8
S3150800215400BF1C37BD4680BC704780B485B000AF4D
S31508002164786039607B689B68FB60FB6823F07003C2
S31508002174FB603A68FB68134343F00703FB607B681C
S31508002184FA689A6000BF1437BD4680BC704780B4AD
S3150800219487B000AFF860B9607A603B60FB689B68FB
S315080021A47B617B6923F47F437B613B681A027B6806
S315080021B41A43BB6813437A6913437B61FB687A69DC
S315080021C49A6000BF1C37BD4680BC704780B485B092
S315080021D400AF786039607B6893F83C30012B01D1F5
S315080021E4022350E07B68012283F83C207B680222A4
S315080021F483F83D207B681B685B68FB607B681B680B
S315080022049B68BB60FB6823F07003FB603B681B6834
S31508002214FA681343FB607B681B68FA685A607B6834
S315080022241B681B4A934218D07B681B68194A934259
S3150800223413D07B681B68B3F1804F0ED07B681B688C
S31508002244154A934209D07B681B68144A934204D002
S315080022547B681B68124A93420CD1BB6823F080033F
S31508002264BB603B685B68BA681343BB607B681B68E2
S31508002274BA689A607B68012283F83D207B6800224D
S3150800228483F83C20002318461437BD4680BC7047A3
S31508002294002C0140003401400004004000080040BE
S315080022A4000C004080B483B000AF786000BF0C37E0
S315080022B4BD4680BC704780B483B000AF786000BF69
S315080022C40C37BD4680BC704780B582B000AF7860D5
S315080022D47B68184600F002FC0F4A7B681A607B6824
S315080022E44FF0FF329A600A21786800F03BF8012122
S315080022F4786800F015F87B684FF0FF325A603C2185
S31508002304786800F03DF8054B00221A607B68184689
S315080023140837BD4680BD00BFE42D0008040100202F
S3150800232480B582B000AF786039603B68002B02DD67
S315080023343B680C2B01DD01233B607B6803F110002D
S315080023443B685A1E13469B0013445B00044A134415
S315080023540A22194600F078FC00BF0837BD4680BD3E
S31508002364FC2D000880B483B000AF786039607B68C0
S315080023743A68DA6000BF0C37BD4680BC7047000077
S3150800238480B483B000AF78603960044A3B68136050
S3150800239400BF0C37BD4680BC704700BF0C00002048
S315080023A480B582B000AF786039607B683A685A6055
S315080023B4786800F005F800BF0837BD4680BD000000
S315080023C480B483B000AF78607B685B68B3F1FF3F85
S315080023D405D0054B00221A60044B00221A6000BF80
S315080023E40C37BD4680BC7047040100200801002054
S315080023F480B483B000AF7860054B1B68002B14BF0C
S3150800240401230023DBB218460C37BD4680BC70474F
S315080024140401002080B483B000AF7860034B002227
S315080024241A6000BF0C37BD4680BC70470401002003
S3150800243480B483B000AF7860034B1B6818460C372A
S31508002444BD4680BC704700BF0401002080B483B039
S3150800245400AF786039607A683B68D31A002BB8BF36
S315080024645B4218460C37BD4680BC704780B58CB0B5
S3150800247400AF786039607B685A1E13469B00134484
S315080024845B00534A991807F10C030A22184600F010
S31508002494DBFB0023FB62BA7BFB7B934238BF134604
S315080024A4DBB27B624B4B1A687B6AB2FBF3F33B6283
S315080024B4494B1B681A463B6A03FB02F3474AA2FBCD
S315080024C403235B09FB613B7D002B01D0022300E05B
S315080024D40123BB61BB69BB623B68013BBA6A9A428A
S315080024E45DD2FB6A5B00FB623A4ABB6A52F8233048
S315080024F418463B7C1A463B6A03FB02F31946FFF768
S31508002504A5FF0246FB69934213D9BB6A0133314AD4
S3150800251452F8233018467B7C1A463B6A03FB02F3BF
S315080025241946FFF793FF0246FB69934201D9012333
S3150800253400E00023002B2ED1264ABB6A52F823302A
S315080025441846BB7C1A463B6A03FB02F31946FFF797
S315080025547DFF0246FB69934213D9BB6A01331D4AC0
S3150800256452F823301846FB7C1A463B6A03FB02F3EF
S315080025741946FFF76BFF0246FB69934201D901230B
S3150800258400E00023002B04D0FB6A43F00103FB623E
S3150800259401E0002317E0BB6A0233BB629CE73B6891
S315080025A4072B0FD90E4AFB6A13603B68013B5B088D
S315080025B40C4A13600C4A3B6A13607B680B4A136027
S315080025C4012300E0002318463037BD4680BD00BF0E
S315080025D4FC2D0008140100200C0000201F85EB5177
S315080025E404010020080100200C010020100100202D
S315080025F480B584B000AF3B46184600F06FFA3B46F8
S31508002604184600F0B5FA0346BB603B46184600F088
S3150800261475FABA682C4B1B68D31A7B607B6841F23F
S31508002624CC02934235D9294B1B68002B09D07B6809
S31508002634274A126811461846FFF708FF0346C72BB0
S3150800264401D8012300E00023002B1FD01F4B1B6871
S3150800265401331E4A13601D4B1B68022B16D1012336
S31508002664FB60FB680C2B0ED8FB681A4A12681146E5
S315080026741846FFF7FBFE0346002B03D1FB6801331C
S31508002684FB60EEE700BF114B00221A60114B0022D3
S315080026941A60104B1B68422B05D90E4B00221A6090
S315080026A40A4B00221A600B4B1B685A1C09490A601C
S315080026B407497A6841F82320BB68034A136000BFB8
S315080026C41037BD4680BD00BF240200202802002022
S315080026D4140100202002002080B483B000AF786083
S315080026E4044A7B681A607B6818460C37BD4680BC6A
S315080026F4704700BF7C2E000880B483B000AF7860B2
S31508002704044A7B681A607B6818460C37BD4680BC49
S31508002714704700BF7C2E000880B582B000AF786091
S315080027247868FFF7E9FF0421786800F03BFA7B68CC
S3150800273418460837BD4680BD80B582B000AF7860BC
S31508002744FEF7D6FA00BF0837BD4680BD80B582B00D
S3150800275400AF786039607868FFF7EEFF1B4BDB68DB
S3150800276403F00103002B14BF01230023DBB2002B63
S3150800277400D0F3E7154B1B69144A43F002031361AF
S31508002784124A3B685361114B1B69104A43F04003D4
S3150800279413610E4BDB6803F00103002B14BF0123FE
S315080027A40023DBB2002B00D0F3E7084B1B69074A6A
S315080027B423F001031361054B1B69044A23F0020342
S315080027C4136100BF0837BD4680BD00BF0020024024
S315080027D480B483B000AF7860044A7B681A607B686B
S315080027E418460C37BD4680BC704700BFA02E0008AB
S315080027F480B582B000AF78607868FFF7E9FF0421F6
S31508002804786800F0CFF97B6818460837BD4680BD5E
S3150800281480B582B000AF7860054A7B681A607B6829
S315080028241846FFF7D5FF7B6818460837BD4680BDAE
S315080028348C2E000880B582B000AF78607868FFF700
S31508002844E7FF0821786800F0ADF97B681846083771
S31508002854BD4680BD80B483B000AF7860044A7B6807
S315080028641A607B6818460C37BD4680BC704700BFA3
S31508002874A02E000880B582B000AF786008461146DD
S315080028841A460346FB700B46BB7013467B707B687F
S315080028941846FFF7DFFF0A4A7B681A607B68FA78EE
S315080028A41A717B68BA785A717B687A789A717B68E8
S315080028B43A7CDA717B6818460837BD4680BD00BF86
S315080028C48C2E000880B584B000AF78603960002388
S315080028D4FB600023BB60BB68022B19DC7A68BB6803
S315080028E4134404331B780A221946386800F084F81E
S315080028F40246FB681344FB602E21386800F06AF828
S315080029040246FB681344FB60BB680133BB60E2E71D
S315080029147B68DB790A221946386800F06DF80246A6
S31508002924FB681344FB60FB6818461037BD4680BD38
S3150800293480B584B002AF786039607B68012B0CD10E
S315080029443B684FF6FF72934207D100230093002396
S31508002954002200210848FFF78DFF7B68002B07D16A
S315080029643B684FF6FF72934202D10348FFF750FFC4
S3150800297400BF0837BD4680BD2C02002080B500AFD5
S315080029844FF6FF710120FFF7D3FF80BD80B500AF76
S315080029944FF6FF710020FFF7CBFF80BD90B583B0DB
S315080029A400AF786039603B68002B01D100230DE045
S315080029B47B681B6804331C683868FDF731FC0346DA
S315080029C41A4639687868A047034600BF18460C3784
S315080029D4BD4690BD80B582B000AF78600B46FB70EB
S315080029E47B681B681B68FA7811467868984703461B
S315080029F418460837BD4680BD80B584B000AFF86078
S31508002A040B467A60FB72FB7A7A681946F86800F016
S31508002A1405F8034618461037BD4680BD80B584B010
S31508002A2400AFF860B9607A607B68002B09D1FB684F
S31508002A341B681B68BA68D2B21146F86898470346F9
S31508002A4408E07B68DBB21A46B968F86800F006F84D
S31508002A54034600BF18461037BD4680BD80B58EB004
S31508002A6400AFF860B9601346FB7107F11003203311
S31508002A747B637B6B00221A70FB79012B01D80A232E
S31508002A84FB71FA79BB68B3FBF2F102FB01F29B1AFC
S31508002A9487F83330FB79BA68B2FBF3F3BB6097F86F
S31508002AA43330092B04D897F833303033DBB203E0DC
S31508002AB497F833303733DBB27A6B013A7A637A6B39
S31508002AC41370BB68002B00D0DBE7796BF868FFF757
S31508002AD465FF034618463837BD4680BD80B483B0C3
S31508002AE400AF7860044A7B681A607B6818460C371E
S31508002AF4BD4680BC704700BFB42E000880B483B0BE
S31508002B0400AF7860044A7B681A607B6818460C37FD
S31508002B14BD4680BC704700BFB42E000880B582B09D
S31508002B2400AF78607868FFF7E9FF0421786800F059
S31508002B3439F87B6818460837BD4680BD80B483B02B
S31508002B4400AF7860084BDB68074A43F08073D360AC
S31508002B54064B1B68054A43F00103136000BF0C3794
S31508002B64BD4680BC704700BFF0ED00E0001000E0F1
S31508002B7480B483B000AF7860074B5A68074B1B686C
S31508002B840749A1FB03139B0CB2FBF3F318460C3756
S31508002B94BD4680BC704700BF001000E0000000205E
S31508002BA483DE1B4300F003B808B500F00FF800F005
S31508002BB443B808B5804700F00EF80000024B1868C1
S31508002BC4BFF35B8F704700BF1000002008B5FFF7FE
S31508002BD4F5FFFFF7EEFF062008B500F0BFF8012061
S31508002BE4FDF76FFE014B1868704700BF14000020FC
S31508002BF470B500260C4D0D4C641BA410A64209D1D1
S31508002C0400F0D6F800260A4D0A4C641BA410A64206
S31508002C1405D170BD55F8043B98470136EEE755F8DB
S31508002C24043B98470136F2E71C2F00081C2F0008BE
S31508002C341C2F0008282F0008024B0146186800F0CC
S31508002C4419B800BF140000200A44914200F1FF336A
S31508002C5400D1704710B511F8014B914203F8014FA2
S31508002C64F9D110BD03460244934200D1704703F8D4
S31508002C74011BF9E738B50546002943D051F8043C49
S31508002C840C1F002BB8BFE41800F084F81E4A13681A
S31508002C94104633B9636014602846BDE8384000F02E
S31508002CA47FB8A3420AD921686218934201BF1A68F9
S31508002CB45B685218226063600460EDE71A465B6835
S31508002CC40BB1A342FAD911685018A0420BD1206857
S31508002CD40144501883421160DED118685B680144C8
S31508002CE411605360D8E702D90C232B60D4E7206817
S31508002CF421188B4201BF19685B6809182160636053
S31508002D045460C9E738BD00BF340200201F2938B50E
S31508002D1404460D4604D9162303604FF0FF3038BD28
S31508002D24426C12B152F821304BB9204600F030F803
S31508002D342A4601462046BDE8384000F017B8012B5C
S31508002D440AD0591C03D1162303600120E7E700249F
S31508002D54284642F8254098470020E0E7024B0146FA
S31508002D641868FFF7D3BF00BF1400002038B5002346
S31508002D74064D0446084611462B60FDF792FD431C92
S31508002D8402D12B6803B1236038BD00BF600200205E
S31508002D94FDF780BD014800F009B800BF68020020AD
S31508002DA4014800F004B800BF680200207047704765
S31508002DB4F8B500BFF8BC08BC9E467047F8B500BF16
S30D08002DC4F8BC08BC9E467047E6
S31508002DCC02030405060708090A0B0C0D0E0F101052
S31508002DDC0000000000000000A1060008C506000857
S31508002DEC00000000000000000102030406070809A1
S31508002DFC5E01011F0103030100008A02010A010298
S31508002E0C0201000064001E47040B090600007C0141
S31508002E1C0106010303010000F401060E010202017A
S31508002E2C0000C20117010102020101009600023ED0
S31508002E3C010606010000C8000382071003100000F3
S31508002E4CC80082071007100301006D011201030167
S31508002E5C010301000E0124010102020101004001D7
S31508002E6C240101020201010000000000000000001C
S31508002E7CFD2600081D2700080000000000000000C1
S31508002E8C1528000839280008C92800080000000081
S31508002E9C000000000000000000000000AD2B000838
S31508002EAC0000000000000000012B0008212B000880
S31508002EBC00000000000000000000000000000000F8
S31508002ECC00000000000000000000000000000000E8
S31508002EDC00000000000000000000000000000000D8
S31508002EEC00000000000000000000000000000000C8
S31508002EFC00000000000000000000000000000000B8
S31508002F0C00000000000000000000000000000000A7
S31108002F1C0902000839070008812900088E
S31108002F28E5010008490700089129000887
S31508002F340024F40010000000010000003C0000001A
S31508002F44DB2B00081800002000000000DC2E000817
S31508002F54FC2E0008BC2E000800000000000000003B
S31508002F64000000000000000000000000000000004F
S31508002F74000000000000000000000000000000003F
S31508002F84000000000000000000000000000000002F
S31508002F94000000000000000000000000000000001F
S30D08002FA4000000000000000017
S705080008E901
