:1000000000100020812C0000C92C00008514000085
:10001000C92C0000C92C0000C92C00000000000001
:10002000000000000000000000000000C92C0000DB
:10003000C92C000000000000C92C0000BD03000016
:10004000C92C0000C92C0000C92C0000C92C0000DC
:10005000C92C0000C92C0000C92C0000C92C0000CC
:10006000C92C0000C92C00000000000000000000A6
:10007000C92C0000C92C0000C92C000000000000A1
:10008000C92C0000C92C0000C92C0000C92C00009C
:100090000000000000000000000000000000000060
:1000A00000000000C92C000000000000000000005B
:1000B000C92C0000C92C0000000000000000000056
:1000C00010B5064C2378002B07D1054B002B02D02E
:1000D000044800E000BF0123237010BDA4000020ED
:1000E00000000000A0640000084B10B5002B03D0F6
:1000F0000749084800E000BF07480368002B00D10B
:1001000010BD064B002BFBD09847F9E7000000001C
:10011000A8000020A0640000A00000200000000053
:10012000164B002B00D1144B9D46402292029A1A86
:10013000924600218B460F461348144A121A04F0C7
:10014000B6FD0F4B002B00D098470E4B002B00D074
:1001500098470020002104000D000D48002802D01F
:100160000C4800E000BF04F059FD2000290000F019
:1001700085F904F03DFDC046000008000010002095
:100180000000000000000000A40000201401002076
:100190000000000000000000B0B582B000AF020017
:1001A0003960FB1D1A70FB1D1B787F2B32D92F4C39
:1001B000FB1D1B785BB20F221340083B99082B4AAA
:1001C000FB1D1B785BB20F200340083B9B080633E6
:1001D0009B00D31804331B68FA1D127852B2032017
:1001E0000240D200FF2090400200D2431A403B68F8
:1001F0009B01FF201840FB1D1B785BB203252B40A1
:10020000DB00984003001A438B1D9B00E318043366
:100210001A6027E0164CFB1D1B785BB29B08144943
:10022000FA1D127852B29208C03292005258F91D4B
:10023000097849B203200140C900FF20884001002D
:10024000C94311403A689201FF201040FA1D12780C
:1002500052B203252A40D200904002000A43C03324
:100260009B001A51C046BD4602B0B0BD00ED00E093
:1002700000E100E080B582B000AF78607B68013BB0
:100280000C4A934201D9012310E00B4B7A68013AE2
:100290005A6001235B4203211800FFF77DFF064BE4
:1002A00000229A60044B07221A6000231800BD4602
:1002B00002B080BDFFFFFF0010E000E080B500AF9E
:1002C000A023DA0580235B005921D150A023DA0551
:1002D00080235B001621D150A023DA0580235B0028
:1002E0008821D150A023DA0580235B00D3585A42DD
:1002F0005341DBB2002B00D0E2E7C046BD4680BDD3
:1003000080B500AFA023DA0580235B000021D15027
:10031000C046BD4680BD000080B500AFFFF7CEFFF0
:10032000044B08229A6002F023FDFFF7E9FFC04664
:10033000BD4680BD0002005080B500AF1C4B0122BD
:100340001021180001F00AF8194B01222021180091
:1003500001F004F8164B01228021180000F0FEFF86
:10036000144B01222021180000F0F8FF124B00224C
:100370000421180000F0F2FF0F4B002208211800A2
:1003800000F0ECFF0C4B00221021180000F0E6FFFB
:10039000094B00222021180000F0E0FF054B00224D
:1003A0001021180000F0DAFFC046BD4680BDC046EF
:1003B00000400050804000504040005080B500AFE9
:1003C0000D4B1B685A1C0C4B1A600B4B1A68FA2316
:1003D0005B009A4208D9084B00221A60074B074A73
:1003E000126801214A401A60054B1B685A1C044BD5
:1003F0001A60C046BD4680BDC40000205442005073
:10040000C000002080B584B000AF78600F23FB18D7
:1004100000221A700F23FB181B781F2B1DDC0F23E3
:10042000FB181B787A68DA4013000122134003D0CE
:100430000F4B01221A6002E00D4B00221A600D4B97
:1004400001221A600B4B00221A600F23FB181A7846
:100450000F23FB1801321A70DCE7074B01221A60E8
:10046000054B00221A60C046BD4604B080BDC046A0
:10047000144200501C4200501042005080B500AFA2
:100480008A4B00221A70894B27225A70874B002210
:100490009A70864B0122DA70844B16221A71834BB4
:1004A00005225A71814B824ADA80FFF707FFFFF776
:1004B00033FFFFF741FF7F4B1A68FA2399001000C2
:1004C00002F0DAFD03001800FFF7D4FE01F0C2FFCE
:1004D000012002F05EF8784B180001F006FB774B24
:1004E000180001F0BCFD754B180001F0EEFE102164
:1004F000122000F003FD1221142000F0FFFC122155
:10050000162000F0FBFC0121182000F0F7FC01216F
:100510001A2000F0F3FC03211C2000F0EFFC032163
:100520001E2000F0EBFC0521202000F0E7FC052157
:10053000222000F0E3FC0621242000F0DFFC604BC9
:100540001B68002B13D15F4B1B68002B0FD15E4B38
:100550001B7801225340DBB2002B08D05B4B1B7889
:1005600001225340DBB2002B01D0012300E0002325
:10057000002B13D0564A574B1100180000F0E0FF33
:100580004F4B1B685A425341DBB2002B00D0F7E7B8
:10059000514B00221A704C4B01221A70484B1B68B9
:1005A000002B13D14D4B1B68002B0FD1464B1B78F2
:1005B00001225340DBB2002B08D0444B1B780122B0
:1005C0005340DBB2002B01D0012300E00023002BBD
:1005D00017D03F4A3F4B1100180000F0B1FF3F4BCE
:1005E0001B685A425341DBB2002B00D0F7E73C4B6B
:1005F00000221A70314B180001F0E8FD334B012244
:100600001A70384B1B68002B13D1374B1B68002B1B
:100610000FD12D4B1B7801225340DBB2002B08D0A9
:100620002A4B1B7801225340DBB2002B01D001235F
:1006300000E00023002B28D02A4B1B685A4253416C
:10064000DBB2002B00D0F7E7214A224B1100180043
:1006500000F076FF254B1B7801225340DAB2234B82
:100660001A70164B180001F0B1FD144B0022002146
:10067000180001F0D7FD1D4B1B78002B05D01C4A3C
:100680000E4B1100180001F055F90F4B1B78002B91
:1006900002D000F093F852E70C4B1B78002B02D0ED
:1006A00000F00AF94BE700F0B1FC48E7D000002069
:1006B000E60700000C010020E0000020E40000201C
:1006C000284200502C420050C8000020C9000020E1
:1006D000A086010020000140CB00002030420050E5
:1006E000CC0000203442005050420050CA0000208C
:1006F000DC5F000090B587B002AF2A4B00220121D9
:10070000180001F08FFD284BDB785BB2002B0CDD6D
:10071000254BDB785BB25A1E244B9200D258214BFA
:100720001100180001F006F905E0214A1D4B1100E7
:10073000180001F0FFF81C4B1B795BB21A001A4B32
:100740005B795BB21C00184BDB881A4938000093B8
:10075000230004F0F3FB3A00124B1100180001F0E3
:10076000E9F8104B01220321180001F05BFD0E4B4C
:100770009B785BB21A000C4B5B785BB21C000A4B97
:100780001B785BB20C4938000093230004F0D6FBC1
:100790003A00044B1100180001F0CCF8C046BD46E9
:1007A00005B090BDE4000020D0000020040000202F
:1007B000EC5F0000F05F00000460000080B582B0D4
:1007C00002AF3A4B1B78062B6DD89A00384BD318E2
:1007D0001B689F46374B9B785BB200930023172220
:1007E0000121042000F010F903005AB2314B9A7035
:1007F00059E0304B5B785BB2009300233B22012130
:10080000072000F001F903005AB22A4B5A704AE05F
:10081000284B1B785BB2009300233B2201210A2066
:1008200000F0F2F803005AB2224B1A703BE0214B61
:10083000DB785BB20093012307220021012000F046
:10084000E3F803005AB21B4BDA702CE0194B1B790A
:100850005BB2009301231F220021052000F0D4F891
:1008600003005AB2134B1A711DE0124B5B795BB255
:10087000009301230C220021082000F0C5F803009A
:100880005AB20C4B5A710EE00A4BDB885BB20093F4
:100890000023632200210D2000F0B6F803009AB275
:1008A000044BDA80C046C046BD4680BDCB00002068
:1008B000D8600000D000002080B500AF454B00227A
:1008C0000321180001F0AEFC434B1B78092B00D923
:1008D0007CE09A00414BD3181B689F46404A3D4B31
:1008E0001100180001F026F812220121042000F066
:1008F000B9F96BE03B4A374B1100180001F01AF8C8
:1009000014220121042000F0ADF95FE0364A314B9A
:100910001100180001F00EF816220121042000F049
:10092000A1F953E0314A2B4B1100180001F002F8F5
:1009300018220121042000F095F947E02C4A254BAC
:100940001100180000F0F6FF1A220121042000F027
:1009500089F93BE0274A1F4B1100180000F0EAFF1D
:100960001C220121042000F07DF92FE0224A194BBE
:100970001100180000F0DEFF1E220121042000F00B
:1009800071F923E01D4A134B1100180000F0D2FF4B
:1009900020220121042000F065F917E0184A0D4BD0
:1009A0001100180000F0C6FF22220121042000F0EF
:1009B00059F90BE0134A074B1100180000F0BAFF79
:1009C00024220121042000F04DF9C046C046BD4656
:1009D00080BDC046E4000020CC000020F460000090
:1009E00018600000286000003860000048600000C7
:1009F00058600000686000007860000088600000B7
:100A000098600000A8600000B0B582B000AF05009B
:100A10000C0010001900FB1D2A1C1A70BB1D221CA3
:100A20001A707B1D021C1A703B1D0A1C1A707F4B2A
:100A30001B78022B15DC7E4B01220321180001F0EC
:100A4000F1FB7B4B3C21180000F084FF784B012226
:100A50000C21180001F0E6FB754B3E21180000F058
:100A600079FFBB1D1A78FB1D1978714B180001F036
:100A7000D9FB6E4B1B78032B06D16E4A6C4B1100D1
:100A8000180000F057FF05E06B4A694B1100180091
:100A900000F050FF694A6A4B1100180000F050FD49
:100AA000624B1B78032B14D1BB1D1A78FB1D1978E0
:100AB0005F4B180001F0B6FB624BDB785BB25A1E4D
:100AC000614B9200D2585A4B1100180000F032FFCF
:100AD00009E01823FB181A78BB1D1978FB1D1B7839
:100AE000180000F023FA554A554B1100180000F089
:100AF00027FD564B1B68002B05D1554B1B78002B4F
:100B000001D0012300E00023002B1AD04F4B1B68BB
:100B10005A425341DBB2002B00D0F7E7434B1B781E
:100B20000133DAB2414B1A70404B1B78062B08DDBB
:100B30003F4B180001F04AFB00F086F9444B0022BD
:100B40001A70444B1B68002B05D1414B1B78002BBE
:100B500001D0012300E00023002B08D0344B180003
:100B600001F034FB00F070F9394B00221A703A4B57
:100B70001B68002B05D1364B1B78002B01D00123BD
:100B800000E00023002B1ED01823FA183B1D12781A
:100B900052B21B785BB29A420ADD1823FB181B780D
:100BA0005BB2DBB2013BDAB21823FB181A7004E027
:100BB0001823FA187B1D1B781370284A204B11004C
:100BC000180000F0BDFC264B1B68002B05D1204B04
:100BD0001B78002B01D0012300E00023002B1DD047
:100BE0001823FB181B785BB2DBB20133DAB218238F
:100BF000FB181A70194A124B1100180000F0A0FCE3
:100C00001823FA187B1D127852B21B785BB29A42F5
:100C100004DD1823FA183B1D1B7813701823FB18EA
:100C20001B781800BD4602B0B0BDC046CB00002006
:100C3000E4000020B8600000BC600000400D03002C
:100C400020000140D0000020040000202C42005071
:100C5000C80000203042005034420050A0860100FD
:100C60005042005090B587B000AF0400080011005A
:100C7000FB1D221C1A70BB1D021C1A707B1D0A1C56
:100C80001A70664B1B68002B05D1654B1B78002B37
:100C900001D0012300E00023002B1ED0614A624BEB
:100CA0001100180000F04CFC5C4B1B685A42534189
:100CB000DBB2002B00D0F7E75C4B1B780133DAB2D4
:100CC0005A4B1A70594B1B78092B06DD584B1800EC
:100CD00001F07CFA524B00221A70564B1B68002B15
:100CE00005D14F4B1B78002B01D0012300E00023DE
:100CF000002B06D04E4B180001F068FA484B00223A
:100D00001A707B1D1B78180000F0E4F803005AB23B
:100D1000494B1A70494B1B68002B05D1404B1B787F
:100D2000002B01D0012300E00023002B21D0424BF7
:100D30001B785BB2002B09DD3F4B1B785BB2DBB24B
:100D4000013BDBB25AB23C4B1A7002E03A4B17221D
:100D50001A70344A344B1100180000F0F1FB364B86
:100D60001B785BB2DAB27B1D1B781100180000F013
:100D7000C5F8334B1B68002B05D1294B1B78002B82
:100D800001D0012300E00023002B20D02A4B1B7848
:100D90005BB2DBB20133DBB25AB2274B1A70264B7F
:100DA0001B785BB2172B02DD234B00221A701D4A01
:100DB0001D4B1100180000F0C3FB1F4B1B785BB2EA
:100DC000DAB27B1D1B781100180000F097F8082399
:100DD000FB18180010231A00002103F068FF164BBF
:100DE0001B785BB21A00144B5B785BB21549082084
:100DF000381804F0A3F8FB1D1A78FB1D19780C4B6A
:100E0000180001F00FFA0823FA18094B1100180016
:100E100000F090FDC046BD4607B090BD2C4200508A
:100E2000C9000020A086010020000140CC00002065
:100E3000E400002030420050D8000020344200502E
:100E400050420050C060000080B500AF1F4B1B78BF
:100E50005BB2DAB21E4B1100180001F014F81B4B04
:100E60005B785BB2DAB21A4B1100180000F0F2FFA7
:100E7000164B9B785BB2DAB2154B1100180000F0EC
:100E8000CDFF124BDB785BB2DAB2114B11001800C8
:100E900000F04BFF0D4B1B795BB2DAB20C4B11002B
:100EA000180000F05BFF094B5B795BB2DAB2084BCC
:100EB0001100180000F06BFF044BDA88044B11009E
:100EC000180000F07DFFC046BD4680BDD000002068
:100ED000E000002080B582B000AF0200FB1D1A7058
:100EE000FB1D1A78044B1100180000F060FE03008F
:100EF0001800BD4602B080BDE000002080B582B081
:100F000000AF0200FB1D1A70BB1D0A1C1A70BB1D2E
:100F10001A78FB1D1978044B180000F02FFEC0460C
:100F2000BD4602B080BDC046E000002090B585B04F
:100F300000AF040008001100FB1D221C1A70BB1D2D
:100F4000021C1A707B1D0A1C1A70BB1D1A78FB1D2F
:100F500019780B4B180001F065F97B1D1A780949C7
:100F60000C23FB18180003F0E9FF0C23FA18044BBC
:100F70001100180000F0DEFCC046BD4605B090BD73
:100F8000E4000020D060000080B500AF1D4B1800C9
:100F900000F0B3FE03005AB21B4B1A70194B180035
:100FA00000F096FE03005AB2174B5A70154B18000A
:100FB00000F076FE03005AB2134B9A70114B1800E2
:100FC00000F008FE03005AB20F4BDA700D4B180008
:100FD00000F015FE03005AB20B4B1A71094B1800B2
:100FE00000F022FE03005AB2074B5A71054B18005D
:100FF00000F02FFE03001A00034BDA80C046BD4606
:1010000080BDC046E0000020D000002090B583B035
:1010100000AF00237B60BB1C00221A70AB4B1B7817
:1010200001225340DBB2002B00D125E1FFF7ACFFDA
:10103000FFF760FB1220FFF74DFF03001A00BB1CF7
:101040001A701420FFF746FF03001A00BB1C1A7029
:101050009F4B9B785BB21C001220FFF73BFF030005
:101060009C420BDB9A4B9B785BB21C001420FFF771
:1010700031FF03009C4201DA012300E00023002B32
:1010800005D07B688022120313437B60F7E0904B0E
:101090009B785BB21C001620FFF71CFF03009C42EC
:1010A00004DB8B4B9B785BB2172B0EDD884B9B7858
:1010B0005BB2002B0BDB864B9B785BB21C001820CD
:1010C000FFF708FF03009C4201DA012300E0002340
:1010D000002B03D001235B427B60D0E07C4B9B78EC
:1010E0005BB21C001A20FFF7F5FE03009C420BDBED
:1010F000774B9B785BB21C001C20FFF7EBFE0300D4
:101100009C4201DA012300E00023002B4BD07B68D6
:101110008022520013437B607B688022D2001343FD
:101120007B607B688022520113437B607B68802256
:10113000920113437B607B688022120213437B6021
:101140007B688022920213437B607B6880221203BB
:1011500013437B607B688022920313437B607B6830
:101160008022120413437B607B6880229204134325
:101170007B607B688022D20413437B607B68802283
:10118000120513437B607B688022520513437B600A
:101190007B688022920513437B607B688022D205A6
:1011A00013437B606BE04A4B9B785BB21C001E20B4
:1011B000FFF790FE03009C420BDB454B9B785BB234
:1011C0001C002020FFF786FE03009C4201DA012369
:1011D00000E00023002B1ED07B6880221203134303
:1011E0007B607B688022D20413437B607B68802213
:1011F000120513437B607B688022520513437B609A
:101200007B688022920513437B607B688022D20535
:1012100013437B6033E02E4B9B785BB21C00222093
:10122000FFF758FE03009C420BDB294B9B785BB217
:101230001C002420FFF74EFE03009C4201DA01232C
:1012400000E00023002B14D07B688022D2041343DB
:101250007B607B688022120513437B607B68802261
:10126000920513437B607B688022D20513437B6029
:1012700005E000237B6002E001235B427B60154BAD
:101280001B687A689A421DD0FB1C00221A70FB1C56
:101290001B785BB2092B12DC7B681800FFF7B2F8F1
:1012A0000D4A0E4B1100180000F04AF9FB1C1B7888
:1012B0005BB2DBB20133DAB2FB1C1A70E7E7054B15
:1012C0007A681A60C046BD4603B090BDCA000020CF
:1012D000D0000020DC000020204E00002000014053
:1012E00080B582B000AF786039607B68012B19D17E
:1012F0003B680E4A934215D10D4B180000F0C8FB15
:101300000C4A0D490A4B180001F0FCFD0B48022362
:101310001022272100F03EFE064A0949074B18001B
:1013200001F0F0FDC046BD4602B080BDFFFF0000E9
:10133000E000002000000020AD1A0000E4000020C2
:101340002120000080B500AF034B19000120FFF7FA
:10135000C7FFBD4680BDC046FFFF000080B586B018
:1013600000AFF860B9607A6000237B611BE0012266
:101370007B699A4013001A00BB68134010D0FB68C9
:101380001B687A695200032191400A00D2431A4037
:101390007B695B00796899400B001A43FB681A600F
:1013A0007B6901337B617B69072BE0D9C046BD4671
:1013B00006B080BD80B582B000AF78607B681A68E7
:1013C000204B1100180003F023FD7B6804331A68DA
:1013D0001D4B1100180003F01BFD7B6808331A68D1
:1013E0001A4B1100180003F013FD7B680C331A68C8
:1013F000174B1100180003F00BFD7B6810331A68BF
:10140000144B1100180003F003FD7B6814331A68B5
:10141000114B1100180003F0FBFC7B6818331A68AD
:101420000E4B1100180003F0F3FC7B681C331A68A4
:101430000B4B1100180003F0EBFCC046BD4602B098
:1014400080BDC0461C6100002861000034610000BE
:10145000406100004C6100005861000064610000C0
:101460007061000080B582B000AF7860044B180056
:1014700003F048FD7B681800FFF79CFFFEE7C046BD
:101480007C61000080B500AF064B04207146084225
:1014900003D0EFF309807146E4E7EFF30880E1E75A
:1014A000FEE7C0466514000080B586B000AFF86066
:1014B000B9607A607B687B611CE0C046124B9A6918
:1014C00080231B041340F9D10F4ABB68591CB96033
:1014D0001B785BB21360BB681B785BB20A2B09D127
:1014E000C046094B9A6980231B041340F9D1064B6F
:1014F0000D221A607B695A1E7A61002BDDD17B6850
:101500001800BD4606B080BD0000054080B584B01F
:1015100000AFF860B9607A60C046084B9A698023D2
:10152000DB011340F9D1054B1B685AB2BB681A7036
:1015300001231800BD4604B080BDC0460000054030
:1015400090B587B000AF786039607B68180000F014
:101550007FF803007B6100233B61384B1B6879698E
:10156000180001F089FD0300FB607B6800221A600F
:101570007B6800225A617B69314A93420BD13B68F8
:1015800063336421180001F077FD03001A0064231F
:1015900053433B600CE03B6809330A21180001F01B
:1015A0006BFD03001A0013009B009B185B003B605F
:1015B0007B69244A934205D903233B617B699B08DD
:1015C0007B6108E07B69204A934204D901233B6197
:1015D0007B695B087B61386802F016FA041C786945
:1015E00002F012FA031C191C201C01F031FF031C2D
:1015F0001649181C01F0E4FD031CBB60B86801F03B
:10160000C7FD02007B685A603B698022D2051A43FD
:101610007B681A6003E0C046FB68013BFB60FB6827
:10162000002BF8D1C0467B681A6880239B041340C6
:10163000F9D1C046BD4607B090BDC0460C010020A0
:1016400010270000FFFFFF01FFFFFF000024744987
:1016500080B584B000AF78607B68174A934206D1AA
:10166000164B5B691B0A07221340FB6005E0134B16
:101670005B691B0B07221340FB60FB68002B0AD140
:101680000E4B1B6803221340012B01D10C4B0FE0C2
:1016900080231B020CE0FB68012B01D1094B07E002
:1016A000FB68022B02D1084B1B6801E0074B1B684B
:1016B0001800BD4604B080BD00000140000200508B
:1016C000001BB700102700000C01002020000020A4
:1016D00080B582B000AF7860034A7B681A607B688F
:1016E0001800BD4602B080BDB061000080B582B078
:1016F00000AF78607B681800FFF7EAFF7B6818008E
:1017000001F08EFC7B681800BD4602B080BD000071
:1017100080B582B000AF7860054A7B681A607B684C
:101720001800FFF7D5FF7B681800BD4602B080BDEA
:101730009C61000080B582B000AF78607B681800C3
:10174000FFF7E6FF7B68180001F06AFC7B68180071
:10175000BD4602B080BD000080B582B000AF7860A9
:10176000034A7B681A607B681800BD4602B080BDE2
:10177000B061000090B583B000AF78600C0010003D
:101780001900FB1C221C1A70BB1C021C1A707B1C4B
:101790000A1C1A707B681800FFF7DEFF0C4A7B6892
:1017A0001A607B68FA1C12781A717B68BA1C12786E
:1017B0005A717B687A1C12789A717B681822BA1861
:1017C0001278DA717B681800BD4603B090BDC04640
:1017D0009C61000080B584B000AF78603960002360
:1017E000FB600023BB60BB68022B1ADC7A68BB6815
:1017F000D318043319783B680A22180000F0BEF8A9
:101800000200FB689B18FB603B682E21180000F06B
:10181000A1F80200FB689B18FB60BB680133BB604A
:10182000E1E77B68D9793B680A22180000F0A6F846
:101830000200FB689B18FB60FB681800BD4604B003
:1018400080BD000080B584B002AF786039607B68ED
:10185000012B11D13B680A4A93420DD1094800235C
:101860000093002300220021FFF784FF064A074966
:10187000044B180001F046FBC046BD4602B080BDD7
:10188000FFFF0000F40000200000002011170000FE
:1018900080B500AF034B19000120FFF7D3FFBD4611
:1018A00080BDC046FFFF000090B583B000AF7860F8
:1018B00039603B68002B01D100230DE07B681B6879
:1018C00004331C683B68180003F064FB02003968AD
:1018D0007B681800A04703001800BD4603B090BD08
:1018E00080B586B000AFF860B9607A6000237B6194
:1018F0007B685A1E7A605A1E9341DBB2002B14D0CB
:10190000FB681B681A68BB68591CB9601978FB68CA
:101910001800904703005A1E9341DBB2002B03D0FE
:101920007B6901337B61E3E7C0467B691800BD46F4
:1019300006B080BD80B582B000AF786039603A688B
:101940007B6811001800FFF7AFFF03001800BD46C9
:1019500002B080BD80B582B000AF78600A00FB1C89
:101960001A707B681B681B68FA1C11787A68100073
:10197000984703001800BD4602B080BD80B584B012
:1019800000AFF8607A600B23FB180A1C1A700B2357
:10199000FB1819787A68FB68180000F005F8030056
:1019A0001800BD4604B080BD80B584B000AFF860BB
:1019B000B9607A607B68002B09D1FB681B681B68E3
:1019C000BA68D1B2FA6810009847030007E07B6854
:1019D000DAB2B968FB68180000F005F803001800D7
:1019E000BD4604B080BD80B58EB000AFF860B96070
:1019F000FB1D1A701023FB1820337B637B6B0022C6
:101A00001A70FB1D1B78012B02DCFB1D0A221A70C9
:101A1000FB1D1A78BB681100180001F0B3FB0B0026
:101A20001A003323FB181A70FB1D1B781900B868C5
:101A300001F022FB0300BB607B6B013B7B63332324
:101A4000FB181B785BB2092B06DC3323FB181B78D1
:101A50003033DBB25BB205E03323FB181B7837333E
:101A6000DBB25BB27A6B1370BB68002B04D0FB1D3A
:101A7000FA1D12781A70CBE77A6BFB681100180018
:101A8000FFF712FF03001800BD460EB080BD000036
:101A900080B582B000AF7860034A7B681A607B68CB
:101AA0001800BD4602B080BD1062000080B582B053
:101AB00000AF7860034A7B681A607B681800BD46F7
:101AC00002B080BD1062000080B582B000AF7860C7
:101AD0007B681800FFF7EAFF7B68180001F0A0FAA6
:101AE0007B681800BD4602B080BD80B582B000AFF3
:101AF00078607B680021180000F004F8C046BD46FD
:101B000002B080BD80B584B000AF78600A00FB1CD5
:101B10001A70FB1C1B78002B01D0802200E00022F1
:101B20000F23FB181A707B680021180000F03FF8A3
:101B300003001A007F231340DAB20F23FB181B782F
:101B40001343DAB27B680021180000F017F8C04692
:101B5000BD4604B080BD80B582B000AF78607B68C0
:101B60000021180000F023F80300DB11DBB2012292
:101B70001340DBB21800BD4602B080BD80B582B014
:101B800000AF786008001100FB1C021C1A70BB1C1F
:101B90000A1C1A70BB1C1978FB1C1A780B006821F0
:101BA000012000F0DCFFC046BD4602B080BD80B51C
:101BB00082B000AF78600A00FB1C1A70FB1C1B7817
:101BC0001A006821012000F0EFFF03001800BD4655
:101BD00002B080BD80B582B000AF78607B68032121
:101BE0001800FFF7E4FF03001A007B6811001800DB
:101BF00000F070F903001800BD4602B080BD80B54A
:101C000082B000AF78607B6804211800FFF7CFFF37
:101C100003001A007B681100180000F05BF9030054
:101C20001800BD4602B080BD80B582B000AF7860BC
:101C30007B6805211800FFF7BAFF03001A007B68D4
:101C40001100180000F046F903001800BD4602B06C
:101C500080BD80B584B000AF78607B68102118002B
:101C6000FFF7A5FF03009AB20E23FB1864214A4335
:101C70001A807B6806211800FFF799FF03001A00FD
:101C80007B681100180000F025F903009AB20E23BA
:101C9000FB181B88D3189BB21800BD4604B080BD4A
:101CA00080B582B000AF78607B6802211800FFF732
:101CB0007EFF03001A003F231340DAB27B68110055
:101CC000180000F007F903001800BD4602B080BDFF
:101CD00080B582B000AF78607B6801211800FFF703
:101CE00066FF03001A007B681100180000F0F2F88C
:101CF00003001800BD4602B080BD80B582B000AFC1
:101D000078607B6800211800FFF751FF03001A007C
:101D10007F231340DAB27B681100180000F0DAF874
:101D200003001800BD4602B080BD80B582B000AF90
:101D300078600A00FB1C1A70FB1C1A787B68110083
:101D4000180000F0E2F803001A007B680321180075
:101D5000FFF714FFC046BD4602B080BD80B582B01B
:101D600000AF78600A00FB1C1A70FB1C1A787B68B5
:101D70001100180000F0C9F803001A007B68042164
:101D80001800FFF7FBFEC046BD4602B080BD80B51F
:101D900082B000AF78600A00FB1C1A70FB1C1A7836
:101DA0007B681100180000F0B0F803001A007B688F
:101DB00005211800FFF7E2FEC046BD4602B080BD17
:101DC00080B582B000AF78600A00BB1C1A80BB1CD3
:101DD0001B886421180001F04FF903009BB2DAB2AE
:101DE0007B6810211800FFF7C9FEBB1C1B8864210B
:101DF000180001F0C7F90B009BB2DAB27B68110042
:101E0000180000F082F803001A007B680621180011
:101E1000FFF7B4FEC046BD4602B080BD80B582B0BB
:101E200000AF78600A00FB1C1A70FB1C1B783F2275
:101E30001340DAB27B681100180000F066F8030066
:101E40001A007B6802211800FFF798FEC046BD46C5
:101E500002B080BD80B582B000AF78600A00FB1C84
:101E60001A70FB1C1A787B681100180000F04DF8FE
:101E700003001A007B6801211800FFF77FFEC046AF
:101E8000BD4602B080BD80B584B000AF78600A0066
:101E9000FB1C1A707B681800FFF75DFE03001A0038
:101EA0000F23FB181A70FA1C0F23FB1812781B78EB
:101EB0001343DAB27B681100180000F026F8030023
:101EC0001A007B6800211800FFF758FEC046BD4687
:101ED00004B080BD80B582B000AF78600A00FB1C02
:101EE0001A70FB1C1B781B09DBB21A1C9200D3185A
:101EF000DB18DAB2FB1C1B780F210B40DBB2D318C6
:101F0000DBB21800BD4602B080BD90B583B000AF13
:101F100078600A00FB1C1A70FB1C1B780A21180051
:101F200001F030F90B00DCB2FB1C1B780A21180011
:101F300001F0A2F80300DBB21B01DBB2E318DBB255
:101F40001800BD4603B090BD80B582B000AF786088
:101F5000054A7B681A607B6800225A607B6818001B
:101F6000BD4602B080BDC046F061000080B582B0C1
:101F700000AF78600A00FB1C1A70FB1C19787B68A4
:101F80000122180000F0C3F901231800BD4602B079
:101F900080BD000090B583B000AF78600C001000E9
:101FA0001900FB1C221C1A70BB1C021C1A707B1C23
:101FB0000A1C1A707B681800FFF7C6FF174A7B6877
:101FC0001A607B6800221A727B6800225A727B6852
:101FD00000229A727B680022DA727B6800221A73F0
:101FE0007B6800225A737B6800229A737B68002208
:101FF000DA737B68FA1C12781A727B68BA1C127842
:102000005A737B687A1C12789A737B680022DA73A1
:102010007B681800BD4603B090BDC046406200001A
:1020200080B582B000AF7860034A7B681A607B6835
:102030001800BD4602B080BD4062000080B582B08D
:1020400000AF78607B681800FFF7EAFF7B68180034
:1020500000F0E6FF7B681800BD4602B080BD80B589
:1020600082B000AF78607B68180000F004F8C046CA
:10207000BD4602B080BD80B582B000AF78607B689D
:1020800000225A727B68597B7B689A7B78680023B0
:1020900000F004F8C046BD4602B080BD90B583B0E4
:1020A00000AF78600C0010001900FB1C221C1A7095
:1020B000BB1C021C1A707B1C0A1C1A70BB1C1B78F0
:1020C000012B06DD7B685B7A08221343DAB27B685A
:1020D0005A727B68BA1C12781A737B1C1B78002B0F
:1020E0000AD0BB1C1B78012B06D17B685B7A0422CB
:1020F0001343DAB27B685A72304A314B1100180030
:10210000FFF71EFA7B68DA7B7B681100180000F08D
:102110004CF92C4A2A4B11001800FFF711FA7B6882
:102120003021180000F028F9274A254B110018002B
:10213000FFF706FA7B683021180000F01DF9224AEB
:102140001F4B11001800FFF7FBF97B6830211800C6
:1021500000F012F91A4B96211800FFF7F1F97B688D
:102160002021180000F008F97B685B7A20221343D5
:10217000DAB27B681100180000F0B7F87B6804221F
:102180009A727B68180000F087F87B68180000F0EE
:102190001DF87B680222DA727B68DB7A0422134323
:1021A000DAB27B681100180000F09FF87B68180015
:1021B00000F022F8C046BD4603B090BD50C30000F9
:1021C0002000014040420F009411000080B582B011
:1021D00000AF78607B680121180000F086F8FA23D0
:1021E000DB00044A19001000FFF7AAF9C046BD46FB
:1021F00002B080BD2000014080B582B000AF7860A1
:102200007B680221180000F070F8FA23DB00044A12
:1022100019001000FFF794F9C046BD4602B080BD1A
:102220002000014090B587B000AF78600800110031
:10223000FB1C021C1A70BB1C0A1C1A700823FB181A
:10224000144A13CA13C312681A60BB1C1B787A683D
:10225000127B934204DD7B681A7BBB1C013A1A7027
:10226000BB1C1A780823FB189200D358DAB2FB1C67
:102270001B78D318DBB25BB28022524213435BB2AD
:10228000DAB27B681100180000F02FF8C046BD4696
:1022900007B090BD2862000080B582B000AF7860C2
:1022A0007B689B7A04221343DAB27B689A727B685C
:1022B0009B7A08221343DAB27B681100180000F001
:1022C00014F8C046BD4602B080BD80B582B000AFF4
:1022D00078607B680822DA737B680021180000F0C0
:1022E00064F8C046BD4602B080BD80B582B000AF84
:1022F00078600A00FB1C1A70FB1C19787B680022AE
:10230000180000F004F8C046BD4602B080BD80B59C
:1023100084B000AF786008001100FB1C021C1A702A
:10232000BB1C0A1C1A700F23FB18FA1C12780F2111
:102330008A431A70FB1C1B781A010E23FB181A70B3
:102340000F23FA18BB1C12781B781343DAB27B6890
:102350001100180000F010F80E23FA18BB1C1278B8
:102360001B781343DAB27B681100180000F004F800
:10237000C046BD4604B080BD80B582B000AF786075
:102380000A00FB1C1A70FB1C1A787B6811001800ED
:1023900000F00BF8FB1C1A787B681100180000F0A5
:1023A0001DF8C046BD4602B080BD80B582B000AF0A
:1023B00078600A00FB1C1A707B681B7ADB18D9B2A4
:1023C0007B68DA7BFB1C1B781343DBB21A0001200D
:1023D00000F017FBC046BD4602B080BD80B582B09C
:1023E00000AF78600A00FB1C1A70FB1C1B780422EB
:1023F0001343DAB27B6811001800FFF7D6FF0C4BCD
:1024000001211800FFF79CF8FB1C1B780422934362
:10241000DAB27B6811001800FFF7C7FF044B3221C6
:102420001800FFF78DF8C046BD4602B080BDC0461B
:102430002000014080B582B000AF786002E07B6888
:10244000013B7B607B68002BF9D1C046BD4602B0E2
:1024500080BD000080B500AF074B0122202118008D
:10246000FEF77CFF044B012210211800FEF776FFD7
:10247000C046BD4680BDC046C040005080B500AFDC
:10248000024B01221A60C046BD4680BD704200501A
:1024900080B500AF024B00221A60C046BD4680BD29
:1024A0007042005080B582B000AF0200FB1D1A7070
:1024B000034B01221A60C046BD4602B080BDC04633
:1024C0007442005080B582B000AF0200FB1D1A704C
:1024D000034B00221A60C046BD4602B080BDC04614
:1024E0007442005080B582B000AF0200FB1D1A702C
:1024F000BB1D0A1C1A70BB1D1B78002B05D0FB1DD1
:102500001B781800FFF7BAFF04E0FB1D1B781800CA
:10251000FFF7BEFFC046BD4602B080BD80B582B0A9
:1025200000AF0200FB1D1A70044B0022102118009E
:10253000FEF714FFC046BD4602B080BDC04000504B
:1025400080B582B000AF0200FB1D1A70044B01225F
:1025500010211800FEF702FFC046BD4602B080BD44
:10256000C040005080B582B000AF0200FB1D1A7061
:10257000FB1D1B781800FFF795FF1920FFF75AFF86
:10258000FB1D1B781800FFF79DFFC046BD4602B03B
:1025900080BD80B582B000AF0200FB1D1A70FB1D2C
:1025A0001B781800FFF76AFFFB1D1B781800FFF768
:1025B00079FFC046BD4602B080BD80B582B000AF95
:1025C0000200FB1D1A70FB1D1B781800FFF756FF59
:1025D000FB1D1B781800FFF765FF1920FFF72AFF86
:1025E000FB1D1B781800FFF753FF1920FFF722FF90
:1025F000FB1D1B781800FFF765FF3220FFF71AFF5D
:10260000C046BD4602B080BD80B582B000AF0200BA
:10261000FB1D1A70FB1D1B781800FFF739FFFB1D0F
:102620001B781800FFF73EFF1920FFF703FFFB1D83
:102630001B781800FFF722FF1920FFF7FBFEC046AA
:10264000BD4602B080BD80B586B000AF0200FB1D64
:102650001A70FB1D1B781800FFF760FFFB1D1B782D
:102660001800FFF71FFF1723FB1800221A7019200C
:10267000FFF7E0FE0A233B6114E0FB1D1B78180006
:1026800000F0C2F803005A425341DBB2FB60FB6822
:10269000002B04D01723FB1801221A7005E03B69B8
:1026A000013B3B613B69002BE7DCFB1D1B781800FD
:1026B000FFF708FFFB1D1B781800FFF741FF1920EB
:1026C000FFF7B8FE1723FB181B781800BD4606B0AD
:1026D00080BD80B582B000AF0200FB1D1A70FB1DEB
:1026E0001B781800FFF71AFFFB1D1B781800FFF777
:1026F00039FFFB1D1B781800FFF722FF1920FFF799
:1027000099FEC046BD4602B080BD90B585B000AF11
:10271000040008001100FB1D221C1A70BB1D021CC6
:102720001A707B1D0A1C1A707B1D1B78002B06D0AB
:10273000BB1DBA1D127801210A431A7005E0BB1DAA
:10274000BA1D127801218A431A70FB1D1B781800EC
:10275000FFF7B8FE0723FB601BE00122FB689A40ED
:1027600013005BB2BA1D127852B213405BB2DAB2F8
:10277000FB1D1B7811001800FFF7B4FE1920FFF7AE
:1027800059FEFB1D1B781800FFF7ECFEFB68013BB0
:10279000FB60FB68002BE0DAC046BD4605B090BD8B
:1027A00080B584B000AF0200FB1D1A70BB1D0A1C6F
:1027B0001A70FB1D1B781800FFF784FE0723FB60CF
:1027C0001BE00122FB689A4013005BB2BA1D12782D
:1027D00052B213405BB2DAB2FB1D1B781100180035
:1027E000FFF780FE1920FFF725FEFB1D1B78180060
:1027F000FFF7B8FEFB68013BFB60FB68002BE0DAEB
:10280000C046BD4604B080BD80B582B000AF0200B6
:10281000FB1D1A70FB1D1B78012B03D1044B1B6899
:10282000DBB200E000231800BD4602B080BDC04608
:102830007042005080B584B000AF0200FB1D1A70DA
:10284000BB1D0A1C1A70FB1D1B781800FFF73AFE0F
:102850000723FB601BE00122FB689A4013005BB278
:10286000BA1D127852B213405BB2DAB2FB1D1B786C
:1028700011001800FFF736FE1920FFF7DBFDFB1DE6
:102880001B781800FFF76EFEFB68013BFB60FB68DE
:10289000002BE0DAC046BD4604B080BD80B584B0F0
:1028A00000AF0200FB1D1A700B23FB1800221A70E8
:1028B000FB1D1B781800FFF731FE0823FB6025E0A5
:1028C000FB1D1B781800FFF7EDFD0B23FA180B23F7
:1028D000FB181B78DB181370FB1D1B781800FFF723
:1028E00093FF031E07D00B23FB180B22BA18127894
:1028F00001210A431A701920FFF79CFDFB1D1B786C
:102900001800FFF7DFFD1920FFF794FDFB685A1E42
:10291000FA60002BD4D1FB1D1B781800FFF710FEC6
:102920000B23FB181B781800BD4604B080BDB0B562
:1029300084B000AF05000C0010001900FB1D2A1C1C
:102940001A70BB1D221C1A707B1D021C1A703B1DC5
:102950000A1C1A700F23FB1801221A70FB1D1B782A
:102960001800FFF72AFEBB1D1978FB1D1B780022FB
:102970001800FFF7CAFEFB1D1B781800FFF763FE67
:10298000031E03D10F23FB1800221A701920FFF732
:1029900051FD7B1D1A78FB1D1B7811001800FFF7F5
:1029A000FFFEFB1D1B781800FFF74DFE031E03D131
:1029B0000F23FB1800221A701920FFF73BFD3B1D67
:1029C0001A78FB1D1B7811001800FFF733FFFB1D61
:1029D0001B781800FFF737FE031E03D10F23FB18E7
:1029E00000221A701920FFF725FDFB1D1B78180027
:1029F000FFF70AFE0F23FB181B781800BD4604B032
:102A0000B0BD90B585B000AF040008001100FB1DFB
:102A1000221C1A70BB1D021C1A707B1D0A1C1A7026
:102A20000F23FB1801221A70FB1D1B781800FFF7FB
:102A3000C4FDBB1D1978FB1D1B7800221800FFF791
:102A400064FEFB1D1B781800FFF7FDFD031E03D17C
:102A50000F23FB1800221A707B1D1A78FB1D1B78B0
:102A600011001800FFF79CFEFB1D1B781800FFF7F4
:102A7000EAFD031E03D10F23FB1800221A700F2357
:102A8000FB181B781800BD4605B090BD90B585B009
:102A900000AF040008001100FB1D221C1A70BB1DB2
:102AA000021C1A707B1D0A1C1A700F23FB180022CF
:102AB0001A70FB1D1B781800FFF76BFDFB1D1B78C0
:102AC0001800FFF77AFDBB1D1978FB1D1B7800224B
:102AD0001800FFF71AFEFB1D1B781800FFF7B3FD67
:102AE0007B1D1A78FB1D1B7811001800FFF758FE9C
:102AF000FB1D1B781800FFF7A6FD1920FFF79AFCB5
:102B0000FB1D1B781800FFF758FDBB1D1978FB1D36
:102B10001B7801221800FFF7F8FDFB1D1B78180039
:102B2000FFF791FD1920FFF785FC0F23FC18FB1D13
:102B30001B781800FFF7B2FE03002370FB1D1B7803
:102B40001800FFF7C6FDFB1D1B781800FFF75CFDA2
:102B50000F23FB181B781800BD4605B090BDB0B51B
:102B600082B000AF05000C0010001900FB1D2A1CEC
:102B70001A70BB1D221C1A707B1D021C1A703B1D93
:102B80000A1C1A70BB1D1B78DB18D9B23B1D1C78C0
:102B90007B1D1A78FB1D18782300FFF7C8FE030081
:102BA0001800BD4602B0B0BD90B583B000AF0400C0
:102BB00008001100FB1D221C1A70BB1D021C1A709C
:102BC0007B1D0A1C1A70BB1D1B78DB18D9B27B1D3C
:102BD0001A78FB1D1B781800FFF758FF0300180038
:102BE000BD4603B090BD80B582B000AF786001F003
:102BF000F9FF030058221A6001235B421800BD460A
:102C000002B080BD80B582B000AF786001F0EAFF0D
:102C1000030058221A6001235B421800BD4602B02F
:102C200080BD80B582B000AF7860396001F0DAFF16
:102C3000030058221A6001235B421800BD4602B00F
:102C400080BD80B582B000AF786001F0CBFF03009B
:102C500058221A6000231800BD4602B080BD80B51E
:102C600084B000AFF860B9607A6001F0BBFF030088
:102C700058221A6001235B421800BD4604B080BD93
:102C80000B490C4A0C4B9B1A03DD043BC858D0502F
:102C9000FBDC0A485921016016210160882101608E
:102CA000074808490160054800210160FDF738FA2E
:102CB000BC69000000000020A400002000010050BA
:102CC00060000050A55A0000FEE7C04680B588B0FD
:102CD00000AF0023BB613B1D214A12681A60214BE3
:102CE0001B6A7B617A69A023DB02134001D00023B9
:102CF00031E07A6980231B03134002D01A4BFB6139
:102D000001E01A4BFB617A6980239B02134001D0DA
:102D1000FB6920E07B699B0B032213403A1DD35CC7
:102D20003B617B69DB05DB0D0233FB607B695B0A82
:102D30001F2213400233BB60FB699B08FA685A43A9
:102D40001000BB683A695343190000F095F903007D
:102D50009B00BB61BB691800BD4608B080BDC04682
:102D6000706200000002005000805101001BB7009B
:102D700080B582B000AFFFF7A9FF02001F4B1A60B9
:102D80001F4B1B69072213403B603B68002B02D19D
:102D90001C4B7B6014E03B68022B03D1174B1B6874
:102DA0007B600DE03B68032B02D1174B7B6007E093
:102DB0003B68072B02D1154B7B6001E0134B7B6016
:102DC0000F4B9B690F22134001331900786800F004
:102DD00053F903001A000E4B1A600D4B1B680D4A85
:102DE000944663440C49180000F046F903001A00A9
:102DF0000A4B1A60C046BD4602B080BD24000020C8
:102E000000020050001BB700102700000080510195
:102E10000C01002020A1070040420F0010010020FB
:102E20007FB500246B461C711023029303681500C4
:102E30009E6912686B4600940394B0476B46062265
:102E40001B7920001340934202D1009B01302B607C
:102E500004B070BD009B0620934200D00538704737
:102E600010B50400034B0833036000F0E0F82000C5
:102E700010BDC046A462000010B50400FFF7F0FFCB
:102E80002000082100F0C8F8200010BD70B5150022
:102E90001C0000F0CFF8002804D00823E360023BB8
:102EA0002560237170BDF8B505000C0016001F00E9
:102EB00000F0C0F8002807D1032F05D8236832009E
:102EC0005B69290020009847F8BDF8B514001F0081
:102ED000089A069B0500099E934204D1079900F0C9
:102EE000A9F800280CD13900280000F0A3F8002828
:102EF00004D0069B347133600123B3710020F8BD08
:102F00007471FBE70B0010B50100180001F05CFEC6
:102F100010BD000010B50400034B08330360FFF739
:102F20009FFF200010BDC0460463000010B50400E0
:102F3000FFF7F0FF20000C2100F06EF8200010BD1C
:102F4000F7B51C00089B06000F001500934206D140
:102F5000210000F06FF8002801D00620FEBDB06807
:102F6000089A036800921E6A2A0023003900B047BD
:102F7000F4E7F0B50C0087B0190005930700049240
:102F80000F9E00F057F80C9B051E17D033606B4660
:102F90001B7C3371002C0BDB0C9B0E9A1C19062337
:102FA000A24200D0053B0025B371280007B0F0BD58
:102FB0000025A31CF9D10123B371F6E70E9A9342C1
:102FC00005D10D99380000F035F800280FD1B86808
:102FD0000E9A036802920D9A039601920C9A2100B0
:102FE0000092DD69049A059BA8470500DDE76B4662
:102FF0001B7C7371D9E7F8B507000C0015001E00A3
:10300000FFF744FF002806D1B8682A0003682100B2
:103010009F693300B847F8BD10B500F001F810BD46
:1030200010B501F01FFE10BD10B500F01DF870477F
:103030000020704710B5012381420FD04068002363
:1030400002782A2A0AD049680B782A3B5A4253410F
:10305000C91801F095FF43424341DBB2180010BD8F
:1030600010B5804701F0A8FD024B10B51868FFF7B6
:10307000F7FFC04628000020002243088B4274D38B
:1030800003098B425FD3030A8B4244D3030B8B4269
:1030900028D3030C8B420DD3FF22090212BA030C72
:1030A0008B4202D31212090265D0030B8B4219D353
:1030B00000E0090AC30B8B4201D3CB03C01A524173
:1030C000830B8B4201D38B03C01A5241430B8B42BB
:1030D00001D34B03C01A5241030B8B4201D30B03A4
:1030E000C01A5241C30A8B4201D3CB02C01A5241CB
:1030F000830A8B4201D38B02C01A5241430A8B428E
:1031000001D34B02C01A5241030A8B4201D30B0276
:10311000C01A5241CDD2C3098B4201D3CB01C01A90
:10312000524183098B4201D38B01C01A524143099A
:103130008B4201D34B01C01A524103098B4201D388
:103140000B01C01A5241C3088B4201D3CB00C01AF5
:10315000524183088B4201D38B00C01A524143086D
:103160008B4201D34B00C01A5241411A00D2014692
:10317000524110467047FFE701B5002000F006F805
:1031800002BDC0460029F7D076E770477047C046B9
:103190009E2110B5C905041C01F03EFC002803D196
:1031A000201C00F011FC10BD9E21201CC90500F060
:1031B0006FFA00F009FC80231B069C466044F2E78E
:1031C000F0B557464E46DE464546E0B5440243005C
:1031D000C60F83B00F1C640A1B0EB24653D0FF2BE0
:1031E00027D08022E400D20414437F22524290462A
:1031F0009844002399469B467D027800FB0F6D0A98
:10320000000E009324D0FF2846D080230021ED003B
:10321000DB041D437F384746381A4F460F43BF0033
:10322000B9463300009A874F53404A46BA58019333
:103230009746002C4ED108239946F7339846FD3B1C
:103240009B467D027800FB0F6D0A000E0093DAD1D9
:10325000002D26D1002001213300009A7A4F5340DF
:103260004246101A4A460A439200BA581D00974631
:10327000009B2C009A468B465B46022B31D153466D
:10328000FF21002438E0002C17D1042399460023A5
:10329000984601339B46AFE7FF20002D0BD102215A
:1032A000DAE7280001F0C2FB431F9D4076235B4212
:1032B000181A0021AFE70321ADE7200001F0B6FBAB
:1032C000431F9C4076235B421B1A98460023994675
:1032D0009B4691E70C239946F3339846FC3B9B466B
:1032E0008AE7032B00D1A5E05546012B00D081E0F1
:1032F0000123002100242B406402C905600ADB077A
:103300000843184303B03CBC90469946A246AB46DE
:10331000F0BD80240023E403FF21EDE7FF2100241A
:10332000EAE70123591A1B2966DD019A134000219F
:103330000024E1E78023DB031C4238D01D4251D03A
:103340001C436402640A3300FF21D5E763016C016A
:10335000A3423BD21B260021013801251F00490052
:103360005B00002F01DB9C4201D81B1B2943013E5F
:10337000002EF3D11C00631E9C410C4301007F31E1
:103380000029CEDD630704D00F232340042B00D097
:103390000434230103D501002C4B80311C40FE294D
:1033A0000DDD0123019AFF2113400024A4E78023AF
:1033B000DB031C436402640A3300FF219CE7012302
:1033C000019AA401640AC9B2134095E71B1B1A268F
:1033D0000121C2E7009B8B469A4600244CE763021A
:1033E000E5D500258024E4032C436402640A009B95
:1033F000FF2181E70195C1E723002020CB40411A3E
:103400008C40611E8C411C43630704D00F23234072
:10341000042B00D00434630105D50123019A012156
:103420001340002468E70123019AA401640A1340B1
:10343000002161E78023DB031C436402640A5346D6
:10344000FF2159E74863000088630000FFFFFFF792
:10345000F8B557464E464546DE46E0B547024600BB
:1034600088467F0A360EC40F002E47D0FF2E24D088
:10347000FB008027FF041F43002399469A467F3EA6
:1034800043465D025800DB0F6D0A000E984643D09C
:10349000FF283BD0EB0080250022ED041D437F3840
:1034A0003618731C41469B464B46614013430F2B15
:1034B00064D875489B00C3589F46002F42D108230B
:1034C0009946063BFF269A46DAE74146022A28D06B
:1034D000032A00D1CEE0012A00D0ACE01140002048
:1034E0000022CCB24002D205400AE4071043204338
:1034F0003CBC90469946A246AB46F8BD002F15D17C
:1035000004239946033B00269A46B9E7FF2002228E
:10351000002DC5D00322C3E7002D19D100200122C0
:10352000BEE70124FF220C400020DBE7380001F059
:103530007DFA7626431F9F4000237642361A99462D
:103540009A469DE70C239946093BFF269A4697E742
:10355000280001F06BFA431F9D4076235B42181A46
:1035600000229DE780200024C003FF22BAE73D002F
:103570005246ABE73D0021005246A7E73B0C9C4674
:103580002A04120C2B0C1400604665463F043F0CC5
:103590007C4342435D437B43270C9B18FF18BA4290
:1035A00003D980235B029C46654424043A04240C1E
:1035B000121993015C1EA3413F0C920E7D191A4310
:1035C000AD0115432B0104D501235E466A081D4059
:1035D000154332007F32002A25DD6B0704D00F230C
:1035E0002B40042B00D004352B0103D53200274B90
:1035F00080321D40FE2A94DC0124A801400AD2B288
:103600000C406FE78020C003074207D0054205D178
:1036100028434002400A4446FF2263E73843400201
:10362000400AFF225EE70124A31A1B2B05DD0C4094
:103630000022002056E75E46CBE72A002020DA4031
:10364000C31A9D402B005D1EAB4113435A0704D0A3
:103650000F221A40042A00D004335A0104D5012451
:1036600001220C4000203DE701249B01580A0C4038
:10367000002237E780200124C00328434002400A8B
:103680000C40FF222EE7C046C8630000FFFFFFF793
:10369000F0B54F46D64646464400C0B5C20F470275
:1036A0004802400A844666467B0A4800C90F9A468B
:1036B000240E1500DB00000E8946F600FF2800D11D
:1036C0008FE001214F464F403900914266D0221AC7
:1036D000002A00DC9DE000283DD1002E00D18BE0C7
:1036E000511E002900D0B5E001249B1B5A0144D58E
:1036F0009B019F09380001F099F905388740844201
:1037000000DD96E0041B3A0020200134E240041B57
:10371000A7403B005F1EBB41002413435A0704D05F
:103720000F221A40042A00D004335A0127D501344D
:10373000FF2C00D179E001229B015B0AE4B22A4010
:103740005B02E405580AD207204310431CBC904694
:103750009946A246F0BDFF2CE0D08021C9040E435B
:103760001B2A7BDC31002020D140821A9640721E39
:1037700096410E439B1B5A01BAD45A07D0D101225D
:10378000DF082A40FF2C33D1002F00D1A8E080238E
:10379000DB033B435B025B0AFF24D1E7211A0029CC
:1037A0004CDD00282AD0FF2CB8D08020C00406436E
:1037B0001B2900DDAFE030002027C840791A8E4079
:1037C000711E8E4106439B195901D6D50134FF2C39
:1037D00000D185E001227A491A405B080B4013436F
:1037E0009CE7002E00D070E76BE73B1EC5D100229E
:1037F0007B025B0AE4B2A3E714008FE7002E4DD0F2
:10380000481E002857D19B1901245A01B5D502241E
:10381000E0E7002A25D1621CD2B2012A72DD9F1B8B
:103820007A0135D5F71A0D0064E7012200232A40FA
:1038300086E73B00634A241A13406FE700296CD1E6
:10384000611CC8B201284EDDFF2949D09B195B08D5
:103850000C0063E7FF2A41D00A0081E701269B1B89
:1038600089E7002C1CD0FF2821D08024E404524298
:1038700023431B2A00DD96E01C002025D440AA1A11
:1038800093405A1E93412343F31A04000D002DE781
:10389000002F00D02EE700220024A9E70C003DE70E
:1038A000002B58D0D243002AEED0FF28E1D13300BC
:1038B000FF240D0032E7FF2910D0010078E7002B2C
:1038C0006ED0FF24002E00D128E780225146D2037B
:1038D000114203D06146114200D13300FF241DE79D
:1038E000FF2400232CE7002CE9D1002B63D0002E0D
:1038F00000D113E79B195A0100D43EE7314A0C006E
:1039000013400BE7002C1ED1002B2FD1002E4FD0DF
:1039100033000D0002E7012655E7002C1FD1002BD4
:1039200043D0C94300290BD0FF2839D01B2944DCE0
:103930001C002027CC40791A8B40591E8B41234311
:103940009B19040040E7002B1AD1002E24D18027B8
:103950000022FF031BE7330004000D00DEE6FF2812
:103960001ED08024E40449422343DFE7002E00D127
:10397000D4E69F1B7A0100D437E7F31A0D00CDE699
:10398000FF24002E00D1C9E680225046D203104207
:10399000A4D060461042A1D133000D00FF24BDE643
:1039A0003300FF24BAE601236EE733000400B5E6D6
:1039B000002700221CE73300B0E60123C0E7C04621
:1039C000FFFFFF7DFFFFFFFB41024300C20F490ADB
:1039D0001B0E00207E2B0DDD9D2B0CDC80200004B7
:1039E0000143952B0ADC9620C31AD9404842002A8D
:1039F00000D108007047034BD018FBE7963B994075
:103A0000F4E7C046FFFFFF7F10B5041E27D001F08A
:103A10000DF89E231B1A962B0ADC9622D21A94408C
:103A20006402640ADBB26402DB05600A184310BD5D
:103A3000992B17DC9922D21A002A27DD9440220004
:103A4000134C1440510704D00F210A40042A00D01F
:103A50000434620112D4A401640ADBB2E3E7002358
:103A60000024E0E7B9222100D21A91400A00511E39
:103A70008A410521091ACC401443DBE7044B1C4062
:103A80009F23A4011B1A640ADBB2CCE72200D7E70C
:103A9000FFFFFFFB03685A0003D45B005B08C018FC
:103AA0007047802212061343F9E7C046F0B5574627
:103AB0004E46DE464546E0B5814683B09246002933
:103AC00025D04B1E9B46002701935B46FB18DC0F5D
:103AD000E4184B466410E5005E193000FFF7DAFF8A
:103AE000019B8046A3420BD0280008304844FFF7D2
:103AF000D1FFD04506D80138504509D2671CE4E70C
:103B0000504505D9A74202D0631E9B46DDE700263B
:103B1000300003B03CBC90469946A246AB46F0BD8F
:103B2000012809D0022805D0002801D000207047C4
:103B30000248FCE70248FAE70248F8E74142000081
:103B4000594200004D42000030B5234B83B00500C0
:103B50008C1E002B2AD001A9200000E000BF002805
:103B600020D001992200FFF7A1FF041E1AD0FFF711
:103B700091FF6368A864012B10D0201D002B1BDB74
:103B8000FFF788FF0023E8642B650368002B17DB31
:103B9000FFF780FF2861002003B030BD002305201F
:103BA0002B61F9E7002309202B61F5E70B480C494D
:103BB000091AC9100191D5E70123E8642B65E4E7F0
:103BC0001801000FFFF7ACFF2861002801D1093070
:103BD000E2E70020E0E7C0460000000014670000B4
:103BE000BC690000036810B50400DA0705D49B0720
:103BF0000FD5483000F084FC23685A070FD51A0708
:103C000014D5DB0604D42000D130FF3000F084FC52
:103C100010BD483000F070FC23685A07EFD4200034
:103C2000D03000F071FC23681A07EAD4200051302C
:103C3000FF3000F06DFC2368E3E7C0460368002B0B
:103C400000D01B1818007047092070477047C04605
:103C500070B504000D0008E02B6C2A0063612100A0
:103C6000012023699847082807D1296C2000FFF715
:103C70006BFF0028F0D000F09FFF0728FBD1002049
:103C8000296CFFF7E3FF281D00F020FCF0B5CE46BD
:103C9000474680B5C368324C9846A5448369060000
:103CA00014000431402205A8994600F0E5FF0023E6
:103CB00004AD296C30000493FFF746FF631E9C415E
:103CC00007000934002F15D0AB6B10216B644B46F5
:103CD00021430193C9B20095330032000120C0474F
:103CE000002833D13800F5239B009D440CBC90463E
:103CF0009946F0BDF0222B6C5200736129007CA81C
:103D000000F0BAFF7CAA31003369200098478A9BF3
:103D100007006B6403934B46009501933200330018
:103D200021000120C047002810D1F0227CA95200B8
:103D3000280000F0A1FF082F06D1296C3000FFF702
:103D400003FF09240700BDE7072F01D00927C9E7B2
:103D50000020296CFFF77AFF05A800F0B7FBC046EA
:103D60002CFCFFFF406C704770B5CB6BFAB00B6456
:103D700004000E004022043103A800F07DFF01235F
:103D80005B42029306E002AA2100236998470500DE
:103D900008280AD1129B200019000193FFF7D4FED6
:103DA0000028F0D009207AB070BD02A8FFF71AFFF2
:103DB000062DF7D131002000FFF74AFF10B58261D0
:103DC000DA6BC1601A6419000022FFF75FFF10BDB3
:103DD000436970B50B64C36804000D00002B04D068
:103DE0000122FFF753FF00F0E7FE0A0023690100FC
:103DF00002209847072807D0082803D1290020006F
:103E0000FFF726FF00F0D8FE0020296CFFF71EFF09
:103E1000281D00F05BFBC046C36810B5002B05D021
:103E2000CB6B00220B64FFF731FF10BDFFF79CFF47
:103E3000FBE7C0467047C046836810B5002B02D030
:103E400001000120984710BD10B5012907D00029B5
:103E500007D003390224012901D9200010BD012413
:103E6000FBE70224002BF8D10F2AF6D89200821823
:103E70005268029B00241A60EFE7C04600B585B087
:103E800003AB0A00009300210023FFF7DDFF039836
:103E900005B000BD10B5012907D0002907D00339AE
:103EA0000224012901D9200010BD0124FBE70224CE
:103EB000002BF8D10F2AF6D8029B92001B688218BB
:103EC00053600024EFE7C04600B585B003AB039212
:103ED00000930A0000230021FFF7DCFF05B000BDBE
:103EE00070B51A4CD36BA544136406000D0019A8D5
:103EF000111D402200F0C0FE01235B42189314E024
:103F00000C2118A802AAFFF7DFFF290018A8B04764
:103F1000002812D1069B18AA02A9083001939847DD
:103F2000040005280AD0092807D0289B02A81900F8
:103F30000193FFF709FE0028E2D0092418A8FFF733
:103F400051FE200090239B009D4470BDC0FDFFFFEB
:103F5000F0B5DE464E464546574693460322E0B549
:103F60001E0013008BB003400193CB6C0D001C1D91
:103F70001B6808940793002E66D11B02079306ABBB
:103F80005E731A73019B022B00D16EE02B6DDB0771
:103F900047D40023A846B246029308330340039354
:103FA0002568002D00D137E15346022B49D02588E2
:103FB000668804340123370099469F4343469B6C2F
:103FC0000F219C4658466744FFF758FF002287425E
:103FD00006D82A004B469A43D719B842804142423C
:103FE00002230121760033400D402B43012B3ED0AC
:103FF000002B5AD0022B1CD1236801995F007F0847
:10400000002965D1002A06D0039A002A00D188E051
:10401000002F00D1AAE0002B65DB0137BF00E419B7
:10402000BEE700230293022E47DDFFF70DFE0028B6
:1040300049D009200BB03CBC90469946A246AB46FD
:10404000F0BD66680834B5E7022E9BDC1A0C1B0431
:104050000793022306A90B73FD3313409B00E4185A
:10406000019B4A73022B00D090E7AC6B8EE7019B5B
:10407000002B3AD1002A16D02368DD0F63689A1C02
:10408000D7D0424658320692013300D1C6E0201DF7
:10409000FFF7D4FD06AB01002A00404600E000BF58
:1040A000002800D0A7E008347AE7019B002B02D05B
:1040B000002A00D08BE0043472E707A9584600F0CC
:1040C000D1FA0028B5D1029B002B5DD10820B1E7C1
:1040D00043460D2158461D6AFFF7D0FE854263D046
:1040E0002368002B99DA043497E743460D2158469C
:1040F0001D6AFFF7C3FE8542D5D143469B6A9C42A9
:10410000D1D145462000FFF7C5FC0F2102005846DB
:10411000FFF7DAFE58462A000021FFF7D5FE0720F8
:1041200088E7002F22D058235146434406AABA46B6
:10413000251D0026049405911F00914603E00435D7
:104140002600A24514D028000697FFF777FD4B46BE
:10415000010000224046741C00E000BF0028EED0A1
:104160005746059B049C9A46B742B9D1454601E0A3
:104170004546049C0D215846FFF780FE069B2862A9
:104180006B62AC62062055E70F215846FFF776FEBA
:104190000E2102005846FFF797FE5846274A0F2186
:1041A000FFF792FE072045E743469B6A9C4297D162
:1041B000434642469F620023D36204331363231DA8
:1041C00053632368002B32DB0123029325E7200091
:1041D000FFF760FC454604340600AC63404600E04F
:1041E00000BF002800D124E7584632000F21FFF716
:1041F0006BFE07201EE707000D2158464546FFF7D6
:104200003DFE2862022F0FD1069BEB6243462C3302
:104210006B62AC6206200DE7564604E70D21584656
:104220004546FFF72BFE2862069B6B62F1E73800DC
:10423000013080004546201865E7C04600000000B8
:1042400010B50023FFF784FE10BDC04610B5012352
:10425000FFF77EFE10BDC04610B50223FFF778FEC3
:1042600010BDC046F0B5CE46474680B50600C3B087
:1042700014001D0001294ED0002933D003290AD093
:10428000042902D1002B00D189E0022043B00CBCEC
:1042900090469946F0BD032BF7D11404150C240C5D
:1042A0002B19102BF1D8082203681A4200D0E7E03E
:1042B00020AB1800984600F02DF9B36BED001A0002
:1042C000002C09D0E400EA1A1C1942441968D150A4
:1042D00004339C42FAD12200B263404600F018F940
:1042E0000020D3E70220002BD0D1002301271004A7
:1042F000B56B000C321D39009940084202D0296884
:104300000435116001330432102BF4D10020A304D2
:10431000BCD4B563BAE71404170C240C012B5FD08E
:10432000052BB2D13B19202BAFD80F2F7DD9A14639
:10433000002C65D1002223009146B16B002B00DCDC
:1043400088E020A88046FA00DB00521ACB184244CD
:104350000868505004318B42FAD119004B46002BAB
:1043600010D04B4658003A00102F00D210220023E4
:10437000103AD2006A448000CC58D45004338342AF
:10438000FAD1C918012D5ED0B1630F2F74D94B46F5
:10439000002BA5D0684600F0B7F8002076E7102A79
:1043A00000D972E7102203681A4245D120AB1800E9
:1043B000984600F0B3F800230120B16B02009A4048
:1043C000144204D045460F689A00AF5004310133BF
:1043D000042BF3D14046B16300F09EF8002055E76E
:1043E0003B19102B00D950E70F2F00D94DE70023C0
:1043F0009946012233681A4230D14B46002B5AD0DD
:10440000042233681A4242D1012D47D00F2F06D81B
:1044100020AB180000F076F84B46002B8AD0684697
:1044200000F074F81023DB1B87E7102BDFD9102274
:10443000524291469944DCE793430360D130FF3008
:1044400000F06CF8B2E7043120A8B16300F054F832
:1044500000201BE74B46002B84D193E719009143C2
:104460000A003160052D1ED00322300093433360D3
:10447000483000F043F8C0E720A800F041F886E794
:10448000934303605130FF3000F044F810E73000F0
:1044900093433360D03000F039F8B5E720AB180013
:1044A00000F02CF8BEE7022330001A433260483097
:1044B00000F028F8A1E7012D03D00F2F00D939E72C
:1044C000A6E720AB180000F019F833E7011C3431DF
:1044D00038C9043B9C461D60A646011C20313CC9DE
:1044E00090469946A246AB46011C0831FCC941687A
:1044F0000068E54600BDC0467047C0467047C046EC
:104500007047C0467047C0467047C0467047C046B7
:104510007047C0467047C0467047C0467047C046A7
:1045200001B401A801B585B0FFB408A841464A46C8
:1045300053465C4665463EC001A83EC80F980090B1
:1045400000230CB401A9FFF70FFC109B12B0184711
:1045500001B401A801B585B0FFB408A841464A4698
:1045600053465C4665463EC001A83EC80F98009081
:1045700000230CB401A9FFF72BFC109B12B01847C5
:1045800001B401A801B585B0FFB408A841464A4668
:1045900053465C4665463EC001A83EC80F98009051
:1045A00000230CB401A9FFF737FC109B12B0184789
:1045B00001B401A801B585B0FFB408A841464A4638
:1045C00053465C4665463EC001A83EC80F98009021
:1045D00000230CB401ABFFF7F1FB109B12B018479E
:1045E00001B401A801B585B0FFB408A841464A4608
:1045F00053465C4665463EC001A83EC80F980090F1
:1046000000230CB401AAFFF76BFC109B12B01847F3
:10461000027A0300002A04D1427AB020002A07D18E
:104620007047013A02720268100E12021A60F7E730
:10463000013A5A725A68111D5960032112681972A1
:10464000F2E7C04600B585B003AB00930C2200230F
:104650000021FFF7F9FB039805B000BD10B5FFF787
:10466000F1FF10BDF0B557464E464546DE460023E5
:10467000E0B587B003930F339846083B99468023F3
:104680001B0306000F009A463800FFF7C1FF040025
:10469000B02821D0030632D4FF2583001D4005AB8E
:1046A0009B4600930D220023002130000435FFF7C4
:1046B000CBFB63064CD5059B5D1B05955B460093C4
:1046C00000230D2200213000FFF7E4FB3800FFF744
:1046D0009FFF0400B028DDD1039B0024002B2FD1C5
:1046E00005AD00950E2200213000FFF7ADFB0095CF
:1046F00000230F2200213000FFF7CCFB20E0030055
:1047000042469343DBB2802B63D0902B25D0A02B65
:1047100032D0B02B45D0C02B00D173E003004A4605
:104720009343DBB2D02B0AD15346024001321A43E5
:10473000052301213000FFF795FD0028A4D00924AE
:10474000200007B03CBC90469946A246AB46F0BD5F
:10475000059B9C4665440595B0E7833B03400D2BC4
:10476000EDD0424605AD0240009500230021300007
:10477000FFF76AFB0095A3E7FF234A461B011900D8
:10478000824311410A001A40030702D58023DB014E
:104790001A43002300213000FFF764FD0028CED12A
:1047A00072E7B1284AD0B2285ED0B32800D18BE09E
:1047B000FC230340B42BC2D04A4653460240013288
:1047C0001A43012101233000FFF74CFD0028B6D128
:1047D0005AE704023800FFF71BFF802520432D0213
:1047E000A842ACD004010005020C002300213000D7
:1047F000FFF738FD0028A2D12C4200D144E7012365
:10480000039341E7C6286AD0C7287CD003004A46F4
:104810009343DBB2C02B00D18BE0C82800D18FE0DE
:10482000C92800D08BE73800FFF7F2FEF02302031F
:104830001B03134042460240013278E73800FFF77D
:10484000E7FE002800D17AE7030042469343DBB23B
:10485000002B00D073E7020000213000FFF702FDBB
:10486000002800D06BE70FE705AB00939B460D22B5
:10487000002300213000FFF7E7FA3800FFF7C8FEF9
:1048800003066AD57F25B03C059B2840A0409C4686
:104890006044059038000734FFF7BAFE0306F3D4EE
:1048A000812292009446863AFF3A1040A040059B30
:1048B000723A634418185B46059000930021002368
:1048C0003000FFF7E7FADFE63800FFF7A1FEF0233C
:1048D00002031B03134042460240013270E73800D6
:1048E000FFF796FEF02302031B03134042460240EB
:1048F00001321A43032303213000FFF7B3FC0028E1
:1049000000D01CE7C0E63800FFF782FE002800D187
:1049100015E7030042469343DBB2002B00D00EE7BD
:10492000020004213000FFF79DFC002800D006E7BC
:10493000AAE64346A0221C40013412032243D9E7D1
:104940003800FFF765FE434602009A43D2B21032A8
:104950001840120301300243EAE60224A0E7C046F1
:10496000030000B5DB6C85B05A68080012020192A2
:104970001A0001A908324A6003220A72DB794B72DD
:10498000FFF770FE05B000BD10B5FFF767FE806C45
:1049900010BDC04610B5FFF761FEC26CD3799B0015
:1049A0000833D01810BDC04610B500F005F9C04658
:1049B00010B5FFF7F9FFC0468446081C6146FFE7C3
:1049C0001FB500F0B7F8002801D40021C8421FBD70
:1049D00010B500F049F84042013010BD10B500F0AC
:1049E000A9F8002801DB002010BD012010BDC04641
:1049F00010B500F09FF8002801DD002010BD012057
:104A000010BDC04610B500F055F8002801DC0020AC
:104A100010BD012010BDC04610B500F04BF80028B5
:104A200001DA002010BD012010BDC0461C21012369
:104A30001B04984201D3000C10391B0A984201D381
:104A4000000A08391B09984201D30009043902A25F
:104A5000105C40187047C0460403020201010101C6
:104A6000000000000000000070B5420045024E0248
:104A70004C00C30F6D0A120E760A240EC90F0120D6
:104A8000FF2A06D0FF2C03D0A24201D1B54206D0A6
:104A900070BD002DFCD1FF2CFAD1002EF8D18B4235
:104AA00006D00120002AF3D12800451EA841EFE7D7
:104AB0000020EDE7F0B5420045024C02C30F48006C
:104AC0006D0A120E640A000EC90FFF2A1ED0FF28BD
:104AD00021D0002A0AD16E426E41F6B200280FD1D1
:104AE000002C0DD10020002D09D005E0002801D1B7
:104AF000002C01D08B4211D0012158420843F0BD57
:104B0000002EF7D0012001390843F8E7002DDED050
:104B100002204042F3E7002CDBD0F9E78242EBDCD5
:104B200004DBA542E8D80020A542E8D20121581EA6
:104B30000843E4E7F0B542004D024C004602760A15
:104B4000120EC30F6D0A240EC90FFF2A16D0FF2CB8
:104B500018D0002A0AD170427041C0B2002C15D082
:104B6000002805D0012001390843F0BD002C13D0E6
:104B7000994214D001205B421843F6E70220002E30
:104B8000F3D1E4E70220002DEFD1E2E7002DE7D1D9
:104B90000020002EE9D0EDE7002DE9D1EAE7A2429E
:104BA00006DCDFDBAE4203D80020AE42DAD3DCE71E
:104BB000012049420843D8E710B50620FEF713F854
:104BC000012001F0EFF9000070B5054C050013005D
:104BD000201E04D00A000220290000E000BF70BDA2
:104BE00000000000014B18687047C0462C000020F0
:104BF000084B10B50400002B02D0002100E000BFDC
:104C0000054B1868836A002B00D09847200001F0FC
:104C1000C9F9C046000000000864000070B5002615
:104C20000C4D0D4C641BA410A64209D1002601F0C6
:104C3000BBF90A4D0A4C641BA410A64205D170BDF5
:104C4000B300EB5898470136EEE7B300EB589847AE
:104C50000136F2E790000020900000209000002034
:104C60009C00002010B5034B0100186800F028F8E4
:104C700010BDC0462C000020002310B59A4200D180
:104C800010BDCC5CC4540133F8E710B5884202D99A
:104C90008B18984208D300239A4207D0CC5CC454A6
:104CA0000133F9E78B5C8354013AFBD210BD03005A
:104CB0008218934200D1704719700133F9E7000060
:104CC00070B50500002910D00C1F2368002B00DAF6
:104CD000E418280000F02CFC1D4A1368002B05D1B5
:104CE00063601460280000F024FC70BDA34209D961
:104CF000216860188342F3D118685B68411821600D
:104D0000EEE713005A68002A01D0A242F9D91968C7
:104D10005818A0420BD1206809185818196082420F
:104D2000E0D110685268411819605A60DAE7A04271
:104D300002D90C232B60D5E721686018824203D189
:104D4000106852684118216062605C60CAE7C04622
:104D5000FC000020032370B5CD1C9D4308350600E0
:104D60000C2D1ED20C25A9421DD8300000F0E0FB0E
:104D7000254A14682100002919D1244C2368002BEE
:104D800003D1300000F0C8F820602900300000F0A6
:104D9000C3F8431C2CD10C233000336000F0C9FB56
:104DA00003E0002DDFDA0C233360002070BD0B68B8
:104DB0005B1B1AD40B2B03D90B60CC18256003E0C6
:104DC0008C420ED163681360300000F0B2FB20000B
:104DD00007220B30231D9043C31AE7D05A42E250FA
:104DE000E4E74B6863600C00EEE70C004968C2E73B
:104DF0000323C41C9C43A042E0D0211A300000F0E1
:104E00008BF8431CDAD1C6E7FC000020000100202B
:104E10000FB40B4B13B51C68002C05D0A369002BF5
:104E200002D1200000F082FA05AB049AA1682000AC
:104E3000019300F033FD16BC08BC04B01847C0460F
:104E40002C00002070B505000E00002804D08369F6
:104E5000002B01D100F06AFAAB69AC68002B02D1DB
:104E6000280000F063FA244B9C420FD16C68A389A0
:104E70001B0702D52369002B20D12100280000F058
:104E8000E7F800281AD00120404270BD1B4B9C421D
:104E900001D1AC68EBE71A4B9C42E8D1EC68E6E73D
:104EA000013B0136A360002B04DAA269934216DBB2
:104EB0000A2914D023685A1C226019703178A3681B
:104EC0000029EDD1013BA360002B0FDA22000A314B
:104ED000280000F067F8431CD5D00A20D5E722004F
:104EE000280000F05FF8431CE8D1CCE70A202368D3
:104EF0005A1C22601870C8E72C6400004C64000043
:104F00000C64000010B5034B01001868FFF79AFF0E
:104F100010BDC0462C000020002370B5064C0500D3
:104F20000800236001F030F8431C03D12368002BF4
:104F300000D02B6070BDC046080100200EB410B533
:104F40009DB002A9029008610B48822488604861E4
:104F5000012040421FABC881084804CBA400006870
:104F600001938C8100F06EFB0023029A13701DB038
:104F700010BC08BC03B01847FFFFFF7F2C000020C7
:104F800002780B78002A03D0013001319A42F7D021
:104F9000D01A70470023C25C0133002AFBD1581E8F
:104FA00070470000F8B505000E001400002804D07A
:104FB0008369002B01D100F0B9F9224B9C422DD11D
:104FC0006C68A369A360A3891B0731D52369002BF3
:104FD0002ED023682269F7B2981A6369F6B2984214
:104FE00005DB2100280000F033F9002826D1A36852
:104FF0000130013BA36023685A1C22601F70636963
:10500000984204D0A389DB071AD50A2E18D12100B3
:10501000280000F01DF9002812D00FE00A4B9C4236
:1050200001D1AC68CDE7094B9C42CAD1EC68C8E716
:105030002100280000F00CF80028CAD00126764292
:105040003000F8BD2C6400004C6400000C640000CB
:10505000364B70B51D6806000C00002D05D0AB69FD
:10506000002B02D1280000F061F9314B9C420FD196
:105070006C680C23E25E93B219072DD4D90611D4C3
:1050800009230120336037331343A381404270BDAD
:10509000284B9C4201D1AC68EBE7274B9C42E8D1FE
:1050A000EC68E6E75B0713D5616B002908D02300A5
:1050B0004433994202D03000FFF702FE00236363BD
:1050C0002422A3899343A38100236360236923607F
:1050D0000823A2891343A3812369002B0BD1A021AC
:1050E0008022A389890092000B40934203D02100C3
:1050F000300000F0D9F90123A289134011D0002318
:10510000A36063695B42A361002023698342BED12F
:105110000C23E25E1306BAD540231343A381013862
:10512000B5E7920700D46369A360EDE72C00002087
:105130002C6400004C6400000C640000F7B58A8900
:1051400005000C00130760D44B68002B04DC0B6CCB
:10515000002B01DC0020FEBDE76A002FFAD00023FF
:105160002E682B6080235B011A4034D0606DA389C8
:105170005B0706D56368C01A636B002B01D0236CF4
:10518000C01A0200216A00232800E76AB847A189F3
:10519000431C06D12B681D2B31D82C4ADA40D3078B
:1051A0002DD50023636023692360CB0405D5431C00
:1051B00002D12B68002B00D16065616B2E60002945
:1051C000C8D023004433994202D02800FFF778FD6D
:1051D00000206063BFE70123216A2800B847431C11
:1051E000C5D12B68002BC2D01D2B01D0162B01D1AD
:1051F0002E60AFE74023A2891343A381ABE740238E
:105200000B430120A3814042A5E70F69002FA1D0E5
:105210000B680F60DB1B01930023920700D14B69E1
:10522000A360019B002B00DC94E7019B3A00216AFC
:105230002800A66AB047002803DC4023A289134354
:10524000DFE7019B3F181B1A0193EAE701004020AA
:105250000B6970B505000C00002B01D1002070BD5A
:10526000002804D08369002B01D100F05FF80B4BBC
:105270009C4209D16C680C22A35E002BEED0210069
:105280002800FFF75BFFEAE7054B9C4201D1AC68C1
:10529000F1E7044B9C42EED1EC68ECE72C64000093
:1052A0004C6400000C64000010B5024900F0B2F834
:1052B00010BDC04651520000002310B50400036029
:1052C0004360836081814366C2810361436183617E
:1052D000190008225C30FFF7EAFC054B2462636288
:1052E000044BA362044BE362044B236310BDC0462E
:1052F000E55D00000D5E0000455E0000715E00008F
:1053000070B568254A1E55430E0029007431FFF719
:1053100021FD041E08D000212A00016046600C30E7
:10532000A0606832FFF7C3FC200070BD836913B52D
:105330000400002B28D18364C3640365134B144A13
:105340001B6882620193984201D10123836120008E
:1053500000F020F86060200000F01CF8A060200041
:1053600000F018F80022E06004216068FFF7A4FF55
:1053700001220921A068FFF79FFF02221221E068A5
:10538000FFF79AFF0123A36113BDC0460864000024
:10539000A9520000F8B51E4B07001E68B369002B28
:1053A00002D13000FFF7C2FF4836B4687368013B92
:1053B00004D53368002B07D03668F6E70C22A55ECB
:1053C000002D0DD06834F2E704213800FFF798FF74
:1053D00030600028F0D10C2304003B602000F8BDB1
:1053E000012320005B42E3810233A38165662560CF
:1053F000A560656025616561A561082229005C30B2
:10540000FFF755FC6563A563A564E564E6E7C04660
:1054100008640000F7B50400070000260191483435
:10542000002C01D13000FEBD6368A5680093009B8D
:10543000013B009301D52468F2E7AB89012B08D921
:105440000E22AB5E013304D029003800019B98473F
:1054500006436835EBE7000070B50E001D000E2313
:10546000C95E90B01400002907DA00232B60B389CD
:105470001B0611D48023DB000FE001AA00F024FDFD
:105480000028F2DBF022029B12021340054A9B180F
:105490005A4253412B60EDE740230020236010B0B7
:1054A00070BDC04600E0FFFFF7B502268B890500FE
:1054B0000C00334206D023004733236023610123CD
:1054C0006361F7BD01AB6A46FFF7C6FF00990700AD
:1054D0002800FFF73FFC002808D10C22A35E9A05A4
:1054E000EFD4032293431E43A681E4E70F4BAB6244
:1054F0008023A28920601343A381009B2061636104
:10550000019B002B0DD00E23E15E280000F0EEFC85
:10551000002806D00322A38993431A0001231343D2
:10552000A381A0893843A081CBE7C046A9520000DF
:1055300070477047F8B507000D001600002905D127
:105540001100FFF707FC04002000F8BD002A03D17A
:10555000FFF7B6FB3400F7E700F0F9FC2C008642B9
:10556000F2D931003800FFF7F5FB041EECD029001A
:105570003200FFF781FB29003800FFF7A1FBE3E7CA
:10558000F0B58E6885B007000C00039201939E422F
:1055900039D890238A89DB001A4234D0032509695F
:1055A00023685B1A0293636902985D43EB0F5D19F0
:1055B000019B6D1001331B18AB4200D91D00530530
:1055C00032D529003800FFF7C5FB061E09D10C2390
:1055D0003B6040230120A28940421343A38105B0D0
:1055E000F0BD029A2169FFF747FBA389144A1A40CC
:1055F00080231343A381029B2661F6182660656110
:10560000019EED1AA560019BB34200D21E0032003C
:1056100003992068FFF739FBA36800209B1BA36058
:1056200023689E192660DAE72A003800FFF782FF18
:10563000061EE0D121693800FFF742FBC7E7C046EC
:105640007FFBFFFFF0B59FB0029005938B890F00A1
:1056500016001B0611D50B69002B0ED14021FFF758
:1056600079FB38603861002805D10C23029A013893
:1056700013601FB0F0BD40237B61002306AD6B615A
:1056800020336B761033AB7634002378002B47D170
:10569000A31B04930DD0A31B320039000298FFF71F
:1056A0006FFF431C00D1B5E06A69049B94466344D4
:1056B0006B612378002B00D1ACE001220023524221
:1056C0006A6002A95432521801342B60EB60AB605F
:1056D0001370AB65584E05222178300000F02CFC89
:1056E000621C002820D12968CB0604D5532302AEC2
:1056F00020309B1918700B0704D553232B2002AEC2
:105700009B19187023782A2B16D000200A21099B98
:105710002278303A092A55D9002815D0099313E088
:10572000252BB5D00134B0E70123801B83402968C5
:1057300014000B432B60CDE7059B181D1B680590DB
:10574000002B39DB0993140023782E2B0BD16378BF
:10575000621C2A2B3ED1059B02341A1D1B68059240
:10576000002B34DB0793354E21780322300000F004
:10577000E3FB002806D04023801B83402A680134C5
:1057800013432B60217806222D48661C297600F0F1
:10579000D3FB002846D02B4B002B2FD12968059B2B
:1057A0000722C90528D59B189343083305936B69D5
:1057B000039A9B186B6167E75B42EB6002230B4324
:1057C0002B60C0E74B4301349B180120A0E7012365
:1057D0005B42C7E7002314000A201A006B6021789F
:1057E0003039092903D9002BBDD00792BBE74243CA
:1057F000013452180123F2E70733D5E705AB0093D4
:105800003A00114B2900029800E000BF0390039B6F
:105810000133CCD1BB890B985B0600D429E701206A
:10582000404226E705AB00933A00074B2900029857
:1058300000F0BEF9EAE7C0466C6400007264000044
:10584000766400000000000081550000936810B5E8
:10585000013B9360002B05DA9469A34208DBCBB2CD
:105860000A2B05D01368581C10601970C8B210BDFF
:10587000FFF798FBFBE7F8B506000F001400D518FA
:10588000AC4201D1002007E021783A003000FFF758
:10589000DDFF0134431CF3D1F8BD0000F0B59FB02B
:1058A00006000F0014000593002804D08369002B24
:1058B00001D1FFF73BFD7F4B9F425CD17768BB89ED
:1058C0001B0762D53B69002B5FD0002306AD6B61DF
:1058D00020336B761033AB760294029C2378002B36
:1058E0005DD1029BE31A04930DD0049B029A390008
:1058F0003000FFF7C0FF431C00D1CCE06A69049B75
:10590000944663446B612378002B00D1C3E00122ED
:10591000002352426A6002A95432521801342B60AB
:10592000EB60AB601370AB6521780522624800F034
:1059300003FB631C9C46002835D12968CB0604D59F
:10594000532302AA20309B1818700B0704D5532349
:105950002B2002AA9B18187023782A2B2CD0002009
:105960000A21099B2278303A092A00D86BE00028E6
:105970002AD0099328E0514B9F4201D1B7689EE796
:105980004F4B9F429BD1F76899E739003000FFF7F2
:105990005FFB002899D0012040421FB0F0BD252BAD
:1059A0009FD001349AE7444B2968C01A01238340F1
:1059B0000B432B606446B7E7059B181D1B680590D9
:1059C000002B3ADB0993644623782E2B0BD16378A6
:1059D000621C2A2B3FD1059B02341A1D1B680592BD
:1059E000002B35DB079321780322364800F0A4FA18
:1059F000002807D0334B2A68C01A40238340134342
:105A00002B6001342178631C06222F4802932976EB
:105A100000F092FA002844D02C4B002B2FD129689B
:105A2000059B0722C90528D59B1893430833059386
:105A30006B69039A9B186B614FE75B42EB60022333
:105A40000B432B60BFE74B4301349B18012089E7D0
:105A500001235B42C6E7002314000A201A006B6092
:105A600021783039092903D9002BBCD00792BAE735
:105A70004243013452180123F2E70733D5E705AB5F
:105A800000933A00124B2900300000E000BF039061
:105A9000039B0133CCD1BB895B0600D57BE70B9818
:105AA0007BE705AB00933A00094B2900300000F07A
:105AB0007FF8ECE72C6400006C6400004C6400008C
:105AC0000C640000726400007664000000000000B6
:105AD00077580000F7B5150001938A680B690090AC
