:1000000000100020B14E0000F94E0000FD08000075
:10001000F94E0000F94E0000F94E0000000000000B
:10002000000000000000000000000000F94E000089
:10003000F94E000000000000F94E000065030000CA
:10004000F94E0000F94E0000F94E0000F94E000094
:10005000F94E0000F94E0000F94E0000F94E000084
:10006000F94E0000F94E0000000000000000000002
:10007000F94E0000F94E0000F94E000000000000AB
:10008000F94E0000F94E0000F94E0000F94E000054
:100090000000000000000000000000000000000060
:1000A00000000000F94E0000000000000000000009
:1000B000F94E0000F94E00000000000000000000B2
:1000C00010B5064C2378002B07D1054B002B02D02E
:1000D000044800E000BF0123237010BDBC000020D5
:1000E00000000000E4710000084B10B5002B03D0A5
:1000F0000749084800E000BF07480368002B00D10B
:1001000010BD064B002BFBD09847F9E7000000001C
:10011000C0000020E4710000B800002000000000D2
:10012000164B002B00D1144B9D46402292029A1A86
:10013000924600218B460F461348144A121A05F0C6
:10014000B9FD0F4B002B00D098470E4B002B00D071
:1001500098470020002104000D000D48002802D01F
:100160000C4800E000BF05F055FD2000290000F01C
:1001700083FA05F039FDC046000008000010002099
:100180000000000000000000BC0000206C05002002
:10019000000000000000000030B583B004000D0036
:1001A000012806D0002C02D1114B9D421CD003B077
:1001B00030BD0F4B9942F5D1002100910B000A0090
:1001C0000C4802F055FC0C490C4802F084FD6923F0
:1001D00000932033A822C021094802F049FC502195
:1001E000084804F00FFBDDE7044802F025FDDEE7D8
:1001F000FFFF0000D8000020E06D0000E8000020B4
:10020000E00000202001002010B5002318E0254A5E
:100210001268002A06D001229A4023490868024346
:100220000A600BE001229A401F480468944304606E
:1002300000201E4AD05401E0012A10D00133DBB265
:100240001F2B12DC194AD25C022AE0D0002AF3D11B
:1002500001329A401449086890430860EEE79A40DA
:100260001149086802430A60E8E7002309E0002119
:100270000F4A11600F4A0121116000211160013302
:10028000DBB21F2B08DC084A1268DA40D207EED531
:100290000121074A1160EDE7074B01221A60002295
:1002A0001A6010BDF4000020F800002000010020BA
:1002B0002C420050304200503442005010B5A02271
:1002C000D20580235B005921D1504339D15072317E
:1002D000D150D358002BF2D08739072000F0A6FA6E
:1002E0000822054B9A6004F009FE002180235B0080
:1002F000A022D205D15010BD00020050002803D129
:100300000022034B1A6070470122014B1A60FAE782
:1003100010420050002308E001210F4A11600CE058
:1003200000210E4A11600133DBB2072B12DC42B20E
:10033000002AF1DB0021084A11604000C0B201210F
:10034000064A1160064A1268002AE9D001221043C9
:10035000C0B2E5E77047C046144200501C4200504E
:10036000184200500A4A136801331360FA225200FF
:10037000934207D90022064B1A60064A13680121EE
:100380004B401360044A1368013313607047C04642
:10039000FC000020284200502C01002010B5154C14
:1003A00001221021200000F053FA01222021200018
:1003B00000F04EFA00224021200000F049FA01220C
:1003C0008021200000F044FA0B4C0122042120007F
:1003D00000F03EFA01220821200000F039FA012243
:1003E0001021200000F034FA01222021200000F02A
:1003F0002FFA10BD0040005040400050012905D0A8
:1004000000290DD0022916D0002013E001230F4A45
:10041000135483400E4A116899431160012009E08A
:1004200000220A4B1A5401238340094A11680B43E6
:100430001360012070470222044B1A5401238340A9
:10044000034A11680B4313600120F3E70001002009
:10045000F800002070B505000B4902F049FB0024AC
:100460001F2C0BDC094B1B68E340012119400A22B9
:10047000280002F0D1FB0134E4B2F1E7044928007E
:1004800002F056FB70BDC046546E0000F80000201C
:10049000306E000070B504000D00064902F028FB24
:1004A0000A222900200002F0B3FB7D21200002F087
:1004B00049FB70BDE46D000070B504000D000649F5
:1004C00002F016FB0A222900200002F0A1FB0349DA
:1004D000200002F00DFB70BD486E0000006E0000B1
:1004E00070B505000C00134902F0F5FB0FE023681E
:1004F000DB6A20009847002811D00123002B16D07A
:1005000023681B6B2000984741B20D2909D123684D
:100510009B69200098470028E9D10023EEE70023DB
:10052000ECE70A2903D0280002F03DFCEFE72800A1
:1005300070BDC046E06D000070B505000C000FE016
:100540002368DB6A20009847002811D00123002B84
:1005500024D023681B6B2000984740B20A2809D09A
:1005600023689B69200098470028E9D10023EEE723
:100570000023ECE723681B6B2000984740B20D284E
:1005800006D00A28ECD121002800FFF7A9FF09E0D6
:1005900023681B6B2000984740B2F2E7024928000D
:1005A00002F099FB280070BDE06D0000F0B589B045
:1005B0000100019005A8FFF7BFFF5D2105A802F02B
:1005C00067FC04005B2105A802F062FCC5B2FF27AE
:1005D0003840421C27403B0005A902A802F05EFCFF
:1005E0006E1CF6B201E00136F6B2BE4224DA741B8C
:1005F000E4B2013CE4B21F2CF5DC210002A802F0B9
:1006000031FCC1B23039C9B20229ECDC2000FFF75D
:10061000F5FE0028E7D1FA214900019C2000FFF7F0
:100620004BFF05212000FFF735FF02A802F004FB75
:1006300005A802F001FB0DE0C821019C2000FFF796
:100640003BFF2000FFF706FF02A802F0F5FA05A81D
:1006500002F0F2FA09B0F0BD10B502490120FFF72F
:100660009BFD10BDFFFF000010B502490020FFF701
:1006700093FD10BDFFFF000030B593B0FFF71EFEE5
:10068000FFF78CFE5B4B1868FA21890004F098FC98
:100690000138594B98420DD8584A50605848036A5F
:1006A0001B021B0AC02109060B430362002393604F
:1006B00007331360534C5449200003F081FF21009D
:1006C00007A803F003FE514804F053F862E003A8C2
:1006D00003F05CFB00283AD02B00002B51D003A97B
:1006E00009A8FFF7FDFE4A4C09A9200002F025FBEE
:1006F00009A802F0A1FA47490CA802F0ECFA0CA9EB
:10070000200002F098FB04000CA802F095FA002CDF
:100710001FD141490FA802F0DEFA0FA93C4802F0B0
:100720008AFB04000FA802F087FA002C5AD1FA21A4
:10073000490003A8FFF7C0FE022103A8FFF7AAFEA5
:1007400003A803F0DBF90028C1D10023C5E700238B
:10075000C3E7C82103A8FFF7AFFE2D498B68093B0B
:100760000422684602F09AFB2C49684602F027FBF7
:10077000002833D02A4903A802F0DAF9684602F0CB
:100780005BFA03A803F049FCFFF73EFD254B1B680D
:10079000002B2BD11D4903A804F044F803A803F053
:1007A000FBF90028F0D0204A1E4B1A6003A803F082
:1007B000F3F9051EE8D003A803F0E8FA0028E3D017
:1007C00080239B009842BBD9FA21490003A8FFF778
:1007D00073FE012103A8FFF75DFEB1E703A8FFF751
:1007E00039FECBE703A8FFF7E1FECAE7013B0D4A5C
:1007F0001360CFE764050020FFFFFF0010E000E07A
:1008000000ED00E06C030020F06D000020010020EE
:10081000E8000020EC6D0000F86D0000646E000040
:10082000346E0000F4000020FF01000010B5074AFC
:1008300093690F24A34319439161136907218B43E3
:100840001843106104F05AFB10BDC046000200506E
:1008500070B5002300E00133072B0DD801249C4024
:100860002142F8D004685E000325B540AC43150072
:10087000B5402C430460EEE770BD000010B50400E5
:100880000168104805F0C6FA61680F4805F0C2FA21
:10089000A1680E4805F0BEFAE1680D4805F0BAFA05
:1008A00021690C4805F0B6FA61690B4805F0B2FA07
:1008B000A1690A4805F0AEFAE169094805F0AAFA0B
:1008C00010BDC046846E0000906E00009C6E00005B
:1008D000A86E0000B46E0000C06E0000CC6E000078
:1008E000D86E000010B50400034805F00DFB200091
:1008F000FFF7C4FFFEE7C0466C6E0000064B042005
:100900007146084203D0EFF309807146EAE7EFF33E
:100910000880E7E7FEE7C046E508000030B51300B1
:1009200001E0230001005C1E002B14D00B4B9B69DF
:100930001B02FBD4481C00254D57084B1D600123AA
:10094000CB560A2BEDD1054B9B691B02FBD40D2125
:10095000024B1960E5E7100030BDC04600000540BD
:10096000044B9B695B04FBD4024B1B680B7001209A
:100970007047C04600000540134B98420FD0134B00
:100980005A69120B07231340002B10D10F4B1A6822
:1009900003231340012B08D08020000270470B4B2B
:1009A0005A69120A07231340EEE70948F6E7012BBC
:1009B00007D0022B02D0074B1868EFE7064B1868E8
:1009C000ECE70648EAE7C04600000140000200509C
:1009D000001BB7000800002064050020102700005D
:1009E000F0B583B005000F00FFF7C6FF0600244BEB
:1009F0001868310004F0E4FA040000232B606B61F6
:100A0000204B9E4221D0380009300A2104F0D8FA48
:100A100083001B1858001C4B9E421FD9B6080327A1
:100A200004F096FF0190300004F092FF011C019841
:100A300004F0B2FC154904F067FB04F04DFB68605C
:100A40008023DB053B432B6012E0380063306421D8
:100A500004F0B6FA030064205843DCE70C4B9E42D6
:100A600002D976080127DBE70027D9E7C046013C19
:100A7000002CFBD12B689B01FCD403B0F0BDC04619
:100A80006405002010270000FFFFFF0100247449C7
:100A9000FFFFFF0000280FD0094B1B78002B0DD063
:100AA000FF2806D0430018184200064B9B185888B0
:100AB00003E0054B588800E0002070470020FCE769
:100AC000380100203C0100203001002070B50500F5
:100AD0000C000020FFF712FC1F2020402843FFF7E6
:100AE00019FC64B2002C08DB0020FFF713FC0400A3
:100AF0000120FFF703FC200070BD0020FFF70AFC77
:100B0000F2E770B505000E0014000020FFF7F6FBB9
:100B10001F2030402843FFF7FDFB2000FFF7FAFBC2
:100B20000120FFF7EBFB70BD70B504000D00002045
:100B3000FFF7E4FB3A20FFF7EDFB002C07D0013C68
:100B4000A4B20020FFF7E6FB28700135F5E701208D
:100B5000FFF7D4FB70BD70B504000D000020FFF757
:100B6000CDFB7A20FFF7D6FB002C06D0013CA4B2C7
:100B70002878FFF7CFFB0135F6E70120FFF7BEFB32
:100B800070BD000070B5050060240440094B1B785F
:100B9000A3420DD003221F21A020FFF7B2FF6D0951
:100BA00003222A401F218020FFF7ABFF014B1C705E
:100BB00070BDC0460000002010B50400FFF7E2FF42
:100BC00021000020FFF782FF10BD000010B5094B87
:100BD0001B78002B00D010BD0120FFF78FFB722087
:100BE000FFF7EAFF034B1870FF28F4D100221A70B8
:100BF000F1E7C0463801002070B504000D00FFF792
:100C0000C1FF2A0021004020FFF77BFF70BD70B5B7
:100C100004000D00FFF7B6FFEAB221004020FFF705
:100C200070FF0134E1B22A0A4020FFF76AFF70BD6D
:100C300010B5064B1988002905D0013989B20C205E
:100C4000FFF7E5FF10BD0249F9E7C0463601002075
:100C5000FF07000010B5FFF7EBFF10BD70B539209E
:100C6000FFF7AAFF274B1B78002B46D0002846D061
:100C7000254B19888A1D254B9A4231DD244BCD180E
:100C8000ADB20020FFF7C3FF00213A20FFF71EFF9F
:100C90001D4C208000213A20FFF718FF0302208816
:100CA0001843208000213A20FFF710FF04000021A4
:100CB0003A20FFF70BFF030223439BB2043B9CB295
:100CC00000213A20FFF702FF060040221E2180206B
:100CD000FFF717FF330606D4FFF7AAFF00200DE049
:100CE0008D1DADB2CDE7084B1A88084B9A42F3DC54
:100CF000084B1D805C80FF2000E0002070BD0020BC
:100D0000FCE7C0463801002036010020FF07000044
:100D100006F8FFFF3001002070B50E001400FF2818
:100D200012D043001B185D000F4BED18FF280DD0AB
:100D30002988711889B20020FFF769FF6888831B32
:100D40009C420EDD98B270BD084DEFE729887218FD
:100D5000074B9A42ECDD91B2064B9C46614489B246
:100D6000E9E72000EFE7C0463C0100203001002009
:100D7000FF07000000F8FFFF70B515001A00FFF72D
:100D8000CBFF04002900FFF7CFFE200070BD00005C
:100D9000F0B583B005000E00019200930D4F4400A2
:100DA00022185300D95B891989B20220FFF72FFF5F
:100DB00064196300FF187B889A1B0099914207DD34
:100DC00095B201992800FFF7C6FE280003B0F0BDD8
:100DD000009DF6E73C01002010B501000020FFF760
:100DE00016FF0020FFF78AFA3A20FFF793FA002057
:100DF000FFF790FA04000120FFF780FA200010BDF1
:100E000010B50C0001000220FFF701FF0020FFF7E2
:100E100075FA7A20FFF77EFA2000FFF77BFA0120AF
:100E2000FFF76CFA10BD0000F8B5294B1B78002BBA
:100E300002D100273800F8BD264A43001C18610083
:100E40008D5A52185688AE19B6B23400083CA4B276
:100E500000212800FFF7D4FF29000420FFF7D7FE68
:100E600021000620FFF7D3FE00250027092DE1DC35
:100E700080221F218020FFF744FE80221F21A02016
:100E8000FFF73FFE0A221C21A020FFF73AFE0822AE
:100E90001F218020FFF735FE1C20FFF78DFE040088
:100EA0000A230342F8D008221F21A020FFF729FEC1
:100EB00002231C4067426741FFB2002CBAD0301FAA
:100EC00080B2FFF789FF8306B4D50135EDB2CDE7D7
:100ED000380100203C010020F8B505000F00012A70
:100EE0002DD0521894B2661EB6B21020FFF78FFEB6
:100EF00029001420FFF78BFE154B9F4205DC9E4214
:100F000003DD144B9C466444A6B231001220FFF767
:100F10007EFE10221F21A020FFF7F3FD20221F21BB
:100F20008020FFF7EEFD1F210020FFF7CFFD830695
:100F30000CD5FA2189000848FFF752FDF3E70800B5
:100F4000FFF74AFF01002800FFF75AFFF8BDC0462F
:100F5000FF070000FFF7FFFF20000140F8B506ACD7
:100F60002588FF2A15D05600B61874000F4EA41914
:100F7000FF2A10D022889B189BB244002018420000
:100F80000A48105A401880B22A001900FFF7A4FF3F
:100F9000F8BD074CECE722889F18064EB742E9DD02
:100FA000BBB2054A944663449BB2E6E73C0100208D
:100FB00030010020FF07000000F8FFFF10B50C0013
:100FC0000100D420FFF718FE2100D620FFF71FFEF6
:100FD0000F24EA20FFF7F0FDC30706D503490448B4
:100FE000FFF7FEFC013C002CF3D110BD10270000E0
:100FF0002000014070B50500444B00241C805C803B
:1010000000F0DCF8FF220021FF20FFF77AFD404EC0
:10101000FA21C9003000FFF7E3FC3E493000FFF73A
:10102000DFFC3D4B1C800F3407E00023002B10D069
:10103000013C3A493648FFF7D3FC1D210020FFF759
:1010400045FD0028F1D1002C01D10023EEE701235A
:10105000ECE700210820FFF7DAFD00210C20FFF764
:10106000D6FD2F490A20FFF7D2FDB1213820FFF726
:10107000C3FD2C492820FFF7CAFD2B493020FFF77C
:10108000C6FD0D21C020FFF7C2FD3222C221802003
:10109000FFF737FD2549C620FFF7B9FD1221C4200F
:1010A000FFF7AAFD2249CA20FFF7B1FD2978E42005
:1010B000FFF7A2FD6978E520FFF79EFDA978E22001
:1010C000FFF79AFDE978E320FFF796FD2979E02004
:1010D000FFF792FD6979E120FFF78EFD802149003D
:1010E0001020FFF76BFF1F20FFF74CFDC0221B21D4
:1010F0008020FFF706FD04221F218020FFF701FD5D
:101100000C491420FFF75AFF70BDC0463001002083
:101110002000014050C300003601002010270000CD
:10112000FF0700003F300000F9F70000120C00003C
:10113000DC05000076040000F8B505000800110089
:101140001A00FFF7E9FD013887B20020FFF7D6F853
:101150003A20FFF7DFF8002601E00236B6B2BE42C1
:1011600012DA0020FFF7D6F880B2000284B2002025
:10117000FFF7D0F880B22418A4B22D19ADB2A54261
:10118000EBDA0135ADB2E8E7BE4204D00120FFF74B
:10119000B5F82800F8BD0020FFF7BCF880B20002C7
:1011A00080B22D18ADB28542F0DA0135ADB2EDE76F
:1011B000014B18787047C0463801002010B5054C27
:1011C0009F2252000021200004F074FD024B238076
:1011D00010BDC0463C01002001080000F0B5D64615
:1011E0004F464646C0B5041E00D17DE0C0204001F8
:1011F0003F4E002200251FE04B005B185F003C4B78
:10120000FB5A22E053009A185300394DED18384B21
:1012100006330127342F00DD68E05A88002A55D0B4
:1012200006330137FFB2F5E7002922D04B005B18E7
:101230005A002F4EB6180A0031790029DCD12C4B08
:101240001B882C4FBC4663449BB23788DB1B9BB288
:1012500076889B1B9BB29C42D4D02600A342E3DD40
:101260008342E1DA500082185000214D2D181800F9
:10127000DAE7002DCBD11E4D2F79002F1AD02B8805
:101280006A889B189BB29846194A7B00D9194D0071
:1012900029005519895A8845EED092467B00994617
:1012A0006A884046FFF718FE4F447B00524641468D
:1012B0009952E1E70E4B1B880E4A944663442A88F4
:1012C0009B1A6A889B1A9E42A1DD07E02A886988DA
:1012D00052181A805C802A791A712F7138001CBC50
:1012E00090469946A246F0BD0027F7E70027F5E7AC
:1012F0003C010020FF17000030B5002816D00C4A32
:101300001379984207D0002B10D05A00D3185900F7
:10131000074A5218F4E7064C5900CD186800201807
:1013200005791571002242800023037130BDC0464B
:101330003C01002070B5084A43001D186C00A45AF7
:101340000C192E006D005453740014196488611A2E
:1013500070001218518070BD3C01002070B5054C22
:1013600043001E1875002D5B4919750061536419FF
:10137000628070BD3C01002070B5C5786D18EDB27B
:10138000144CE57083780E0A9B19DBB2A370427887
:101390006270007820709CB2A64207D90132D2B2A6
:1013A0000C4C6270002A01D101302070FF221140E4
:1013B0008D420EDA0133DBB2064A9370002B08D15E
:1013C00053780133DBB25370002B02D11378013311
:1013D000137070BD1004002010B50100074C206888
:1013E0000830FFF7C9FF2368054A11781972517850
:1013F000597291789972D278DA7210BD2004002067
:10140000100400200022194B1A7006E05900002039
:10141000174A88520133154A1370144B1B78032B5B
:10142000F4D90022114B1A7007E05901114A5218E1
:101430000021517601330D4A13700C4B1B78032B9E
:10144000F3D98022D2000C4B1A800022074B1A706D
:1014500007E01901094A5218002191800133034A1B
:101460001370024B1B78032BF3D970477A020020CC
:10147000A404002024040020840200202005002071
:1014800010B50022084B1A70074B1B78032B0AD8A3
:101490005A000649525A002A03D00133024A1370F7
:1014A000F2E75C00605210BD7A020020A404002024
:1014B000F0B5C64600B5D64B1C68042800D1D7E16C
:1014C000D44BD54A1360D54A1360032800D190E06D
:1014D000022800D110E1052800D1B3E1D04B9B7B5D
:1014E000452B00D0C9E1CE4A117C0B02527C9B18DF
:1014F000CC480088834200DDBFE11A00C94B1A8046
:10150000C74B1B7D9B0600D0B7E1C54B5B7D002B15
:1015100000D0B2E1C44B1A88002A02D15B88002BAC
:1015200018D0BF4BDB7D112B00D1AEE1BC49887FC9
:10153000CB7F1B0203439A4200D09EE10A00202386
:10154000C95C0133D35C1B020B43B74A52889342F8
:1015500000D092E103F0D8F8B44B984200D08CE16F
:10156000AF4BDB7D062B00D19AE2112B00D1B9E104
:10157000012B00D081E12133A94AD35C082B00D094
:101580007BE100211A33D1540233D15C0133D35CA7
:101590001B020B43A64A934200D8B6E1A04A093386
:1015A0009BB2242153541B0A013153549C4B997E06
:1015B000DA7E12020A43FF21100008409877120ACF
:1015C000DA77187F5A7F1202024314000C40202061
:1015D0001C54120A01301A549348028814000C401B
:1015E0009C76120ADA76428811401977120A5A77E5
:1015F00052E2627E0F231340032B00D03DE1238A89
:10160000002B00D039E108228A4B1A7002F038FD15
:10161000884B1B789A0601D400F091FD0022864B7E
:101620001A800023637614212F237D4AD154282267
:101630007C4B1A8050212E23794AD154217A784B41
:101640002A229954617A01329954A17A013299542B
:10165000E17A01329954217B073A9954617B013236
:101660009954A17B01329954E17B01329954233A78
:10167000DA75A28822215A54120A01315A54E2889A
:1016800001315A54120A01315A5467490A889A762C
:10169000120ADA764A881A77120A5A7722889A77D3
:1016A000120ADA77628820215A54120A01315A54F8
:1016B000637EDB0601D400F012FE594B002210318C
:1016C0005A5401395A54564C4023A375554B1B8824
:1016D0001A0A2274637400233522A354013AA354D6
:1016E0003226A3553325635503F012F8C3439BB24A
:1016F000A3551B0A6355B6E1504AD3780133DBB2D8
:10170000D370002B0ED193780133DBB29370002B92
:1017100008D153780133DBB25370002B02D1137818
:101720000133137000233F4A1380434A1380637EC2
:10173000072B26D0052B24D0002B00D19DE0228A38
:10174000002A5AD0A27E511EA176002A00D094E031
:10175000E27E082A20D0591EC9B201291AD9042ACA
:1017600026D803219140C9B2A1760132E2760F2238
:101770001340DAB2082A00D97FE09B00304AD358E0
:101780009F46A37E0133DBB2A376782B75D100236D
:10179000637672E0052AE2D1002363768022254B2E
:1017A0001A7002F06DFC14212F231D4AD1543EE71C
:1017B0003021D9E700212F23194AD154184B2F206B
:1017C00002211A5C02252A431A54362299542B38D6
:1017D00001329854013299540021013299542C312C
:1017E000104A118034312E22995427E70422114BDC
:1017F0001A7002F045FC00F0DEFC0F221340032BB0
:101800003BD1073A0B4B1A7002F03AFC00E7C04696
:1018100020040020EE0400201C0400200C04002002
:10182000B804002008040020B4040020FFFF0000DA
:10183000F6FF0000140400201C0500208002002098
:10184000E86E0000C34B1B689B88002B15D000235B
:10185000C14A1360C14AC2490A60C2490A60C24A09
:101860001380C24A13800822C14B1A7003F036FA63
:10187000BD4B1B88002B00D0A3E00022BB4B1A807D
:10188000BB4B1A7004BC9046F0BDBA49887FCB7F31
:101890001B020343B8498B421AD0B8490988C9438F
:1018A0000904090C11438B4200D03FE6B1492023C3
:1018B000C85C0133CB5C1B020343B1494888AF4984
:1018C0004988C94389B201438B4200D02EE609E022
:1018D000A8482021445C0131415C09022143A6480B
:1018E0008142DAD1A14A13881C3B13809B4A9C4B4E
:1018F0001A60A04A2823D15C0133D35C1B020B433E
:101900000CD1A04A934B1A6021E09A4A08339BB24B
:10191000242153541B0A0131535447E602F0FDFEC3
:10192000954B9842A9D1ECE71988002902D15A8831
:10193000002A2DD0904A914227D08E48847EC27EC4
:1019400012022243914233D01033824A1360814BFA
:101950001B688D4A934200D38FE799880029F3D002
:1019600084482422845C0132825C12022243914228
:10197000EAD1D9880029D7D02222845C0132825C46
:10198000120222439142DFD1CEE758889042D4D14F
:101990000023714A13600221754A11706F4A704921
:1019A0000A6070490A60704A138003F097F95FE794
:1019B0000100007F4A7F1202024359888A42C3D144
:1019C000E6E71A001C3292B268490A80694C110A93
:1019D000217462745F4A1268117AA1751121E17550
:1019E00008339BB219021B0A0B439BB22621635496
:1019F0001B0A0131635428260023A355292563556A
:101A00009388053963541B0A01316354D38801312B
:101A100063541B0A0131635459490B88A3761B0A8E
:101A2000E3764B8823771B0A63771388A3771B0A17
:101A3000E37753882022A3541B0A0132A3542200C7
:101A40003632474B1A6002F068FEC04380B2A055A0
:101A5000030A6355002806D1464B01225242282131
:101A60005A5401315A54434C4523A3730023E37362
:101A700063752375454A138801339BB213801A0A94
:101A8000A274E37400232376637602F03DFEC04324
:101A900080B22076000A60760022354B1A70F1E69B
:101AA00002F036FE344B984200D0E6E6384C00E0B7
:101AB0002034384B9C4239D8607E0028F8D02D4A1B
:101AC0002423D15C0133D35C1B020B43A2889342D5
:101AD000EED1284A2223D15C0133D35C1B020B4395
:101AE000E2889342E4D1234A917ED37E1B020B43CA
:101AF00022889342DCD11F4A117F537F1B020B4384
:101B000062889342D4D1144B1C600022184B1A7087
:101B10002F23184AD15C4B0700D485E1002363765C
:101B20002022134B1A7002F0ABFAA6E62F23114ABB
:101B3000D35C3F221340022B3FD10E4A2233D15CAB
:101B40000133D35C1B020B43134A13800021134A59
:101B500011702EE01804002020040020E204002070
:101B60001C0400200C0400201C0500200804002098
:101B700014040020B8040020FFFF0000B00400207F
:101B8000B404002020050020600500207C02002015
:101B90002404002084040020860200207A02002011
:101BA00051009748095A8B4200D181E00132954992
:101BB0000A70944A1278032AF2D92F23924AD35CEE
:101BC0005B0700D559E6130014212F2299542820D1
:101BD0008E4A10803C312E229954053A995C8846F1
:101BE0002D255C5D9C541A5C2C241E5D1E541A55D8
:101BF0002726985D013C1F5D9F5518552627DC5D03
:101C0000804E34702A26995DD9559C554146013144
:101C1000C9B2595500290ED10132D2B22C237A49CA
:101C2000CA54002A07D1431CDBB22B328B54002B41
:101C300001D101348C55744B2227DA5D2326985D3F
:101C400000021043724A108024255A5D25218846DF
:101C5000595C09021143FF220C001440DC55090AAB
:101C60009955010011405955000A41465854987E33
:101C7000D97E09020143080010409877090AD977F4
:101C8000187F597F090201430C00144020201C5486
:101C9000090A013019545F4801880C0014409C76F1
:101CA000090AD97641880A401A77090A59770AE55C
:101CB0000024544B1C70534B1A78032A07D8500148
:101CC00055490918497E00295FD1534C0419002C4D
:101CD00000D1D2E5514B1C600323A3762376002369
:101CE000A3750422E275E376474D2433EA5C0133A1
:101CF000EB5C1B021343A3802223EA5C0133EB5C01
:101D00001B021343E380AA7EEB7E1B021343238056
:101D10002A7F6B7F1B021343638001206076404B58
:101D20001A7822735A7862739A78A273DB78E37315
:101D300020822923EB5CE3722823EB5CA372272328
:101D4000EB5C63722623EB5C2372FFF745FB2E23CB
:101D5000E95C1F3B0A009A43502A42DD0022294BCE
:101D60001A70284B1B7818000A09053A9200934212
:101D700037DA254D1A003632AA5C002A31D0012A02
:101D800015D101331F4A1370EBE707290BD1002C43
:101D900006D05101204B5B18997EA37E994202D94F
:101DA00053011D4C1C190132164B1A7083E7022A8D
:101DB0001CD1154D1A003732AA5C042A16D1030033
:101DC0003833E95C090239302B5C0B43104A13802D
:101DD0001A1C802189008B4201D9124B1A88628219
:101DE000A28210212F23084AD154E7E406481A00A2
:101DF0003732825C002AF4D09B18024A1370B0E795
:101E0000A40400207A020020B80400200804002066
:101E100086020020B40400202404002020040020B6
:101E200080020020E46E00002E23CD4AD35C1B0903
:101E30009A00CC4B1A70CC4D2B889B1A9BB2143B4A
:101E40009BB22B800F221040022803D130320A406F
:101E5000122A19D0002B01D18B0715D0C04A262396
:101E6000D05C0133D35C1B0203432289934200D030
:101E7000F2E1BB4A2823D05C0133D35C1B026289A8
:101E800003439A4200D0E7E1CB064AD5218A0029D4
:101E900047D020000C30FFF76FFA2A23B04AD35CFA
:101EA000B24A107883423CD12B23AD4AD35CAF4A6F
:101EB00051788B4235D12C23A94AD35CAB4A927816
:101EC00093422ED12D23A64DED5CA84BDB789D428D
:101ED00027D120736173A273E373E37E002B19D1C2
:101EE000237EA27E9B1ADBB2A17DCA089B1ADBB2BD
:101EF00058B2C918C9B2A175002801DA5B4258B2BC
:101F0000E27D9308C31ADBB2D318DBB2E375C908CC
:101F10005B1823760122964B1A70237EA37600234A
:101F20002382617E0F230B40013BDAB2072A00D9DE
:101F3000A3E4DBB29B008F4AD3589F468C4B1B789F
:101F4000DB0700D499E4032363764022884B1A70A0
:101F500000232382844B1888002804D00232844B4B
:101F60001A70FFF739FA0022834B1A8002F088F8C2
:101F7000FFF74EFB7E4B1B78DB0768D52F23784A93
:101F8000D35C3F221340122B61D11C33744AD15CC5
:101F90001F3B0A009A43502A30DD0022714B1A7011
:101FA000704B1B7818000A09053A9200934225DA13
:101FB0006B4D1A003632AA5C002A1FD0012A03D1C9
:101FC0000133684A1370EBE7022A36D1644D1A00D8
:101FD0003732AA5C042A30D103003833E95C0902A5
:101FE00039302B5C0B43654A13801A1C8021890011
:101FF0008B4201D9624B1A886282A28203236376E4
:10200000574B26229A5C227227229A5C62722822FF
:102010009A5CA27229229B5CE3720120FFF7DCF933
:102020004222534B1A70002323824F4A1380524A94
:10203000138002F025F8FFF7EBFA49481A0037320F
:10204000825C002ADAD09B18464A1370A8E7202247
:10205000474B1A7002F014F84A4B1B6800225A765C
:10206000ABE52F233E4AD35CDA0726D5CA0624D433
:10207000238A002B01D0FFF700FC3B4D288801305C
:1020800080B2FFF7A9F93A4A117810230B43137075
:102090002A88002A03D002221343354A137001F024
:1020A000EFFF01232382073363760023E3761121B8
:1020B0002F232B4AD154FFF7BAFA9B0611D5284893
:1020C0003423C25C12020133C35C100018432E4D4E
:1020D0002E68B44660442860134323480288D31A0C
:1020E0000380214B1888002808D0CB0606D4204A4C
:1020F000117802230B431370FFF76EF9184A30234F
:10210000D35C1B023121525C9B189BB21B4A13808B
:10211000A28A934201D8002B01D1184B1A80174B89
:102120001B886382124B1B789B0701D1FFF7A5FB2D
:102130000022114B1A8001F0A3FFFFF769FADA06BB
:1021400024D500220C4B1A800123238203336376AB
:102150000023E37611212F23014AD154FFF767FAB8
:10216000B80400207A020020080400201004002097
:10217000140400200C6F00001C05002086020020C3
:10218000E46E0000200400201C040020584A12883D
:10219000002A0ED0DB0701D500232382238A002BDF
:1021A0001DD1638A9A4201D9514A1380504B1B8832
:1021B00023820023E3764F4B1A684F4B1A604C4B37
:1021C0001B88002B0ED0238A002B0BD028334B4AC0
:1021D000138018212F234A4AD154FFF72BFA444A7F
:1021E0001380E6E7474B1B789B0701D4FFF745FBBD
:1021F0002822424B1A8010212F23414AD154FFF745
:1022000019FA404B1B78DB0701D4FFF736FB00239C
:10221000637610223B4B1A7001F032FFFFF72DFB63
:10222000364B1888002801D0FFF7D6F82F23344A00
:10223000D35CDB0719D5334B1B78DB0712D507239B
:1022400063760023A37623820120FFF7C5F81022CE
:102250002C4B1A7001F014FF10212F23284AD1545F
:10226000FFF7E5F906236376EEE7264B1B78DB07DD
:1022700005D50523637600232382FFF7FEFA1F4B63
:102280001B88002BE8D1FFF7F8FA1C4B18880028B0
:1022900001D0FFF7A1F82F23194AD35CDB070CD537
:1022A000072363760023A3760120FFF795F8102219
:1022B000144B1A7001F0E4FECEE7104B1B88002B84
:1022C000CAD1FFF7DAFA0F4B1B78DB0701D4FFF70F
:1022D000D4FA072363760023A376FFF7CEFA084BE0
:1022E000022130229954002101329954FFF7EBF971
:1022F0001C0500200C0400201C0400200804002001
:10230000B8040020140400200302000A184380B21D
:1023100070470000F8B505000E00364A13880133F7
:102320009BB21380344A934203D980225201314B2D
:102330001A800022314B1A7002E001342F4B1C70BE
:102340002E4B1C78032C0FD862012D4B9B185B7E03
:10235000002BF2D02A4B9B189F88264B1888FFF73A
:10236000D3FF8742E9D1D8E700221A70002403E0A6
:102370001C000132214B1A70204B1A78032A10D806
:1023800053011F495B18597E002909D00729F0D154
:10239000002CEDD0987EA17E8842EAD91C00E8E7A7
:1023A0001C00002C23D002236376164B1A7822736C
:1023B0005A7862739A78A273DB78E37380239B0068
:1023C0006382A382012323820023E3760122A27683
:1023D00003222276A3751033E375064B1888FFF7A6
:1023E00093FFA080E6802B8823806B886380200089
:1023F000F8BDC04684020020FF7C00007A02002065
:102400002404002080020020F8B505000E00274AB1
:10241000138801339BB21380254A934203D980224B
:102420005201224B1A800022224B1A70214B1C7839
:10243000032C0DD82201204B9B189F881B4B18881A
:10244000FFF762FF8742E2D001341A4B1C70EDE7C0
:1024500000221A70174B1B78032B0CD81901164A4F
:1024600052189288002A03D00133124A1370F1E700
:10247000114C0C1900E00024002C0ED00B4B1B88D3
:102480001A021B0A1343A380E680002D07D02B8875
:1024900023806B886380402323722000F8BD0422D0
:1024A0000021200003F006FCF5E7C046840200206E
:1024B000FF7C00007A0200202005002010B50300F8
:1024C0008AB206480280002906DD0549086898425C
:1024D00002D0190003F0E5FB10BDC0461C0500202A
:1024E0000C040020F8B50D000022404B1A7002E0E9
:1024F00001333E4A13703D4B1B78072B23D81E0037
:102500003B495A00D718BC000C19BF00795A002962
:10251000EED06288002AEBD00788B942E8D1418822
:102520008A42E5D1324F5C00E2189300FB18181D77
:102530000622290003F0B5FBA619B300FF182D4BA6
:102540001B78BB7225E00022284B1A7002E0013391
:10255000264A1370254B1B78072B0BD824495A00A9
:10256000D618B4000C19B600725A002AEFD162884E
:10257000002AECD1082B0DD004220100200003F02A
:1025800090FB201D0622290003F08BFB194B1B78C2
:10259000A372F8BD0023184A1370184A1370134A27
:1025A000137002E00133114A1370104B1B78072B94
:1025B00011D8104A11785A00D21894000C4A1219F6
:1025C000927A8E1A0C4C2478A642EBDD0A4A1670D9
:1025D0000A4A1370E6E7094B1A78044B1A70530045
:1025E0009B189A00024CA418C6E7C046F2020020CD
:1025F00090020020F0020020F8020020F1020020EA
:1026000010B50022094B1A700BE063001B199A00E9
:10261000074880180422002103F04CFB0134034BCF
:102620001C70024B1C78072CEFD910BDF202002061
:102630009002002070B5284A13880E3B1380274B68
:102640009A7ED87E00021043254B1B88254A1288AB
:102650000100594011423ED1204A117F547F24028B
:102660000C431F4A51881F4A528825004D4015428D
:1026700031D11A4DAE7FEA7F12023243934203D02A
:102680000022194B1A7011E02A002023ED5C01335F
:10269000D35C1B022B439942F2D114490800143039
:1026A000FFF720FF17E001330F4A13700E4B1B7822
:1026B000072B10D85A00D21891000D4A8A5A90421E
:1026C000F1D10B4A521852889442ECD107490800C4
:1026D0001430FFF707FF70BD08040020B804002085
:1026E000B4040020B0040020F2020020BE04002048
:1026F00090020020F8B5474B1B88292B2AD90022CD
:10270000444B1A80444A117D537D1B020B438022A7
:102710005200934222D00132FF3293421DD13E4AF1
:102720002623D15C0133D35C1B020B433B4A128846
:10273000934212D1384A2823D15C0133D35C1B0267
:102740000B43364A5288934207D13549881DFFF71B
:10275000C9FE02E000222F4B1A80F8BD2E4A262324
:10276000D15C0133D35C1B020B432C4A1288934289
:10277000F3D1294A2823D15C0133D35C1B020B43DC
:10278000264A52889342E8D1254DA81D2900FFF71B
:10279000A9FE2C00163C0023237502336375260026
:1027A000203606222900300003F07BFA1D4F062256
:1027B0003900280003F075FA280010380622390085
:1027C00003F06FFA06223100200003F06AFA227F3C
:1027D000637F1B0213432622A3541B0A0132A35416
:1027E000A27FE37F1B0213432822A3541B0A01325A
:1027F000A3540A4A138823771B0A63775388A37765
:102800001B0AE37708232373023B63732A22014BDD
:102810001A80A2E708040020B8040020B4040020B5
:10282000CE0400208802002070B582B06E4A907FEE
:10283000D37F1B0203436D4A934224D06C4A108815
:102840006C4A1488E2431204120C024393422AD0C9
:10285000584020420DD164482022845C0132825CC1
:102860001202224362484088624C648850402042F1
:102870002BD0614B614A1088188052885A80002200
:102880005F4B1A7028E058482022845C0132825C39
:102890001202224355488242D0D106225949524859
:1028A00003F0FFF93DE0504A2025565D0135555DA6
:1028B0002D0235434E4A56884E4A5288D24312045E
:1028C000120C32439542C3D1E7E74B480380428064
:1028D000D5E701334A4A1370494B1B78072B19D8A7
:1028E00049485A00D418A1004118434C2588D218F1
:1028F0009400225A9542ECD13F4A54884A88944227
:10290000E7D18A88002A05D1CA88002A02D10A891B
:10291000002ADED0082B14D004310622324803F0FE
:10292000C0F9314CA01D0622384903F0BAF908233A
:10293000237300236373364A13880E33138002B067
:1029400070BD294C0622FF21200003F0B3F92000BE
:1029500020300622002103F0ADF92C4DA01D0622E7
:10296000290003F09EF9200016300622290003F00A
:1029700098F9214D2B882622A3541B0A0132A35417
:102980006B880132A3541B0A0132A354184A1388DE
:1029900023771B0A63775388A3771B0AE377002307
:1029A0002375013363750023A3730123E3730823A5
:1029B0002374002363740633A374023BE374082377
:1029C0002373062363733634124B1C602A22104B88
:1029D0001A80243A0021684603F06CF96946280001
:1029E000FFF780FDABE7C046B8040020FFFF000002
:1029F000B4040020B0040020F4020020AC04002045
:102A0000F20200202C6F00009002002088020020BB
:102A1000080400201C0400207047F8B507000D00D2
:102A200000260024022E0DDCBB1919790A22280089
:102A300000F0FEF824182E21280000F069F8241870
:102A40000136EFE7F9790A22280000F0F1F82018A2
:102A5000F8BD10B5040002F0AFFA200010BD000070
:102A6000024B08330360002343607047346F00005B
:102A700030B503AC2578044C083404600171427110
:102A80008371C57130BDC046346F000000B583B09E
:102A9000012801D003B000BD054B9942FAD10021B5
:102AA00000910B000A000348FFF7E2FFF2E7C0467F
:102AB000FFFF0000FC02002010B50400034B0833A8
:102AC00008C0042203F0EDF8200010BD346F0000B0
:102AD00010B502490120FFF7D9FF10BDFFFF00002C
:102AE00010B502490020FFF7D1FF10BDFFFF000025
:102AF00070B505000C1E09D0080003F087FA02002B
:102B00002B685B6821002800984770BD0020FCE717
:102B100010B5C9B203681B68984710BD10B50368AB
:102B20005B6802220149984710BDC046486F00000B
:102B300070B50500FFF7DCFF04002800FFF7EEFF8B
:102B4000201870BD70B50500FFF7E2FF04002800F3
:102B5000FFF7E4FF201870BDF0B5C64600B58CB095
:102B600080460D00100001920021202303AAD154B9
:102B7000012801DD0BAF07E00A230193FAE73734A0
:102B800064B23C70002D10D00199280002F09EFA2A
:102B90000C004EB20199280002F012FA0500013F24
:102BA000092EECDC303464B2EBE7002F0DD0380096
:102BB00003F02CFA020043461B685B68390040466C
:102BC00098470CB004BC9046F0BD0020F9E770B502
:102BD00005000C00002A05D00A2A08D0D2B2FFF75F
:102BE000BBFF70BDC9B203681B689847F9E70029AD
:102BF00003DB0A22FFF7B0FFF3E72D21FFF788FF81
:102C0000060061420A222800FFF7A6FF3018E8E715
:102C100010B5FFF7DCFF10BD10B5002A03D0D2B20B
:102C2000FFF79AFF10BDC9B203681B689847F9E720
:102C300010B5FFF7F1FF10BD10B50400006803F0F8
:102C400017F8200010BD10B504000068002801D05E
:102C500003F00EF800232360A360636010BD70B51D
:102C600004000D000131006803F094F9002803D03E
:102C700020606560012070BD0020FCE710B50400F5
:102C80000368002B02D043688B420CD22000FFF770
:102C9000E6FF002808D0A368002B06D12368002295
:102CA0001A70012000E0012010BD0120FCE770B582
:102CB00004000E0015001100FFF7E0FF002806D009
:102CC000A5603100206803F099F9200070BD200054
:102CD000FFF7B9FFF9E770B504000D0000230360AA
:102CE00043608360002907D0080003F08FF90200D9
:102CF00029002000FFF7DBFF200070BD70B5050044
:102D00000C000068002805D06B688A6893420CD2DA
:102D100002F0AEFF23682B6063686B60A368AB6052
:102D2000002323606360A36070BD096803F066F947
:102D3000A368AB600023A360F6E710B504008842E7
:102D400001D0FFF7DBFF200010BD70B505000C1EA1
:102D500009D0080003F05AF9020021002800FFF70B
:102D6000A6FF280070BDFFF76EFFFAE770B50500FB
:102D70000E0083689C18002913D0002A01D101207D
:102D800070BD2100FFF77AFF0028F9D02B68AA68F0
:102D9000944663441800310003F030F9AC60012020
:102DA000EEE70020ECE700B583B001AB197000221C
:102DB0005A7001321900FFF7D9FF03B000BD10B5FA
:102DC0008368002B0BD1002907D00023CB56002BA2
:102DD00001D000200CE001200AE0012008E00029D9
:102DE00007D0006803F000F9030058425841C0B210
:102DF00010BD03681B785BB258425841C0B2F7E778
:102E000010B58C6883681B1B93420ED300680028A2
:102E10000DD0096800290CD08018220003F0FDF8BD
:102E2000030058425841C0B210BD0020FCE700200A
:102E3000FAE70020F8E710B583688A68934203D365
:102E40000022FFF7DDFF10BD0020FCE783688B4206
:102E500004D90368002B03D0585670470020FCE7C4
:102E60000020FAE710B5FFF7F1FF10BD10B5836839
:102E7000934207D90468A01803F0A8F8002804D0EA
:102E8000001B10BD01204042FBE701204042F8E753
:102E900010B50022FFF7EAFF10BD0000F0B583B0C7
:102EA00001900F0016001C009A4201D814001E0069
:102EB0000C490198FFF70FFFBD68AC420FD2AE423C
:102EC00000D835003B685B1900269E5700221A7017
:102ED0003B6819190198FFF738FF3B685E55019868
:102EE00003B0F0BDE06D000000B583B0012801D053
:102EF00003B000BD054B9942FAD1002100910B00AF
:102F00000A000348FFF7B4FDF2E7C046FFFF0000E8
:102F10000403002010B50E301422002102F0CAFE76
:102F200010BD10B504000E31FFF7C6FD200010BD26
:102F300010B504001231FFF7BFFD200010BD10B521
:102F400004001631FFF7B8FD200010BD10B50400D5
:102F50001E31FFF7B1FD200010BD10B51300481C55
:102F600030220A7005E03732027023000800002C7E
:102F700008D01C090F221A4053B2411E092BF2DC63
:102F80003032F1E710BD000010B502490120FFF713
:102F9000ABFF10BDFFFF000010B502490020FFF796
:102FA000A3FF10BDFFFF0000F0B5C64600B592B00C
:102FB0000700884616002022002108A802F07AFEA9
:102FC000FF230093FF22FF2106A8FFF751FD3D00DC
:102FD0004435694B1093079B03931193432210A927
:102FE000280001F001FD431C00D1A4E008AC01233E
:102FF000237063700533A3700023E3707A681306AF
:103000001102FF20000401400B43110AFF200002BF
:1030100001400B43120E134305930993330A2372A5
:10302000667280200002FFF76FF90A2302AA944615
:10303000634418802223634418801C222100280046
:1030400001F03EFD20220021200002F033FE3E0070
:10305000083606223100200002F023FE1022210053
:10306000280001F02DFD20220021200002F022FE88
:103070000024052C06DC202208A9280001F020FDF0
:103080000134F6E708AC63232370822262702F3A82
:10309000A270E3702E3B2371343B63714246A271F0
:1030A0003D22E271363A22726372013A31002220E7
:1030B00002AB9C46604402F0F4FD0C23237463745D
:1030C00007222E492A2002AB9C46604402F0E9FD0B
:1030D000FA7A0EA93800FFF740FF3A7B322102ABA3
:1030E0009C4661443800FFF738FF7A7B0FA938000F
:1030F000FFF733FF1E222100280001F0E1FC4346C8
:10310000032B1CD008A937230B70313B4B700122D5
:103110008A700232CA700B7109334B712B338B7179
:103120000133CB71C4330B720632280001F0C8FCA6
:10313000280001F05BFE12B004BC9046F0BD08A967
:103140002F330B702E3B4B70BA7B8A70FA7BCA70A0
:103150003A7C0A717A7C4A7136228A71CB71BB7EC5
:103160000B72FB7E4B723B7F8B727B7FCB722A3A5A
:10317000280001F0A5FCC5E73C6F00004C6F000083
:10318000F0B5CE46474680B597B007000D00B54B69
:103190001E683C004434200001F0ACFC00280CDC2C
:1031A000B04B1B689B1BFA221201934200D950E1DD
:1031B000AD49AE48FDF714FCEBE705AE7B6C9B6AAE
:1031C00024223100200098473378022B31D000238D
:1031D00098464346002B00D135E1069B1A0619029A
:1031E000FF20000401400A43190AFF2000020140A9
:1031F0000A431B0E1A4316002A60390008310622C2
:103200000CA802F03FFD051E03901DD13B689E42B5
:103210001AD37B689E4217D8042209A938000E30C1
:1032200002F03FFDCB2D15DC200001F05BFB0135EA
:10323000F8E7200001F092FB432802D000239846D3
:10324000C7E701239846C4E7200001F0BBFB002339
:10325000994600E10023994654E0012800D187E017
:103260001ADD032800D18EE0062836D1200001F0B7
:1032700039FB06007B6C9B6A042239001E3120005A
:103280009847039DFF233340043B9D423ADA2000D8
:1032900001F028FB0135F5E7002833D01DE03B287D
:1032A00019D1200001F01EFB39002C317B6C9B6A88
:1032B000042220009847FA6A13061102FF20000436
:1032C00001400B43110AFF20000201400B43120E84
:1032D0001343FB6216E0FF2814D0200001F002FB2C
:1032E000C0B2451EEDB200280CD0200001F0FAFA61
:1032F0002800F6E7200001F0F5FA200001F0F2FACC
:10330000C3B29946200001F00FFC002800DC9CE0CD
:10331000200001F0E7FA33287AD09EDD3A285DD00C
:10332000BDDC3528E6D03628D7D1200001F0DAFA06
:10333000C6B23D001A3529000EA8FFF7BDFB0023D9
:1033400000930022002110A8FFF792FB0F9A119B17
:103350009A422ED0290012A8FFF7AEFB210014A834
:1033600001F03EFC139A159B9A422ED0002321E0D7
:10337000200001F0B7FA7B6C9B6A042239001231FD
:1033800020009847BEE7200001F0ACFA06007B6CF5
:103390009B6A04223900163120009847039DFF23C1
:1033A0003340043B9D42ADDA200001F09BFA013529
:1033B000F5E74346002B0AD1751EEDB2002EA1D0D1
:1033C000200001F08FFA2E00F6E74346F2E77B6C0F
:1033D0009B6A042229002000984793E7200001F00F
:1033E00081FA390028317B6C9B6A042220009847BF
:1033F000BA6A13061102FF20000401400B43110AB0
:10340000FF20000201400B43120E1343BB6279E719
:10341000200001F067FA390024317B6C9B6A04229A
:10342000200098477A6A13061102FF200004014029
:103430000B43110AFF20000201400B43120E1343FD
:103440007B623B635EE700239946200001F0BAFAF5
:1034500001E0FF239946484617B00CBC90469946B8
:10346000F0BDC0462C01002050C3000020000140E8
:10347000F0B585B0040002F051FDFA21C90001F059
:1034800025FE01316160216044239C46A4446346CB
:1034900065460193180001F073FA4421280001F0F9
:1034A0003BFA002800D195E04B4B1D680027002611
:1034B0001EE0636801336360474B1868401BFA21C4
:1034C000890001F07DFD82B201212000FFF76CFD33
:1034D00001224023E254FF2E6AD0012F6FD03E4BD1
:1034E0001B685B1B3D4A934267D80023002B68D1C1
:1034F0004023E35C032B64D0002BDAD0042B10D0E4
:10350000012B21D0022BE6D103A92000FFF738FEC2
:103510000600052831D00628DDD100224023E254E0
:10352000D9E76368013363602B4B1868401BFA21AD
:10353000890001F045FD82B203212000FFF734FD30
:1035400002224023E254C6E703A92000FFF718FE39
:1035500006000228BFD1039B63601F4B1868401B05
:10356000FA21890001F02CFD82B203212000FFF72F
:103570001BFD02224023E254ADE703224023E25424
:10358000636A002B02D1E1239B006362A36A002BD4
:1035900002D1636A5B08A362E36A002B02D1A36ACB
:1035A0005B00E362A36A2363E36A6363012792E734
:1035B00000224023E25400268FE7012396E70023F0
:1035C00094E7019801F0DCF9636801336360380027
:1035D00005B0F0BD0027FAE72C01002060EA0000EA
:1035E000F8B504000F00002545628562C562856359
:1035F0000600083606220021300002F05BFB2000A6
:10360000FFF788FC06223900300002F04AFB402315
:10361000E5542000FFF72CFFF8BD000000B583B093
:10362000012801D003B000BD054B9942FAD1002119
:1036300000910B000A000348FFF71AFAF2E7C046B0
:10364000FFFF00000C0300204B6843600023038150
:10365000704730B5080000E001300023C356002B4E
:1036600006D02E2BF8D01C00303CE4B2092CF3D944
:10367000002B1ED1002506E0FF2B1CDC5019037126
:1036800001350023013100200856002809D0032D00
:1036900007DC2E28F0D09C00E418630030381B189B
:1036A000F0E7FF2B09DC032D09DC5219137101200F
:1036B00000E0002030BD0020FCE70020FAE70020F9
:1036C000F8E7000010B502490120FFF7A7FF10BD81
:1036D000FFFF000010B502490020FFF79FFF10BD5B
:1036E000FFFF0000F0B583B00D00374B1B8803814E
:1036F00006000C36010008310222300001F0E0F92A
:1037000080204000FEF700FE6B469C1DD880022200
:103710002100300001F0D4F90120FEF7F5FD2080F2
:1037200002222100300001F0CBF900232380022285
:103730002100300001F0C4F902222100300001F024
:10374000BFF902222100300001F0BAF92C000FE08D
:10375000671B002F0BDD6B46591D0F7001223000D7
:1037600001F0AEF93A002900300001F0A9F9651C1A
:103770000023E356002B08D02C000023E356002B37
:10378000E6D02E2BE4D00134F7E76B46591D002319
:103790000B700122300001F093F90120FEF7B4FD17
:1037A0006B469C1DD88002222100300001F088F970
:1037B0000120FEF7A9FD208002222100300001F047
:1037C0007FF9012003B0F0BD2C010020F0B5C64602
:1037D00000B58AB006000F000192924B1D683400BC
:1037E0000C34200001F086F900280ADC8D4B1B68A0
:1037F0005B1BBB4200D908E18B498C48FDF7F0F810
:10380000EDE77568210008A801F0EAF9099B9D42DF
:103810002CD001230093009B002B00D0FBE0200064
:1038200001F082F90B2800DCF8E005AFF3689B6A31
:103830000C223900200098477888FEF765FD0A239E
:1038400002AA94466344188032893B889A4218D170
:10385000030416D5764B184219D105ABD888FEF76C
:1038600053FD8046002818D000253EE0200001F0DE
:1038700075F8352802D100230093CCE7012300938B
:10388000C9E7200001F09EF804204042BFE020007C
:1038900001F098F805204042B9E0200001F092F8CC
:1038A00006204042B3E004AB1B78002B13D004AFDA
:1038B000F3689B6A01223900200098473B78002B6F
:1038C000F1DD04AA1378591E1170002BEBD02000F3
:1038D00001F008F8F5E70027032F04DC200001F0D1
:1038E00001F80137F8E70135ADB205AB9888FEF76E
:1038F0000BFD8542DBDB00257FE0200000F0F2FFBE
:10390000002202AB5A7102AB05331B78002B19D091
:1039100002AB5F1DF3689B6A0122390020009847C3
:103920003B783F2219009143E7D1002BEBDD02AB3E
:103930005A1D5B79591E1170002BE4D0200000F055
:10394000D1FFF4E7F3689B6A022202A90631200046
:103950009847F3689B6A022204A920009847002731
:10396000032F04DC200000F0BDFF0137F8E7F36807
:103970009B6A02220A2102A88446614420009847DB
:1039800002ABD888FEF7C0FC012812D0009B002BA8
:1039900019D100270A2302AA944663441888FEF727
:1039A000B3FC874227DA200000F09CFF0137BFB24A
:1039B000F0E704AB1888FEF7A7FC012801D0009BB4
:1039C000E5E70123E3E70A2302AA94466344188843
:1039D000FEF79AFC042805D0200000F0F3FF092030
:1039E000404214E001990431F3689B6A04222000EC
:1039F000984701200BE00135ADB2454588DB20003A
:103A000000F0E0FF0A20404201E0012040420AB0FD
:103A100004BC9046F0BD02204042F8E7032040423B
:103A2000F5E7C0462C01002050C3000020000140F3
:103A30000F020000F0B585B006000D000092FFF700
:103A400008FE041E44D1254B5B687268934241D046
:103A500037000C37224B1B680F2119408023DB00F5
:103A60009C466144380000F057FF012802D0200036
:103A700005B0F0BD1B4B029373680393352202A976
:103A8000380000F0B1FF0190002804D1380000F0A8
:103A900077FF019CEBE729003000FFF723FE019040
:103AA0000028F3D0380001F0A1F901900028EDD0F2
:103AB00001235B420193022CE8DC019B0133E5D139
:103AC000009A09493000FFF781FE01900134F2E7C6
:103AD0000124CCE702246442C9E7C0460C0300205D
:103AE0002C0100203C6F00008813000010B5036813
:103AF0001B6A984701235840C0B210BDC368002B11
:103B000007D09A78002A06D15B78DB0705D400201D
:103B100002E0002000E0012070470120FCE70000E7
:103B200008B4024B9C46083808BC6047FD3A0000C8
:103B3000C368002B06D0CA68002A05D0934205D07E
:103B4000002070470020FCE70020FAE70120F8E79A
:103B500000B583B003681B690122694607319847A5
:103B6000002803DD6B46D87903B000BD0120404238
:103B7000FAE7000008B4024B9C46083808BC6047CE
:103B8000513B0000704708B4024B9C46083808BC03
:103B90006047C046853B000010B5040000F0F2FB12
:103BA000E368002B07D05A78520706D59B78002B84
:103BB00005D1002002E0002000E0012010BD01201E
:103BC000FCE7000008B4024B9C46083808BC60477C
:103BD000993B0000F0B583B005000F0016000368A4
:103BE0005B6998473A7912027B7913431A021B12D8
:103BF000134301AC2380BA791202FB7913431A02F2
:103C00001B12134363803000FEF77EFB010020008F
:103C1000FEF780FB041E0DD0637E1B070CD000F066
:103C2000B1FB627E0F231340032BF5D1E369EB60F8
:103C3000012002E0002000E0002003B0F0BD000001
:103C400008B4024B9C46083808BC6047D53B0000CE
:103C500070B58EB005000C00160003A8FEF700FF3B
:103C600006A800F0F1FF01A8FEF7FAFE0B4903A831
:103C7000FFF7EAFC01AA210003A8FFF7DBFE0128F9
:103C800001D00EB070BD2B689B68054A0C92029A59
:103C90000D9232000CA928009847F2E7DC030020BF
:103CA0003C6F000008B4024B9C46083808BC6047D3
:103CB000513C000010B5040001F07EF9200010BD59
:103CC00008B4024B9C46083808BC6047B53C00006D
:103CD00010B582B0C368002B0CD0987800280CD0A7
:103CE0006B46DC1D012322000021FDF745F82078FA
:103CF00002B010BD01204042FAE701204042F7E740
:103D000008B4024B9C46083808BC6047D13C000010
:103D100000B583B0012801D003B000BD054B994226
:103D2000FAD1002100910B000A000348FEF7A0FE23
:103D3000F2E7C046FFFF00001403002000224260AB
:103D4000034B19000831016054338360C26070472F
:103D5000546F000000234360034B1A0008320260D6
:103D600054338360C1607047546F000070B5060023
:103D700000240025042C07DC33199878FCF78AFE10
:103D80002D180134E4B2F5E7280070BD10B5C06805
:103D9000002802D0FFF7EAFF10BD0020FCE700007A
:103DA00008B4024B9C46083808BC60478D3D0000B3
:103DB00070B500231C00032B1DDC9A00D218910063
:103DC0000E4D6D186A78002A02D00133DBB2F1E79C
:103DD00014320021280001F06DFF094B1A68094BCD
:103DE000D21A52110549A3001E19B0000A5409182D
:103DF00001234B7000E00025280070BD1C0300204B
:103E000020040020240400200123042B08DCC25CD1
:103E1000002A02D00133DBB2F7E7013BD8B200E061
:103E200004207047F0B5C64600B504008846160069
:103E3000170000F0A7FA002C33D06378002B34D0A1
:103E400006221A4233D1E01DFFF7DEFF05002018DD
:103E5000C379002B11D06319D879A189F21B424490
:103E6000BBB2FCF795FF3F1AA389C018A081002FB1
:103E70000EDD042DDDD00135EDB280208000FDF790
:103E8000ADF96319D8710028D3D00023A381E2E7EC
:103E9000084B1B680A332361B0B2BFB2C01B80B2AB
:103EA00000E0002004BC9046F0BD0020FAE70020AE
:103EB000F8E7C0462C01002000B583B06B46D971ED
:103EC0000733C06801221900FFF7ACFF03B000BD43
:103ED00008B4024B9C46083808BC6047B93E000055
:103EE00010B5C068FFF79EFF10BD000008B4024B7C
:103EF0009C46083808BC6047E13E000010B504004D
:103F000000F040FAE468E379002B02D1A020000120
:103F100010BDE01DFFF778FF4302A089C018A02361
:103F20001B01181AF4E710B504000078FDF7E4F956
:103F30000023032B05DCE218517811700133DBB24A
:103F4000F7E70023237110BDF8B5CE46474680B58C
:103F5000040088461700C368002B42D095B29B78B6
:103F6000002B07D1002038E0E3689A78002A26D099
:103F7000002D31DDE36898787A1B42442B00002144
:103F8000FCF7FAFE0600E3689878FCF783FD8642AA
:103F90001DD1AD1BADB2E368981CFFF7C4FFE1680B
:103FA0000A785201104B9B185B7EDB06DCD54B7800
:103FB00006221A42D8D1082213434B70D4E75A780C
:103FC000520702D500225A70E260781B05E0E368D0
:103FD00098783100FDF7AEF938000CBC9046994650
:103FE000F8BD01204042F8E72404002008B4024B49
:103FF0009C46083808BC6047493F000070B5060081
:104000000024042C08DC35192878FDF775F9002305
:104010002B700134E4B2F4E770BD10B50400C06841
:10402000002802D04378002B04D10023E36000F085
:10403000A9F910BD0230FFF7E1FFE2685378590794
:1040400003D402210B435370EFE700235370ECE7D6
:1040500008B4024B9C46083808BC60471B4000006F
:1040600010B5C068002802D00230FFF7C7FF10BDAE
:1040700008B4024B9C46083808BC60476140000009
:10408000F0B583B0704B1B68DE69002E10D0002E97
:1040900000D1D5E06D4B1B789B0746D56C4B1B8838
:1040A000002B42D0737806221A423ED100240DE044
:1040B000664B1B785B06EAD5FFF77AFE061EE6D054
:1040C000614B1B68D861E2E70134E4B2042C21DCC7
:1040D00033199B78002BF7D15D4B1888FDF77EF8DC
:1040E0003519A8700028EFD05A4B1B685A4A9B1A02
:1040F0009BB25A4A12785649098800910021FCF770
:104100002DFF042C11D1504B1A68537E10210B4304
:1041100053760AE0524A137801218B4313704A4BBD
:104120001A68537E10210B43537673781A070DD506
:10413000082293437370454A137802210B4313708E
:10414000414B1A68537E10218B4353763F4B1B78AB
:10415000DA0604D45AB2002A01DB9A061ED5F01DF5
:10416000FFF74CFFB378002B15D0374B1B689B88AB
:1041700033817378042213437370334B1B6800221E
:10418000DA610024334B18682100FEF797F9304BB1
:104190001C8003B0F0BD00237370EEE7DA0730D463
:1041A0000C221A4235D0F079002832D0337A002B15
:1041B0002BD1B489002C03DD22000021FDF7CEF8BD
:1041C000002CDFDD234B1B68234A9B1ADBB2254AF8
:1041D0001370E31898B2083080B2FCF7FFFF224B4F
:1041E00018700028CED01F4B19780131F279009455
:1041F0000023FCF7B3FE1A4A137802210B43137015
:10420000C0E7F01DFFF78FFECDE7FCF743FC04008D
:10421000D6E773789B0715D5F379002B07D00A4BA7
:104220001A68537E10210B4353760024AAE773705B
:10423000054A1268D3611022044B1A700024A1E7CA
:1042400000249FE700249DE72004002014040020A0
:10425000080400201C040020B8040020E80300200B
:10426000D6030020D4030020D503002010B5024956
:104270000120FFF74DFD10BDFFFF000010B5024902
:104280000020FFF745FD10BDFFFF000000B583B023
:10429000012801D003B000BD084B9942FAD100219A
:1042A00000910B000A000648FEF7E2FB0548FEF706
:1042B000D7FB0548443000F0C7FCEBE7FFFF0000E8
:1042C00070030020DC0300207803002010B584B0C8
:1042D000040002A8FEF7C4FB064B19885888C3B235
:1042E0000A0AC9B2000A00902000FEF7C1FB2000B4
:1042F00004B010BDB4040020024B0360024B5B68A5
:10430000436070473C6F0000DC03002070B5184B21
:104310001B789B0718D5174B1B78174A1078174A3C
:104320000121FCF735FD124A137802218B431370EB
:10433000114D2878FCF778FD04002878FCF7DCFFA5
:1043400000232B70200070BD0D4B1888083080B200
:10435000FCF744FF084B1870002801D10024F1E756
:10436000074B1B88054A0121FCF712FDE0E7C04618
:10437000D6030020D4030020D5030020B804002079
:104380000804002070B5FCF713FF002800D19BE063
:104390004E4B1B78002B0AD04C4B187800280BD1C1
:1043A0004B4B1E684B4B1D68751B00245AE0FCF7F5
:1043B00055FC464B1870EFE70122474B1A70FCF78B
:1043C00069FB464B1880002811DD454C3F4B18789F
:1043D000622322000021FCF7CFFC227B637B1B02BF
:1043E0001343082B11D0C122D20093421FD0374B68
:1043F0001B78002BD4D0384B1B78DB07D0D5FCF7CB
:1044000029FC0022314B1A70CAE7304B1A78354B21
:104410001A70FEF70FF90120FDF74AF82F4B1B88A1
:10442000002BE4DDFEF700FAFFF770FFDFE7FEF791
:1044300061F92A4B1B88002BD9DDFFF767FFD6E710
:10444000DB69002B0DD01B69F31A0AD40320FDF79A
:104450002FF8254B1B68DA691D4B1B680A33136163
:104460000CE00134032C12DC6301204A9B181E4A25
:104470001360002DE4DB0220FDF71AF8174B1B88B0
:10448000002BEEDDFEF7D0F9FFF740FFE9E7002D46
:104490001ADBFA360F4B1E60002406E02201144B93
:1044A0009B18D86800F082FC0134032C0CDC23013B
:1044B0000F4A9B180F4A13600520FCF7F9FF074BC2
:1044C0001B88002BEADCEFE770BDC046E803002044
:1044D0002C010020D8030020D6030020080400206F
:1044E000B8040020D503002020040020240400206C
:1044F000200500201804002010B504000D4B1B6897
:10450000FA330D4A1360FCF761FB2000FCF772FDE3
:1045100022780A4B1A7062785A70A2789A70E27800
:10452000DA7022791A7162795A71FCF76BFFFEF723
:1045300067F810BD2C010020D8030020880200205D
:1045400030B505792D0244792C43250224122C43E1
:1045500085792D02C0792843050200122843144DA5
:104560002C806880147924025079204304020012C0
:10457000204394792402D279224314021212224356
:104580000C4C20806280187900025A790243100294
:104590001212024398790002DB79034318021B12BE
:1045A00003430548028043804A68044B5A6030BD8B
:1045B000B4040020AC040020B0040020DC03002080
:1045C00030B589B00C00144D144B2B600800FFF778
:1045D00093FF28682100FFF703F80400012802D0A8
:1045E000200009B030BD0C4D29686846FEF799FCE3
:1045F000296802A8FEF7AAFC296804A8FEF79FFC18
:10460000296806A8FEF794FC06AB04AA02A968462E
:10461000FFF796FFE4E7C046E4030020780300209C
:1046200010B5013A8A1800E0023191420BD20B78A2
:104630001B024C781B199BB2C01880B29842F3DA67
:10464000013080B2F0E7914200D010BD0B781B0220
:10465000C01880B29842F8DA013080B2F5E7000065
:1046600010B5142205490020FFF7DAFF002801D118
:10467000034810BDFDF748FEFBE7C046C604002016
:10468000FFFF000070B505001A490C7C24024B7C2A
:10469000E418A4B2143CA4B2001980B21A31082262
:1046A000FFF7BEFF112D1DD02E23124AD55C2D0918
:1046B000AD00AEB232001049FFF7B2FF0300A542D1
:1046C0000CDA0E4B19780E4B1B789B070CD5232266
:1046D0009219A31B9BB2FCF72FFD0300002B05D101
:1046E000084870BD0825E4E72222F1E71800FDF72D
:1046F0000BFEF6E7B8040020DA040020D503002002
:10470000D6030020FFFF000010B5FFF7A9FF10BD82
:1047100010B50620FFF7B6FF10BD10B51120FFF74A
:10472000B1FF10BD10B502490120FFF7AFFD10BD6C
:10473000FFFF000010B502490020FFF7A7FD10BDE4
:10474000FFFF000010B582B06B46D97107330268D5
:10475000546801221900A04702B010BD10B5040032
:104760000800FDF7D1FD208123689B682000984751
:1047700010BD10B504000089FCF782FEFFF702FEB1
:104780000123A37210BD0000F0B583B007000E0036
:1047900001920E4C002500E014340D4B9C4211D2C6
:1047A0006378DB07F8D5227852010A4B9B189A8868
:1047B0003B899A42F0D1019A31002000FFF732FB89
:1047C0002D18E9E7280003B0F0BDC0461C03002007
:1047D0006C0300202404002000B583B0012801D020
:1047E00003B000BD054B9942FAD1002100910B00A6
:1047F0000A000348FEF73CF9F2E7C046FFFF00005D
:10480000EC03002070B5040000254560044B08331C
:1048100003600800FDF778FD2081A572200070BDBF
:10482000E06F000070B504000D00FFF7ABFD11490B
:1048300000E01431104B994217D28B78002BF8D03E
:104840004B78DA0707D5087840010C4A121890888F
:104850002A89904205D05B07EBD50A892B899A42B9
:10486000E7D12000FFF776FA02E02000FFF766FAB2
:10487000200070BD1C0300206C03002024040020D5
:1048800010B502490120FFF7A7FF10BDFFFF000090
:1048900010B502490020FFF79FFF10BDFFFF000089
:1048A00010B503689B6A984710BD08B4024B9C463C
:1048B000083808BC6047C046A148000010B582B067
:1048C0006B46D97107330268546801221900A0476A
:1048D00002B010BD08B4024B9C46083808BC6047C3
:1048E000BD48000000B583B003689B6A0122694699
:1048F00007319847002803DD6B46D87903B000BD27
:1049000001204042FAE7000008B4024B9C460838F8
:1049100008BC6047E548000070B504000E00C3689D
:10492000002B0BD0E568002D0ED03000FDF7ECFC1D
:10493000A880E3681034DC60012070BD00210020F5
:10494000FDF762FDE060EDE70020F6E708B4024BFA
:104950009C46083808BC60471949000010B5C36878
:10496000002B03D0D888FDF7CFFC10BD0020FCE75A
:1049700008B4024B9C46083808BC60475D490000FB
:1049800010B50400C268002A13D000239380C268C7
:10499000D360C360C07CFCF7AFFCA07CFCF7ACFC30
:1049A000207DFCF7A9FC200010300622002101F038
:1049B00081F910BD08B4024B9C46083808BC60471A
:1049C0008149000010B50400FFF7DCFCE07CFCF737
:1049D00093FC0023E37410BD08B4024B9C460838D6
:1049E00008BC6047C549000070B582B004000D00E6
:1049F0001600FFF7C7FC2B79002B08D16A79002A33
:104A000005D1AA79002A02D1EA79002A2BD0002EFA
:104A10002BD00122002A1DD01A026B7913431A02EF
:104A20001B12134301AA1380A9790902EB790B43E6
:104A300019021B120B435380E568002D17D030007C
:104A4000FDF762FCE88001AB1A88E1680A805B88A8
:104A5000E2685380E368002B25D0237D002B16D01D
:104A6000002002B070BD0022D4E70022D2E730005F
:104A7000FDF74AFC010001A8FDF7C6FCE060002834
:104A800003D023001033C360E4E70020E9E70748C0
:104A9000FCF7A4FB20752B232382002801D10020E2
:104AA000DFE70120DDE70020DBE7C0460E0600005F
:104AB00008B4024B9C46083808BC6047E94900002E
:104AC00070B50400007D002801D1002070BD93B2B4
:104AD000258A0A002900FCF75BF9228A83182382C1
:104AE000F4E7000008B4024B9C46083808BC604755
:104AF000C14A000010B50400FFF744FCE07C002828
:104B000006D1A07CE0740023A374FBF7C3FF10BDA3
:104B1000FCF7F2FBF5E7000008B4024B9C460838AE
:104B200008BC6047F54A000010B50400FFF72AFCF6
:104B3000E07CFBF7AFFF10BD08B4024B9C46083881
:104B400008BC6047294B000010B582B00400FFF795
:104B500019FCE07C00280ED001236A4607320021B0
:104B6000FCF70AF9012803D16B46D87902B010BDD1
:104B700001204042FAE701204042F7E708B4024B27
:104B80009C46083808BC6047494B000070B50500DA
:104B90000E001400FFF7F6FBE87C002801D100208E
:104BA00070BDA3B232000021FCF7E6F80400E87CF7
:104BB000FBF770FF844205D0E87C2100FCF7BAFBCC
:104BC0002000EDE7E87CFCF797FB0023EB74F7E7A8
:104BD00008B4024B9C46083808BC60478D4B000067
:104BE00010B582B00400CB68002B0CD0198858880F
:104BF000C3B20A0AC9B2000A00902000FDF738FFCC
:104C0000200002B010BDFDF72BFFF9E708B4024BFE
:104C10009C46083908BC6047E14B000000B583B0F2
:104C2000012801D003B000BD054B9942FAD1002103
:104C300000910B000A000348FDF71AFFF2E7C04697
:104C4000FFFF0000F403002010B5040000224260C2
:104C5000064B19000831016050338360C260103088
:104C60000632002101F026F8200010BDF86F000088
:104C700070B590B005000C00160003A8FDF7F0FE1B
:104C800006A8FFF7E1FF01A8FDF7EAFE0D490CA811
:104C9000FFF732FB0CA903A8FEF7D6FC01AA2100FE
:104CA00003A8FEF7C7FE012801D010B070BD2B6825
:104CB0001B69054A0E92029A0F9232000EA9280033
:104CC0009847F2E76C0300203C6F000008B4024BE9
:104CD0009C46083808BC6047714C000070B582B033
:104CE0002A4B1B68DC68002C0DD0294A12789207E9
:104CF00002D5A278002A08D0254B1B781B0702D5C5
:104D00006379002B30D102B070BD224A2221505C61
:104D10000131515C09020143D980907ED17E0902A4
:104D200001431980194B1968107F537F1B020343FD
:104D30004B802623D35C2721505C00021843FDF7EB
:104D4000E3FA083880B2FCF749FA051EA070D3D008
:104D5000114B1E78FBF79EFE00902A2332000021A3
:104D60002800FCF7FBF8C7E722790C4B1A700C4AB5
:104D7000137802210B4313702A220A4B1A700A4B34
:104D8000186821882B39FDF799FBBCE7180400202F
:104D900014040020B8040020E8030020D5030020FC
:104DA000D6030020D40300201C04002010B504000A
:104DB000FDF73AFD0A4B1B882A2B05D0FFF7A6FA10
:104DC00000236371237110BD0022064B1A70064A3E
:104DD000137802218B431370FFF798FAF3E7C0466C
:104DE00008040020D5030020D603002010B50400DD
:104DF000C368002B1CD0007D002801D1002010BD0D
:104E000001236375228A073292B20021FCF7A6FAC9
:104E1000094BE2681A600520FCF74AFB074B1B8828
:104E2000002B07DD20001030FFF7C0FF0120E6E770
:104E30000020E4E70020E2E7180400200804002036
:104E400008B4024B9C46083808BC6047ED4D000092
:104E500010B502490120FFF7E1FE10BDFFFF000081
:104E600010B502490020FFF7D9FE10BDFFFF00007A
:104E700010B500F0B3FE582303600120404210BD7E
:104E800010B500F0ABFE582303600120404210BD76
:104E900010B500F0A3FE58230360002010BD10B52C
:104EA00000F09CFE582303600120404210BD00002A
:104EB0000B490C4A0C4B9B1A03DD043BC858D050DD
:104EC000FBDC0A485921016016210160882101603C
:104ED000074808490160054800210160FBF720F9F7
:104EE000F071000000000020BC0000200001005014
:104EF00060000050A55A0000FEE7C04610B582B021
:104F0000234B1B680193234B1B6AA022D20213423E
:104F100019D11A0315D520489A0315D4990B0322E9
:104F20000A4001A98C5CDA05D20D02325B0A1F210E
:104F30001940023180085043614300F041F880007D
:104F400002E01648E8E70020154B1860114B1A697B
:104F50000723134019D0022B02D0032B13D00E4885
:104F60000C4B9B690F211940013100F029F80D4BC2
:104F700018600D4B9C4660440C4900F021F80C4B26
:104F8000186002B010BD0B48EAE70448E8E7C046E5
:104F9000887000000002005000805101001BB70023
:104FA000040000206405002020A1070040420F00FB
:104FB000680500201027000010B500F059FE10BD54
:104FC000002243088B4274D303098B425FD3030A48
:104FD0008B4244D3030B8B4228D3030C8B420DD35B
:104FE000FF22090212BA030C8B4202D312120902E9
:104FF00065D0030B8B4219D300E0090AC30B8B4227
:1050000001D3CB03C01A5241830B8B4201D38B03D4
:10501000C01A5241430B8B4201D34B03C01A524179
:10502000030B8B4201D30B03C01A5241C30A8B42BC
:1050300001D3CB02C01A5241830A8B4201D38B02A7
:10504000C01A5241430A8B4201D34B02C01A52414B
:10505000030A8B4201D30B02C01A5241CDD2C309BD
:105060008B4201D3CB01C01A524183098B4201D339
:105070008B01C01A524143098B4201D34B01C01A24
:10508000524103098B4201D30B01C01A5241C3089C
:105090008B4201D3CB00C01A524183088B4201D30B
:1050A0008B00C01A524143088B4201D34B00C01AF7
:1050B0005241411A00D20146524110467047FFE763
:1050C00001B5002000F006F802BDC0460029F7D067
:1050D00076E770477047C0469E2110B5C905041C8D
:1050E00000F0ACFC002803D1201C00F011FC10BD26
:1050F0009E21201CC90500F06FFA00F009FC8023F6
:105100001B069C466044F2E7F0B557464E46DE4625
:105110004546E0B544024300C60F83B00F1C640A45
:105120001B0EB24653D0FF2B27D08022E400D204BE
:1051300014437F22524290469844002399469B464E
:105140007D027800FB0F6D0A000E009324D0FF282B
:1051500046D080230021ED00DB041D437F38474605
:10516000381A4F460F43BF00B9463300009A874FA5
:1051700053404A46BA5801939746002C4ED1082313
:105180009946F7339846FD3B9B467D027800FB0F1E
:105190006D0A000E0093DAD1002D26D100200121E6
:1051A0003300009A7A4F53404246101A4A460A4347
:1051B0009200BA581D009746009B2C009A468B46D9
:1051C0005B46022B31D15346FF21002438E0002CEE
:1051D00017D1042399460023984601339B46AFE735
:1051E000FF20002D0BD10221DAE7280000F030FC6F
:1051F000431F9D4076235B42181A0021AFE703212D
:10520000ADE7200000F024FC431F9C4076235B4266
:105210001B1A9846002399469B4691E70C23994612
:10522000F3339846FC3B9B468AE7032B00D1A5E06D
:105230005546012B00D081E00123002100242B40A2
:105240006402C905600ADB070843184303B03CBC8D
:1052500090469946A246AB46F0BD80240023E40365
:10526000FF21EDE7FF210024EAE70123591A1B295A
:1052700066DD019A134000210024E1E78023DB036F
:105280001C4238D01D4251D01C436402640A3300D2
:10529000FF21D5E763016C01A3423BD21B2600210D
:1052A000013801251F0049005B00002F01DB9C42F3
:1052B00001D81B1B2943013E002EF3D11C00631EA5
:1052C0009C410C4301007F310029CEDD630704D0EF
:1052D0000F232340042B00D00434230103D5010005
:1052E0002C4B80311C40FE290DDD0123019AFF214A
:1052F00013400024A4E78023DB031C436402640AF8
:105300003300FF219CE70123019AA401640AC9B27A
:10531000134095E71B1B1A260121C2E7009B8B4611
:105320009A4600244CE76302E5D500258024E40377
:105330002C436402640A009BFF2181E70195C1E7C9
:1053400023002020CB40411A8C40611E8C411C431D
:10535000630704D00F232340042B00D004346301DF
:1053600005D50123019A01211340002468E7012398
:10537000019AA401640A1340002161E78023DB0342
:105380001C436402640A5346FF2159E78C700000F5
:10539000CC700000FFFFFFF7F8B557464E46454674
:1053A000DE46E0B54702460088467F0A360EC40F47
:1053B000002E47D0FF2E24D0FB008027FF041F4380
:1053C000002399469A467F3E43465D025800DB0F14
:1053D0006D0A000E984643D0FF283BD0EB00802595
:1053E0000022ED041D437F383618731C41469B464E
:1053F0004B46614013430F2B64D875489B00C3583C
:105400009F46002F42D108239946063BFF269A4625
:10541000DAE74146022A28D0032A00D1CEE0012A49
:1054200000D0ACE0114000200022CCB24002D205F6
:10543000400AE407104320433CBC90469946A246EC
:10544000AB46F8BD002F15D104239946033B002637
:105450009A46B9E7FF200222002DC5D00322C3E7F8
:10546000002D19D100200122BEE70124FF220C40AB
:105470000020DBE7380000F0EBFA7626431F9F4060
:1054800000237642361A99469A469DE70C239946A0
:10549000093BFF269A4697E7280000F0D9FA431FF8
:1054A0009D4076235B42181A00229DE7802000244D
:1054B000C003FF22BAE73D005246ABE73D002100A2
:1054C0005246A7E73B0C9C462A04120C2B0C1400F6
:1054D000604665463F043F0C7C4342435D437B434B
:1054E000270C9B18FF18BA4203D980235B029C4605
:1054F000654424043A04240C121993015C1EA34150
:105500003F0C920E7D191A43AD0115432B0104D5B2
:1055100001235E466A081D40154332007F32002A8F
:1055200025DD6B0704D00F232B40042B00D004355E
:105530002B0103D53200274B80321D40FE2A94DC1C
:105540000124A801400AD2B20C406FE78020C003BA
:10555000074207D0054205D128434002400A44468D
:10556000FF2263E738434002400AFF225EE701243E
:10557000A31A1B2B05DD0C400022002056E75E46D7
:10558000CBE72A002020DA40C31A9D402B005D1E85
:10559000AB4113435A0704D00F221A40042A00D00B
:1055A00004335A0104D5012401220C4000203DE7B8
:1055B00001249B01580A0C40002237E78020012477
:1055C000C00328434002400A0C40FF222EE7C04699
:1055D0000C710000FFFFFFF7F0B54F46D646464678
:1055E0004400C0B5C20F47024802400A84466646DE
:1055F0007B0A4800C90F9A46240E1500DB00000EF6
:105600008946F600FF2800D18FE001214F464F4028
:105610003900914266D0221A002A00DC9DE0002861
:105620003DD1002E00D18BE0511E002900D0B5E005
:1056300001249B1B5A0144D59B019F09380000F0AF
:1056400007FA05388740844200DD96E0041B3A00E3
:1056500020200134E240041BA7403B005F1EBB41F9
:10566000002413435A0704D00F221A40042A00D002
:1056700004335A0127D50134FF2C00D179E00122EF
:105680009B015B0AE4B22A405B02E405580AD20798
:10569000204310431CBC90469946A246F0BDFF2C07
:1056A000E0D08021C9040E431B2A7BDC310020207E
:1056B000D140821A9640721E96410E439B1B5A019E
:1056C000BAD45A07D0D10122DF082A40FF2C33D1A7
:1056D000002F00D1A8E08023DB033B435B025B0A81
:1056E000FF24D1E7211A00294CDD00282AD0FF2C05
:1056F000B8D08020C00406431B2900DDAFE0300095
:105700002027C840791A8E40711E8E4106439B198E
:105710005901D6D50134FF2C00D185E001227A4908
:105720001A405B080B4013439CE7002E00D070E743
:105730006BE73B1EC5D100227B025B0AE4B2A3E704
:1057400014008FE7002E4DD0481E002857D19B191A
:1057500001245A01B5D50224E0E7002A25D1621CB4
:10576000D2B2012A72DD9F1B7A0135D5F71A0D00DE
:1057700064E7012200232A4086E73B00634A241A9B
:1057800013406FE700296CD1611CC8B201284EDDBF
:10579000FF2949D09B195B080C0063E7FF2A41D021
:1057A0000A0081E701269B1B89E7002C1CD0FF28FB
:1057B00021D08024E404524223431B2A00DD96E0DA
:1057C0001C002025D440AA1A93405A1E934123431B
:1057D000F31A04000D002DE7002F00D02EE7002261
:1057E0000024A9E70C003DE7002B58D0D243002A43
:1057F000EED0FF28E1D13300FF240D0032E7FF296E
:1058000010D0010078E7002B6ED0FF24002E00D1CD
:1058100028E780225146D203114203D0614611424B
:1058200000D13300FF241DE7FF2400232CE7002CC8
:10583000E9D1002B63D0002E00D113E79B195A0148
:1058400000D43EE7314A0C0013400BE7002C1ED178
:10585000002B2FD1002E4FD033000D0002E7012680
:1058600055E7002C1FD1002B43D0C94300290BD092
:10587000FF2839D01B2944DC1C002027CC40791A92
:105880008B40591E8B4123439B19040040E7002B9A
:105890001AD1002E24D180270022FF031BE73300FA
:1058A00004000D00DEE6FF281ED08024E4044942F7
:1058B0002343DFE7002E00D1D4E69F1B7A0100D4FA
:1058C00037E7F31A0D00CDE6FF24002E00D1C9E61C
:1058D00080225046D2031042A4D060461042A1D18B
:1058E00033000D00FF24BDE63300FF24BAE6012398
:1058F0006EE733000400B5E6002700221CE7330002
:10590000B0E60123C0E7C046FFFFFF7DFFFFFFFBBE
:1059100041024300C20F490A1B0E00207E2B0DDD01
:105920009D2B0CDC802000040143952B0ADC962083
:10593000C31AD9404842002A00D108007047034BDF
:10594000D018FBE7963B9940F4E7C046FFFFFF7F86
:1059500010B5041E27D000F07BF89E231B1A962B4F
:105960000ADC9622D21A94406402640ADBB2640212
:10597000DB05600A184310BD992B17DC9922D21A57
:10598000002A27DD94402200134C1440510704D014
:105990000F210A40042A00D00434620112D4A40169
:1059A000640ADBB2E3E700230024E0E7B922210028
:1059B000D21A91400A00511E8A410521091ACC4091
:1059C0001443DBE7044B1C409F23A4011B1A640A09
:1059D000DBB2CCE72200D7E7FFFFFFFB8446081CC1
:1059E0006146FFE71FB500F0B7F8002801D4002199
:1059F000C8421FBD10B500F049F84042013010BD4B
:105A000010B500F0A9F8002801DB002010BD01202E
:105A100010BDC04610B500F09FF8002801DD002041
:105A200010BD012010BDC04610B500F055F800288B
:105A300001DC002010BD012010BDC04610B500F0F3
:105A40004BF8002801DA002010BD012010BDC0462F
:105A50001C2101231B04984201D3000C10391B0A9E
:105A6000984201D3000A08391B09984201D3000962
:105A7000043902A2105C40187047C04604030202B9
:105A800001010101000000000000000070B54200AB
:105A900045024E024C00C30F6D0A120E760A240E08
:105AA000C90F0120FF2A06D0FF2C03D0A24201D14A
:105AB000B54206D070BD002DFCD1FF2CFAD1002ECE
:105AC000F8D18B4206D00120002AF3D12800451ED0
:105AD000A841EFE70020EDE7F0B5420045024C0297
