:020000040800F2
:100000000000022035770008657500087375000848
:10001000797500087F7500088575000800000000EC
:100020000000000000000000000000008B750008C8
:100030009975000800000000A7750008B575000854
:1000400085770008857700088577000885770008A0
:100050008577000885770008857700088577000890
:100060008577000885770008857700088577000880
:100070008577000885770008857700088577000870
:100080008577000885770008857700088577000860
:100090008577000885770008857700088577000850
:1000A0008577000885770008857700088577000840
:1000B000C1750008857700088577000885770008F6
:1000C0008577000885770008857700088577000820
:1000D0008577000885770008857700088577000810
:1000E0008577000885770008857700088577000800
:1000F00085770008857700088577000885770008F0
:1001000085770008857700088577000885770008DF
:1001100085770008857700088577000885770008CF
:1001200085770008857700088577000885770008BF
:1001300085770008857700088577000885770008AF
:10014000857700088577000885770008857700089F
:10015000857700088577000885770008857700088F
:10016000857700088577000885770008857700087F
:100170008577000885770008857700080000000073
:0801800085770008857700086F
:1001900010B5054C237833B9044B13B10448AFF3C1
:1001A00000800123237010BDCC000020000000005F
:1001B000888A000808B5034B1BB103490348AFF315
:1001C000008008BD00000000D0000020888A0008E0
:1001D000034613F8012B002AFBD1181A0138704787
:1001E00001F0FF01102A2BDB10F0070F08D010F8E8
:1001F000013B013A8B422DD010F0070F42B3F6D1EC
:10020000F0B441EA012141EA014122F007047FF004
:1002100000070023F0E80256083C85EA010586EA5B
:10022000010685FA47F5A3FA87F586FA47F6A5FA97
:1002300087F68EB9EED1F0BC01F0FF0102F00702A3
:1002400032B110F8013B013A83EA010313B1F8D14E
:100250000020704701387047002D06BF354603382F
:10026000073815F0010F07D1013015F4807F02BF68
:10027000013015F4C03F0130F0BC0138704700BFB9
:1002800053B94AB9002908BF00281CBF4FF0FF31FD
:100290004FF0FF3000F07AB9ADF1080C6DE904CEF3
:1002A00000F006F8DDF804E0DDE9022304B0704751
:1002B0002DE9F0478C460D460446089E002B51D18F
:1002C0008A4217466DD9B2FA82FEBEF1000F0BD0FA
:1002D000CEF1200C01FA0EF520FA0CFC02FA0EF712
:1002E0004CEA050C00FA0EF44FEA174A250CBCFB49
:1002F000FAF81FFA87F90AFB18CC45EA0C4508FB07
:1003000009F3AB420AD9ED1908F1FF3280F02381DD
:10031000AB4240F22081A8F102083D44ED1AA4B29C
:10032000B5FBFAF00AFB105544EA054400FB09F955
:10033000A14509D9E41900F1FF3380F00A81A145F4
:1003400040F2078102383C44A4EB090440EA08402B
:100350000021002E61D024FA0EF400233460736073
:10036000BDE8F0878B4207D9002E54D0002186E8E3
:1003700021000846BDE8F087B3FA83F1002940F078
:100380008E80AB4202D3824200F2FA80841A65EB7F
:1003900003050120AC46002E3FD086E81010BDE8D2
:1003A000F08712B90127B7FBF2F7B7FA87FEBEF163
:1003B000000F34D1EB1B3A0C1FFA87FC0121B3FB71
:1003C000F2F8250C02FB183345EA03450CFB08F351
:1003D000AB4207D9ED1908F1FF3002D2AB4200F26F
:1003E000D1808046ED1AA3B2B5FBF2F002FB1055A6
:1003F00043EA05440CFB00FCA44507D9E41900F1CD
:10040000FF3302D2A44500F2B8801846A4EB0C04D6
:1004100040EA08409DE731463046BDE8F087CEF11E
:10042000200405FA0EF307FA0EF720FA04F83A0C46
:1004300025FA04F448EA0308B4FBF2F14FEA184540
:1004400002FB11441FFA87FC45EA044501FB0CF34B
:10045000AB4200FA0EF409D9ED1901F1FF3080F03A
:100460008A80AB4240F2878002393D44EB1A1FFA82
:1004700088F5B3FBF2F002FB103345EA034500FBBD
:100480000CF3AB4207D9ED1900F1FF386FD2AB4244
:100490006DD902383D44EB1A40EA01418FE7C1F1C2
:1004A000200722FA07F88B4005FA01F448EA030313
:1004B00020FA07FE4FEA134CFD404EEA040EB5FB4E
:1004C000FCF94FEA1E440CFB19551FFA83F844EA65
:1004D000054509FB08F4AC4202FA01F200FA01FA00
:1004E00008D9ED1809F1FF3043D2AC4241D9A9F146
:1004F00002091D442D1B1FFA8EFEB5FBFCF00CFB00
:1005000010554EEA054400FB08F8A04507D9E41849
:1005100000F1FF3529D2A04527D902381C4440EA12
:100520000940A4EB0804A0FB02894C45C6464D4691
:1005300015D312D056B1BAEB0E0364EB050404FADE
:1005400007F7CB401F43CC40376074600021BDE803
:10055000F0871846F8E69046E0E6C245EAD2B8EBE6
:10056000020E69EB03050138E4E72846D7E7404669
:1005700091E78146BEE7014678E702383C4445E70B
:10058000084608E7A8F102083D442BE7704700BF82
:1005900080B500AF0E4A0E4B1B6843F40073136026
:1005A0000B4A0B4B1B6843F480631360084A084BEB
:1005B0001B6843F480731360032000F029F90020C6
:1005C00000F008F806F03EFF0023184680BD00BF8B
:1005D000003C024080B582B000AF7860124B1A68D0
:1005E000124B1B7819464FF47A73B3FBF1F3B2FB4D
:1005F000F3F3184600F041F90346002B01D0012324
:100600000EE07B680F2B0AD8002279684FF0FF308C
:1006100000F009F9064A7B681360002300E001231B
:1006200018460837BD4680BD640000200400002045
:100630000000002080B400AF064B1B781A46064B22
:100640001B681344044A136000BFBD465DF8047B79
:10065000704700BF040000203801002080B400AFC4
:10066000034B1B681846BD465DF8047B704700BF0E
:100670003801002080B485B000AF78607B6803F05B
:100680000703FB600C4BDB68BB60BA684FF6FF03E7
:100690001340BB60FB681A02BB68134343F0BF639F
:1006A00043F40033BB60044ABB68D36000BF143717
:1006B000BD465DF8047B704700ED00E080B400AFFC
:1006C000044BDB681B0A03F007031846BD465DF8C0
:1006D000047B704700ED00E080B483B000AF0346B8
:1006E000FB7197F90730002B0BDB094997F90730AD
:1006F0005B09FA7902F01F02012000FA02F241F8C8
:10070000232000BF0C37BD465DF8047B704700BF57
:1007100000E100E080B483B000AF03463960FB71B4
:1007200097F90730002B0ADB0D4997F907303A6833
:10073000D2B21201D2B20B4483F800230AE0094975
:10074000FB7903F00F03043B3A68D2B21201D2B234
:100750000B441A7600BF0C37BD465DF8047B70472A
:1007600000E100E000ED00E080B489B000AFF86087
:10077000B9607A60FB6803F00703FB61FB69C3F1B2
:100780000703042B28BF0423BB61FB690433062B3A
:1007900002D9FB69033B00E000237B610122BB69B6
:1007A00002FA03F35A1EBB681A407B699A40012182
:1007B0007B6901FA03F3591E7B680B40134318460B
:1007C0002437BD465DF8047B7047000080B582B0D9
:1007D00000AF78607B68013BB3F1807F01D30123D8
:1007E0000FE00A4A7B68013B53600F214FF0FF3056
:1007F000FFF790FF054B00229A60044B07221A6016
:10080000002318460837BD4680BD00BF10E000E059
:1008100080B582B000AF78607868FFF72BFF00BF2B
:100820000837BD4680BD80B586B000AF0346B960CD
:100830007A60FB7300237B61FFF740FF78617A6881
:10084000B9687869FFF790FF024697F90F301146B3
:100850001846FFF75FFF00BF1837BD4680BD80B563
:1008600082B000AF0346FB7197F907301846FFF7D7
:1008700033FF00BF0837BD4680BD80B582B000AFF2
:1008800078607868FFF7A2FF034618460837BD4630
:1008900080BD000080B489B000AF7860396000236B
:1008A0007B6100233B610023BB610023FB616BE1A3
:1008B0000122FB6902FA03F37B613B681A687B69DA
:1008C00013403B613A697B699A4240F05A813B6828
:1008D0005B68012B0BD03B685B68022B07D03B6841
:1008E0005B68112B03D03B685B68122B30D17B68AF
:1008F0009B68BB61FB695B00032202FA03F3DB43E5
:10090000BA691340BB613B68DA68FB695B0002FAB5
:1009100003F3BA691343BB617B68BA699A607B6869
:100920005B68BB610122FB6902FA03F3DB43BA692E
:100930001340BB613B685B681B0903F00102FB6964
:1009400002FA03F3BA691343BB617B68BA695A6060
:100950007B68DB68BB61FB695B00032202FA03F37F
:10096000DB43BA691340BB613B689A68FB695B0073
:1009700002FA03F3BA691343BB617B68BA69DA60B0
:100980003B685B68022B03D03B685B68122B23D16A
:10099000FB69DA087B68083253F82230BB61FB69D7
:1009A00003F007039B000F2202FA03F3DB43BA694B
:1009B0001340BB613B681A69FB6903F007039B00A6
:1009C00002FA03F3BA691343BB61FB69DA087B6877
:1009D0000832B96943F822107B681B68BB61FB6968
:1009E0005B00032202FA03F3DB43BA691340BB61E5
:1009F0003B685B6803F00302FB695B0002FA03F3E8
:100A0000BA691343BB617B68BA691A603B685B686B
:100A100003F08053002B00F0B4800023FB605F4A9A
:100A20005E4B5B6C43F4804353645C4B5B6C03F440
:100A30008043FB60FB685A4AFB699B08023352F80B
:100A40002330BB61FB6903F003039B000F2202FA12
:100A500003F3DB43BA691340BB617B68514A93429D
:100A60002BD07B68504A934225D07B684F4A9342F3
:100A70001FD07B684E4A934219D07B684D4A9342FF
:100A800013D07B684C4A93420DD07B684B4A93420B
:100A900007D07B684A4A934201D107230EE008231E
:100AA0000CE006230AE0052308E0042306E0032304
:100AB00004E0022302E0012300E00023FA6902F0CF
:100AC000030292009340BA691343BB613449FB6946
:100AD0009B080233BA6941F823203A4B1B68BB617B
:100AE0003B69DB43BA691340BB613B685B6803F455
:100AF0008033002B03D0BA693B691343BB61314A91
:100B0000BB6913602F4B5B68BB613B69DB43BA6910
:100B10001340BB613B685B6803F40033002B03D0D8
:100B2000BA693B691343BB61264ABB695360254BD5
:100B30009B68BB613B69DB43BA691340BB613B689F
:100B40005B6803F48013002B03D0BA693B6913433D
:100B5000BB611C4ABB6993601A4BDB68BB613B6994
:100B6000DB43BA691340BB613B685B6803F4001365
:100B7000002B03D0BA693B691343BB61114ABB69BF
:100B8000D360FB690133FB61FB690F2B7FF690AEED
:100B900000BF2437BD465DF8047B70470038024033
:100BA00000380140000002400004024000080240FA
:100BB000000C0240001002400014024000180240E5
:100BC000001C0240003C014080B483B000AF78605C
:100BD0000B467B8013467B707B78002B03D07A8892
:100BE0007B689A6103E07B881A047B689A6100BF86
:100BF0000C37BD465DF8047B7047000080B586B0B9
:100C000000AF78607B68002B01D101235BE27B6839
:100C10001B6803F00103002B75D0A34B9B6803F006
:100C20000C03042B0CD0A04B9B6803F00C03082B87
:100C300012D19D4B5B6803F48003B3F5800F0BD199
:100C4000994B1B6803F40033002B5BD07B685B6817
:100C5000002B57D1012336E27B685B68B3F5803FF8
:100C600006D1914A904B1B6843F4803313601DE01A
:100C70007B685B68B3F5A02F0CD18B4A8A4B1B684D
:100C800043F480231360884A874B1B6843F4803306
:100C900013600BE0844A844B1B6823F48033136099
:100CA000814A814B1B6823F4802313607B685B6857
:100CB000002B13D0FFF7D2FC386108E0FFF7CEFC21
:100CC00002463B69D31A642B01D90323FBE1764B1F
:100CD0001B6803F40033002BF0D014E0FFF7BEFCD8
:100CE000386108E0FFF7BAFC02463B69D31A642B6F
:100CF00001D90323E7E16C4B1B6803F40033002B9D
:100D0000F0D100E000BF7B681B6803F00203002BFA
:100D100063D0654B9B6803F00C03002B0BD0624B38
:100D20009B6803F00C03082B1CD15F4B5B6803F43A
:100D30008003002B16D15C4B1B6803F00203002BD1
:100D400005D07B68DB68012B01D00123BBE156494C
:100D5000554B1B6823F0F8027B681B69DB001343CB
:100D60000B603AE07B68DB68002B20D04F4B012200
:100D70001A60FFF773FC386108E0FFF76FFC02466A
:100D80003B69D31A022B01D903239CE1464B1B6814
:100D900003F00203002BF0D04349434B1B6823F0C0
:100DA000F8027B681B69DB0013430B6015E03F4BC7
:100DB00000221A60FFF752FC386108E0FFF74EFC92
:100DC00002463B69D31A022B01D903237BE1364B40
:100DD0001B6803F00203002BF0D17B681B6803F053
:100DE0000803002B30D07B685B69002B16D0304B9A
:100DF00001221A60FFF732FC386108E0FFF72EFC91
:100E000002463B69D31A022B01D903235BE1264B2F
:100E10005B6F03F00203002BF0D015E0244B00229F
:100E20001A60FFF71BFC386108E0FFF717FC024669
:100E30003B69D31A022B01D9032344E11A4B5B6FA0
:100E400003F00203002BF0D17B681B6803F004035E
:100E5000002B00F0A0800023FB75134B1B6C03F0EC
:100E60008053002B0FD10023BB600F4A0E4B1B6C2D
:100E700043F0805313640C4B1B6C03F08053BB6036
:100E8000BB680123FB750B4B1B6803F48073002BBD
:100E900021D1084A074B1B6843F480731360FFF7A6
:100EA000DDFB386111E000BF00380240000047421E
:100EB000800E474200700040FFF7D0FB02463B69BE
:100EC000D31A022B01D90323FDE0814B1B6803F4E5
:100ED0008073002BF0D07B689B68012B06D17D4A84
:100EE0007C4B1B6F43F0010313671CE07B689B681E
:100EF000052B0CD1774A774B1B6F43F00403136724
:100F0000744A744B1B6F43F0010313670BE0714A83
:100F1000704B1B6F23F0010313676E4A6D4B1B6F01
:100F200023F0040313677B689B68002B15D0FFF741
:100F300095FB38610AE0FFF791FB02463B69D31A43
:100F400041F28832934201D90323BCE0614B1B6F0D
:100F500003F00203002BEED014E0FFF77FFB3861B3
:100F60000AE0FFF77BFB02463B69D31A41F2883265
:100F7000934201D90323A6E0564B1B6F03F00203F3
:100F8000002BEED1FB7D012B05D1524A514B1B6C3E
:100F900023F0805313647B689B69002B00F09280E0
:100FA0004C4B9B6803F00C03082B5CD07B689B695F
:100FB000022B41D1484B00221A60FFF74FFB3861EA
:100FC00008E0FFF74BFB02463B69D31A022B01D91D
:100FD000032378E03F4B1B6803F00073002BF0D134
:100FE0003C497B68DA697B681B6A1A437B685B6AE9
:100FF0009B011A437B689B6A5B08013B1B041A43F5
:101000007B68DB6A1B0613434B60334B01221A607B
:10101000FFF724FB386108E0FFF720FB02463B693D
:10102000D31A022B01D903234DE02A4B1B6803F08E
:101030000073002BF0D045E0274B00221A60FFF729
:101040000DFB386108E0FFF709FB02463B69D31A44
:10105000022B01D9032336E01E4B1B6803F00073FB
:10106000002BF0D12EE07B689B69012B01D101237D
:1010700029E0184B5B68FB60FB6803F480027B6827
:10108000DB699A421CD1FB6803F03F027B681B6A54
:101090009A4215D1FA6847F6C07313407A68526ACB
:1010A00093420DD1FB6803F440327B689B6A9A42FD
:1010B00006D1FB6803F070627B68DB6A9A4201D05C
:1010C000012300E0002318461837BD4680BD00BF4D
:1010D00000700040003802406000474280B584B094
:1010E00000AF786039607B68002B01D10123CCE030
:1010F000684B1B6803F00F023B689A420CD2654BA9
:101100003A68D2B21A70634B1B6803F00F023B6857
:101110009A4201D00123B8E07B681B6803F0020308
:10112000002B20D07B681B6803F00403002B05D044
:10113000594A594B9B6843F4E05393607B681B68A2
:1011400003F00803002B05D0534A534B9B6843F42C
:10115000604393605049504B9B6823F0F0027B68DA
:101160009B6813438B607B681B6803F00103002BB3
:1011700044D07B685B68012B07D1474B1B6803F4A5
:101180000033002B19D101237FE07B685B68022BC1
:1011900003D07B685B68032B07D13F4B1B6803F0D0
:1011A0000073002B09D101236FE03B4B1B6803F058
:1011B0000203002B01D1012367E03749364B9B68BE
:1011C00023F003027B685B6813438B60FFF746FAEA
:1011D000F8600AE0FFF742FA0246FB68D31A41F2D0
:1011E0008832934201D903234FE02B4B9B6803F0D5
:1011F0000C027B685B689B009A42EBD1254B1B6815
:1012000003F00F023B689A420CD9224B3A68D2B2E3
:101210001A70204B1B6803F00F023B689A4201D002
:10122000012332E07B681B6803F00403002B08D025
:101230001949194B9B6823F4E0527B68DB68134320
:101240008B607B681B6803F00803002B09D01249F0
:10125000114B9B6823F460427B681B69DB001343DE
:101260008B6000F021F801460B4B9B681B0903F0D3
:101270000F030A4AD35C21FA03F3094A1360094BAE
:101280001B681846FFF7A6F9002318461037BD461D
:1012900080BD00BF003C024000380240588D00086D
:1012A00064000020000000202DE9F04F87B000AF5F
:1012B0000022FA6000227A610022BA6000223A61BC
:1012C000514A926802F00C02042A07D0082A08D07A
:1012D000002A40F090804D4B3B618FE04C4B3B61CE
:1012E0008CE0494A526802F03F02FA60464A52686E
:1012F00002F48002002A23D0434B5B689B094FF025
:10130000000440F2FF114FF0000203EA010304EA77
:1013100002043F4A02FB04F1002202FB03F20A44EA
:101320003B49A3FB010153181946FB684FF0000429
:101330001A462346FEF7A4FF03460C467B614CE0A9
:10134000314A5268920911464FF0000240F2FF15EF
:101350004FF0000605EA010506EA02062946324674
:101360004FEA421B4BEAD16B4FEA411A51465A46AB
:10137000AA46B34655465E464D1B62EB0606294615
:101380003246940144EA91648B015B1A64EB0204D7
:101390004FEAC40949EA53794FEAC30843464C4629
:1013A00055465E46ED1846EB04062B463446A2022F
:1013B0007A607A6842EA93527A609B023B6097E8CF
:1013C000180018462146FB684FF000041A462346D1
:1013D000FEF756FF03460C467B610B4B5B681B0C0C
:1013E00003F0030301335B00BB607A69BB68B2FBA7
:1013F000F3F33B6102E0054B3B6100BF3B691846DC
:101400001C37BD46BDE8F08F003802400024F400D0
:1014100040787D0180B582B000AF78607B68002B9A
:1014200001D1012355E07B6800229A627B6893F822
:101430005130DBB2002B06D17B68002283F85020AC
:10144000786806F027F87B68022283F851207B68D1
:101450001B687A681268126822F040021A607B6882
:101460001B687A6851687A68926811437A68D26812
:1014700011437A68126911437A68526911437A6894
:10148000926902F4007211437A68D26911437A6852
:10149000126A11437A68926A0A431A607B681B6871
:1014A0007A689269120C02F004017A68526A0A435F
:1014B0005A607B681B687A681268D26922F40062FD
:1014C000DA617B6800225A657B68012283F851202B
:1014D000002318460837BD4680BD80B588B000AFF0
:1014E000F860B9603B601346FB800023FB77FB6824
:1014F00093F85030012B01D102231CE1FB6801223B
:1015000083F85020FFF7AAF8B861FB88FB82FB68DC
:1015100093F85130DBB2012B02D00223FB7701E1BB
:10152000BB68002B02D0FB88002B02D10123FB7784
:10153000F8E0FB68032283F85120FB6800225A651B
:10154000FB68BA681A63FB68FA889A86FB68FA88AF
:10155000DA86FB6800229A63FB6800229A87FB68A0
:101560000022DA87FB6800225A64FB6800221A64B2
:10157000FB689B68B3F5004F07D1FB681B68FA68EE
:101580001268126842F480421A60FB681B681B688C
:1015900003F04003402B07D0FB681B68FA68126811
:1015A000126842F040021A60FB68DB68B3F5006F16
:1015B0004BD1FB685B68002B02D0FB8A012B3ED12C
:1015C000FB681B68FA68126B1288DA60FB681B6B99
:1015D0009A1CFB681A63FB68DB8E9BB2013B9AB2D4
:1015E000FB68DA862BE0FB681B689B6803F002034C
:1015F000022B12D1FB681B68FA68126B1288DA6042
:10160000FB681B6B9A1CFB681A63FB68DB8E9BB242
:10161000013B9AB2FB68DA8611E0FFF71FF8024639
:10162000BB69D21A3B689A4203D33B68B3F1FF3FD0
:1016300002D13B68002B02D10323FB7772E0FB68E9
:10164000DB8E9BB2002BCED14CE0FB685B68002B9D
:1016500002D0FB8A012B40D1FB681B680C33FA686F
:10166000126B12781A70FB681B6B5A1CFB681A63AA
:10167000FB68DB8E9BB2013B9AB2FB68DA862CE0FA
:10168000FB681B689B6803F00203022B13D1FB6805
:101690001B680C33FA68126B12781A70FB681B6BAC
:1016A0005A1CFB681A63FB68DB8E9BB2013B9AB243
:1016B000FB68DA8611E0FEF7D1FF0246BB69D21A59
:1016C0003B689A4203D33B68B3F1FF3F02D13B68CA
:1016D000002B02D10323FB7724E0FB68DB8E9BB257
:1016E000002BCDD1BA693968F86800F033FA0346A7
:1016F000002B02D0FB6820225A65FB689B68002BF8
:101700000AD100233B61FB681B68DB683B61FB6817
:101710001B689B683B613B69FB685B6D002B01D0DC
:101720000123FB77FB68012283F85120FB6800222C
:1017300083F85020FB7F18462037BD4680BD80B51A
:101740008CB000AFF860B9607A607B800123FB62E7
:10175000002387F82B30FB6893F85030012B01D120
:10176000022388E1FB68012283F85020FEF776FF10
:101770007862FB6893F8513087F82330FB685B6828
:10178000FB617B887B8397F82330012B0FD0FB69AB
:10179000B3F5827F07D1FB689B68002B03D197F8D4
:1017A0002330042B03D0022387F82B3059E1BB6888
:1017B000002B05D07B68002B02D07B88002B03D147
:1017C000012387F82B304CE1FB6893F85130DBB2F2
:1017D000042B03D0FB68052283F85120FB6800220C
:1017E0005A65FB687A689A63FB687A88DA87FB68CF
:1017F0007A889A87FB68BA681A63FB687A88DA86FF
:10180000FB687A889A86FB6800221A64FB680022CB
:101810005A64FB681B681B6803F04003402B07D029
:10182000FB681B68FA681268126842F040021A608E
:10183000FB68DB68B3F5006F78D1FB685B68002B51
:1018400002D07B8B012B66D1FB681B68FA68126B98
:101850001288DA60FB681B6B9A1CFB681A63FB68D2
:10186000DB8E9BB2013B9AB2FB68DA8653E0FB68E1
:101870001B689B6803F00203022B1BD1FB68DB8E05
:101880009BB2002B16D0FB6A012B13D1FB681B689F
:10189000FA68126B1288DA60FB681B6B9A1CFB6893
:1018A0001A63FB68DB8E9BB2013B9AB2FB68DA8657
:1018B0000023FB62FB681B689B6803F00103012B9C
:1018C00019D1FB68DB8F9BB2002B14D0FB689B6B9C
:1018D000FA681268D26892B21A80FB689B6B9A1CF5
:1018E000FB689A63FB68DB8F9BB2013B9AB2FB6893
:1018F000DA870123FB62FEF7B1FE02467B6AD21A49
:10190000BB6B9A4207D3BB6BB3F1FF3F03D00323FA
:1019100087F82B30A5E0FB68DB8E9BB2002BA6D1AD
:10192000FB68DB8F9BB2002BA1D17CE0FB685B687E
:10193000002B02D07B8B012B6BD1FB681B680C3317
:10194000FA68126B12781A70FB681B6B5A1CFB68E2
:101950001A63FB68DB8E9BB2013B9AB2FB68DA86A6
:1019600057E0FB681B689B6803F00203022B1CD145
:10197000FB68DB8E9BB2002B17D0FB6A012B14D1C6
:10198000FB681B680C33FA68126B12781A70FB68DC
:101990001B6B5A1CFB681A63FB68DB8E9BB2013B16
:1019A0009AB2FB68DA860023FB62FB681B689B68BF
:1019B00003F00103012B19D1FB68DB8F9BB2002BD5
:1019C00014D0FB689B6BFA681268D268D2B21A70A6
:1019D000FB689B6B5A1CFB689A63FB68DB8F9BB2AE
:1019E000013B9AB2FB68DA870123FB62FEF736FE01
:1019F00002467B6AD21ABB6B9A4203D3BB6BB3F12C
:101A0000FF3F02D1BB6B002B03D1032387F82B30A0
:101A100027E0FB68DB8E9BB2002BA2D1FB68DB8F3B
:101A20009BB2002B9DD17A6AB96BF86800F092F8EE
:101A30000346002B06D0012387F82B30FB682022B9
:101A40005A650EE0FB689B68002B0AD100237B617E
:101A5000FB681B68DB687B61FB681B689B687B61BC
:101A60007B69FB68012283F85120FB68002283F820
:101A7000502097F82B3018463037BD4680BD80B5D2
:101A800084B000AFF860B9603B601346FB714CE076
:101A90003B68B3F1FF3F48D0FEF7E0FD0246BB696B
:101AA000D21A3B689A4202D23B68002B3DD1FB68B8
:101AB0001B68FA681268526822F0E0025A60FB68FC
:101AC0005B68B3F5827F11D1FB689B68B3F5004F6B
:101AD00004D0FB689B68B3F5806F07D1FB681B6877
:101AE000FA681268126822F040021A60FB689B6A6A
:101AF000B3F5005F0FD1FB681B68FA6812681268C3
:101B000022F400521A60FB681B68FA6812681268B7
:101B100042F400521A60FB68012283F85120FB68EE
:101B2000002283F8502003230FE0FB681B689A68AB
:101B3000BB681A40BB689A420CBF01230023DBB28A
:101B40001A46FB799A42A3D1002318461037BD46A6
:101B500080BD000080B588B002AFF860B9607A60DF
:101B60001B4B1B681B4AA2FB03235B0D4FF47A72CD
:101B700002FB03F37B61FB685B68B3F5827F12D1E4
:101B80007B680093BB6800228021F868FFF777FF2D
:101B90000346002B16D0FB685B6D43F02002FB6808
:101BA0005A6503230FE07B69002B0AD07B69013B58
:101BB0007B61FB681B689B6803F08003802BF2D07D
:101BC00000E000BF002318461837BD4680BD00BFA7
:101BD00064000020819F5E1680B582B000AF7860FF
:101BE0007B681B681B6903F00203022B22D17B6810
:101BF0001B68DB6803F00203022B1BD17B681B68A8
:101C00006FF002021A617B6801221A777B681B68F9
:101C10009B6903F00303002B03D0786800F0EEF813
:101C200005E0786800F0E0F8786800F0F1F87B688B
:101C300000221A777B681B681B6903F00403042BDE
:101C400022D17B681B68DB6803F00403042B1BD1E3
:101C50007B681B686FF004021A617B6802221A77A6
:101C60007B681B689B6903F44073002B03D0786882
:101C700000F0C4F805E0786800F0B6F8786800F085
:101C8000C7F87B6800221A777B681B681B6903F022
:101C90000803082B22D17B681B68DB6803F008036C
:101CA000082B1BD17B681B686FF008021A617B68E8
:101CB00004221A777B681B68DB6903F00303002B9F
:101CC00003D0786800F09AF805E0786800F08CF8A6
:101CD000786800F09DF87B6800221A777B681B68A3
:101CE0001B6903F01003102B22D17B681B68DB6893
:101CF00003F01003102B1BD17B681B686FF01002E0
:101D00001A617B6808221A777B681B68DB6903F419
:101D10004073002B03D0786800F070F805E0786815
:101D200000F062F8786800F073F87B6800221A7798
:101D30007B681B681B6903F00103012B0ED17B68D4
:101D40001B68DB6803F00103012B07D17B681B686C
:101D50006FF001021A61786805F0E7F97B681B688B
:101D60001B6903F08003802B0ED17B681B68DB6846
:101D700003F08003802B07D17B681B686FF0800223
:101D80001A61786800F062F87B681B681B6903F0D1
:101D90004003402B0ED17B681B68DB6803F04003D7
:101DA000402B07D17B681B686FF040021A6178688E
:101DB00000F038F87B681B681B6903F02003202BB8
:101DC0000ED17B681B68DB6803F02003202B07D152
:101DD0007B681B686FF020021A61786800F02CF8AD
:101DE00000BF0837BD4680BD80B483B000AF7860C7
:101DF00000BF0C37BD465DF8047B704780B483B0EC
:101E000000AF786000BF0C37BD465DF8047B7047BB
:101E100080B483B000AF786000BF0C37BD465DF87A
:101E2000047B704780B483B000AF786000BF0C378C
:101E3000BD465DF8047B704780B483B000AF786026
:101E400000BF0C37BD465DF8047B704780B483B09B
:101E500000AF786000BF0C37BD465DF8047B70476B
:101E600080B584B000AF7860224B9B689847214BC7
:101E70001B6998471F4B1B6A002B03D01D4B5B6AE5
:101E8000002B14D11B4BDB697A68120CD2B21046BE
:101E90009847184BDB697A68120AD2B21046984705
:101EA000144BDB697A68D2B21046984711E07B6820
:101EB0001B0CDBB23B737B681B0ADBB27B737B685A
:101EC000DBB2BB730B4B5B6A07F10C0203211046BC
:101ED0009847084B9B6998470346FB73054B5B6922
:101EE0009847044BDB689847FB7B18461037BD4684
:101EF00080BD00BF0800002080B584B000AF7860CE
:101F00000B46FB70224B9B689847214B1B699847F7
:101F10007B6843F004037B601D4B5B6A002B19D187
:101F20001B4BDB697A68120CD2B210469847184BEB
:101F3000DB697A68120AD2B210469847144BDB6903
:101F40007A68D2B210469847114BDB69FA7810468E
:101F5000984713E07B681B0CDBB23B737B681B0A62
:101F6000DBB27B737B68DBB2BB73FB78FB73084B24
:101F70005B6A07F10C02042110469847044B5B6929
:101F80009847034BDB68984700BF1037BD4680BDBC
:101F90000800002090B587B000AFF860B960134624
:101FA000FB802B4B9B689847294B1B699847284B14
:101FB0001B6A002B03D0264B5B6A002B26D1244BD7
:101FC000DB69FA68120CD2B210469847204BDB69E5
:101FD000FA68120AD2B2104698471D4BDB69FA68BC
:101FE000D2B2104698470023FB820AE0FB8ABA6807
:101FF000D418174B9B69984703462370FB8A01331B
:10200000FB82FA8AFB889A42F0D317E0FB681B0C2C
:10201000DBB23B74FB681B0ADBB27B74FB68DBB290
:10202000BB740B4B5B6A07F1100203211046984703
:10203000074B1B6AFA881146B8689847044B5B69DE
:102040009847034BDB68984700BF1C37BD4690BDDF
:102050000800002080B586B000AFF860B960134674
:10206000FB802B4B9B689847294B1B699847FB6863
:1020700043F00403FB60264B5B6A002B26D1244B04
:10208000DB69FA68120CD2B210469847204BDB6924
:10209000FA68120AD2B2104698471D4BDB69FA68FB
:1020A000D2B2104698470023FB820AE0184BDB6946
:1020B000FA8AB9680A44127810469847FB8A0133B5
:1020C000FB82FA8AFB889A42F0D317E0FB681B0C6C
:1020D000DBB23B74FB681B0ADBB27B74FB68DBB2D0
:1020E000BB740B4B5B6A07F1100203211046984743
:1020F000074B5B6AFA881146B8689847044B5B69DE
:102100009847034BDB68984700BF1837BD4680BD32
:102110000800002090B585B000AF0346FB71002396
:10212000FB810023BB81FB799B000133DB0003F5BE
:1021300000531846FFF794FE0346BB81BB891B0280
:102140009CB2FB799B000133DB0003F50453184676
:10215000FFF786FE03469BB22344BB81BB89002B5D
:102160001AD0FB799B000133DB0003F500531846BE
:10217000FFF776FE0346FB81FB891B029CB2FB79CD
:102180009B000133DB0003F504531846FFF768FE9C
:1021900003469BB22344FB81FA89BB899A42C2D190
:1021A000FB8918461437BD4690BD90B585B000AF89
:1021B0000346FB710023FB810023BB81FB799B005D
:1021C0000133DB0003F518531846FFF749FE0346B9
:1021D000BB81BB891B029CB2FB799B000133DB00F6
:1021E00003F51C531846FFF73BFE03469BB22344FE
:1021F000BB81BB89002B1AD0FB799B000133DB002C
:1022000003F518531846FFF72BFE0346FB81FB89A5
:102210001B029CB2FB799B000133DB0003F51C53CE
:102220001846FFF71DFE03469BB22344FB81FA8943
:10223000BB899A42C2D1FB8918461437BD4690BD6E
:1022400090B585B000AF03463960FB711346BB8083
:102250000023FB810023BB60BB88002B48D0FB79A7
:102260009B000133DB0003F510531846FFF7F8FD20
:1022700003469BB21B029CB2FB799B000133DB003F
:1022800003F514531846FFF7EBFD03469BB22344B6
:10229000FB81FB891B02FA7992000232D2001344BF
:1022A000BB60BB881A463968B868FFF7D3FEFA8965
:1022B000BB881344FB81FB799B000133DB0003F5F2
:1022C00010531A46FB891B0A9BB2DBB21946104613
:1022D000FFF712FEFB799B000133DB0003F514537B
:1022E0001A46FB89DBB219461046FFF705FE00E0EF
:1022F00000BF1437BD4690BD90B585B000AF034612
:102300003960FB711346BB800023FB810023BB6057
:10231000BB88002B48D0FB799B000133DB0003F521
:1023200020531846FFF79CFD03469BB21B029CB24C
:10233000FB799B000133DB0003F524531846FFF7BC
:102340008FFD03469BB22344FB81FB891B02FA7974
:1023500092000332D2001344BB60BB881A4639682E
:10236000B868FFF717FEFA89BB881344FB81FB7935
:102370009B000133DB0003F520531A46FB891B0A3F
:102380009BB2DBB219461046FFF7B6FDFB799B0006
:102390000133DB0003F524531A46FB89DBB21946EF
:1023A0001046FFF7A9FD00E000BF1437BD4690BD01
:1023B00090B585B000AF03460A46FB711346BB805B
:1023C000FB799B000133DB0003F520531846FFF730
:1023D00047FD03469BB21B029CB2FB799B00013375
:1023E000DB0003F524531846FFF73AFD03469BB282
:1023F0002344FB81FA89BB881344FB81FB799B0052
:102400000133DB0003F520531A46FB891B0A9BB2FC
:10241000DBB219461046FFF76FFDFB799B000133D5
:10242000DB0003F524531A46FB89DBB2194610463C
:10243000FFF762FD00BF1437BD4690BD90B585B073
:1024400000AF0446084611461A462346FB71034670
:10245000BB710B46BB801346FB70FB79082B02D97E
:102460004FF0FF33E9E0BB79022B0FD0042B0DD0E6
:10247000012B08D107F10C03042219464FF47060B8
:10248000FFF788FD02E06FF00403D6E000BFFB78A1
:1024900003F00603002B02D06FF00503CDE0FB78BC
:1024A000002B28D0BB79012B02D0022B08D022E0D0
:1024B000FB7803F02103002B1AD16FF00503BCE079
:1024C000FB7803F02003002B06D097F90330002B94
:1024D00002DB6FF00503B0E0FB7803F01003002B84
:1024E00008D097F90330002B04DB6FF00503A4E05C
:1024F00000BF00E000BFFB79184600F0ADF8FB79A3
:102500009B000133DB00184697F9033023F00F03DB
:102510005AB297F9063013435BB2DBB21946FFF7A4
:10252000EBFCBB88002B10D1464B1B885A1C91B288
:10253000444A1180BB80434B1B884FF6F072934294
:1025400003D1404B4FF440421A80FB799B0001338A
:10255000DB0003F580631A46BB881B0A9BB2DBB223
:1025600019461046FFF7C8FCFB799B000133DB00DE
:1025700003F5A0631A46BB88DBB219461046FFF785
:10258000BBFCFB799B000133DB0003F58073012169
:102590001846FFF7B1FC00BFFB799B000133DB005D
:1025A00003F580731846FFF75BFC0346002BF3D15D
:1025B000FB79012202FA03F31BB2DB431AB2224B6E
:1025C0001B881BB213401BB29AB21F4B1A80FB78B8
:1025D00003F00102FB7902FA03F31AB21A4B1B88CB
:1025E0001BB213431BB29AB2174B1A80FB7901221C
:1025F00002FA03F31BB2DB431AB2144B1B881BB263
:1026000013401BB29AB2114B1A80FB79104A002179
:1026100022F81310FB790F4A0021D15400BFFB7937
:102620009B000133DB0003F540731846FFF718FCED
:102630000346002BF3D097F9073018461437BD46F0
:1026400090BD00BF06000020E8000020EA00002046
:10265000EC000020FC00002080B582B000AF0346F3
:10266000FB71FB79082B02D94FF0FF3355E0FB7962
:102670009B000133DB0003F5807310211846FFF740
:102680003BFC00BFFB799B000133DB0003F580734B
:102690001846FFF7E5FB0346002BF3D1FB799B00BF
:1026A0000133DB0003F500731F211846FFF724FCFC
:1026B000FB79012202FA03F31BB2DB431AB2194B76
:1026C0001B881BB213401BB29AB2164B1A80FB79BF
:1026D000012202FA03F31BB2DB431AB2124B1B882E
:1026E0001BB213401BB29AB20F4B1A80FB790F4AF0
:1026F000002122F81310FB790D4A0021D15400BFAC
:10270000FB799B000133DB0003F540731846FFF7AC
:10271000A7FB0346002BF3D1012318460837BD461B
:1027200080BD00BFE8000020EA000020EC0000208F
:10273000FC00002080B584B000AF03463960FB7117
:102740001346BB80FB79082B02D94FF0FF33C6E05C
:10275000FB799B000133DB001846FFF781FB034642
:1027600003F00F03012B02D06FF00403B7E0FB79F5
:102770009B000133DB0003F540731846FFF770FB45
:102780000346132B02D06FF00203A8E03B681B78CE
:10279000FB60FB681B023A68013212781344FB604D
:1027A000FB681B023A68023212781344FB60FB6834
:1027B0001B023A68033212781344FB60FB68B3F1E2
:1027C000FF3F02D0FB68002B02D16FF00B0386E0C5
:1027D000BB88002B02D16FF00A0380E0FB799B00DD
:1027E0000133DB0003F54063042239681846FFF724
:1027F00031FCFB799B000133DB0003F580531A4663
:10280000BB881B0A9BB2DBB219461046FFF774FB6C
:10281000FB799B000133DB0003F588531A46BB8824
:10282000DBB219461046FFF767FBFB799B000133CB
:10283000DB0003F5807304211846FFF75DFB00BF42
:10284000FB799B000133DB0003F580731846FFF72B
:1028500007FB0346002BF3D1234B1B881A46FB7959
:1028600042FA03F303F00103002B2BD0002336E0E0
:10287000FB799B000133DB0003F500731846FFF77B
:10288000EFFA034603F00803002B0CD0FB799B0002
:102890000133DB0003F5007308211846FFF72CFB1A
:1028A0006FF00C031BE0FB799B000133DB0003F5A9
:1028B00040731846FFF7D4FA0346002B02D16FF09D
:1028C00003030CE0FB799B000133DB0003F540734D
:1028D0001846FFF7C5FA0346172BC9D1012318463E
:1028E0001037BD4680BD00BFE800002080B582B033
:1028F00000AF0346FB71FB79082B02D94FF0FF3381
:1029000062E0FB799B000133DB001846FFF7A8FA71
:10291000034603F00F03012B02D06FF0040353E0D2
:10292000FB799B000133DB0003F580730821184617
:10293000FFF7E2FA00BFFB799B000133DB0003F5F0
:1029400080731846FFF78CFA0346002BF3D1FB790E
:10295000012202FA03F31BB2DB431AB21C4B1B88A1
:102960001BB213401BB29AB2194B1A80194B1B8829
:102970001A46FB7942FA03F303F00103002B16D049
:10298000002321E0FB799B000133DB0003F500739A
:102990001846FFF765FA034603F00803002B06D03C
:1029A000FB791846FFF758FE6FF00C030CE0FB793B
:1029B0009B000133DB0003F540731846FFF750FA24
:1029C0000346002BDED1012318460837BD4680BDE3
:1029D000EA000020E800002080B584B000AF034684
:1029E0003960FB711346BB800023FB730023BB815E
:1029F000FB79082B02D94FF0FF33DEE0FB799B0017
:102A00000133DB001846FFF72BFA034603F00F03F0
:102A1000012B02D06FF00403CFE0BB88002B02D162
:102A20006FF00D03C9E0FB799B000133DB0003F578
:102A300040731846FFF714FA0346FB73FB7B172B12
:102A400005D0FB7B1C2B02D06FF00603B5E05D4B7D
:102A50001B881A46FB7942FA03F303F00103002BAB
:102A600039D0FB799B000133DB0003F50073184676
:102A7000FFF7F6F9034603F01F03FB73FB7B03F03C
:102A80001003002B19D0FB799B000133DB0003F509
:102A9000007310211846FFF72FFAFB79012202FA82
:102AA00003F31BB2DB431AB2464B1B881BB2134025
:102AB0001BB29AB2434B1A800DE0FB7B03F0080374
:102AC000002B06D0FB791846FFF7C6FD6FF00C030C
:102AD00073E0002371E0FB799B000133DB0003F519
:102AE000F8531846FFF7BCF903469BB29B02BB8123
:102AF000BA88BB899A4201D9BB89BB80FB79184649
:102B0000FFF708FB0346BB81FB799B000133DB0029
:102B100003F540731846FFF7A3F90346FB73FB7BED
:102B2000172B09D0FB7B1C2B06D0FB791846FFF72F
:102B300093FD6FF0060340E0234B1B881A46FB7998
:102B400042FA03F303F00103002B05D0BA88BB89D6
:102B50009A4201D9002330E0BA88BB899A4200D951
:102B6000CCE700BFBA88FB7939681846FFF768FBE5
:102B7000FB799B000133DB0003F5807320211846AD
:102B8000FFF7BAF900BFFB799B000133DB0003F5C7
:102B900080731846FFF764F90346002BF3D1FB79E5
:102BA000012202FA03F31AB2064B1B881BB213432D
:102BB0001BB29AB2034B1A80BB8818461037BD4629
:102BC00080BD00BFEA000020E800002090B585B07D
:102BD00000AF03463960FB711346BB800023FB73D3
:102BE0000023BB81FB79082B02D94FF0FF339CE017
:102BF000FB799B000133DB001846FFF731F90346F0
:102C000003F00F03012B02D06FF004038DE0BB88AB
:102C1000002B02D16FF00D0387E0FB799B0001339D
:102C2000DB0003F5F0531846FFF71AF903469BB291
:102C30009B02BB81BA89BB889A4201D2BB89BB8007
:102C4000FB791846FFF7B1FA0346BB81FB799B007D
:102C50000133DB0003F540731846FFF701F9034623
:102C6000FB73FB7B172B26D0FB7B1C2B1CD1BB895A
:102C7000002B33D1FB791846FFF74CFA03461C466C
:102C8000FB799B000133DB0003F5F8531846FFF78F
:102C9000E7F803469B029C420DD1FB791846FFF7EB
:102CA000DBFC6FF0060340E0FB791846FFF7D4FC2D
:102CB0006FF0060339E01F4B1B881A46FB7942FA76
:102CC00003F303F00103002B04D0BB89002B01D1D7
:102CD00000232AE0BB89002B02D1B1E700BF00E04E
:102CE00000BFBA89BB889A4201D2BB89BB80BA882F
:102CF000FB7939681846FFF7FFFAFB799B0001332F
:102D0000DB0003F5807340211846FFF7F5F800BF9C
:102D1000FB799B000133DB0003F580731846FFF756
:102D20009FF80346002BF3D1BB8818461437BD46E5
:102D300090BD00BFE800002080B586B000AFB9604C
:102D40007B600346FB731346BB810023FB750023A6
:102D5000BB82FB7B082B02D94FF0FF3301E1FB7BE9
:102D60009B000133DB001846FFF77AF8034603F0B7
:102D70000F03022B04D0042B02D06FF00403F0E009
:102D800000BFBB89002B02D16FF00D03E9E07B6827
:102D90001B783B613B691B027A680132127813444D
:102DA0003B613B691B027A680232127813443B6133
:102DB0003B691B027A680332127813443B613B691A
:102DC000002B02D16FF00B03CBE03B8C002B02D128
:102DD0006FF00A03C5E0FB7B9B000133DB0003F5CA
:102DE00040731846FFF73CF80346FB75FB7D422B0A
:102DF00005D0FB7D222B02D06FF00603B1E0FB7BF8
:102E00009B000133DB0003F5406304227968184618
:102E1000FFF720F9FB7B9B000133DB0003F58053B8
:102E20001A463B8C1B0A9BB2DBB219461046FFF7D1
:102E300063F8FB7B9B000133DB0003F588531A46E4
:102E40003B8CDBB219461046FFF756F8FB7B9B0024
:102E50000133DB0003F5F8531846FFF701F803468A
:102E60009BB29B02BB82BA89BB8A9A4201D9BB8AB8
:102E7000BB81FB7B1846FFF74DF90346BB82FB7B0A
:102E80009B000133DB0003F540731846FEF7E8FFB3
:102E90000346002B02D16FF0030362E0334B1B8823
:102EA0001A46FB7B42FA03F303F00103002B05D023
:102EB000BA89BB8A9A4201D9002352E0BA89BB8AF7
:102EC0009A4200D9D5E700BFBA89FB7BB96818469A
:102ED000FFF7B6F9FB7B9B000133DB0003F5807342
:102EE00020211846FFF708F800BFFB7B9B00013349
:102EF000DB0003F580731846FEF7B2FF0346002B94
:102F0000F3D1FB7B9B000133DB0003F50073184614
:102F1000FEF7A6FF034603F01F03FB75FB7D03F0DE
:102F20001003002B0CD0FB7B9B000133DB0003F56F
:102F3000007310211846FEF7DFFF00BFBB8910E0C9
:102F4000FB7D03F00803002BDBD0FB7B9B000133F0
:102F5000DB0003F5007308211846FEF7CDFF6FF084
:102F60000C0318461837BD4680BD00BFE80000209E
:102F700080B588B000AFB9607B600346FB73134631
:102F8000BB810023FB83FB7B082B02D94FF0FF336F
:102F900062E1FB7B9B000133DB001846FEF760FF1C
:102FA00003467B777B7F03F00F03022B04D0042BB7
:102FB00002D06FF004034FE100BFBB89002B02D1A8
:102FC0006FF00D0348E1FB7BA54A32F81330002B6C
:102FD00028D1FB7B1846FFF7E8F80346FB83FB7B11
:102FE0009B000133DB0003F540731846FEF738FF02
:102FF0000346002B02D16FF003032DE1994B1B8890
:103000001A46FB7B42FA03F303F00103002B04D0C2
:10301000FB8B002B01D100231EE1FB8B002B00D189
:10302000D7E700BFFB7B904A0021D1547B7F03F0A0
:103030000703022B02D0042B6FD0CFE0FB7B884A22
:1030400032F81330002B52D107F11401FB7B082218
:103050001846FFF751F9FB7B9B000133DB0003F5BA
:10306000807340211846FEF747FF00BFFB7B9B00A3
:103070000133DB0003F580731846FEF7F1FE0346CB
:10308000002BF3D13A7D7B681A707B6801337A7D1F
:103090001A707B680233BA7D1A707B680333FA7D3D
:1030A0001A703B7E9AB2BB6A1A80BB6A1B881B02ED
:1030B0009AB27B7E9BB213449AB2BB6A1A80FB7BA6
:1030C000BA7E91B2664A22F81310FB7BFA7B644900
:1030D00031F81220120291B2FA7E92B20A4491B2F1
:1030E0005F4A22F81310FB7B5F4A8021D154FB7B9F
:1030F0005B4A32F81330BA899A4202D2BB89FB8309
:1031000004E0FB7B564A32F81330FB83FA8BFB7BDF
:10311000B9681846FFF7F0F86CE0FB7B504A32F8CC
:103120001330002B44D107F11401FB7B0222184617
:10313000FFF7E2F8FB7B9B000133DB0003F58073B4
:1031400040211846FEF7D8FE00BFFB7B9B000133F1
:10315000DB0003F580731846FEF782FE0346002B62
:10316000F3D1FB7B3A7D91B23D4A22F81310FB7BF1
:10317000FA7B3B4931F81220120291B27A7D92B269
:103180000A4491B2364A22F81310FB7B344A32F8D3
:10319000133040F2EA52934206D9FB7B1846FFF700
:1031A0005BFA6FF47A7357E0FB7B2F4A8021D1548E
:1031B000FB7B2B4A32F81330BA899A4202D2BB8980
:1031C000FB8304E0FB7B264A32F81330FB83FA8B47
:1031D000FB7BB9681846FFF78FF80BE0FA8BFB7B97
:1031E00011461846FFF7E4F8FB7B1D49FA8B21F8DE
:1031F000132000BFFB7B9B000133DB0003F58073D2
:1032000040211846FEF778FE00BFFB7B9B00013390
:10321000DB0003F580731846FEF722FE0346002B01
:10322000F3D1FB7BFA7B0E4931F81210FA8B8A1A24
:1032300091B20B4A22F81310FB7B094A32F8133083
:10324000002B08D0FB7BFA7B07498A5C42F0010225
:10325000D1B2054AD154FB8B18462037BD4680BDFC
:10326000EC000020E8000020FC00002080B400AF4B
:1032700000BFBD465DF8047B704780B400AF00BF5F
:10328000BD465DF8047B704780B400AF00BFBD460B
:103290005DF8047B704780B400AF00BFBD465DF8A9
:1032A000047B704780B483B000AF78607B681B7884
:1032B000DBB218460C37BD465DF8047B704780B41E
:1032C00083B000AF78600B46FB707B68FA781A70A9
:1032D00000BF0C37BD465DF8047B704780B400AF7B
:1032E00000231846BD465DF8047B704780B483B068
:1032F00000AF0346FB7100BF0C37BD465DF8047B91
:103300007047000080B483B000AF786039607B689C
:10331000002B02D03B68002B06D1094B094A1A61E9
:10332000074B094A5A6105E0054A7B681361044A64
:103330003B68536100BF0C37BD465DF8047B7047A6
:1033400008000020893200089732000880B483B05A
:1033500000AF7860396000BF0F4B1B8803F4007327
:10336000002BF9D07B68002B02D03B68002B06D1E4
:10337000094B0A4A9A61084B094ADA6105E0064A94
:103380007B689361044A3B68D36100BF0C37BD463C
:103390005DF8047B704700BF08000020DD320008A4
:1033A000ED32000890B587B000AF03463960FB717D
:1033B0000023FB750023FB6000233B61FB790F2B8F
:1033C00000F2C28001A252F823F000BF0D340008C1
:1033D000133400083F340008333400084D3400082B
:1033E00059340008673400088D340008B3340008ED
:1033F000ED340008F3340008FB3400084F350008B2
:1034000003350008113500082D35000800F0E6F8F6
:103410009EE03B68002B04D03B68FB60FB680833F0
:103420003B61FB683A691146184600F023F90346F0
:103430008FE03B681B88184600F0A8F988E000F090
:10344000C3F903461A463B681A8081E03B681B8833
:10345000184600F0DEF97BE000F0F6F903461A4664
:103460003B681A8074E03B681B881B0A9BB2DBB286
:1034700019464FF49850FEF73FFD3B681B88DBB2BE
:1034800019464FF4A050FEF737FD61E04FF4985015
:10349000FEF7E6FC03469BB21B029CB24FF4A05021
:1034A000FEF7DEFC03469BB223449AB23B681A80C7
:1034B0004EE02A4B9A783B681A703B680133274AE2
:1034C000D2781A703B680233244A12791A703B682A
:1034D0000333224A52791A703B6804331F4A9279A7
:1034E0001A703B68053300221A7031E000F0FFF9D2
:1034F0002EE0386800F022FA2AE0386800F060FA1E
:1035000026E03B681B78184600F0A6FA034620E048
:1035100000F0D4F90346FB75FB7DFF2B02D14FF081
:10352000FF3316E03B68FA7D1A7011E000F0AFF946
:103530000346FB75FB7DFF2B02D14FF0FF3308E004
:103540003B68FA7D1A7003E04FF0FF3301E000BFE3
:10355000002318461C37BD4690BD00BF0800002060
:1035600080B582B000AF03463960FB71FB79052B53
:103570002CD801A252F823F09135000899350008A3
:10358000A1350008AF350008BD350008C535000875
:10359000386800F0ABFA1CE0386800F0E7FA18E091
:1035A0003B681B78184600F021FB034612E000F050
:1035B0003FFB03461A463B681A700AE0386800F081
:1035C0003FFB06E0386800F05CFB02E04FF0FF33A1
:1035D00000E0002318460837BD4680BD80B586B0A0
:1035E00000AF3B1D062219464FF41060FEF7D2FCD7
:1035F00007F11403042219464FF48070FEF7CAFC49
:1036000007F11003042219464FF4A060FEF7C2FC34
:1036100007F10C03042219464FF47060FEF7BAFC60
:1036200080210020FEF768FC0020FEF719FC3B1DFE
:10363000062219464FF41060FEF70CFD07F1140343
:10364000042219464FF48070FEF704FD07F11003C1
:10365000042219464FF4A060FEF7FCFC07F10C03AE
:10366000042219464FF47060FEF7F4FC00BF1837CF
:10367000BD4680BD80B584B000AF7860396000235E
:10368000BB73FFF7ABFF7B68002B3BD00023BB7302
:103690000023FB730EE097F90F307A6813441A7811
:1036A000BB7B1344DBB2BB7397F90F30DBB2013342
:1036B000DBB2FB7397F90F30072BECDD97F90E3077
:1036C000102B02DD4FF0FF335CE00023FB7315E0AD
:1036D00097F90F309B000133DB0003F5F8531846D0
:1036E00097F90F307A6813441B781946FEF704FCEB
:1036F00097F90F30DBB20133DBB2FB7397F90F3070
:10370000072BE5DD3B68002B3BD00023BB73002378
:10371000FB730EE097F90F303A6813441A78BB7BBD
:103720001344DBB2BB7397F90F30DBB20133DBB26A
:10373000FB7397F90F30072BECDD97F90E30102B48
:1037400002DD4FF0FF331DE00023FB7315E097F916
:103750000F309B000133DB0003F5F053184697F957
:103760000F303A6813441B781946FEF7C5FB97F9EA
:103770000F30DBB20133DBB2FB7397F90F30072B4D
:10378000E5DD002318461037BD4680BD80B584B006
:1037900000AF0346FB80FB88FB73FB881B0A9BB2D0
:1037A000BB73FB7B23F00F03DBB219464FF4A85029
:1037B000FEF7A2FBBB7B19464FF4B850FEF79CFB0B
:1037C00000BF1037BD4680BD80B582B000AF00237A
:1037D000FB710023BB710023BB804FF4A850FEF7A0
:1037E0003FFB034623F00F03FB714FF4B850FEF785
:1037F00037FB0346BB71BB79BB80BB881B029AB207
:10380000FB799BB21344BB80BB8818460837BD4682
:1038100080BD80B584B000AF0346FB80FB88FB739E
:10382000FB881B0A9BB2BB73FB7B19464FF4B0505D
:10383000FEF762FBBB7B19464FF4C050FEF75CFB02
:1038400000BF1037BD4680BD80B582B000AF0023F9
:10385000FB710023BB710023BB804FF4B050FEF717
:10386000FFFA0346FB714FF4C050FEF7F9FA034626
:10387000BB71BB79BB80BB881B029AB2FB799BB240
:103880001344BB80BB8818460837BD4680BD80B551
:1038900082B000AF4FF43850FEF7E2FA034603F06F
:1038A0000103002B02D00123FB7101E00023FB7117
:1038B00097F9073018460837BD4680BD80B582B0FD
:1038C00000AF0023FB714FF43850FEF7C9FA0346EE
:1038D00003F03003002B02D00123FB7101E0002331
:1038E000FB7197F9073018460837BD4680BD80B593
:1038F00082B000AF4FF43850FEF7B2FA0346FB71C6
:10390000FB7903F07F03FB71FB7919464FF43850C4
:10391000FEF7F2FA4FF43850FEF7A2FA0346FB71B5
:10392000FB7963F07F03FB71FB7919464FF4385044
:10393000FEF7E2FA00BF0837BD4680BD80B584B00F
:1039400000AF78600023FB737B681B78012B04D1E8
:10395000FB7B43F04003FB7303E0FB7B23F040035E
:10396000FB737B685B78012B04D1FB7B43F038034E
:10397000FB7319E07B68DB78012B0DD17B689B78AA
:10398000012B04D1FB7B43F01803FB730CE0FB7BA2
:1039900043F00803FB7307E07B689B78012B03D19E
:1039A000FB7B43F01003FB73FB7B19464FF438504D
:1039B000FEF7A2FAFFF79BFF00BF1037BD4680BDA0
:1039C00080B584B000AF78600023FB734FF43850AB
:1039D000FEF746FA0346FB73FB7B03F04003002B24
:1039E00014BF01230023DBB21A467B681A70FB7BED
:1039F00003F03803202B01D0382B03D17B68012240
:103A00005A7003E07B6800225A7000BFFB7B03F012
:103A10003803182B03D0202B01D0102B03D17B6847
:103A200001229A7003E07B6800229A7000BFFB7B42
:103A300003F03803182B03D0202B01D0082B03D11F
:103A40007B680122DA7003E07B680022DA7000BF35
:103A500000BF1037BD4680BD80B584B000AF0346BF
:103A6000FB710023FB734FF43850FEF7F9F903465E
:103A7000FB73FB7B03F04003002B02D14FF0FF33BD
:103A800030E0FB7B23F03803FB73FB79012B04D17F
:103A9000FB7B43F03003FB7303E0FB7B43F0380315
:103AA000FB73FB7B19464FF43850FEF725FAFFF7FE
:103AB0001EFF4FF43850FEF7D3F90346FB73FB7932
:103AC000012B06D1FB7B03F03003002B08D0002331
:103AD00008E0FB7B03F03803002B01D0002301E05A
:103AE0004FF0FF3318461037BD4680BD80B582B019
:103AF00000AF78607B68062219464FF41060FEF72D
:103B0000A9FA7B680E33042219464FF48070FEF741
:103B1000A1FA7B680A33042219464FF4A060FEF72D
:103B200099FA7B680633042219464FF47060FEF759
:103B300091FA7B689A7C0B4B1A707B68DA7C094B94
:103B40005A707B681A7D074B9A707B685A7D054BCB
:103B5000DA707B689A7D044B1A7000BF0837BD4647
:103B600080BD00BF040100200801002080B582B0A4
:103B700000AF78607B68062219464FF41060FEF7AC
:103B800009FA7B680E33042219464FF48070FEF761
:103B900001FA7B680A33042219464FF4A060FEF74D
:103BA000F9F97B680633042219464FF47060FEF77A
:103BB000F1F90C4B1A787B689A740A4B5A787B6837
:103BC000DA74084B9A787B681A75064BDA787B684A
:103BD0005A75054B1A787B689A7500BF0837BD4641
:103BE00080BD00BF040100200801002080B584B022
:103BF00000AF0346FB710023FB73FB7923F03A030C
:103C0000002B02D04FF0FF330EE00020FEF728F922
:103C10000346FB73FA7BFB791343FB73FB7B19466B
:103C20000020FEF769F9002318461037BD4680BD15
:103C300080B500AF0020FEF713F90346184680BD9B
:103C400080B582B000AF78607B681B7819464FF46E
:103C5000D850FEF751F97B685B881B0A9BB2DBB238
:103C600019464FF4C850FEF747F97B685B88DBB212
:103C700019464FF4D050FEF73FF900BF0837BD4654
:103C800080BD90B583B000AF78604FF4D850FEF798
:103C9000E7F803461A467B681A704FF4C850FEF7DF
:103CA000DFF803469BB21B029CB24FF4D050FEF7E4
:103CB000D7F803469BB223449AB27B685A8000BF70
:103CC0000C37BD4690BD000080B500AF0422094905
:103CD0004FF47060FEF7BEF9042207494FF4A0606C
:103CE000FEF7B8F9042205494FF48070FEF7B2F9E7
:103CF00000BF80BD10010020180100201401002029
:103D000080B500AF80210020FEF7F6F80020FEF716
:103D1000A7F8FFF7D9FF062203494FF41060FEF71A
:103D200099F900BF80BD00BF3C01002080B500AF05
:103D300080210020FEF7E0F80020FEF791F806222F
:103D400003494FF41060FEF785F900BF80BD00BF46
:103D50003C01002080B584B000AF3B4606221946E6
:103D60004FF41060FEF716F9724B1B6801221A70AF
:103D7000704B1B6801225A706E4B1B6806229A70AA
:103D80006C4B1B680022DA706A4B1B680433BB6003
:103D9000694B1B681B0EDAB2BB681A70BB68013333
:103DA000654A1268120CD2B21A70BB680233624ABA
:103DB0001268120AD2B21A70BB6803335E4A1268E4
:103DC000D2B21A705B4B1B6800221A81594B1B68D8
:103DD0000A33BB60BB6880221A70BB6801330022C3
:103DE0001A70544B1B6800221A73524B1B68002236
:103DF0005A73504B1B6800229A734E4B1B6800226B
:103E0000DA734C4B1B6800221A744A4B1B68002261
:103E10005A74484B1B6800229A74464B1B68002258
:103E2000DA74444B1B6800221A75424B1B6800224F
:103E30005A75404B1B6800229A753E4B1B68002246
:103E4000DA753C4B1B6800221A763A4B1B6800223D
:103E50005A76384B1B6800229A76364B1B68002234
:103E6000DA76344B1B68354A12781A77314B1B6867
:103E7000324A52785A772F4B1B68304A92789A7799
:103E80002C4B1B682D4AD278DA772A4B1B682B4AB9
:103E9000127983F82020274B1B68284A527983F82F
:103EA00021200623FB7308E0224B1A68FB7B134496
:103EB00000221A77FB7B0133FB73FB7B0F2BF3D9BB
:103EC0000023FB7309E01B4B1A68FB7B13440022A1
:103ED00083F82C20FB7B0133FB73FB7B3F2BF2D958
:103EE0000023FB7309E0134B1A68FB7B1344002289
:103EF00083F86C20FB7B0133FB7397F90F30002BA9
:103F0000F1DA0C4B1B68632283F8EC20094B1B6829
:103F1000822283F8ED20074B1B68532283F8EE20A2
:103F2000044B1B68632283F8EF2000BF1037BD46A7
:103F300080BD00BF4C010020440100203C01002056
:103F400080B584B002AF0023BB80FFF703FF0423DA
:103F5000BB80AA4B1A68BB88591CB9801344352210
:103F600083F8EC20A54B1A68BB88591CB980134410
:103F7000012283F8EC20A14B1A68BB88591CB98038
:103F80001344012283F8EC209C4B1A68BB88591C0F
:103F9000B98013443D2283F8EC20984B1A68BB8803
:103FA000591CB9801344072283F8EC20934B1A68FC
:103FB000BB88591CB9801344012283F8EC208F4B35
:103FC0001A68BB88591CB98018468D4B197813188C
:103FD0000A4683F8EC20894B1A68BB88591CB980C3
:103FE0001846874B597813180A4683F8EC20834B00
:103FF0001A68BB88591CB9801846814B99781318E8
:104000000A4683F8EC207D4B1A68BB88591CB9809E
:1040100018467B4BD97813180A4683F8EC20774B67
:104020001A68BB88591CB9801846754B1979131842
:104030000A4683F8EC20714B1A68BB88591CB9807A
:1040400018466F4B597913180A4683F8EC206B4BCE
:104050001A68BB88591CB98013440C2283F8EC20E1
:10406000664B1A68BB88591CB9801344002283F838
:10407000EC200023FB800FE0604B1A68BB88591CC2
:10408000B9801846FB885F49C95C13180A4683F853
:10409000EC20FB880133FB80FB885A4AD35C002B61
:1040A000EAD1564B1A68BB88591CB9801846544B44
:1040B000D97813180A4683F8EC20504B1A68BB884D
:1040C000591CB98018464E4B197913180A4683F8C3
:1040D000EC204A4B1A68BB88591CB9801846484BDB
:1040E000597913180A4683F8EC20444B1A68B988AA
:1040F000FB880433CB1AF988C9B20331C9B213441F
:104100000A4683F8EC203D4B1A68BB88591CB980DD
:104110001344372283F8EC20384B1A68BB88591CAB
:10412000B9801344062283F8EC20344B1A68BB880C
:10413000591CB9801344012283F8EC202F4B1A68D4
:10414000BB88591CB9801344032283F8EC202B4B05
:104150001A68BB88591CB9801344062283F8EC20E6
:10416000264B1A68BB88591CB98013440F2283F868
:10417000EC20224B1A68BB88591CB98013443A22A0
:1041800083F8EC201D4B1A68BB88591CB980134476
:104190003B2283F8EC20194B1A68BB88591CB98064
:1041A0001344FF2283F8EC20BB88FB8009E0134B0B
:1041B0001A68FB881344002283F8EC20FB88013343
:1041C000FB80FB88B3F59C7FF1D3FF233B70FF237B
:1041D0007B70FF23BB70FF23FB700B4B1878074BE2
:1041E00019683A464323009313464FF40972FEF7C9
:1041F000A3FD00BF0837BD4680BD00BF4C010020B5
:104200003C010020380000205001002080B586B01D
:1042100002AF00237B81FFF79DFD1B4B93F900301C
:10422000032B04D0184B93F90030042B34D1174BD7
:104230001B680A3300221A70144B1B680A330133BF
:1042400000221A70114B1B68114A12781A730F4B17
:104250001B680F4A52785A730C4B1B680C4A9278B1
:104260009A730A4B1B680A4AD278DA73094B1B7897
:104270003B71084B5B787B71064B9B78BB71054BA0
:10428000DB78FB7110E000BF200100204C01002012
:104290001001002048010020FF233B71FF237B71A8
:1042A000FF23BB71FF23FB7104237B818D4B1A68B5
:1042B0007B89591C79811344352283F8EC20894B82
:1042C0001A687B89591C79811344012283F8EC20F8
:1042D000844B1A687B89591C79811344032283F823
:1042E000EC20804B1A687B89591C798113443D224C
:1042F00083F8EC207B4B1A687B89591C7981134425
:10430000072283F8EC20774B1A687B89591C798146
:104310001344012283F8EC20724B1A687B89591CE4
:1043200079811846704B197813180A4683F8EC20E7
:104330006C4B1A687B89591C798118466A4B5978ED
:1043400013180A4683F8EC20664B1A687B89591CBF
:1043500079811846644B997813180A4683F8EC2043
:10436000604B1A687B89591C798118465E4BD97855
:1043700013180A4683F8EC205A4B1A687B89591C9B
:1043800079811846584B197913180A4683F8EC209E
:10439000544B1A687B89591C79811846524B5979BC
:1043A00013180A4683F8EC20FB79FF2B40F0848039
:1043B0004C4B1A687B89591C79811344322283F84B
:1043C000EC20484B1A687B89591C798113440422DC
:1043D00083F8EC20434B1A687B89591C7981184675
:1043E000424B197813180A4683F8EC203D4B1A68A3
:1043F0007B89591C798118463C4B597813180A4619
:1044000083F8EC20374B1A687B89591C7981184650
:10441000364B997813180A4683F8EC20314B1A680A
:104420007B89591C79811846304BD97813180A4674
:1044300083F8EC202B4B1A687B89591C7981134433
:10444000362283F8EC20274B1A687B89591C798126
:104450001344042283F8EC20224B1A687B89591CF0
:1044600079811846224B197813180A4683F8EC20F4
:104470001C4B1A687B89591C798118461C4B59784A
:1044800013180A4683F8EC20164B1A687B89591CCE
:1044900079811846164B997813180A4683F8EC2050
:1044A000104B1A687B89591C79811846104BD978B2
:1044B00013180A4683F8EC200A4B1A687B89591CAA
:1044C000798113440C2283F8EC20064B1A687B890F
:1044D000591C79811344002283F8EC200023FB60EF
:1044E00019E000BF4C0100203C0100201001002019
:1044F00048010020664B1A687B89591C798118464F
:104500006449FB680B44197813180A4683F8EC20B9
:10451000FB680133FB605F4AFB6813441B78002B88
:10452000E8D15B4B1A687B89591C798118465A4B34
:10453000D97813180A4683F8EC20554B1A687B8902
:10454000591C79811846544B197913180A4683F877
:10455000EC204F4B1A687B89591C798118464E4BC9
:10456000597913180A4683F8EC20494B1A6879895F
:10457000FB680433CB1AF968C9B20331C9B21344DA
:104580000A4683F8EC20424B1A687B89591C7981D2
:104590001344372283F8EC203D4B1A687B89591C61
:1045A00079811344082283F8EC20394B1A687B89FF
:1045B000591C79811344012283F8EC20344B1A688A
:1045C0007B89591C79811344032283F8EC20304BFA
:1045D0001A687B89591C79811344062283F8EC20E0
:1045E0002B4B1A687B89591C798113440F2283F85D
:1045F000EC20274B1A687B89591C798113443A2295
:1046000083F8EC20224B1A687B89591C798113446A
:104610003B2283F8EC201E4B1A687B89591C798158
:1046200013441F2283F8EC20194B1A687B89591C0C
:1046300079811344212283F8EC20154B1A687B8979
:10464000591C79811344FF2283F8EC207B89FB609D
:1046500009E00F4B1A68FB681344EC3300221A7010
:10466000FB680133FB60FB68B3F59C7FF1DB0B4B10
:104670001878074B19683A1D4323009313464FF4EB
:104680000972FEF759FB00BF1037BD4680BD00BF61
:104690004C010020380000203C0100205001002087
:1046A00080B586B002AF00237B81FFF753FB042364
:1046B0007B819F4B1B680A3300221A709C4B1B683E
:1046C0000A33013300221A70994B1A687B89591CEE
:1046D00079811344352283F8EC20954B1A687B8945
:1046E000591C79811344012283F8EC20904B1A68FD
:1046F0007B89591C79811344042283F8EC208C4B6C
:104700001A687B89591C798113443D2283F8EC2077
:10471000874B1A687B89591C79811344072283F8D7
:10472000EC20834B1A687B89591C79811344012240
:1047300083F8EC207E4B1A687B89591C79811846D6
:104740007C4B197813180A4683F8EC20784B1A68CA
:104750007B89591C79811846764B597813180A467B
:1047600083F8EC20724B1A687B89591C79811846B2
:10477000704B997813180A4683F8EC206C4B1A6832
:104780007B89591C798118466A4BD97813180A46D7
:1047900083F8EC20664B1A687B89591C798118468E
:1047A000644B197913180A4683F8EC20604B1A6899
:1047B0007B89591C798118465E4B597913180A4632
:1047C00083F8EC205A4B1A687B89591C7981134471
:1047D000322283F8EC20564B1A687B89591C798168
:1047E0001344042283F8EC20514B1A687B89591C2E
:1047F00079811846504B197813180A4683F8EC2033
:104800004B4B1A687B89591C798118464A4B597859
:1048100013180A4683F8EC20454B1A687B89591C0B
:1048200079811846444B997813180A4683F8EC208E
:104830003F4B1A687B89591C798118463E4BD978C1
:1048400013180A4683F8EC20394B1A687B89591CE7
:1048500079811344362283F8EC20354B1A687B8922
:10486000591C79811344042283F8EC20304B1A68D8
:104870007B89591C79811846304B197813180A46E0
:1048800083F8EC202A4B1A687B89591C79811846D9
:104890002A4B597813180A4683F8EC20244B1A68DF
:1048A0007B89591C79811846244B997813180A463C
:1048B00083F8EC201E4B1A687B89591C79811846B5
:1048C0001E4BD97813180A4683F8EC20184B1A6847
:1048D0007B89591C79811344FF2283F8EC207B8962
:1048E000FB6009E0124B1A68FB681344EC330022AA
:1048F0001A70FB680133FB60FB68B3F59C7FF1DB4A
:10490000FF233B71FF237B71FF23BB71FF23FB71EF
:104910000B4B1878064B19683A1D43230093134636
:104920004FF40972FEF708FA00BF1037BD4680BD8C
:104930004C0100203C010020100100204801002013
:104940005001002090B589B002AF904B1B781846FB
:10495000FDF72BFC03463B823B8A002B11D08B4B8F
:1049600018788B4B19683C1D3A8ABB1C0093234670
:10497000FEF7FEFA03463B827B88432B40F04781DB
:1049800001E0002345E1824B1B681A7F814B1B78B5
:104990009A4224D17E4B1B685A7F7E4B5B789A42A9
:1049A0001DD17B4B1B689A7F7A4B9B789A4216D11C
:1049B000774B1B68DA7F774BDB789A420FD1744BC9
:1049C0001B6893F82020734B1B799A4207D1704BD8
:1049D0001B6893F821206F4B5B799A4201D000232A
:1049E00017E10023FB746A4B1B687B617B69F03322
:1049F0007B613B8AF03B7A691344FB6002E17B698F
:104A00001B78062B6ED0062B06DC012B25D0032B42
:104A100042D0002B11D0E8E0352B12D0352B03DC2F
:104A2000332B00F08580E0E0362B00F0BD80FF2BBB
:104A300040F0DB80FB687B61E4E07B6901337B61F4
:104A4000E0E07B6901337B617B6901337B617B69DA
:104A50005A1C7A611B78FB74D4E07B6901337B615B
:104A60007B6901337B617B695A1C7A611A784A4BF6
:104A70001A707B695A1C7A611A78474B5A707B69A5
:104A80005A1C7A611A78444B9A707B695A1C7A6175
:104A90001A78414BDA70B5E07B6901337B617B6941
:104AA0005A1C7A611B78FB727B695A1C7A611A78EE
:104AB0003A4B1A707B695A1C7A611A78374B5A70D4
:104AC0007B695A1C7A611A78344B9A707B695A1C3C
:104AD0007A611A78314BDA70FB7A043B7A691344B5
:104AE0007B618FE07B6901337B617B695A1C7A6152
:104AF0001B78FB727B695A1C7A611A78284B1A70F2
:104B00007B695A1C7A611A78254B5A707B695A1C4A
:104B10007A611A78224B9A707B695A1C7A611A78EA
:104B20001F4BDA70FB7A043B7A6913447B6169E0BE
:104B30007B6901337B617B695A1C7A611B78FB724C
:104B40007B695A1C7A611B781A46164B1A60154B02
:104B50001B681A027B69591C79611B781344114A3E
:104B60001360104B1B681A027B69591C79611B7812
:104B700013440C4A13600B4B1B681A027B69591CC7
:104B800079611B781344074A13603BE05001002011
:104B90004C0100203C0100201801002014010020DD
:104BA0001C010020300000207B6901337B617B69A0
:104BB0005A1C7A611B78FB727B695A1C7A611A78DD
:104BC000164B1A707B695A1C7A611A78134B5A700B
:104BD0007B695A1C7A611A78104B9A707B695A1C4F
:104BE0007A611A780D4BDA700CE07B6901337B61D6
:104BF0007B695A1C7A611B78FB72FB7A7A691344D1
:104C00007B6100BF7A69FB689A42FFF4F8AE97F9BE
:104C1000133018461C37BD4690BD00BF4801002028
:104C200080B582B000AF7F4B93F90030062B01D1E5
:104C30000523F3E07C4B1B789B000133DB0003F57D
:104C400040731846FDF70CF90346222B06D0764B2D
:104C50001878002344220221FDF7F0FB0123FB71A9
:104C6000FFF770FE0346BB716E4B93F90030042BC7
:104C700000F2D08001A252F823F000BF914C00084E
:104C8000B54C0008F94C0008494D0008A34D000838
:104C9000664B00221A70654B00225A70634B00224B
:104CA0009A70624B0022DA70FFF74AF95D4B0122DD
:104CB0001A70B2E0BB79022B19D15D4B1B681A7CCC
:104CC0005A4B1A705A4B1B685A7C584B5A70584BA7
:104CD0001B689A7C554B9A70554B1B68DA7C534B7A
:104CE000DA70FFF793FA4F4B02221A7095E000F04A
:104CF000B1F80346FB7190E0BB79052B16D100F0AB
:104D000013F90346002B08D04A4B1B68984700F064
:104D1000BDF9444B03221A707FE000F0B7F9464B0F
:104D20001B6898473F4B00221A7076E0BB79062B30
:104D300005D100F0ABF93B4B01221A706DE000F099
:104D400089F80346FB7168E00423FB713B4B1B6849
:104D5000B3F1FF3F60D0394B1B685A08384B1B68D2
:104D60009A4259D20023BB71304B1A78354B1A70D6
:104D70002E4B5A78334B5A702C4B9A78314B9A7091
:104D80002A4BDA782F4BDA702F4B1B6801332E4AEF
:104D90001360FFF73BFA00F079F9224B04221A70F6
:104DA0003AE00423FB71BB79052B25D1274B002268
:104DB0001A70244B1A781D4B1B789A4211D1214B43
:104DC0005A781A4B5B789A420BD11E4B9A78174B44
:104DD0009B789A4205D11B4BDA78144BDB789A42C8
:104DE00004D00323FB711A4B1B68984700F04EF95F
:104DF0000C4B03221A7010E0BB79062B05D100F092
:104E000045F9084B01221A7007E000F023F8034629
:104E1000FB7102E000BF00E000BFFB7918460837D5
:104E2000BD4680BD2001002050010020100100205F
:104E30004C010020400000204800002030000020ED
:104E4000240100200C010020440100202101002049
:104E50004400002080B582B000AF0123FB712B4BD2
:104E600093F90030012B33DC294B1A68294B1B685E
:104E70009A4245D2284B93F90030022B0AD0042BDA
:104E80000ED0012B00D011E0244802F0DBFDFFF72B
:104E900057F80BE0224802F0D5FDFFF7B7F905E01F
:104EA000204802F0CFFDFFF7B1F900BF194B0022F7
:104EB0001A60184B1B680A33154A1360134B93F999
:104EC0000030DBB20133DBB25AB2104B1A7017E07C
:104ED000114B93F90030022B0AD0042B08D0012B80
:104EE00000D00BE00C4B00221A700023FB7105E090
:104EF000FFF726F8084B01221A7000BF00F0C6F831
:104F0000FB7918460837BD4680BD00BF210100204F
:104F1000340000202401002020010020A08A000885
:104F2000CC8A0008F48A000880B584B002AF4FF440
:104F3000D850FCF795FF0346FB7103214FF4D8507E
:104F4000FCF7DAFF134B187841F288330093124BC9
:104F500011221249FDF7F0FE3860FB7919464FF433
:104F6000D850FCF7C9FF3B6813F10D0F01D10123A5
:104F70000CE0FFF795FB0A4B1B683B6000BF084B3A
:104F80001A683B68D31A012BF9D900231846083751
:104F9000BD4680BD5001002010010020208B00087C
:104FA0002401002080B584B000AF03463960FB7156
:104FB0000023FB6006222F494FF41060FCF7EAFF44
:104FC0002C4B1A782B4B5B781343DAB2294B9B7826
:104FD0001343DAB2274BDB781343DAB2254B1B7944
:104FE0001343DAB2234B5B791343DBB2002B17D1A7
:104FF000204B00221A701F4B08225A701D4BDC22D6
:105000009A701C4B0022DA701A4B00221A71194B4D
:1050100000225A71062217494FF41060FDF71AF862
:10502000154AFB791370154A3B681360144B154AF7
:105030001A6007F10C03042219464FF47060FDF763
:1050400009F807F10C03042219464FF47060FDF7CC
:1050500001F807F10C03042219464FF48070FCF7A5
:10506000F9FF00F013F8084B00221A7000BF103748
:10507000BD4680BD3C010020500100204C010020B5
:1050800044010020785634122001002080B400AF83
:10509000064B00221A60064B0A221A60054B0022BA
:1050A0001A7000BFBD465DF8047B704724010020E4
:1050B000340000202101002080B400AF044B1B68A5
:1050C0000133034A136000BFBD465DF8047B70479F
:1050D0002401002080B483B000AF78600C4B1A78B4
:1050E0007B681A707B680133094A52781A707B68B2
:1050F0000233074A92781A707B680333044AD278E5
:105100001A7000BF0C37BD465DF8047B704700BFC6
:105110001001002080B483B000AF78600C4B1A7887
:105120007B681A707B680133094A52781A707B6871
:105130000233074A92781A707B680333044AD278A4
:105140001A7000BF0C37BD465DF8047B704700BF86
:105150001401002080B483B000AF78600C4B1A7843
:105160007B681A707B680133094A52781A707B6831
:105170000233074A92781A707B680333044AD27864
:105180001A7000BF0C37BD465DF8047B704700BF46
:105190001801002080B483B000AF78600C4B1A78FF
:1051A0007B681A707B680133094A52781A707B68F1
:1051B0000233074A92781A707B680333044AD27824
:1051C0001A7000BF0C37BD465DF8047B704700BF06
:1051D0001C01002080B485B000AFF860B9607A602F
:1051E000FB68BA685A60FB687A681A6000BF1437B7
:1051F000BD465DF8047B704780B483B000AF786033
:105200007B681B684FF6FF72934203D07B681B6874
:10521000013300E001237A6813607B681B6818463D
:105220000C37BD465DF8047B7047F0B587B000AF22
:10523000F860B9607A604FF0FF337B6100233B6117
:1052400018E0FB681B6D9C68FB681D6DFB681A69A4
:105250003B69D618786801F03BFC0346BA683146D2
:105260002846A04778617B69002B0EDB3A697B6991
:1052700013443B613A69BB689A4207DA786801F0E7
:10528000E5FB0346002BDCD000E000BF3A69BB68B9
:105290009A420BD1FB6803F15402FB689B691946E3
:1052A000104601F0FDFB00237B6102E04FF0FF336D
:1052B0007B617B6918461C37BD46F0BD80B586B062
:1052C00000AFF860B9607A603B60FB68BA681A6545
:1052D00000237B6109E0FA687B690433DB00134437
:1052E00000225A607B6901337B617B69042BF2DD0C
:1052F000FB687A685A60FB683A681A61FB683A6A28
:105300009A60FB687A6A5A61FB68BA6ADA60FB687D
:1053100000221A62FB6800221A77FB680022DA6416
:10532000FB685433184601F0E9FB00BF1837BD464F
:1053300080BD90B58BB000AFF860B9607A60012392
:105340007B6200233B620423FB61BB6800221A607E
:105350004FF0FF33BB613B6A01333B623A6AFB6942
:105360009A4203DD4FF0FF33BB6121E0FB681B6D08
:105370005C68FB68186D07F117017B680122A04784
:10538000B861BB69012B12D1BB681A68FB7D03F0C1
:105390007F03796A01FB03F31A44BB681A607B6AD6
:1053A000DB017B62FB7D5BB2002BD1DB00E000BF49
:1053B0003B6A18462C37BD4690BDF0B589B000AFAA
:1053C000F860B9604FF0FF33FB6100233B750023A9
:1053D000BB6100233B61FB681B6D5C68FB681D6D56
:1053E000FB685E69B86801F073FB03460122314631
:1053F0002846A0470346012B3BD10123BB61B86877
:1054000001F066FB024607F110031946F868FFF742
:1054100090FFFB685B6901333A691146184600F05A
:105420000BFF0246BB691344BB613B69002B16DDD1
:10543000FB681B6D5C68FB681D6DFB685A69BB6986
:10544000D6183B697B60B86801F042FB03467A6876
:1054500031462846A04702463B699A420BD1FB6879
:105460005B691B783B753B7DC3F30313DBB2FB61C8
:1054700002E000BF00E000BFFB6918462437BD46CC
:10548000F0BD80B487B000AF786039607B687B6125
:105490003B689B683B613B685B681A463B69134409
:1054A000BB6039E03B691B782F2B03D17B691B78EC
:1054B0002F2B3AD17B691B782B2B09D07B691B786A
:1054C000232B05D07B691A783B691B789A422ED131
:1054D0007B691B782B2B12D13B690133FB6005E004
:1054E0003B6901333B613B690133FB60FA68BB6890
:1054F0009A420BD2FB681B782F2BF1D106E07B6917
:105500001B78232B02D1BB68013B3B617B690133D4
:105510007B613B6901333B617B691B78002B07D0C2
:105520003A69BB689A42BDD302E000BF00E000BF09
:105530003A69BB689A4205D17B691B78002B01D17F
:10554000012300E00023DBB218461C37BD465DF89E
:10555000047B704780B58AB000AFF860B9607A60AC
:105560004FF0FF337B6200233B623FE0FA683B6A07
:105570000433DB0013445B68002B34D0FA683B6AC9
:105580000433DB0013445B681946B86801F023F864
:105590000346002B0CD1FA683B6A0433DB0013444A
:1055A0005B68B9681846FFF76CFF0346002B1AD0FA
:1055B000FA683B6A0433DB0013449B68002B12D06B
:1055C00007F118037A68B9681846FFF703FEFA680E
:1055D0003B6A0433DB0013449B6807F11802104652
:1055E000984700237B623B6A01333B623B6A042B92
:1055F000BCDD7B6AB3F1FF3F12D1FB68DB6C002B93
:105600000ED007F110037A68B9681846FFF7E2FD7B
:10561000FB68DB6C07F110021046984700237B62A1
:105620007B6A18462837BD4680BD80B586B000AF7E
:1056300078604FF0FF337B617B689B69002B02D160
:1056400000237B6132E07B685433184601F0FEF999
:105650000346002B2AD07B6893F91C30002B25D100
:1056600007F10803184601F049FA07F108034FF45F
:105670007A71184601F000FA7B681A697B689B68AA
:105680001946104600F00EFD38613B69002B0DDD18
:1056900007F108031A4639697868FFF7C6FD786193
:1056A0007B69002B02D17B6801221A777B6918463F
:1056B0001837BD4680BD0000F0B595B006AF7860E4
:1056C000396039687868FFF778FE0346FB85002368
:1056D0007B6300233B63FB8D023B0B2B00F2BE8000
:1056E00001A252F823F000BF5D58000819570008C6
:1056F0005D580008DD5700085D5800085D58000837
:105700005D5800085D5800085D5800085D580008A5
:105710005D5800084F5800087B685B697A68D2685A
:10572000164607F11002151D07F11002541C07F16F
:10573000100107F11002901C0496039307F1100367
:105740000C33029307F110030833019307F1200390
:1057500000932B46224600F0B4FC0346012B40F098
:10576000818007F1100207F1200319467868FFF7DE
:10577000F1FE3B7C002B6ED03B7C012B0CD17B6877
:1057800018697B689B681946BB8A00930023042232
:1057900000F0F0FF78630EE03B7C022B0BD17B68BE
:1057A00018697B689B681946BB8A00930023052211
:1057B00000F0E0FF78637B6B002B03DC4FF0FF33DE
:1057C0003B6305E03A68796B7868FFF72EFD386334
:1057D0003B6BB3F1FF3F3ED100BF44E07B685C69A7
:1057E0007B68DB6807F10E0207F10D0107F10C0081
:1057F0000093234600F0D5FC0346012B03D04FF065
:10580000FF333B631EE07B6818697B689B68194621
:10581000FB8900930023062200F0ACFF78637B6BCA
:10582000002B03DC4FF0FF333B630BE03A68796BEE
:105830007868FFF7FAFC38633B6B002B02D04FF01F
:10584000FF333B633B6BB3F1FF3F06D10BE07B685B
:1058500000221A7702E000BF00E000BF7868FFF77F
:10586000E4FE00E000BF3B6B002B01D1FB8D3B63EE
:105870003B6B18463C37BD46F0BD00BF80B586B0D7
:1058800000AF7860396000237B6107F10C03184694
:1058900001F034F93A6807F10C031146184601F09B
:1058A000EBF80DE007F10C0319467868FFF704FFE9
:1058B0000346B3F1FF3F03D14FF0FF337B6107E0B5
:1058C00007F10C03184601F0C1F80346002BE9D09C
:1058D0007B6918461837BD4680BD80B586B000AFDD
:1058E000F860B9607A604FF0FF337B61786801F04F
:1058F000ADF80346002B09D17968F868FFF7DCFEA4
:1059000078617A69BB689A42F0D100E000BF7B6998
:1059100018461837BD4680BD80B59CB000AF786092
:1059200039604FF0FF33FB663D4A07F10C03114627
:105930005422184601F052FF0023BB6607F16003B2
:10594000184601F0DBF87B685A6807F160031146DE
:10595000184601F091F87B681B6A002B50D13B6818
:10596000002B02D107F10C033B603B689B8A1A466F
:105970007B689A617B6803F154027B689B691946D6
:10598000104601F08DF87B6818697B689B683A685F
:10599000194600F00BFAB866BB6E002B32DD07F13A
:1059A00060031A46B96E7868FFF73FFCF866FB6E35
:1059B000002B29D107F160031A4602217868FFF70E
:1059C0008CFF0346022B17D1FF23FB720023BB720F
:1059D0007B685A697B68DB6807F10B0107F10A00F5
:1059E00000F0D2FA0346012B02D1FB7AFB660CE0F1
:1059F0004FF0FF33FB6608E04FF0FF33FB6604E037
:105A000000BF02E000BF00E000BFFB6E002B02D130
:105A10007B6801221A62FB6E18467037BD4680BD56
:105A2000348B0008B0B594B004AFF860B9603B6047
:105A30001346FB714FF0FF33FB6300237B630023AE
:105A40003B6200237B620023BB62BB683B6207F1C1
:105A50002C03184601F052F8FB685A6807F12C0332
:105A60001146184601F008F8FB681B6A002B74D039
:105A7000FB681C69FB689B681D46F868FFF7BCFB68
:105A800003469AB2FB1D029307F120030193012301
:105A90000093134600222946204600F0E8FE786372
:105AA0007B6B002B5BDD07F12C031A46796BF868E2
:105AB000FFF7BBFBF863FB6B002B52D107F12C0304
:105AC0001A460921F868FFF708FF0346092B40D161
:105AD0000023FB614FF0FF33BB61FB685B69FA6831
