:1000000000100020810E0000C90E0000D504000081
:10001000C90E0000C90E0000C90E0000000000005B
:10002000000000000000000000000000C90E0000F9
:10003000C90E000000000000C90E00006D020000A3
:10004000C90E0000C90E0000C90E0000C90E000054
:10005000C90E0000C90E0000C90E0000C90E000044
:10006000C90E0000C90E00000000000000000000E2
:10007000C90E0000C90E0000C90E000000000000FB
:10008000C90E0000C90E0000C90E0000C90E000014
:100090000000000000000000000000000000000060
:1000A00000000000C90E0000000000000000000079
:1000B000C90E0000C90E0000000000000000000092
:1000C00010B5064C2378002B07D1054B002B02D02E
:1000D000044800E000BF0123237010BD840000200D
:1000E00000000000802E0000084B10B5002B03D04C
:1000F0000749084800E000BF07480368002B00D10B
:1001000010BD064B002BFBD09847F9E7000000001C
:1001100088000020802E00008000002000000000E9
:10012000164B002B00D1144B9D46402292029A1A86
:10013000924600218B460F461348144A121A01F0CA
:1001400088FD0F4B002B00D098470E4B002B00D0A2
:1001500098470020002104000D000D48002802D01F
:100160000C4800E000BF01F03DFD2000290000F038
:10017000CDF801F021FDC04600000800001000206D
:10018000000000000000000084000020E8000020C3
:10019000000000000000000010B5012800D010BDD4
:1001A000044B9942FBD1044B08220721034800F07D
:1001B00013FBF4E7FFFF000080969800A4000020E6
:1001C00010B5A022D20580235B005921D1504339BC
:1001D000D1507231D150D358002BF2D0873907203B
:1001E00000F010F90822054B9A6000F06FFE002124
:1001F00080235B00A022D205D15010BD0002005028
:1002000070470000002803D10022034B1A6070479A
:100210000122014B1A60FAE710420050002308E067
:1002200001210F4A11600CE000210E4A11600133D8
:10023000DBB2072B12DC42B2002AF1DB0021084AB4
:1002400011604000C0B20121064A1160064A1268DE
:10025000002AE9D001221043C0B2E5E77047C0464A
:10026000144200501C420050184200500A4A1368C1
:1002700001331360FA225200934207D9074A1368E8
:1002800001214B4013600022034B1A60044A13689B
:10029000013313607047C046A00000202842005080
:1002A000C400002010B501221021144800F0BCF851
:1002B000134C01221021200000F0B6F80122202169
:1002C000200000F0B1F800224021200000F0ACF83E
:1002D00001228021200000F0A7F801220421094812
:1002E00000F0A2F8084C01221021200000F09CF838
:1002F00001222021200000F097F810BD804000501E
:100300000040005040400050C040005010B58EB03A
:10031000002303931C22002104A801F09AFCFFF79C
:100320004FFFFFF7BFFF2A4B1868FA21890000F042
:100330002FFE0138274B98420DD8274A5060274896
:10034000036A1B021B0AC02109060B430362002338
:10035000936007331360224C200000F02DFC214AEB
:100360000021200000F0DEFA01220021200000F030
:100370005AFB200000F020FB07E000231A4A13601C
:100380001A4A1360684600F0CAFC154800F0A2FA49
:100390000028FAD0202203A9114800F0A0FA03A9EE
:1003A000684600F00BFD12490BA800F007FD0BA9F1
:1003B000684600F036FD04000BA800F0B0FC002CED
:1003C000DBD00123084A1360084A1360DAE7C0460D
:1003D000E0000020FFFFFF0010E000E000ED00E083
:1003E000A4000020782C000074420050704200509D
:1003F000802C000010B502490120FFF7CDFE10BD92
:10040000FFFF000010B5074A93690F24A343194367
:100410009161136907218B431843106100F056FD69
:1004200010BDC0460002005070B5002300E001334B
:10043000072B0DD801249C402142F8D004685E00AF
:100440000325B540AC431500B5402C430460EEE7EE
:1004500070BD000010B504000168104801F0AAFC4E
:1004600061680F4801F0A6FCA1680E4801F0A2FCEB
:10047000E1680D4801F09EFC21690C4801F09AFCEE
:1004800061690B4801F096FCA1690A4801F092FCF1
:10049000E169094801F08EFC10BDC046A02C0000A7
:1004A000AC2C0000B82C0000C42C0000D02C0000A4
:1004B000DC2C0000E82C0000F42C000010B5040037
:1004C000034801F0F1FC2000FFF7C4FFFEE7C0463F
:1004D000882C0000064B04207146084203D0EFF33D
:1004E00009807146EAE7EFF30880E7E7FEE7C046D8
:1004F000BD04000030B5130001E0230001005C1EC4
:10050000002B14D00B4B9B691B02FBD4481C00250D
:100510004D57084B1D600123CB560A2BEDD1054BDF
:100520009B691B02FBD40D21024B1960E5E710000B
:1005300030BDC04600000540044B9B695B04FBD402
:10054000024B1B680B7001207047C046000005403D
:10055000134B98420FD0134B5A69120B07231340C9
:10056000002B10D10F4B1A6803231340012B08D026
:100570008020000270470B4B5A69120A0723134070
:10058000EEE70948F6E7012B07D0022B02D0074B14
:100590001868EFE7064B1868ECE70648EAE7C0463C
:1005A0000000014000020050001BB70004000020C2
:1005B000E000002010270000F0B583B005000F0018
:1005C000FFF7C6FF0600244B1868310000F0E0FC7E
:1005D000040000232B606B61204B9E4221D0380029
:1005E00009300A2100F0D4FC83001B1858001C4B72
:1005F0009E421FD9B608032701F092F901903000FE
:1006000001F08EF9011C019800F0AEFE154900F0D2
:1006100063FD00F049FD68608023DB053B432B60F0
:1006200012E038006330642100F0B2FC0300642063
:100630005843DCE70C4B9E4202D976080127DBE7E2
:100640000027D9E7C046013C002CFBD12B689B0159
:10065000FCD403B0F0BDC046E0000020102700002D
:10066000FFFFFF0100247449FFFFFF0070B5040085
:100670000D000020FFF7C6FD2800FFF7CFFD207218
:10068000FF20FFF7CBFD04000120FFF7BBFD20009A
:1006900070BDF8B507000C0016001D000020FFF724
:1006A000B1FD20202043C0B2FFF7B8FD38726C1EA8
:1006B000E4B2002D06D0771C3078FFF7AFFD25009F
:1006C0003E00F4E70120FFF79DFDF8BD70B5060080
:1006D0000C001500002B0FD10020FFF793FD202008
:1006E0002043C0B2FFF79AFD30722800FFF796FD55
:1006F0000120FFF787FD70BD0020FFF783FD20205C
:100700002043C0B2FFF78AFD30720120FFF77AFD67
:10071000F1E7F0B5C64600B504000F001600837A75
:10072000002B19D1457AAA4200DB2E00AD1BEDB299
:100730000020FFF767FD6120FFF770FD2072741E37
:10074000E4B2002E0FD07B1C9846FF20FFF766FD19
:10075000387026004746F2E7131C202A00D92023D0
:10076000DEB20025E4E76C1EE4B2002D04D0FF20C9
:10077000FFF754FD2500F6E70120FFF743FD04BC19
:100780009046F0BD10B504000123FF22E221FFF7DF
:100790009DFF207A10BD10B504000123FF22E12146
:1007A000FFF794FF207A10BD10B504000123FF224B
:1007B000FF21FFF78BFF207A10BD00000023037399
:1007C000034B42689A4201D8024B43607047C046CF
:1007D000B88800008096980010B50400018042801F
:1007E0004360202343721F3B83720433437400220F
:1007F000C274C361FFF7E2FF200010BD10B50A000C
:100800007C2904DC00230521FFF760FF10BD7D2259
:10081000F8E770B50500002913DD0B1C202900D96D
:100820002023DBB26B720024052C0CDC210011317B
:10083000C9B26A7A00232800FFF748FF0134E4B206
:10084000F2E70123EEE770BD0288064B9A4206D01C
:1008500042889A4201D0012070470020FCE7002026
:10086000FAE7C046FFFF000010B5FFF7EDFF041EDA
:1008700001D1200010BD0020FFF7C2FC0120FFF7CE
:10088000C1FCF6E710B5827C930700D510BD0223AA
:100890001A43D2B2827400230021FFF717FF0249E6
:1008A0000248FFF789FEF1E78813000020000140AD
:1008B00010B50C00FFF778FF4010072318400528FB
:1008C00004DC002C04D02070012010BD0020FCE7C7
:1008D0000120FAE710B50021FFF7EAFF10BD10B5BF
:1008E0000400FFF716FF0023402207212000FFF736
:1008F000EDFE10BD70B504000239C9B2002907D160
:10090000002300220321FFF7E1FE0223637470BD80
:1009100003250D4000232A000321FFF7D7FE0235EF
:100920006574F4E770B504000D00160000291BD0B3
:10093000052D18DC012D1DDD124B595D0123320000
:100940002000FFF7A6FE02212000FFF78FFE40B235
:100950000D4B5B5D01229A400243D2B2002302217B
:100960002000FFF7B3FE70BD0C30627C310001F057
:1009700067F9DDE7034B595D637C32002000FFF728
:1009800088FEE0E7002D0000082D000070B504008F
:100990000D000221FFF76AFE42B2064B595D0123AA
:1009A0008B409A43D2B2002302212000FFF78EFE33
:1009B00070BDC046082D000010B50400FFF762FFAF
:1009C000A27C01231A43D2B2A2740023002120008A
:1009D000FFF77CFE0023702207212000FFF776FE40
:1009E0000120FFF70DFC237B002B07DD22000C32DA
:1009F000637C0A212000FFF74CFE10BD002120007F
:100A0000FFF7C4FFF9E710B504000020FFF7FAFB79
:100A10005020FFF703FC20727320FFF7FFFB01203B
:100A2000FFF7F0FB10BD70B505000C0016000621A5
:100A3000FFF71CFE07239843C0B2032C0ADC6400B6
:100A4000E2B29219D2B20243002306212800FFF736
:100A50003DFE70BD0636F2B2F5E770B505000E003A
:100A60000621FFF703FE28239843C4B2F033AB619D
:100A7000022E0FD0012E14D00023220006212800C0
:100A8000FFF724FE06212800FFF7F0FD84420ED078
:100A9000002070BD20200443E4B2FA23FF33AB6191
:100AA000EAE708200443E4B2F023AB61E4E7012065
:100AB000EFE710B50F2900DD0F2109010F2A00DD36
:100AC0000F220A43D2B200230421FFF7FFFD10BD1D
:100AD00070B5040036493748FFF76EFD0F22052137
:100AE0002000FFF7E6FF00212000FFF7B6FF1D21E1
:100AF0002000FFF7BBFD05002000FFF784FF1D214C
:100B00002000FFF7B3FD2D1A6B426B41DBB2E3749B
:100B1000002807D0002B46D1002300221D212000F1
:100B2000FFF7D4FD0025E572002300221C212000E0
:100B3000FFF7CCFDA57200233F2201212000FFF723
:100B4000C5FD0023032202212000FFF7BFFD202165
:100B50002000FFF75EFE05212000FFF7CBFE4C21B1
:100B60002000FFF74BFE0023702207212000FFF733
:100B7000ADFD2000FFF706FE2000FFF70CFE00236E
:100B80000C2200212000FFF7A1FD00212000FFF72B
:100B90006DFDA0742000FFF775FEA07C0E38434267
:100BA0005841C0B270BD2000FFF72DFFB4E7C0462A
:100BB000881300002000014010B50400FFF754FE28
:100BC000002800D110BD2000FFF782FFFAE7704730
:100BD000F8B507000D0000260024022E0DDCBB191D
:100BE00019790A22280000F096F824182E212800EE
:100BF00000F044F824180136EFE7F9790A222800BA
:100C000000F089F82018F8BD10B5040000F0BCF918
:100C1000200010BD30B503AC2578044C08340460C6
:100C2000017142718371C57130BDC046102D000045
:100C300000B583B0012801D003B000BD054B994237
:100C4000FAD1002100910B000A000348FFF7E2FFF0
:100C5000F2E7C046FFFF0000C800002010B50249BF
:100C60000120FFF7E5FF10BDFFFF000010B50249AE
:100C70000020FFF7DDFF10BDFFFF000010B5C9B277
:100C800003681B68984710BDF0B5C64600B58CB028
:100C900080460D00100001920021202303AAD154A8
:100CA000012801DD0BAF07E00A230193FAE737348F
:100CB00064B23C70002D10D00199280000F0EEF9CC
:100CC0000C004EB20199280000F062F90500013FC6
:100CD000092EECDC303464B2EBE7002F0DD0380085
:100CE00001F01AF9020043461B685B683900404670
:100CF00098470CB004BC9046F0BD0020F9E710B551
:100D0000002A03D0D2B2FFF7BFFF10BDC9B20368FB
:100D10001B689847F9E710B5FFF7F1FF10BD10B554
:100D20000400006800F082FF200010BD10B5040030
:100D30000068002801D000F079FF00232360A36041
:100D4000636010BD70B504000D000131006801F052
:100D5000B5F8002803D020606560012070BD002038
:100D6000FCE710B504000368002B02D043688B42F7
:100D70000CD22000FFF7E6FF002808D0A368002B64
:100D800006D1236800221A70012000E0012010BD66
:100D90000120FCE770B504000E0015001100FFF7FC
:100DA000E0FF002806D0A5603100206801F0ACF813
:100DB000200070BD2000FFF7B9FFF9E770B504000F
:100DC0000D000023036043608360002907D0080002
:100DD00001F0A2F8020029002000FFF7DBFF20004D
:100DE00070BD10B50368002B07D00A68002A04D034
:100DF0001100180001F07EF810BD0A68002A02D028
:100E00008968002906D1002B07D08268002A06D005
:100E10001878F1E710784042EEE70020ECE7002078
:100E2000EAE710B583688A68934201D0002010BDBC
:100E3000FFF7D7FF002801D00020F8E70130F6E7E0
:100E400010B500F0B3FE582303600120404210BDEE
:100E500010B500F0ABFE582303600120404210BDE6
:100E600010B500F0A3FE58230360002010BD10B59C
:100E700000F09CFE582303600120404210BD00009A
:100E80000B490C4A0C4B9B1A03DD043BC858D0504D
:100E9000FBDC0A48592101601621016088210160AC
:100EA000074808490160054800210160FFF738F94B
:100EB0008C2E000000000020840000200001005063
:100EC00060000050A55A0000FEE7C04610B582B091
:100ED000234B1B680193234B1B6AA022D2021342AF
:100EE00019D11A0315D520489A0315D4990B03225A
:100EF0000A4001A98C5CDA05D20D02325B0A1F217F
:100F00001940023180085043614300F041F88000ED
:100F100002E01648E8E70020154B1860114B1A69EB
:100F20000723134019D0022B02D0032B13D00E48F5
:100F30000C4B9B690F211940013100F029F80D4B32
:100F400018600D4B9C4660440C4900F021F80C4B96
:100F5000186002B010BD0B48EAE70448E8E7C04655
:100F6000242D00000002005000805101001BB7003A
:100F700000000020E000002020A1070040420F00F8
:100F8000E40000201027000010B500F04FFE10BD57
:100F9000002243088B4274D303098B425FD3030AB8
:100FA0008B4244D3030B8B4228D3030C8B420DD3CB
:100FB000FF22090212BA030C8B4202D31212090259
:100FC00065D0030B8B4219D300E0090AC30B8B4297
:100FD00001D3CB03C01A5241830B8B4201D38B0345
:100FE000C01A5241430B8B4201D34B03C01A5241EA
:100FF000030B8B4201D30B03C01A5241C30A8B422D
:1010000001D3CB02C01A5241830A8B4201D38B0217
:10101000C01A5241430A8B4201D34B02C01A5241BB
:10102000030A8B4201D30B02C01A5241CDD2C3092D
:101030008B4201D3CB01C01A524183098B4201D3A9
:101040008B01C01A524143098B4201D34B01C01A94
:10105000524103098B4201D30B01C01A5241C3080C
:101060008B4201D3CB00C01A524183088B4201D37B
:101070008B00C01A524143088B4201D34B00C01A67
:101080005241411A00D20146524110467047FFE7D3
:1010900001B5002000F006F802BDC0460029F7D0D7
:1010A00076E770477047C0469E2110B5C905041CFD
:1010B00000F0ACFC002803D1201C00F011FC10BD96
:1010C0009E21201CC90500F06FFA00F009FC802366
:1010D0001B069C466044F2E7F0B557464E46DE4696
:1010E0004546E0B544024300C60F83B00F1C640AB6
:1010F0001B0EB24653D0FF2B27D08022E400D2042F
:1011000014437F22524290469844002399469B46BE
:101110007D027800FB0F6D0A000E009324D0FF289B
:1011200046D080230021ED00DB041D437F38474675
:10113000381A4F460F43BF00B9463300009A874F15
:1011400053404A46BA5801939746002C4ED1082383
:101150009946F7339846FD3B9B467D027800FB0F8E
:101160006D0A000E0093DAD1002D26D10020012156
:101170003300009A7A4F53404246101A4A460A43B7
:101180009200BA581D009746009B2C009A468B4649
:101190005B46022B31D15346FF21002438E0002C5E
:1011A00017D1042399460023984601339B46AFE7A5
:1011B000FF20002D0BD10221DAE7280000F030FCDF
:1011C000431F9D4076235B42181A0021AFE703219D
:1011D000ADE7200000F024FC431F9C4076235B42D7
:1011E0001B1A9846002399469B4691E70C23994683
:1011F000F3339846FC3B9B468AE7032B00D1A5E0DE
:101200005546012B00D081E00123002100242B4012
:101210006402C905600ADB070843184303B03CBCFD
:1012200090469946A246AB46F0BD80240023E403D5
:10123000FF21EDE7FF210024EAE70123591A1B29CA
:1012400066DD019A134000210024E1E78023DB03DF
:101250001C4238D01D4251D01C436402640A330042
:10126000FF21D5E763016C01A3423BD21B2600217D
:10127000013801251F0049005B00002F01DB9C4263
:1012800001D81B1B2943013E002EF3D11C00631E15
:101290009C410C4301007F310029CEDD630704D05F
:1012A0000F232340042B00D00434230103D5010075
:1012B0002C4B80311C40FE290DDD0123019AFF21BA
:1012C00013400024A4E78023DB031C436402640A68
:1012D0003300FF219CE70123019AA401640AC9B2EB
:1012E000134095E71B1B1A260121C2E7009B8B4682
:1012F0009A4600244CE76302E5D500258024E403E8
:101300002C436402640A009BFF2181E70195C1E739
:1013100023002020CB40411A8C40611E8C411C438D
:10132000630704D00F232340042B00D0043463014F
:1013300005D50123019A01211340002468E7012308
:10134000019AA401640A1340002161E78023DB03B2
:101350001C436402640A5346FF2159E7282D00000C
:10136000682D0000FFFFFFF7F8B557464E4645468B
:10137000DE46E0B54702460088467F0A360EC40FB7
:10138000002E47D0FF2E24D0FB008027FF041F43F0
:10139000002399469A467F3E43465D025800DB0F84
:1013A0006D0A000E984643D0FF283BD0EB00802505
:1013B0000022ED041D437F383618731C41469B46BE
:1013C0004B46614013430F2B64D875489B00C358AC
:1013D0009F46002F42D108239946063BFF269A4696
:1013E000DAE74146022A28D0032A00D1CEE0012ABA
:1013F00000D0ACE0114000200022CCB24002D20567
:10140000400AE407104320433CBC90469946A2465C
:10141000AB46F8BD002F15D104239946033B0026A7
:101420009A46B9E7FF200222002DC5D00322C3E768
:10143000002D19D100200122BEE70124FF220C401B
:101440000020DBE7380000F0EBFA7626431F9F40D0
:1014500000237642361A99469A469DE70C23994610
:10146000093BFF269A4697E7280000F0D9FA431F68
:101470009D4076235B42181A00229DE780200024BD
:10148000C003FF22BAE73D005246ABE73D00210012
:101490005246A7E73B0C9C462A04120C2B0C140066
:1014A000604665463F043F0C7C4342435D437B43BB
:1014B000270C9B18FF18BA4203D980235B029C4675
:1014C000654424043A04240C121993015C1EA341C0
:1014D0003F0C920E7D191A43AD0115432B0104D523
:1014E00001235E466A081D40154332007F32002A00
:1014F00025DD6B0704D00F232B40042B00D00435CF
:101500002B0103D53200274B80321D40FE2A94DC8C
:101510000124A801400AD2B20C406FE78020C0032A
:10152000074207D0054205D128434002400A4446FD
:10153000FF2263E738434002400AFF225EE70124AE
:10154000A31A1B2B05DD0C400022002056E75E4647
:10155000CBE72A002020DA40C31A9D402B005D1EF5
:10156000AB4113435A0704D00F221A40042A00D07B
:1015700004335A0104D5012401220C4000203DE728
:1015800001249B01580A0C40002237E780200124E7
:10159000C00328434002400A0C40FF222EE7C04609
:1015A000A82D0000FFFFFFF7F0B54F46D646464690
:1015B0004400C0B5C20F47024802400A844666464E
:1015C0007B0A4800C90F9A46240E1500DB00000E66
:1015D0008946F600FF2800D18FE001214F464F4099
:1015E0003900914266D0221A002A00DC9DE00028D2
:1015F0003DD1002E00D18BE0511E002900D0B5E076
:1016000001249B1B5A0144D59B019F09380000F01F
:1016100007FA05388740844200DD96E0041B3A0053
:1016200020200134E240041BA7403B005F1EBB4169
:10163000002413435A0704D00F221A40042A00D072
:1016400004335A0127D50134FF2C00D179E001225F
:101650009B015B0AE4B22A405B02E405580AD20708
:10166000204310431CBC90469946A246F0BDFF2C77
:10167000E0D08021C9040E431B2A7BDC31002020EE
:10168000D140821A9640721E96410E439B1B5A010E
:10169000BAD45A07D0D10122DF082A40FF2C33D117
:1016A000002F00D1A8E08023DB033B435B025B0AF1
:1016B000FF24D1E7211A00294CDD00282AD0FF2C75
:1016C000B8D08020C00406431B2900DDAFE0300005
:1016D0002027C840791A8E40711E8E4106439B19FF
:1016E0005901D6D50134FF2C00D185E001227A4979
:1016F0001A405B080B4013439CE7002E00D070E7B4
:101700006BE73B1EC5D100227B025B0AE4B2A3E774
:1017100014008FE7002E4DD0481E002857D19B198A
:1017200001245A01B5D50224E0E7002A25D1621C24
:10173000D2B2012A72DD9F1B7A0135D5F71A0D004E
:1017400064E7012200232A4086E73B00634A241A0B
:1017500013406FE700296CD1611CC8B201284EDD2F
:10176000FF2949D09B195B080C0063E7FF2A41D091
:101770000A0081E701269B1B89E7002C1CD0FF286B
:1017800021D08024E404524223431B2A00DD96E04A
:101790001C002025D440AA1A93405A1E934123438B
:1017A000F31A04000D002DE7002F00D02EE70022D1
:1017B0000024A9E70C003DE7002B58D0D243002AB3
:1017C000EED0FF28E1D13300FF240D0032E7FF29DE
:1017D00010D0010078E7002B6ED0FF24002E00D13E
:1017E00028E780225146D203114203D061461142BC
:1017F00000D13300FF241DE7FF2400232CE7002C39
:10180000E9D1002B63D0002E00D113E79B195A01B8
:1018100000D43EE7314A0C0013400BE7002C1ED1E8
:10182000002B2FD1002E4FD033000D0002E70126F0
:1018300055E7002C1FD1002B43D0C94300290BD002
:10184000FF2839D01B2944DC1C002027CC40791A02
:101850008B40591E8B4123439B19040040E7002B0A
:101860001AD1002E24D180270022FF031BE733006A
:1018700004000D00DEE6FF281ED08024E404494267
:101880002343DFE7002E00D1D4E69F1B7A0100D46A
:1018900037E7F31A0D00CDE6FF24002E00D1C9E68C
:1018A00080225046D2031042A4D060461042A1D1FB
:1018B00033000D00FF24BDE63300FF24BAE6012308
:1018C0006EE733000400B5E6002700221CE7330072
:1018D000B0E60123C0E7C046FFFFFF7DFFFFFFFB2F
:1018E00041024300C20F490A1B0E00207E2B0DDD72
:1018F0009D2B0CDC802000040143952B0ADC9620F4
:10190000C31AD9404842002A00D108007047034B4F
:10191000D018FBE7963B9940F4E7C046FFFFFF7FF6
:1019200010B5041E27D000F07BF89E231B1A962BBF
:101930000ADC9622D21A94406402640ADBB2640282
:10194000DB05600A184310BD992B17DC9922D21AC7
:10195000002A27DD94402200134C1440510704D084
:101960000F210A40042A00D00434620112D4A401D9
:10197000640ADBB2E3E700230024E0E7B922210098
:10198000D21A91400A00511E8A410521091ACC4001
:101990001443DBE7044B1C409F23A4011B1A640A79
:1019A000DBB2CCE72200D7E7FFFFFFFB8446081C31
:1019B0006146FFE71FB500F0B7F8002801D4002109
:1019C000C8421FBD10B500F049F84042013010BDBB
:1019D00010B500F0A9F8002801DB002010BD01209F
:1019E00010BDC04610B500F09FF8002801DD0020B2
:1019F00010BD012010BDC04610B500F055F80028FC
:101A000001DC002010BD012010BDC04610B500F063
:101A10004BF8002801DA002010BD012010BDC0469F
:101A20001C2101231B04984201D3000C10391B0A0E
:101A3000984201D3000A08391B09984201D30009D2
:101A4000043902A2105C40187047C0460403020229
:101A500001010101000000000000000070B542001B
:101A600045024E024C00C30F6D0A120E760A240E78
:101A7000C90F0120FF2A06D0FF2C03D0A24201D1BA
:101A8000B54206D070BD002DFCD1FF2CFAD1002E3E
:101A9000F8D18B4206D00120002AF3D12800451E40
:101AA000A841EFE70020EDE7F0B5420045024C0207
:101AB000C30F48006D0A120E640A000EC90FFF2AF8
:101AC0001ED0FF2821D0002A0AD16E426E41F6B204
:101AD00000280FD1002C0DD10020002D09D005E0E9
:101AE000002801D1002C01D08B4211D00121584295
:101AF0000843F0BD002EF7D0012001390843F8E774
:101B0000002DDED002204042F3E7002CDBD0F9E7C5
:101B10008242EBDC04DBA542E8D80020A542E8D2F3
:101B20000121581E0843E4E7F0B542004D024C0085
:101B30004602760A120EC30F6D0A240EC90FFF2A41
:101B400016D0FF2C18D0002A0AD170427041C0B2C2
:101B5000002C15D0002805D0012001390843F0BD24
:101B6000002C13D0994214D001205B421843F6E7B1
:101B70000220002EF3D1E4E70220002DEFD1E2E7AE
:101B8000002DE7D10020002EE9D0EDE7002DE9D1AE
:101B9000EAE7A24206DCDFDBAE4203D80020AE4219
:101BA000DAD3DCE7012049420843D8E7014B186843
:101BB0007047C04608000020084B10B50400002BF9
:101BC00002D0002100E000BF054B1868836A002B9B
:101BD00000D09847200001F041F8C0460000000006
:101BE000E82D000070B500260C4D0D4C641BA410B0
:101BF000A64209D1002601F033F80A4D0A4C641BB5
:101C0000A410A64205D170BDB300EB589847013629
:101C1000EEE7B300EB5898470136F2E76C0000207E
:101C20006C0000206C0000207800002010B5034BF1
:101C30000100186800F016F810BDC046080000202A
:101C4000002310B59A4200D110BDCC5CC4540133BE
:101C5000F8E703008218934200D1704719700133EE
:101C6000F9E7000070B50500002910D00C1F2368AB
:101C7000002B00DAE418280000F01CFC1D4A136851
:101C8000002B05D163601460280000F014FC70BDC7
:101C9000A34209D9216860188342F3D118685B68B0
:101CA00041182160EEE713005A68002A01D0A242D1
:101CB000F9D919685818A0420BD12068091858188A
:101CC00019608242E0D110685268411819605A6068
:101CD000DAE7A04202D90C232B60D5E7216860180F
:101CE000824203D1106852684118216062605C60D2
:101CF000CAE7C046D0000020032370B5CD1C9D4329
:101D0000083506000C2D1ED20C25A9421DD8300026
:101D100000F0D0FB254A14682100002919D1244C79
:101D20002368002B03D1300000F0D2F82060290096
:101D3000300000F0CDF8431C2CD10C233000336070
:101D400000F0B9FB03E0002DDFDA0C233360002044
:101D500070BD0B685B1B1AD40B2B03D90B60CC181E
:101D6000256003E08C420ED163681360300000F000
:101D7000A2FB200007220B30231D9043C31AE7D09B
:101D80005A42E250E4E74B6863600C00EEE70C0057
:101D90004968C2E70323C41C9C43A042E0D0211A37
:101DA000300000F095F8431CDAD1C6E7D0000020DF
:101DB000D40000200FB40B4B13B51C68002C05D0C9
:101DC000A369002B02D1200000F072FA05AB049A3F
:101DD000A1682000019300F0BDFB16BC08BC04B054
:101DE0001847C0460800002070B505000E00002806
:101DF00004D08369002B01D100F05AFAAB69AC68BA
:101E0000002B02D1280000F053FA244B9C420FD142
:101E10006C68A3891B0702D52369002B20D1210000
:101E2000280000F0D7F800281AD00120404270BDE9
:101E30001B4B9C4201D1AC68EBE71A4B9C42E8D1AA
:101E4000EC68E6E7013B0136A360002B04DAA269E7
:101E5000934216DB0A2914D023685A1C2260197099
:101E60003178A3680029EDD1013BA360002B0FDA84
:101E700022000A31280000F057F8431CD5D00A2070
:101E8000D5E72200280000F04FF8431CE8D1CCE74A
:101E90000A2023685A1C22601870C8E70C2E000024
:101EA0002C2E0000EC2D000010B5034B010018682B
:101EB000FFF79AFF10BDC0460800002010B5034B85
:101EC0000A000100186800F0F7FA10BD08000020B1
:101ED000002370B5064C05000800236000F0B0FE3A
:101EE000431C03D12368002B00D02B6070BDC0467B
:101EF000DC00002002780B78002A03D00130013189
:101F00009A42F7D0D01A7047031C0A7801311A7030
:101F10000133002AF9D170470023C25C0133002A43
:101F2000FBD1581E70470000F8B505000E001400E4
:101F3000002804D08369002B01D100F0B9F9224BAD
:101F40009C422DD16C68A369A360A3891B0731D57E
:101F50002369002B2ED023682269F7B2981A63698F
:101F6000F6B2984205DB2100280000F033F9002882
:101F700026D1A3680130013BA36023685A1C22606C
:101F80001F706369984204D0A389DB071AD50A2E13
:101F900018D12100280000F01DF9002812D00FE010
:101FA0000A4B9C4201D1AC68CDE7094B9C42CAD197
:101FB000EC68C8E72100280000F00CF80028CAD01F
:101FC000012676423000F8BD0C2E00002C2E0000B9
:101FD000EC2D0000364B70B51D6806000C00002D7E
:101FE00005D0AB69002B02D1280000F061F9314B1C
:101FF0009C420FD16C680C23E25E93B219072DD47A
:10200000D90611D409230120336037331343A38148
:10201000404270BD284B9C4201D1AC68EBE7274B96
:102020009C42E8D1EC68E6E75B0713D5616B0029B9
:1020300008D023004433994202D03000FFF712FE4B
:10204000002363632422A3899343A3810023636055
:10205000236923600823A2891343A3812369002BEA
:102060000BD1A0218022A389890092000B409342CA
:1020700003D02100300000F0D9F90123A2891340D8
:1020800011D00023A36063695B42A3610020236930
:102090008342BED10C23E25E1306BAD5402313431C
:1020A000A3810138B5E7920700D46369A360EDE727
:1020B000080000200C2E00002C2E0000EC2D00004B
:1020C000F7B58A8905000C00130760D44B68002B14
:1020D00004DC0B6C002B01DC0020FEBDE76A002F46
:1020E000FAD000232E682B6080235B011A4034D085
:1020F000606DA3895B0706D56368C01A636B002B0C
:1021000001D0236CC01A0200216A00232800E76A6C
:10211000B847A189431C06D12B681D2B31D82C4A06
:10212000DA40D3072DD50023636023692360CB04F5
:1021300005D5431C02D12B68002B00D16065616B73
:102140002E600029C8D023004433994202D02800D1
:10215000FFF788FD00206063BFE70123216A2800A4
:10216000B847431CC5D12B68002BC2D01D2B01D012
:10217000162B01D12E60AFE74023A2891343A38120
:10218000ABE740230B430120A3814042A5E70F6941
:10219000002FA1D00B680F60DB1B01930023920777
:1021A00000D14B69A360019B002B00DC94E7019BED
:1021B0003A00216A2800A66AB047002803DC4023C1
:1021C000A2891343DFE7019B3F181B1A0193EAE73B
:1021D000010040200B6970B505000C00002B01D1F7
:1021E000002070BD002804D08369002B01D100F0CD
:1021F0005FF80B4B9C4209D16C680C22A35E002B4C
:10220000EED021002800FFF75BFFEAE7054B9C4278
:1022100001D1AC68F1E7044B9C42EED1EC68ECE7ED
:102220000C2E00002C2E0000EC2D000010B50249F1
:1022300000F0B2F810BDC046D5210000002310B553
:10224000040003604360836081814366C28103614F
:1022500043618361190008225C30FFF7FAFC054BEB
:1022600024626362044BA362044BE362044B236366
:1022700010BDC0469D2A0000C52A0000FD2A0000AE
:10228000292B000070B568254A1E55430E00290011
:102290007431FFF731FD041E08D000212A000160CF
:1022A00046600C30A0606832FFF7D3FC200070BDA0
:1022B000836913B50400002B28D18364C3640365CC
:1022C000134B144A1B6882620193984201D1012387
:1022D0008361200000F020F86060200000F01CF80E
:1022E000A060200000F018F80022E060042160687F
:1022F000FFF7A4FF01220921A068FFF79FFF022238
:102300001221E068FFF79AFF0123A36113BDC046C5
:10231000E82D00002D220000F8B51E4B07001E68B6
:10232000B369002B02D13000FFF7C2FF4836B46812
:102330007368013B04D53368002B07D03668F6E795
:102340000C22A55E002D0DD06834F2E70421380080
:10235000FFF798FF30600028F0D10C2304003B60A9
:102360002000F8BD012320005B42E3810233A381FA
:1023700065662560A560656025616561A5610822C7
:1023800029005C30FFF765FC6563A563A564E5641F
:10239000E6E7C046E82D0000F7B504000700002678
:1023A00001914834002C01D13000FEBD6368A5685E
:1023B0000093009B013B009301D52468F2E7AB89B1
:1023C000012B08D90E22AB5E013304D0290038005E
:1023D000019B984706436835EBE7000070B50E0097
:1023E0001D000E23C95E90B01400002907DA0023F7
:1023F0002B60B3891B0611D48023DB000FE001AAF8
:1024000000F0BEFB0028F2DBF022029B1202134018
:10241000054A9B185A4253412B60EDE740230020A8
:10242000236010B070BDC04600E0FFFFF7B5022684
:102430008B8905000C00334206D02300473323600C
:10244000236101236361F7BD01AB6A46FFF7C6FF55
:10245000009907002800FFF74FFC002808D10C2244
:10246000A35E9A05EFD4032293431E43A681E4E7BB
:102470000F4BAB628023A28920601343A381009B92
:1024800020616361019B002B0DD00E23E15E2800CB
:1024900000F088FB002806D00322A38993431A008A
:1024A00001231343A381A0893843A081CBE7C04611
:1024B0002D22000070477047F8B507000D00160088
:1024C000002905D11100FFF717FC04002000F8BD1A
:1024D000002A03D1FFF7C6FB3400F7E700F093FBB7
:1024E0002C008642F2D931003800FFF705FC041EAB
:1024F000ECD029003200FFF7A3FB29003800FFF7DA
:10250000B1FBE3E7936810B5013B9360002B05DA5C
:102510009469A34208DBCBB20A2B05D01368581C80
:1025200010601970C8B210BDFFF7FEFCFBE7F8B5EC
:1025300006000F001400D518AC4201D1002007E0BE
:1025400021783A003000FFF7DDFF0134431CF3D15E
:10255000F8BD0000F0B59FB006000F001400059311
:10256000002804D08369002B01D1FFF7A1FE7F4B27
:102570009F425CD17768BB891B0762D53B69002B02
:102580005FD0002306AD6B6120336B761033AB76E2
:102590000294029C2378002B5DD1029BE31A0493E2
:1025A0000DD0049B029A39003000FFF7C0FF431C96
:1025B00000D1CCE06A69049B944663446B61237844
:1025C000002B00D1C3E00122002352426A6002A91D
:1025D0005432521801342B60EB60AB601370AB6562
:1025E00021780522624800F003FB631C9C4600280A
:1025F00035D12968CB0604D5532302AA20309B1875
:1026000018700B0704D553232B2002AA9B181870AF
:1026100023782A2B2CD000200A21099B2278303ADB
:10262000092A00D86BE000282AD0099328E0514BF2
:102630009F4201D1B7689EE74F4B9F429BD1F768FD
:1026400099E739003000FFF7C5FC002899D0012038
:1026500040421FB0F0BD252B9FD001349AE7444B78
:102660002968C01A012383400B432B606446B7E7F7
:10267000059B181D1B680590002B3ADB09936446E7
:1026800023782E2B0BD16378621C2A2B3FD1059B1C
:1026900002341A1D1B680592002B35DB0793217845
:1026A0000322364800F0A4FA002807D0334B2A68EA
:1026B000C01A4023834013432B6001342178631CEC
:1026C00006222F480293297600F092FA002844D07F
:1026D0002C4B002B2FD12968059B0722C90528D533
:1026E0009B189343083305936B69039A9B186B619E
:1026F0004FE75B42EB6002230B432B60BFE74B438A
:1027000001349B18012089E701235B42C6E70023BF
:1027100014000A201A006B6021783039092903D986
:10272000002BBCD00792BAE7424301345218012370
:10273000F2E70733D5E705AB00933A00124B2900C7
:10274000300000E000BF0390039B0133CCD1BB8974
:102750005B0600D57BE70B987BE705AB00933A005F
:10276000094B2900300000F07FF8ECE70C2E000048
:102770004C2E00002C2E0000EC2D0000522E0000EC
:10278000562E0000000000002F250000F7B51500B0
:1027900001938A680B6900900C00934200DA1300E1
:1027A00022002B6043321278002A01D001332B60C3
:1027B00023689B0602D52B6802332B60062723680B
:1027C0001F4027D0230043331B785A1E93412268B1
:1027D000920630D42200019943320098089EB047F7
:1027E000431C25D0062320682A68E16803400025A1
:1027F000042B03D18D1AEB43DB171D40A36822691C
:10280000934201DD9B1AED180027BD4220D1002024
:1028100010E00137E3682A689B1A9F42D2DA22004F
:102820000123193201990098089EB047431CF0D14A
:1028300001204042FEBD3020E118433108702100E4
:102840005A1C45310978A218433202331170C1E78E
:10285000220001231A3201990098089EB047431CB8
:10286000E6D00137D1E70000F0B58BB006920A0040
:1028700043320793059004920A7E0C00109B6E2A47
:1028800000D18FE017D8632A2CD008D8002A00D1B5
:1028900099E0582A54D026004236327029E0642A42
:1028A00001D0692AF7D121681A68080623D5111DBD
:1028B0001960156825E0732A00D188E008D86F2ACE
:1028C00029D0702AE7D1202209680A43226003E058
:1028D000752A20D0782ADED1220078214532117065
:1028E0006C4A30E00E001A684236111D19601368F8
:1028F0003370012379E04906D9D5111D19600023F1
:10290000D55E002D03DA2D23049A6D421370624BBD
:102910000A2703932FE020681968050603D5081DD0
:1029200018600D6805E04006F9D50D68081D1860AF
:10293000ADB2594B082703936F2A18D00A2716E027
:1029400045310A70544A03921A682168101D1860B4
:102950001568080622D5CB0702D52023194321602C
:102960001027002D03D1202322689A4322602300E0
:10297000002243331A706368A360002B5CDB0422DF
:10298000216891432160002D58D1049E002B64D012
:102990002600039B42361B7833705EE04806DAD58A
:1029A000ADB2D8E709681A68080605D5111D196087
:1029B000136862691A6006E04906F7D5111D1960AF
:1029C0001368A28A1A800023049E236154E01A68C7
:1029D000111D1960166800216268300000F008F9C6
:1029E000002801D0801B6060636823610023049A83
:1029F000137041E02369320006990598079DA847A6
:102A0000431C43D0236800259B070FD4099BE06833
:102A100098423DDA18003BE0220001231932069962
:102A20000598079EB047431C30D00135E368099AEA
:102A30009B1A9D42F0DBE9E7002DA9D0049E2800F7
:102A40003900FEF72BFB039B013E5B5C28003370D3
:102A50003900FEF79DFA051EF1D1082F09D1236830
:102A6000DB0706D563682269934202DC3023013E0E
:102A70003370049B9B1B2361079B09AA00932100D1
:102A8000069B0598FFF782FE431CB3D1012040420C
:102A90000BB0F0BD6E2E00005D2E000070B50C0076
:102AA0000E25495F00F0B8F8002803DB636D1B18A2
:102AB000636570BDA389024A1340A381F9E7C0464C
:102AC000FFEFFFFFF8B51F008B8905000C00160013
:102AD000DB0505D50E23C95E0022022300F074F841
:102AE000A389054A28001340A38132000E23E15E2A
:102AF0003B0000F01FF8F8BDFFEFFFFF70B50C00C2
:102B00000E25495F00F060F8A389421C03D1054AF5
:102B10001340A38170BD802252011343A3816065DD
:102B2000F8E7C046FFEFFFFF10B50E23C95E00F0C7
:102B300015F810BD70B50500080011000022064C04
:102B400022601A00FDF7D6FC431C03D12368002B3A
:102B500000D02B6070BDC046DC000020002370B5A3
:102B6000064C050008002360FEF76AF9431C03D1F8
:102B70002368002B00D02B6070BDC046DC00002015
:102B8000002370B5064C0500080011002360FEF715
:102B90005FF9431C03D12368002B00D02B6070BD6C
:102BA000DC000020002370B5064C050008002360FF
:102BB000FEF756F9431C03D12368002B00D02B608D
:102BC00070BDC046DC00002070B505000800110093
:102BD0000022064C22601A00FEF749F9431C03D17B
:102BE0002368002B00D02B6070BDC046DC000020A5
:102BF000C9B28218904201D10020704703788B42FD
:102C0000FBD00130F6E70B1F1B68181F002B01DA01
:102C10000B58C0187047000070B50500080011007F
:102C20000022064C22601A00FDF786FC431C03D1EB
:102C30002368002B00D02B6070BDC046DC00002054
:102C4000044A1368002B03D018181060180070474E
:102C5000014BF9E7D8000020E8000020FEE7C0465D
:102C6000F8B5C046F8BC08BC9E467047F8B5C046EB
:102C7000F8BC08BC9E467047303030303100000050
:102C800052454C41594F4E00496E204861726420B4
:102C90004661756C742048616E646C65720000005A
:102CA000723020203D20307825780A0072312020B3
:102CB0003D20307825780A00723220203D2030787F
:102CC00025780A00723320203D20307825780A00CC
:102CD000723132203D20307825780A006C72202035
:102CE0003D20307825780A00706320203D20307820
:102CF00025780A00707372203D20307825780A000C
:102D00000A0B0C0D0E0F0000000102030405000069
:102D10000000000000000000CF0B0000090C0000C4
:102D2000D10B000001020204641200003412000002
:102D30004612000088110000461200002A1200000E
:102D40004612000088110000341200003412000006
:102D50002A1200008811000090110000901100005C
:102D6000901100004C1200003412000034120000D8
:102D700008120000EC120000081200002A120000E5
:102D800008120000EC12000034120000341200009F
:102D90002A120000EC1200009011000090110000B7
:102DA00090110000F612000094140000E4130000DB
:102DB000E4130000E21300008614000086140000F3
:102DC0007C140000E2130000861400007C14000054
:102DD00086140000E21300008C1400008C14000024
:102DE0008C1400001C1500000C00002000000000E6
:102DF00000000000000000000000000000000000D3
:102E000000000000000000000000000000000000C2
:102E100000000000000000000000000000000000B2
:102E200000000000000000000000000000000000A2
:102E30000000000000000000000000000000000092
:102E4000000000000000000000000000232D302BD7
:102E50002000686C4C00656667454647003031329B
:102E600033343536373839414243444546003031F2
:102E70003233343536373839616263646566000051
:042E8000000000004E
:082E84009CD2FF7F0100000059
:102E8C0000805101008051010C0000200000000066
:102E9C000C2E00002C2E0000EC2D00000000000079
:102EAC000000000000000000000000000000000016
:102EBC000000000000000000000000000000000006
:102ECC0000000000000000000000000000000000F6
:102EDC0000000000000000000000000000000000E6
:102EEC00000000000000000000000000E9000000ED
:102EFC00F50300005D0C0000C10000006D0C00002B
:042F0C0000000000C1
:0400000300000E816A
:00000001FF
