:0400000097EF28F05E
:08000800046ED8CF05F0E0CF33
:1000100006F00001E9CF0CF0EACF07F0E1CF08F0DD
:10002000E2CF09F0D9CF0AF0DACF0BF0F3CF12F01C
:10003000F4CF13F0FACF14F0F5CF15F0F6CF16F099
:10004000F7CF17F000C00EF001C00FF002C010F0A3
:1000500003C011F0F2AA30EF00F0F2B4D2EF0EF0CC
:100060000EC000F00FC001F010C002F011C003F08C
:100070000CC0E9FF07C0EAFF078E08C0E1FF09C016
:10008000E2FF0AC0D9FF0BC0DAFF12C0F3FF13C0B2
:10009000F4FF14C0FAFF15C0F5FF16C0F6FF17C035
:1000A000F7FF045006C0E0FF05C0D8FF1000BC0FEA
:1000B000F66E000EF7220900F55012000000000055
:1000C0000000005F00000003000300143E143E1413
:1000D000242A7F2A1243330866613649552250008C
:1000E00005030000001C2241000041221C001408EE
:1000F0003E081408083E08080050300000080808B0
:100100000808006060000020100804023E514945C4
:100110003E04027F0000426151494622414949366E
:100120001814127F1027454545393E494949320187
:10013000017109073649494936264949493E003681
:100140003600000056360000081422410014141432
:100150001414004122140802015109063E41595568
:100160005E7E0909097E7F494949363E4141412267
:100170007F4141413E7F494949417F090909013E8B
:100180004141493A7F0808087F00417F41003040E3
:1001900040403F7F081422417F404040407F020C96
:1001A000027F7F0204087F3E4141413E7F090909E9
:1001B000061E2121215E7F09090976264949493217
:1001C00001017F01013F4040403F1F2040201F7F31
:1001D0002010207F41221C2241070870080761512E
:1001E000494543007F4100000204081020000041FF
:1001F0007F0004020102044040404040000102042C
:100200000020545454787F4444443838444444448F
:10021000384444447F385454541804047E05050877
:100220005454543C7F0804047800447D400020402E
:10023000443D007F1028440000417F40007C04784A
:1002400004787C0804047838444444387C1414143A
:1002500008081414147C007C0804044854545420E6
:1002600004043F44443C4040207C1C2040201C3C73
:100270004030403C44281028440C5050503C4464CA
:10028000544C44000836414100007F000041413693
:10029000080002010204020000000000AA0FF66E2E
:1002A000020EF7220900F5501200000000000000C5
:1002B0000000000000000000000000007E037E033C
:1002C000000000000000000000001E001E000000F2
:1002D0001E001E00000000000000C000D803F8004F
:1002E000DE00D803F800DE0018001C013E022202E6
:1002F000FF072202E203C40100000C069203CC00B7
:100300006000300398040E030000DC01FE032202AB
:1003100022027E02DC010003800400001E001E0099
:10032000000000000000000000000000FC01FE03CF
:1003300003060104000000000000000001040306A1
:10034000FE03FC0100000000000000001400080093
:100350003E003E00080014000000100010001000D5
:10036000FE0010001000100000000008000E000643
:1003700000000000000000000000400040004000BD
:1003800040004000000000000000000000060006E1
:1003900000000000000000000000000800068001CE
:1003A00060001800060000000000FC01FE030202CD
:1003B00002020202FE03FC0100000000040204022B
:1003C000FE03FE030002000200000C02020382038F
:1003D000C20262023E021C0200000401020222026A
:1003E00022022202FE03DC010000600050004800EF
:1003F0004400FE03FE03400000001E011E02120224
:1004000012021202F203E2010000FC01FE031202DA
:1004100012021202F203E401000002000200820351
:10042000E2037A001E0006000000DC01FE03220247
:1004300022022202FE03DC0100003C007E02420296
:1004400042024203FE01FC000000000018031803F2
:10045000000000000000000000000004180718035E
:10046000000000000000000000006000600090003C
:100470009000080108010402000090009000900024
:100480009000900090009000000004020402080117
:1004900008019000900060000000000004000200CD
:1004A000620372031E000C000000F80004017202D7
:1004B0008A028A02F20286027C01F803FC034600EB
:1004C00046004600FC03F8030000FE03FE03220280
:1004D00022022202FE03DC010000FC01FE030202F4
:1004E0000202020202028C010000FE03FE0302026D
:1004F00002020202FC01F8000000FE03FE032202D9
:1005000022022202020200000000FE03FE0322007B
:1005100022002200020000000000FC01FE03020293
:1005200002022202E203EC030000FE03FE032000AD
:1005300020002000FE03FE03000000000000020275
:10054000FE03FE030202000000000002020202029B
:10055000FE03FE01000000000000FE03FE03700029
:10056000D8008C01060302020000FE03FE03000215
:1005700000020002000200000000FE031C00300028
:10058000400030001C00FE030000FE0306001E00B9
:100590007800E0018003FE030000FC01FE03060377
:1005A00006030603FE03FC010000FE03FE034200F7
:1005B000420042007E003C000000FC01FE030202FB
:1005C000020202020206FE07FC05FE03FE032200F1
:1005D0006200E200BE031C0200009C013E022202F7
:1005E00022022202E203CC0100000200020002000B
:1005F000FE03FE03020002000200FE01FE030002F1
:1006000000020002FE03FE0100007E00C000800127
:10061000000300038001C0007E00FE030003800190
:10062000F000F00080010003FE0306038E03D800F3
:1006300070007000D8008E03060306001E0038000C
:10064000E003E00338001E00060002038203C2023A
:10065000620232021A020E0200000000FE07FE07CC
:100660000204020400000000000006001800600000
:1006700080010006000400000000000002040204E3
:10068000FE07FE0700000000000010000800040044
:10069000020002000400080010000004000400042E
:1006A000000400040004000000000000000002003C
:1006B000060004000000000000000003A0079004F2
:1006C00090049004F007E0070000FE07FE072004F6
:1006D00010041004F007E0030000E003F00710042A
:1006E00010041004200200000000E003F0071004D2
:1006F00010041002FE07FE070000E003F00790045C
:1007000090049004F004E00200001000FC07FE07D3
:10071000120002000000000000007C02FE048204BF
:1007200082044204FE07FE030000FE07FE072000CD
:1007300010001000F007E0070000F607F6070000C1
:100740000000000000000000000000001000F6079C
:10075000F6070000000000000000FE07FE07C001D1
:1007600060033006100400000000FE07FE070000D2
:1007700000000000000000000000E0071000100072
:10078000E007E00710001000E007F007F007200086
:1007900010001000F007E0070000E003F00710046D
:1007A00010041004F007E0030000FE07FE078400B9
:1007B00082008200FE007C0000007C00FE008200BF
:1007C00082004200FE07FE070000F007F00720004D
:1007D000300030000000000000006002F004D0048F
:1007E000900590072003000000001000FC03FC07A8
:1007F00010041004000000000000F003F0070004E3
:1008000000040002F007F00700007000F00180070C
:1008100000068007F00170000000F00300060004ED
:10082000E00300040006F003000030067007C0017A
:10083000C001700730060000000018023004600498
:10084000C007C003600038000000100610079005C4
:10085000D00470043004000000006000FC039E0718
:100860000204020400000000000000000000FE0777
:10087000FE070000000000000000020402049E07C2
:10088000FC036000000000000000E00030003000C9
:100890007000E000C000C00070000000FE0702040D
:1008A000FE070000000000000000B80FF66E080E02
:1008B000F7220900F55012000000000000000000BF
:1008C0000000000000000000000000000000000028
:1008D0000000FE1BFE1B00000000000000000000E6
:1008E00000000000000000001F001F0000000000CA
:1008F0001F001F00000000000000000000000000BA
:100900000003301BB0077803360330033003301B7D
:10091000B007780300000000700CF81C8C108410E5
:10092000FF3F841084189C0F18070000000000008F
:100930000E181F1C110E1F07CE03E001700E381F8A
:100940001C110E1F070E000000079C0FFE186210FE
:10095000C210E2113E1B1C0EC00FC01900000000A7
:1009600000001F001F000000000000000000000049
:1009700000000000000000000000F00FFC3F0E30FF
:100980000300010000000000000000000000000063
:100990000000010003000E30FC3FF00F00000000DB
:1009A00000000000000000000000420024001800C9
:1009B000FF00FF00180024004200000000000000BB
:1009C00000000000800080008000F00780008000B0
:1009D00080000000000000000000002C001C00004F
:1009E0000000000000000000000000000000000007
:1009F0000000800080008000800080000000000077
:100A000000000000000000000000001C001C0000AE
:100A100000000000000000000000000000000000D6
:100A2000000000000010000E800170000C000200A9
:100A30000000000000000000F807FC0F061802107C
:100A4000021002100618FC0FF8070000000000005A
:100A50000000000008100810FE1FFE1F001000100C
:100A6000000000000000000008100C18061C021610
:100A700002138211C6107C10381000000000000024
:100A80000C0C06180210421042104210E618BC0F5F
:100A90001807000000000000800140012001100143
:100AA00008010401FE1FFE1F0001000100000000FC
:100AB000000C3E1C3E102210221022106218C20FA1
:100AC0008207000000000000F007F80F2C18261025
:100AD000221022106218C20F8007000000000000E0
:100AE000020002000218021E8207E2017A001E00C4
:100AF00006000000000000001807BC0FE6184210B6
:100B000042104210E618BC0F180700000000000059
:100B10007808FC18C611821182118211C618FC0FC8
:100B2000F80700000000000000000000701C701CAE
:100B300000000000000000000000000000000000B5
:100B400000000010701C700C00000000000000008D
:100B50000000000000000000000080018001400251
:100B600040022004200410081008081000000000B3
:100B70000000200220022002200220022002200287
:100B800020022002000000000000081008101008D9
:100B900010082004200440024002800100000000F0
:100BA0000C000E000200021B821BC6007C003800F5
:100BB0000000000000000000FC07060CF3191913E8
:100BC0000D160D160D16FD17F9170214FC13000073
:100BD000F81FFC1F8E0186018601860186018E01A9
:100BE000FC1FF81F00000000FE1FFE1F42104210F5
:100BF000421042106610FC18980F00070000000019
:100C0000F003FC0F0C0C061802100210021006185C
:100C10000E1C0C0C00000000FE1FFE1F0210021034
:100C200002100210061804081C0EF807000000004D
:100C3000FE1FFE1F4210421042104210421042108E
:100C40004210000000000000FE1FFE1F4200420094
:100C5000420042004200420000000000000000008C
:100C6000F003FC0F0C0C0618021002108210821008
:100C700082108E1F00000000FE1FFE1F400040007B
:100C800040004000400040004000FE1F0000000007
:100C900002100210FE1FFE1F0210021000000000D2
:100CA00000000000000000000010021002100210FE
:100CB0000218FE0FFE070000000000000000000008
:100CC000FE1FFE1F4000E000B00118030C06060CDA
:100CD0000218001000000000FE1FFE1F0010001090
:100CE00000100010001000100000000000000000C4
:100CF000FE1F0E003C00F000800300068003F000A1
:100D00003C000E00FE1F0000FE1FFC1F18003000FC
:100D10006000C000800100030006FE0FFE1F0000FF
:100D2000F003FC0F0C0C061802100210021006183B
:100D30000C0CFC0FF0030000FE1FFE1F020102015D
:100D40000201020102018601FC007800000000009F
:100D5000F003FC0F0C0C0618021002300232061EC3
:100D60000C0CFC1FF0330000FE1FFE1F02010201ED
:100D7000020102018603FC06780C00180000000046
:100D8000380C7C1CE610C210C210C210C2198E0FA3
:100D90000C07000000000000020002000200020038
:100DA000FE1FFE1F02000200020002000000000001
:100DB000FE07FE0F001800100010001000100010B9
:100DC0000018FE0F000000000E007E00F003801FE0
:100DD000001C001C801FF0037E000E0000000000BD
:100DE0007E00E003000F001C0006E0030006001C6C
:100DF000000FE0037E00000006180E1C18063003EA
:100E0000E001E001300318060E1C06180000000087
:100E100006001E003800E000C01FC01FE0003800C0
:100E20001E000600000000000218021C02178213B8
:100E3000C21072103A100E100610000000000000E0
:100E40000000FF1FFF1F0110011001100000000033
:100E50000000000000000000000003000C00700013
:100E60008001000E001000000000000000000000E3
:100E70000000011001100110FF1FFF1F0000000003
:100E800000000000000000000000400020001800EA
:100E900004000200020004001800200040000000CE
:100EA00000000010001000100010001000100000E2
:100EB000000000000000000000000000020006002A
:100EC000040000000000000000000000000000001E
:100ED000000E201F3011901090109010B008E01FED
:100EE000C01F000000000000FF1FFF1F200810109F
:100EF000101010103018E00FC007000000000000B4
:100F0000C007E00F3018101010101010200800005B
:100F10000000000000000000C007E00F30181010B3
:100F2000101010102008FF1FFF1F0000000000001D
:100F3000C007E00F30191011101110113011E01915
:100F4000C0090000000000001000FE1FFF1F11007C
:100F5000110001000000000000000000000000007F
:100F6000F800FC0106030202020202020401FE1F55
:100F7000FE1F000000000000FF1FFF1F20001000E8
:100F8000100010003000E01FC01F00000000000033
:100F90000000F61FF61F0000000000000000000027
:100FA0000000000000000000000010001000F61F0C
:100FB000F61F00000000000000000000000000001C
:100FC000FF1FFF1F00018001C0036006300C1018D6
:100FD00000100000000000000000FF1FFF1F0000C5
:100FE0000000000000000000000000000000000001
:100FF000F01FF01F200010001000F01FE01F200065
:1010000020001000E01F0000F01FF01F2000100063
:10101000100010003000E01FC01F000000000000A2
:10102000C007E00F30181010101010103018E00F2B
:10103000C007000000000000FE1FFE1F04010202A6
:10104000020202020603FC01F8000000000000009A
:10105000F800FC0106030202020202020401FE1F64
:10106000FE1F000000000000F01FF01F20003000F5
:101070003000300000000000000000000000000010
:10108000E008F011901190131013101F200E0000B3
:1010900000000000000000001000FE0FFE1F1010F6
:1010A0001010101000000000000000000000000000
:1010B000F007F00F00180010001000100008F01FDB
:1010C000F01F0000000000007000F003800F001C03
:1010D000001C800FF0037000000000000000000002
:1010E000F003F01F001C800FE003F000E003000F8E
:1010F000000CF01FF01F000010103018600CC0072B
:101100008003C007600C30181010000000000000C1
:101110000E007E10F019801F800FF0017E000E007F
:1011200000000000000000001018101C1016101322
:101130009011D0107010301000000000000000006E
:101140000000C000F8073C0F061802100210000053
:10115000000000000000000000000000000000008F
:10116000FF1FFF1F00000000000000000000000043
:1011700000000210021006183C0FF807C000000023
:1011800000000000000000008003C000600060005C
:101190006000C0008001000300038003E000000045
:1011A000FE0FFE0F0208FE0FFE0F00000000000001
:1011B0000000000000000000C60FF66E110EF722BE
:1011C0000900F550120000000000000000000000BF
:1011D000000000000000000000000000000000000F
:1011E0000000FE6FFE6F0000000000000000000025
:1011F00000000000000000003E003E0000003E0035
:101200003E0000000000000000000000000030066A
:101210003066307FF81FFE063666307FF81FFE0608
:10122000360630060000000030087818CC308420E4
:10123000FE7F84210C33181E100C000000001C409F
:101240003E7022383E0E1C07C001E038387C1E4438
:10125000067C00380000001E383FFC73E661C66162
:10126000C6637E363C3C0018003E0066000000006D
:101270003E003E00000000000000000000000000F2
:101280000000000000000000F007FE3F0770014072
:10129000000000000000000000000000000000004E
:1012A00001400770FE3FF007000000000000000052
:1012B0000000000000000000480068001E006800F8
:1012C00048000000000000000000000000000000D6
:1012D0008001800180018001F81FF81F80018001DA
:1012E000800180010000000000000000008000E09C
:1012F000006000000000000000000000000000008E
:1013000080018001800180018001800180018001D5
:10131000800180010000000000300030000000006B
:10132000000000000000000000000000000000605D
:10133000007CC01FF8033E00060000000000000013
:101340000000000000000000F81FFC3F0E70066067
:101350000660066006600E70FC3FF81F000000008B
:101360000000300018000C00FE7FFE7F000000002F
:10137000000000000000000018601C700E78066C71
:101380000666066606638E61FC60786000000000F9
:1013900008180C3806700660866186618661CE7317
:1013A000FC3F781E00000000000F800FC00C600C96
:1013B000300C180CFC7FFE7F000C000C00000000BD
:1013C000FE19FE39C6706660666066606660E6702B
:1013D000C63F861F00000000F81FFC3F8E71C660EC
:1013E000C660C660C660C6718C3F181F0000000052
:1013F000060006000670067C060FC603F6003E00D7
:101400000E00060000000000781EFC3FCE738661CF
:10141000866186618661CE73FC3F781E0000000005
:101420007818FC38CE718661866186618661CE71DE
:10143000FC3FF81F000000000000606060600000DA
:10144000000000000000000000000000000000009C
:10145000000030583038000000000000000000009C
:101460000000000000000000000180038002C006B0
:10147000C0064004600C600C301800000000000042
:10148000600660066006600660066006600660062C
:1014900060060000000000003018600C600C400482
:1014A000C006C006800280030001000000000000AA
:1014B00018001C000E00066E066F8603CE01FC00AD
:1014C000380000000000F00F1818CC336426362CCA
:1014D000162C162EF62BE6280C24F813000000001C
:1014E000E07FF87F3C030E03060306030E033C0374
:1014F000F87FE07F00000000FE7FFE7F866186614E
:1015000086618661CE61FC73783E001C000000009D
:10151000F007F81F1C380E700660066006600E703B
:101520001C38181800000000FE7FFE7F0660066071
:10153000066006600E701C38F81FE00F0000000007
:10154000FE7FFE7F86618661866186618661866137
:101550008661066000000000FE7FFE7F8601860136
:1015600086018601860186018601060000000000D2
:10157000F00FF83F3C780E700670066306630E733A
:101580001C77183F00000000FE7FFE7F8001800175
:101590008001800180018001FE7FFE7F000000004D
:1015A0000000000000000000FE7FFE7F0000000041
:1015B00000000000000000000038007800600060BB
:1015C0000060FE3FFE1F0000000000000000000061
:1015D000FE7FFE7F8001E001F00338071C1E0E38FD
:1015E0000670026000000000FE7FFE7F0060006069
:1015F00000600060006000600060006000000000AB
:10160000FE7FFE7FF801C00700180018C007F80130
:10161000FE7FFE7F00000000FE7FFE7F3C0070002A
:10162000E0018007000E0038FE7FFE7F0000F00F13
:10163000FC3F1C380E700660066006600E701C3899
:10164000FC3FF00F00000000FE7FFE7F0603060354
:101650000603060306038E03FC01F80000000000E9
:10166000F80FFC1F0E3806300630063006340E38F0
:10167000FC1FF82F00000000FE7FFE7F8601860120
:1016800086018603860FCE1DFC787870000000006E
:10169000781CFC3CCE7086618661866186618E73A3
:1016A0001C3F181E00000000060006000600060091
:1016B000FE7FFE7F06000600060006000000000018
:1016C000FE0FFE3F003000600060006000600030F0
:1016D000FE3FFE0F000000007E00FE01C007001F5D
:1016E00000600060001FC007FE017E000000FE7F5A
:1016F000FE7F0038000FC0013000C001000F00382D
:10170000FE7FFE7F0000000002400E703C3C700E29
:10171000C003C003700E3C3C0E700240000000008D
:1017200006001E003800E000C07FC07F6000380067
:101730001E0006000000000006700678066E0667B0
:101740008661E66076601E600E6006600000000044
:10175000FE7FFE7F066006600000000000000000C3
:101760000000000000000000020006001C007800DD
:10177000E0018007001E003800600040000000000B
:1017800006600660FE7FFE7F000000000000000093
:1017900000000000000000008000F0003C00060097
:1017A0003C00F0008000000000000000000000008D
:1017B0000060006000600060006000600060000089
:1017C0000000000000000000020006000C00000005
:1017D0000000000000000000000000000000000009
:1017E000C03CC07E6066606660636033E03FC07F7F
:1017F0000040000000000000FE7FFE7FC0306060FF
:1018000060606060E070C03F801F0000000000006A
:10181000801FC03FE07060606060E070C03080108A
:101820000000000000000000801FC03FE07060600A
:1018300060606060C030FE7FFE7F0000000000003E
:10184000801FC03FE076606660666066E066C03715
:1018500000170000000000006000FC7FFE7F6600B3
:10186000660006000000000000000000000000000C
:10187000F838FC718E6306630663066306630E73B5
:10188000FC3FF81F00000000FE7FFE7FC0006000EC
:1018900060006000E07FC07F0000000000000000EA
:1018A0000000000000000040F67FF67F10400000BE
:1018B0000000000000000000002000602060E67FC3
:1018C000E67F0000000000000000000000000000B3
:1018D000FE7FFE7F00038007C01FE07C6070204019
:1018E0000000000000000000000000000240FE7F39
:1018F000FE7F00400000000000000000000000002B
:10190000C07FE07FE000C001803F803FC001E00079
:10191000E07FC07F00000000E07FE07FC00060004B
:1019200060006000E07FC07F000000000000000059
:10193000801FC03FE070606060606060E070C03F2A
:10194000801F000000000000FE7FFE7F8C01060368
:10195000060306038E03FC01F800000000000000EF
:10196000F800FC018E030603060306038C01FE7FCC
:10197000FE7F000000000000000060006040C07FAB
:10198000C07F6040600060006000C0000000000098
:10199000C011E033606360666066606CC07C803854
:1019A00000000000000000006000FC3FFC7F606061
:1019B0006060000000000000000000000000000067
:1019C000E03FE07F0060006000600030E07FE07F8B
:1019D00000000000000000006000E003800F003CF9
:1019E0000070003C800FE003600000000000000079
:1019F000E03F00600070803FE000E000801F00706A
:101A00000060E03F0000000020406060C039801F9F
:101A10000006801FC0396060204000000000000008
:101A200000000C003C00F040C063007F801FF0030A
:101A30007C000C000000000000706078607C606E2C
:101A400060666063E063E061E06000000000000049
:101A50008001C003FC3F7E7E06600660000000003F
:101A600000000000000000000000FE7FFE7F00007C
:101A70000000000000000000000000000000000066
:101A8000066006607E7EFC3FC0038001000000000F
:101A900000000000000000000003800180018001C0
:101AA000000300060006000600030000000000001E
:101AB000FC3F04200420FC3F000000000000000068
:101AC000000000000000F03FF07F0660066000604C
:101AD0000060006006600660F07FF03F0000C01FFD
:101AE000E03F76703660306030603060366076702F
:101AF000E03FC01F00000000380C7C18EE18C658EC
:101B0000C678C678C618C61D8C0F08070000F76A8D
:101B10001E0FF66E1B0EF7220900F5501200503111
:101B20003000F76A320FF66E1B0EF7220900F550EF
:101B30001200546573740000F76A480FF66E1B0EAE
:101B4000F7220900F55012007777772E61726563EE
:101B500074726F6E2E636F6D202020202020000095
:101B6000F76A700FF66E1B0EF7220900F55012008F
:101B7000466F6E740000F76A860FF66E1B0EF72232
:101B80000900F55012004100F76A980FF66E1B0E1F
:101B9000F7220900F55012004200F76AAA0FF66E0C
:101BA0001B0EF7220900F55012004300F76ABC0F24
:101BB000F66E1B0EF7220900F55012004400F76A7A
:101BC000CE0FF66E1B0EF7220900F55012004E756F
:101BD0006D627200F76AE40FF66E1B0EF7220900C1
:101BE000F55012002D2D0000F76AF80FF66E1B0E4F
:101BF000F7220900F5501200694E56525400F76A58
:101C00000E0FF66E1C0EF7220900F55012005363FA
:101C1000726F6C00F76A240FF66E1C0EF722090033
:101C2000F5501200464F4E54203120202020200035
:101C3000F76A400FF66E1C0EF7220900F5501200ED
:101C4000464F4E542032202020202000F76A5C0F9F
:101C5000F66E1C0EF7220900F5501200464F4E5446
:101C60002033202020202000F76A780FF66E1C0E0B
:101C7000F7220900F5501200464F4E542034202020
:101C800020202000F76A940FF66E1C0EF722090040
:101C9000F5501200486172647761726520205069C6
:101CA000633138463436323020262034304D687A5D
:101CB0002C2036344B6220466C6173682C203339FB
:101CC0003638427974652052616D2076732E2E204D
:101CD00020202000F76AE40FF66E1C0EF7220900A0
:101CE000F5501200427269677400F76AFA0FF66ED7
:101CF0001C0EF7220900F55012004D415800F76AFA
:101D00000E0FF66E1D0EF7220900F55012005369F2
:101D10006E650000F76A240FF66E1D0EF7220900AB
:101D2000F5501200576176650000F76A3A0FF66EBB
:101D30001D0EF7220900F5501200426172000101E8
:101D4000556B566B030E576F573D01D026D00F0EC3
:101D5000D8805755566F556B555103081CE35651A3
:101D6000040DF350596B586F036A54515825016E96
:101D7000595103220150190FE96E000E0320EA6E3B
:101D8000EFCF58F1C95058C1C9FFC730FEE3040E68
:101D9000565F552BE1D75707D7D78B8C00D08B9C3C
:101DA00000011200D76A850ED66EFD51FC0F23E2AA
:101DB000040F03EF0FF08B98FDC054F1C0DF8B9040
:101DC0008B928B8818D08B98FDC054F1B8DF8B8034
:101DD0008B928B8810D08B98FDC054F1B0DF8B9024
:101DE0008B828B8808D08B98FDC054F1A8DF8B8044
:101DF0008B828B8800D0FD2BFD510308D8A0FD6B92
:101E0000F29430EF00F0E824F76AF736210FF66E0F
:101E10001E0EF7220A00F550FA6E0800F550F96E12
:101E2000B61DC61DD61DE61D010119511B03F3CFBA
:101E300001F0F4CF00F01C03F35000261A511B03ED
:101E4000F3500020026E000112000101046B02C178
:101E500003F104C11AF102C119F11C6B0A0E1B6FC8
:101E60000001E2DF02C004F101C003F1010104330B
:101E7000033304330333043303C1BEFF043304319B
:101E8000300B006EBD50CF0B0010BD6E0001120074
:101E900001010B6B0C6B0D6B0A5302E00D6B01D053
:101EA0000D690B6B0B5103081BE30C6B0C510F08F6
:101EB00015E30C51040DF3500F6B0E6F036A0B51B9
:101EC0000E25016E0F5103220150190FE96E000E0D
:101ED0000320EA6E0DC1EFFF0C2BE8D70B2BE2D7E6
:101EE000000112000101276B286B296B2A6B2B6BF9
:101EF0002551030B276F2531296F29333F0E2917F1
:101F00002451070B286F24312A6F2A332A331F0EDE
:101F10002A17265338E02951040DF3502A25040DC1
:101F2000F3502D6B2C6F036A27512C25016E2D5118
:101F300003220150190FE96E000E0320EA6EEFCF65
:101F40002BF12951040DF3502A25040DF3502D6B6C
:101F50002C6F036A27512C25016E2D51032201504D
:101F6000190FE96E000E0320EA6E800E006E2851F4
:101F7000016E04E0D8900032012EFCD70050FF081B
:101F80002B15EF6E36D02951040DF3502A25040D80
:101F9000F3502D6B2C6F036A27512C25016E2D51A8
:101FA00003220150190FE96E000E0320EA6EEFCFF5
:101FB0002BF12951040DF3502A25040DF3502D6BFC
:101FC0002C6F036A27512C25016E2D5103220150DD
:101FD000190FE96E000E0320EA6E800E006E285184
:101FE000016E04E0D8900032012EFCD700502B1176
:101FF000EF6E000112000101116B126B136B146B79
:102000000EC115F10FC116F1036A1351590FE96E94
:10201000000E0320EA6EEF525BE0050E15251F0847
:1020200007E2156B080E16271625100801E250D09E
:10203000126B1251040848E3036A1351590FE96EF9
:10204000000E0320EA6E200EEF5C186F1A6B196FFA
:102050001C6B050E1B6F0001E7DE02C018F101C00A
:1020600017F1010112510124016E000E0220036ECE
:10207000015003C0F7FF000157EC00F0E8CF14F166
:102080000101116B115107081DE312511525176F3E
:1020900011511625186F14C100F01151016E04E0A2
:1020A000D8900032012EFCD70050105D010B196F43
:1020B00017C124F118C125F1266F000113DF0101BA
:1020C000112BE0D7122BB5D7132B060E15279CD753
:1020D0000001EEEF12F00101116B126B136B146B28
:1020E0000EC115F10FC116F1036A1351590FE96EB4
:1020F000000E0320EA6EEF52D8B4A7D0080E1525C3
:102100001F0807E2156B0C0E16271625100801E2B2
:102110009CD0126B12510F08D8A093D0036A1351B0
:10212000590FE96E000E0320EA6E200EEF5C186F67
:102130001A6B196F1C6B100E1B6F000175DE02C04D
:1021400018F101C017F1010112510124016E000EB6
:102150000220036E015003C0F7FF00014EEC01F0B6
:10216000E8CF14F10101116B115107081EE3D8905B
:1021700012311525176F11511625186F14C100F073
:102180001151016E04E0D8900032012EFCD70050AE
:10219000105D010B196F17C124F118C125F1266FCD
:1021A0000001A0DE0101112BDFD7036A1351590F83
:1021B000E96E000E0320EA6E200EEF5C186F1A6BBA
:1021C000196F1C6B100E1B6F00012EDE02C018F180
:1021D00001C017F1010E010112250124016E000E4C
:1021E0000220036E015003C0F7FF00014EEC01F026
:1021F000E8CF14F10101116B115103081FE3D890CE
:1022000012311525176F080E16251125186F14C1E8
:1022100000F01151016E04E0D8900032012EFCD77D
:102220000050105D010B196F17C124F118C125F181
:10223000266F000157DE0101112BDED7020E122797
:1022400069D7080E1527132B4FD70001EEEF12F0B8
:102250000101116B126B136B146B0EC115F10FC1E1
:1022600016F1036A1351590FE96E000E0320EA6E4E
:10227000EF52D8B4A7D00C0E15251F0807E2156B36
:102280000E0E16271625100801E29CD0126B125173
:102290001708D8A093D0036A1351590FE96E000EA6
:1022A0000320EA6E200EEF5C186F1A6B196F1C6B1F
:1022B000180E1B6F0001B8DD02C018F101C017F144
:1022C000010112510124016E000E0220036E015023
:1022D00003C0F7FF000155EC04F0E8CF14F1010151
:1022E000116B115107081EE3D89012311525176F95
:1022F00011511625186F14C100F01151016E04E040
:10230000D8900032012EFCD70050105D010B196FE0
:1023100017C124F118C125F1266F0001E3DD010189
:10232000112BDFD7036A1351590FE96E000E0320FA
:10233000EA6E200EEF5C186F1A6B196F1C6B180E8B
:102340001B6F000171DD02C018F101C017F1010E11
:10235000010112250124016E000E0220036E0150BE
:1023600003C0F7FF000155EC04F0E8CF14F10101C0
:10237000116B115105081FE3D89012311525176F05
:10238000080E16251125186F14C100F01151016EA9
:1023900004E0D8900032012EFCD70050105D010BF4
:1023A000196F17C124F118C125F1266F00019ADDBC
:1023B0000101112BDED7020E122769D70C0E15274B
:1023C000132B4FD70001EEEF12F001011A6B1951D8
:1023D000DC0A000105E00A0A07E0080A09E00CD05F
:1023E000600E01011A6F0DD0610E01011A6F09D044
:1023F000620E01011A6F05D0200E0101195D1A6FDE
:1024000000D01AC101F0000112000101116B126B22
:10241000136B146B156B0EC116F10FC117F1036A24
:102420001351590FE96E000E0320EA6EEF52D8B433
:10243000A5D00C0E16251F0807E2166B100E1727E5
:102440001725100801E29AD0036A1351590FE96E5B
:10245000000E0320EA6EEFCF18F118C119F1000148
:10246000B4DF01C015F10101126B12511708D8A099
:1024700081D01A6B15C119F11C6B180E1B6F00016E
:10248000D3DC02C019F101C018F10101125101247D
:10249000016E000E0220036E015003C0F7FF000121
:1024A000DCEC08F0E8CF14F10101116B11510708C1
:1024B0001EE3D89012311625186F11511725196F88
:1024C00014C100F01151016E04E0D8900032012EC9
:1024D000FCD70050105D010B1A6F18C124F119C10F
:1024E00025F1266F0001FEDC0101112BDFD71A6BED
:1024F00015C119F11C6B180E1B6F000195DC02C091
:1025000019F101C018F1010E010112250124016E1B
:10251000000E0220036E015003C0F7FF0001DCEC47
:1025200008F0E8CF14F10101116B115107081FE306
:10253000D89012311625186F080E17251125196F1E
:1025400014C100F01151016E04E0D8900032012E48
:10255000FCD70050105D010B1A6F18C124F119C18E
:1025600025F1266F0001BEDC0101112BDED7020E22
:1025700012277BD70C0E1627132B51D70001EEEF35
:1025800012F001010C51010A000107E0030A0DE0FD
:10259000010A13E0070A19E020D00AC10EF10BC1AD
:1025A0000FF10DC110F127D519D00AC10EF10BC1E1
:1025B0000FF10DC110F18FD511D00AC10EF10BC171
:1025C0000FF10DC110F144D609D00AC10EF10BC1B3
:1025D0000FF10DC110F119D701D000D01200010E7A
:1025E000EA6E130EE96EEF500EE00C0E016E006AFB
:1025F000002EFED7012EFBD7F70E006E002EFED761
:1026000000D0EF2EF2D7120001011A6B196B186B74
:10261000176B1551030B1B6F15311C6F1C333F0ECD
:102620001C17010ED88016571C51040DF350040DD1
:10263000F3501F6B1E6F036A1B511E25016E1F5145
:1026400003220150190FE96E000E0320EA6E006AA2
:10265000EFBE00800050010B1D91E8B01D811C51A0
:10266000040DF350040DF3501F6B1E6F036A1B51D2
:102670001E25016E1F5103220150190FE96E000E35
:102680000320EA6EEFCF00F0016A026A036A03C01A
:102690001AF102C019F101C018F100C017F119C1F7
:1026A0001AF118C119F117C118F1176B1C51040D5B
:1026B000F350010F040DF3501F6B1E6F036A1B5183
:1026C0001E25016E1F5103220150190FE96E000EE5
:1026D0000320EA6EEF501727000E182319231A2340
:1026E00019C11AF118C119F117C118F1176B1C5152
:1026F000040DF350020F040DF3501F6B1E6F036A9D
:102700001B511E25016E1F5103220150190FE96E46
:10271000000E0320EA6EEF501727000E182319232E
:102720001A2319C11AF118C119F117C118F1176B41
:102730001C51040DF350030F040DF3501F6B1E6F5B
:10274000036A1B511E25016E1F5103220150190FF0
:10275000E96E000E0320EA6EEF501727000E1823D3
:1027600019231A23D8901737183719371A371651E3
:102770001727000E182319231A231C51040DF35098
:10278000040DF3501F6B1E6F036A1B511E25016E53
:102790001F5103220150190FE96E000E0320EA6E4B
:1027A000016A026A036A03C024F102C023F101C076
:1027B00022F11AC1EFFF1C51040DF350010F040D5B
:1027C000F3501F6B1E6F036A1B511E25016E1F51B4
:1027D00003220150190FE96E000E0320EA6E1AC1A0
:1027E00001F0026A036A03C024F102C023F119C197
:1027F000EFFF1C51040DF350020F040DF3501F6B3B
:102800001E6F036A1B511E25016E1F5103220150CA
:10281000190FE96E000E0320EA6E19C101F01AC10A
:1028200002F0036A03C024F118C1EFFF1C51040D2C
:10283000F350030F040DF3501F6B1E6F036A1B51FF
:102840001E25016E1F5103220150190FE96E000E63
:102850000320EA6E17C1EFFF000E1DB1010E016EDD
:1028600000011200EA6A590EE96E000EB0EC0DF09C
:102870000A000900F550EE6E0009FBE1030E0101AC
:102880000A6F0B6B010E0C6F0D6B00017ADEEA6AAA
:10289000590EE96E000E91EC0DF00A000900F5509A
:1028A000EE6E0009FBE1030E01010A6F080E0B6FCB
:1028B000010E0C6F0D6B000164DE060E0101026F4C
:1028C000FA0E136F00018BDE0101022FF9D70A6B9C
:1028D000000148EC0FF0640E0101136F00017FDE70
:1028E000EA6A590EE96E000EBBEC0DF00A00090011
:1028F000F550EE6E0009FBE1010EFE6FFE5104087B
:1029000018E301010A6B0B6BFEC00CF10D6B0001AB
:1029100038DE020E0101026FC80E136F00015FDE88
:102920000101022FF9D70A6B000148EC0FF0FE2BD2
:10293000E5D7EA6A590EE96E000EC4EC0DF00A0004
:102940000900F550EE6E0009FBE1010EFE6FFE512D
:10295000040818E301010A6B0B6BFEC00CF10D6B50
:1029600000010FDE020E0101026FC80E136F00019D
:1029700036DE0101022FF9D70A6B000148EC0FF097
:10298000FE2BE5D7EA6A590EE96E000ECDEC0DF08C
:102990000A000900F550EE6E0009FBE1010EFE6F22
:1029A000FE51040818E301010A6B0B6BFEC00CF129
:1029B0000D6B0001E6DD020E0101026FC80E136F00
:1029C00000010DDE0101022FF9D70A6B000148EC6E
:1029D0000FF0FE2BE5D7EA6A590EE96E000ED6EC31
:1029E0000DF00A000900F550EE6E0009FBE1010E42
:1029F000FE6FFE51040818E301010A6B0B6BFEC069
:102A00000CF10D6B0001BDDD020E0101026FC80E5D
:102A1000136F0001E4DD0101022FF9D70A6B0001F9
:102A200048EC0FF0FE2BE5D730EF29F001010951FA
:102A3000016A085D03E208C100F00CD0006A080ECC
:102A40000A6F083700360951005CD8B0006E0136B5
:102A50000A2FF7D70001120001C1EAFF00C1E9FF08
:102A6000010108C1EFFFE92AD8B4EA2AEF6A002B76
:102A7000D8B4012B00011200200E010103A9300E71
:102A8000046F02C100F002AF08D0001E002A00C08F
:102A900002F12D0E046F038F0381015002C108F172
:102AA000640E096F0001C2DF00C002F1300E012484
:102AB0000101056F02C108F10A0E096F0001B6DFBE
:102AC000300E00240101076F300E0124066F04C18F
:102AD00000F0300E055D04E0038303BF038512D0D0
:102AE00003B510D004C105F103B304D0300E065D68
:102AF00004E0038103BF038305D0D8A40381D8B4C5
:102B000005C106F103B505D003B307D003B109D061
:102B10000CD004C108F100019FDF05C108F10001DC
:102B20009BDF06C108F1000197DF07C108F1000132
:102B300093DF1200EA6A590EE96E000EDFEC0DF029
:102B40000A000900F550EE6E0009FBE101010A6B75
:102B50000B6B010E0C6F0D6B000113DDEA6A590E51
:102B6000E96E000E91EC0DF00A000900F550EE6ED2
:102B70000009FBE101010A6B080E0B6F010E0C6FDF
:102B80000D6B0001FEDC040E0101026FFA0E136FE3
:102B9000000125DD0101022FF9D70A6B000148EC85
:102BA0000FF0640E0101136F000119DDFE6BFE5181
:102BB000630819E30101016B590E006FFEC002F1B9
:102BC000010E036F000158DF040E01010A6F0B6B49
:102BD0000C6F0D6B0001D5DC640E0101136F000159
:102BE000FEDCFE2BE4D7FE6BFE5102082FE3EA6AFF
:102BF000590EE96E000EEAEC0DF00A000900F550DE
:102C0000EE6E0009FBE1040E01010A6F0B6B0C6F05
:102C10000D6B0001B6DC040E0101026FAF0E136FE5
:102C20000001DDDC0101022FF9D70A6B000148EC3D
:102C30000FF0020E0101026FFA0E136F0001CFDCDC
:102C40000101022FF9D70001FE2BCED701010A6B3B
:102C5000000148EC0FF0EA6A590EE96E000EF4EC40
:102C60000DF00A000900F550EE6E0009FBE10101CC
:102C70000A6B040E0B6F010E0C6F0D6B000181DCF3
:102C8000040E0101026FFA0E136F0001A8DC0101AE
:102C9000022FF9D7010E0A6F000148EC0FF0640E05
:102CA0000101136F00019BDCFE6BFE5163081AE308
:102CB0000101016B590E006FFEC002F1010E036F9E
:102CC0000001DADE040E01010A6F0B6B0C6F010EBE
:102CD0000D6F000156DC640E0101136F00017FDCF3
:102CE000FE2BE3D7FE6BFE51020831E3EA6A590E70
:102CF000E96E000EEAEC0DF00A000900F550EE6EE8
:102D00000009FBE1040E01010A6F0B6B0C6F010E51
:102D10000D6F000136DC040E0101026FAF0E136F60
:102D200000015DDC0101022FF9D7010E0A6F0001DD
:102D300048EC0FF0020E0101026FFA0E136F000152
:102D40004EDC0101022FF9D70001FE2BCCD7020E79
:102D50000101026FFA0E136F000141DC0101022F25
:102D6000F9D70001FE6BFE511F0813E3FF6BFF5103
:102D70000F0808E3FFC015F10101166B000144DCE8
:102D8000FF2BF5D70F0E0101136F000128DCFE2B7E
:102D9000EAD73EEF29F00101096B0A6B0B6B0C6B54
:102DA0000751140DF3500E6B0D6F0F91036A0B5109
:102DB000590FE96E000E0320EA6EEF52D8B496D098
:102DC000080E0625FF0F0F0801E290D00A6B0A518A
:102DD000040863E3036A0B51590FE96E000E0320E8
:102DE000EA6E200EEF5C116F1A6B196F1C6B050EEB
:102DF0001B6F000114EC0FF002C011F101C010F1C3
:102E000001010A510124016E000E0220036E0150DF
:102E100003C0F7FF000157EC00F0E8CF0CF101010F
:102E2000096B095107081FE30CC100F00951016E3D
:102E300004E0D8900032012EFCD70050085D010B51
:102E40000F91E8B00F8109510625106F000E0FB1E8
:102E5000010E116F10C115F1166F000104EC13F093
:102E60000101092BDED7D20ED8800D55106F000E50
:102E70000E55116F126F122B1207D8B406D01369BA
:102E80000001EFEC12F00101F7D710C113F10001BE
:102E9000EFEC12F001010A2B9AD7096B09510708D0
:102EA0000BE309510625106F156F166B000104EC3A
:102EB00013F00101092BF2D7D20ED8800D55106FF7
:102EC000000E0E55116F126F122B1207D8B406D0D8
:102ED00013690001EFEC12F00101F7D710C113F1F3
:102EE0000001EFEC12F001010B2B60D7000130EF75
:102EF0001AF00101096B0A6B0B6B0C6B0751140D77
:102F0000F3500E6B0D6F106B0F6B1191036A0B5129
:102F1000590FE96E000E0320EA6EEF52D8B4C0D00C
:102F20000C0E0625FF0F0F0801E2BAD00A6B0A51FA
:102F30000F08D8A0B3D0036A0B51590FE96E000EE9
:102F40000320EA6E200EEF5C136F1A6B196F1C6B77
:102F5000100E1B6F000114EC0FF002C013F101C042
:102F600012F101010A510124016E000E0220036ECC
:102F7000015003C0F7FF00014EEC01F0E8CF0CF167
:102F80000101096B095107081FE30CC100F0095149
:102F9000016E04E0D8900032012EFCD70050085D8D
:102FA000010B1191E8B0118109510625126F000E35
:102FB00011B1010E136F12C115F1166F000104EC6F
:102FC00013F00101092BDED7036A0B51590FE96E8B
:102FD000000E0320EA6E200EEF5C136F1A6B196F60
:102FE0001C6B100E1B6F000114EC0FF002C013F1EC
:102FF00001C012F1010E01010A250124016E000E2B
:103000000220036E015003C0F7FF00014EEC01F0F7
:10301000E8CF0CF10101096B0951030820E30CC151
:1030200000F00951016E04E0D8900032012EFCD767
:103030000050085D010B1191E8B01181080E0625C2
:103040000925126F000E11B1010E136F12C115F197
:10305000166F000104EC13F00101092BDDD7106B92
:103060000F6BD20ED8800D55006E000E0E55036EFC
:1030700000C001F01051035C0EE303E101500F5D4D
:103080000AE2010E136F0001EFEC12F001010F2BA9
:10309000D8B4102BE6D7020E0A2749D70B2B36D708
:1030A000000130EF1AF00101096B0A6B0B6B0C6B1E
:1030B0000751140DF3500E6B0D6F106B0F6B1191C8
:1030C000036A0B51590FE96E000E0320EA6EEF52AE
:1030D000D8B4C0D00E0E0625FF0F0F0801E2BAD0FB
:1030E0000A6B0A511708D8A0B3D0036A0B51590FC5
:1030F000E96E000E0320EA6E200EEF5C136F1A6B70
:10310000196F1C6B180E1B6F000114EC0FF002C03E
:1031100013F101C012F101010A510124016E000EE8
:103120000220036E015003C0F7FF000155EC04F0CC
:10313000E8CF0CF10101096B095107081FE30CC12D
:1031400000F00951016E04E0D8900032012EFCD746
:103150000050085D010B1191E8B01181095106255D
:10316000126F000E11B1010E136F12C115F1166F1F
:10317000000104EC13F00101092BDED7036A0B51A7
:10318000590FE96E000E0320EA6E200EEF5C136FFC
:103190001A6B196F1C6B180E1B6F000114EC0FF0EB
:1031A00002C013F101C012F1010E01010A25012430
:1031B000016E000E0220036E015003C0F7FF0001F4
:1031C00055EC04F0E8CF0CF10101096B0951050839
:1031D00020E30CC100F00951016E04E0D8900032E8
:1031E000012EFCD70050085D010B1191E8B0118150
:1031F000080E06250925126F000E11B1010E136F7E
:1032000012C115F1166F000104EC13F00101092B36
:10321000DDD7106B0F6BD20ED8800D55006E000EEF
:103220000E55036E00C001F01051035C0EE303E184
:1032300001500F5D0AE2010E136F0001EFEC12F076
:1032400001010F2BD8B4102BE6D7020E0A2749D75D
:103250000B2B36D7000130EF1AF00101096B0A6B16
:103260000B6B0C6B0D6B0751140DF3500F6B0E6F46
:10327000116B106B1291036A0B51590FE96E000E1E
:103280000320EA6EEF52D8B4BBD0100E0625FF0F14
:103290000F0801E2B5D0036A0B51590FE96E000E19
:1032A0000320EA6EEFCF13F113C119F10001E5EC31
:1032B00011F001C00DF101010A6B0A511708D8A0E5
:1032C0009DD01A6B0DC119F11C6B180E1B6F0001FC
:1032D00014EC0FF002C014F101C013F101010A5106
:1032E0000124016E000E0220036E015003C0F7FF9F
:1032F0000001DCEC08F0E8CF0CF10101096B095189
:1033000007081CE30CC100F00951016E04E0D890DD
:103310000032012EFCD70050085D010B1291E8B07D
:103320001281000E12B1010E136F09C115F1166F53
:10333000000104EC13F00101092BE1D71A6B0DC158
:1033400019F11C6B180E1B6F000114EC0FF002C07A
:1033500014F101C013F1010E01010A250124016ECF
:10336000000E0220036E015003C0F7FF0001DCECE9
:1033700008F0E8CF0CF10101096B095107081FE3C0
:103380000CC100F00951016E04E0D8900032012E0A
:10339000FCD70050085D010B1291E8B01281080EB5
:1033A0000925136F000E12B1010E146F13C115F130
:1033B000166F000104EC13F00101092BDED7116B2D
:1033C000106BD20ED8800E55006E000E0F55036E96
:1033D00000C001F01151035C0EE303E10150105DE8
:1033E0000AE2010E136F0001EFEC12F00101102B45
:1033F000D8B4112BE6D7020E0A275FD70B2B3BD789
:10340000000130EF1AF001010351010A000107E049
:10341000030A0DE0010A13E0070A19E020D002C1F7
:1034200006F104C107F105C108F1B5D419D002C1F4
:1034300006F104C107F105C108F15BD511D002C145
:1034400006F104C107F105C108F12DD609D002C16A
:1034500006F104C107F105C108F1FFD601D000D083
:103460001200EA6A590EE96E000EFFEC0DF00A0038
:103470000900F550EE6E0009FBE101010A6B0B6BD0
:10348000010E0C6F0D6B0001C1EC12F0EA6A590ECF
:10349000E96E000E91EC0DF00A000900F550EE6E99
:1034A0000009FBE101010A6B080E0B6F010E0C6FA6
:1034B0000D6B0001C1EC12F0040E0101026FFA0E57
:1034C000136F0001EFEC12F00101022FF8D70A6B25
:1034D000000148EC0FF0640E0101136F0001EFECE6
:1034E00012F0EA6A590EE96E000E0AEC0EF00A00BC
:1034F0000900F550EE6E0009FBE10101026B010EBF
:10350000036F090E046F056B00017DDF040E0101DE
:10351000026FC80E136F0001EFEC12F00101022FD1
:10352000F8D7EA6A590EE96E000E000118EC0EF0A9
:103530000A000900F550EE6E0009FBE10101026B83
:10354000020E036F090E046F056B00015CDF040EB1
:103550000101026FAF0E136F0001EFEC12F00101D9
:10356000022FF8D7EA6A590EE96E000E000126EC28
:103570000EF00A000900F550EE6E0009FBE10101B2
:10358000026B030E036F090E046F056B00013BDF36
:10359000030E0101026FC80E136F0001EFEC12F071
:1035A0000101022FF8D7EA6A590EE96E000E0001F8
:1035B00034EC0EF00A000900F550EE6E0009FBE154
:1035C0000101026B040E036F090E046F056B00010D
:1035D0001ADF020E0101026FFA0E136F0001EFEC09
:1035E00012F00101022FF8D7010E0A6F000148EC1A
:1035F0000FF0EA6A590EE96E000E42EC0EF00A0076
:103600000900F550EE6E0009FBE10101026B040EAA
:10361000036F090E046F010E056F0001F4DE010156
:103620000A6B000148EC0FF04CEF29F0010EFE6F21
:10363000FE51630837E3EA6A590EE96E000E6AEC40
:103640000EF00A000900F550EE6E0009FBE10101E1
:103650000A6B0B6B010E0C6F0D6B0001C1EC12F0CD
:103660000101016B590E006FFEC002F1010E036FE4
:1036700000013CEC15F00A0E01010A6F080E0B6FF9
:10368000010E0C6F0D6B0001C1EC12F0FEC002F1D7
:1036900025EC0FF0960E0101136F0001EFEC12F014
:1036A000FE2BC6D7640E0101026F000125EC0FF05E
:1036B00001010A6B000148EC0FF0EA6A590EE96E4D
:1036C000000E75EC0EF00A000900F550EE6E0009D0
:1036D000FBE1FE6BFE51030828E3040E01010A6FB3
:1036E000030E0B6F020E0C6F0D6B0001C1EC12F09C
:1036F000040E0101026FC80E136F0001EFEC12F00F
:103700000101022FF8D70A6B000148EC0FF0020EFE
:103710000101026FFA0E136F0001EFEC12F00101CC
:10372000022FF8D70001FE2BD5D70A0E0101026F38
:10373000000125EC0FF05AEF29F00101255127195E
:10374000800B296F25AF05D0241F251F242BD8B44B
:10375000252B27AF05D0261F271F262BD8B4272BB4
:1037600024512603F3CF01F0F4CF00F02703F350E8
:10377000002625512603F3500020026E29AF05D004
:10378000011E021E012AD8B4022A00011200010102
:10379000176B010E166F196B186F1351115D07E24D
:1037A0001151135D036A206F03C021F108D013513A
:1037B000115D036A206F03C021F117691669145166
:1037C000125D07E21251145D036A1E6F03C01FF100
:1037D00008D01451125D036A1E6F03C01FF11969EE
:1037E00018691FAF03D021AF0AD002D021BF61D02A
:1037F0001F51215D5EE303E11E51205D5AE31FC1AD
:1038000025F11EC124F1276B020E266F000195DF02
:1038100002C01FF101C01EF1010120511E5D1A6F8F
:1038200021511F591B6F20511A5D226F21511B59C5
:10383000236F1D6B1C6B1DAF03D021AF0AD002D0CC
:1038400021BF36D01D51215D33E303E11C51205DC2
:103850002FE311C124F112C125F115C126F1000198
:1038600072EC0FF001011BBF01D00CD01E511A27C2
:103870001F511B2311511625016E000E172101C087
:1038800011F112D022511A2723511B231151162551
:10389000016E000E172101C011F112511825016EA1
:1038A000000E192101C012F11C2BD8B41D2BC3D757
:1038B00059D021C125F120C124F1276B020E266FBA
:1038C00000013BDF02C021F101C020F101011E51C6
:1038D000205D1A6F1F5121591B6F1E511A5D226FF7
:1038E0001F511B59236F1D6B1C6B1DAF03D01FAFE6
:1038F0000AD002D01FBF36D01D511F5D33E303E154
:103900001C511E5D2FE311C124F112C125F115C117
:1039100026F1000172EC0FF001011BBF01D00CD0A9
:1039200020511A2721511B2312511825016E000E18
:10393000192101C012F112D022511A2723511B2341
:1039400011511625016E000E172101C011F11251FF
:103950001825016E000E192101C012F11C2BD8B4DC
:103960001D2BC3D7000112000101065345E004518D
:10397000025D07E20A6B02C109F10C6B04C10BF195
:1039800006D00A6B04C109F10C6B02C10BF10551A1
:10399000035D07E20E6B03C10DF1106B05C10FF162
:1039A00006D00E6B05C10DF1106B03C10FF10A516A
:1039B0000C5D21E303E109510B5D1DE30EC108F12C
:1039C0000DC107F10851105D12E303E107510F5DCE
:1039D0000EE309C124F107C125F1010E266F000194
:1039E00072EC0FF00101072BD8B4082BEBD7092B91
:1039F000D8B40A2BDCD734D002C111F103C112F1C3
:103A000004C113F103C114F1010E156F0001BFDEF3
:103A100004C111F103C112F104C113F105C114F184
:103A2000010E0101156F0001B2DE04C111F105C1E3
:103A300012F102C113F105C114F1010E0101156F5C
:103A40000001A5DE02C111F105C112F102C113F19D
:103A500003C114F1010E0101156F000198DE01018F
:103A600000011200006A016A01010A51D8900BB1ED
:103A70000026003201320BB30026003201320BB5B2
:103A80000026003201320BB70026003201320BB99A
:103A90000026003201320BBB0026003201320BBD82
:103AA0000026003201320BBF002600320132000135
:103AB00012000101066B04C107F1010ED880045504
:103AC000086F055361E00651025D096F0751032538
:103AD0000A6F065102250B6F075103250C6F09C1B0
:103AE00011F10AC112F10BC113F1146F010E156F20
:103AF00000014DDE01010651025D096F0751035DB2
:103B00000A6F065102250B6F0751035D0C6F09C147
:103B100011F10AC112F10BC113F1146F010E156FEF
:103B2000000135DE01010751025D096F06510325D1
:103B30000A6F075102250B6F065103250C6F09C14F
:103B400011F10AC112F10BC113F1146F010E156FBF
:103B500000011DDE01010751025D096F0651035D81
:103B60000A6F075102250B6F0651035D0C6F09C1E7
:103B700011F10AC112F10BC113F1146F010E156F8F
:103B8000000105DE78D0010102510625096F0351BD
:103B900007250A6F09C124F1256F010E266F000168
:103BA00072EC0FF0010102510725096F0351062540
:103BB0000A6F09C124F1256F010E266F000172EC16
:103BC0000FF001010651025D096F035107250A6FCD
:103BD00009C124F1256F010E266F000172EC0FF070
:103BE00001010751025D096F035106250A6F09C1E2
:103BF00024F1256F010E266F000172EC0FF0010118
:103C000002510725096F0651035D0A6F09C124F1AE
:103C1000256F010E266F000172EC0FF001010251B9
:103C20000625096F0751035D0A6F09C124F1256F4D
:103C3000010E266F000172EC0FF001010651025DCA
:103C4000096F0751035D0A6F09C124F1256F010E49
:103C5000266F000172EC0FF001010751025D096F40
:103C60000651035D0A6F09C124F1256F010E266F0D
:103C7000000172EC0FF0010108BF01D00ED0065117
:103C8000062B096F020E0A6F09C10BF10001EADE73
:103C90000150030F0101082711D00651062B096FAF
:103CA00007510707095D096F020E0A6F09C10BF181
:103CB0000001D8DE0150050F010108270651800AD6
:103CC000006E0751800A005CD8B4FBD6D8A0F9D6A4
:103CD000000112000E0E0101026F060E036F110E9D
:103CE000046F090E056F066B00013EDE030E010135
:103CF000026FC80E136F0001EFEC12F00101022FEA
:103D0000F8D70A6B000148EC0FF00B0E0101026FAF
:103D1000030E036F140E046F0C0E056F066B00018B
:103D200023DE030E0101026FC80E136F0001EFECDA
:103D300012F00101022FF8D70A6B000148EC0FF0D6
:103D4000080E0101026F036B170E046F0F0E056F53
:103D5000066B000109DE030E0101026FC80E136F2E
:103D60000001EFEC12F00101022FF8D70A6B0001FD
:103D700048EC0FF00E0E0101026F060E036F110EDC
:103D8000046F090E056F010E066F0001EDDD030ED5
:103D90000101026FC80E136F0001EFEC12F0010178
:103DA000022FF8D70A6B000148EC0FF00B0E01014F
:103DB000026F030E036F140E046F0C0E056F010EDD
:103DC000066F0001D1DD030E0101026FC80E136FF3
:103DD0000001EFEC12F00101022FF8D70A6B00018D
:103DE00048EC0FF0080E0101026F036B170E046F11
:103DF0000F0E056F010E066F0001B6DD040E010106
:103E0000026FFA0E136F0001EFEC12F00101022FA6
:103E1000F8D70A6B000148EC0FF0100E0101026F99
:103E2000080E036F020E046F056B000142DE030EE5
:103E30000101026FC80E136F0001EFEC12F00101D7
:103E4000022FF8D70A6B000148EC0FF0100E0101A9
:103E5000026F080E036F040E046F056B000129DE6C
:103E6000030E0101026FC80E136F0001EFEC12F098
:103E70000101022FF8D70A6B000148EC0FF0100E79
:103E80000101026F080E036F070E046F056B00013E
:103E900010DE030E0101026FC80E136F0001EFEC7C
:103EA00012F00101022FF8D70A6B000148EC0FF065
:103EB000100E0101026F080E036F020E046F010E57
:103EC000056F0001F6DD030E0101026FC80E136FCE
:103ED0000001EFEC12F00101022FF8D70A6B00018C
:103EE00048EC0FF0100E0101026F080E036F040E74
:103EF000046F010E056F0001DCDD030E0101026F8E
:103F0000C80E136F0001EFEC12F00101022FF8D779
:103F10000A6B000148EC0FF0100E0101026F080E51
:103F2000036F070E046F010E056F0001C2DD040E62
:103F30000101026FFA0E136F0001EFEC12F00101A4
:103F4000022FF8D70A6B000148EC0FF0640E010154
:103F5000136F0001EFEC12F00101116B126B1F0ED9
:103F6000136F0F0E146F010E156F000110DC030E9E
:103F70000101026FC80E136F0001EFEC12F0010196
:103F8000022FF8D7116B0F0E126F1F0E136F146BE9
:103F9000010E156F0001C7EC1BF0030E0101026F4B
:103FA000C80E136F0001EFEC12F00101022FF8D7D9
:103FB000050E116F126B080E136F0F0E146F010EAA
:103FC000156F0001C7EC1BF0030E0101026FC80E54
:103FD000136F0001EFEC12F00101022FF8D71F0E52
:103FE000116F080E126F136B040E146F010E156F14
:103FF0000001C7EC1BF0030E0101026FC80E136F26
:104000000001EFEC12F00101022FF8D71D0E116F25
:10401000126B0A0E136F0F0E146F010E156F000155
:10402000C7EC1BF0030E0101026FC80E136F0001F5
:10403000EFEC12F00101022FF8D71F0E116F0D0ED9
:10404000126F136B080E146F010E156F0001C7EC91
:104050001BF0040E0101026FFA0E136F0001EFEC6A
:1040600012F00101022FF8D70A6B000148EC0FF0A3
:1040700068EF29F08E0E006E45C101F044C102F0D8
:10408000036A015209E102C001F0026A080E005EF3
:10409000015202E1006A08D0D89001BE04D0023675
:1040A00001360006F9D7019E120001014451D8B42F
:1040B00071D0006E4851D8B46DD0002604E3810E53
:1040C000002668E204D07F0E005E64E363E045C131
:1040D0004CF149514C1B458F498F47514B03F4CF4D
:1040E0004EF146514A03F4CF03F0F3CF4DF14B03A9
:1040F000F3504E27F4504D23000E032247514A033C
:10410000F3504E27F4504D23000E026A0322022280
:1041100045514B03F3504D27F4500322000E022269
:1041200045514A03F3500326F4500222000E016A5F
:10413000012247514903F3504D27F4500322000E4A
:104140000222012246514903F3500326F450022271
:10415000000E012245514903F3500226F45001227A
:10416000002A01BE05D04D3703360236013600065F
:10417000000E4DAF0AD0032A02220122015005E1B0
:10418000025003E1035001E1002A4CBF018E4CAF05
:10419000019E04D0006A016A026A036A00011200EB
:1041A00001010E51D8B4A5D01A6F1251D8B4A1D0C4
:1041B0001A5F05E37F0E1A27D8B09BD006D0810E78
:1041C0001A5FD8A096D0D8B494D01AC100F0016A72
:1041D000026A036A196B0FC118F1188F10C117F129
:1041E00011C116F1190E1A6F1551165F0DE2010E6D
:1041F000175F0AE2185F08E2195F06E2192B182B15
:10420000172B1551162728D01451175F12E2010EF3
:10421000185F0FE2195F0DE2192B182B14511727A5
:104220001551162719E3172B17E1182B15E1192B38
:1042300013D013518009185F0EE2010E195F0BE2D3
:10424000192B13518009182714511727E9E3182B4C
:10425000E7E1192BE5D703801A2F01D00BD0D890B6
:104260001637173718371937D89003360236013604
:104270001B37BAD71BA106D0D890013202320332C5
:104280001B3302D0000635E01BBF1ED0D890163776
:104290001737183719371551165F07E2010E175FE8
:1042A00004E2185F02E2195F1AE31451175F05E296
:1042B000010E185F02E2195F12E313518009185FC3
:1042C00003E2010E195F0BE3032A09E1022A07E169
:1042D000012A05E1002A0DE00132023203320FC14A
:1042E0001AF113511A1B1AAF02D0018E06D0019E8B
:1042F00004D0006A016A026A036A000199EF25F09E
:10430000800ED8A202D00101491B01014E6B4F6BF8
:1043100045C14DF149514D1B4451D8B4DFD04C6FCC
:10432000006E4851D8B4E3D04C5FD8B483D03EE39C
:1043300049C152F1528F4AC151F14BC150F14F6BFB
:10434000D8905233513350334F334C2FF8D74DAFB1
:1043500003D04E81E0D04E914C914E89010EEA6E11
:10436000470EE96EEBD04E994DBF0AD04CA113D049
:104370005233513350334F33002AD8B4C7D00BD007
:1043800052BF0CD0D8904F375037513752370006B4
:10439000D8B4BCD0F5D74E8D6DD04E9D45C14DF1F2
:1043A00045AF02D0528FABD0529FA9D048C14CF13B
:1043B00048C100F044514C5F45C152F1528F46C193
:1043C00051F147C150F14F6BD890523351335033B4
:1043D0004F334C2FF8D74DAF03D04E839CD04E9324
:1043E0004C914E8B010EEA6E4B0EE96EA7D04E9BA0
:1043F0004DBF0AD04CA113D05233513350334F33F9
:10440000002AD8B483D00BD052BF0CD0D8904F37ED
:104410005037513752370006D8B478D0F5D74E8F81
:1044200029D04E9F49C14DF149AF02D0528F67D07C
:10443000529F65D049C152F1528F4AC151F14BC1CF
:1044400050F14DAF04D0529F4E8565D04E954F6BC5
:104450004C91010EEA6E470EE96E70D04DBF1CD034
:1044600045C14DF14CA106D05233513350334F3337
:10447000002A4CE04FAF0BD0502B09E1512B07E144
:10448000522B05E1523351335033002A3FE04EBDE9
:1044900084D74EBFC6D71CD0800E521B52AF04D05B
:1044A0003AD049C14DF10AD045C14DF1525306E110
:1044B000515304E1505302E1006A21D052BF08D0A9
:1044C000D8904F37503751375237002EF7D71ED07C
:1044D0004DAF02D0528F13D0529F11D048C100F07F
:1044E00049C152F14AC151F14BC150F108D044C108
:1044F00000F045C152F146C151F147C150F152C1DE
:1045000001F051C102F050C103F034D0006A016AD9
:10451000026A036A2FD04F6B501F511F521F4F1F4B
:104520004F2B05E1502B03E1512B01E1522B4EB1F2
:1045300012D74EB354D74EB589D7B3D7EF505027C3
:1045400005E3512B03E1522BD8B44C81ED52EF50CF
:10455000512703E3522BD8B44C81ED52EF50EFBEFC
:1045600001D0800A5227D8B04C814EB9FCD64EBB40
:104570003ED774D70001120041C148F101014551F5
:10458000481B48AF05D0D894D89041BFD8802FD0D1
:1045900041C148F144C149F14051495F06E048AF8B
:1045A00026D0D850010AD86E22D045C149F14151D8
:1045B000495F06E048AF1BD0D850010AD86E17D02B
:1045C00046C149F14251495F06E048AF10D0D8508A
:1045D000010AD86E0CD047C149F14351495F06E04A
:1045E00048AF05D0D850010AD86E01D0D89000014C
:1045F00052EF23F08E0E006E01014051005E41C16A
:1046000002F042C101F0028E005209E0D89002523D
:1046100002E1015204E002320132002EF7D741AF2D
:1046200005D0011E021E012AD8B4022A0001120080
:104630000101256B246B236B7F0E226F7E0E2C6F86
:10464000800E2D6F2E6B2F6B7A0E306F2A0E316F0E
:10465000AA0E326FA30E336F750E346FB60E356F20
:10466000090E366FB40E376F6F0E386F4F0E396FFD
:10467000B60E3A6FAA0E3B6F690E3C6F8B0E3D6F04
:10468000F60E3E6FE80E3F6F19C143F118C142F1BB
:1046900017C141F116C140F1476B466B456B446B46
:1046A00000016AD704E301011751800A176F19C18D
:1046B00047F118C146F117C145F116C144F1830E07
:1046C00001014B6FF90E4A6F220E496F7E0E486F43
:1046D0000001EBDC03C043F102C042F101C041F133
:1046E00000C040F187DF01C026F119C147F118C1B0
:1046F00046F117C145F116C144F1830E01014B6F1C
:10470000F90E4A6F220E496F7E0E486F0001CDDC14
:1047100000C040F101C041F102C042F103C043F1C9
:104720000101456B26C144F10001A4DCD88243C1DC
:1047300047F142C146F141C145F140C144F103C0D6
:104740004BF102C04AF101C049F100C048F1D8DD87
:1047500003C02BF102C02AF101C029F100C028F1E9
:10476000030E01012617265303E0265102081CE11F
:104770002BC147F12AC146F129C145F128C144F1B5
:10478000DB0E4B6F0F0E4A6F490E496F7F0E486F5D
:1047900000018BDC03C021F102C020F101C01FF138
:1047A00000C01EF16BD00101262D35D0D882476B99
:1047B000466B456B7F0E446F2BC14BF12AC14AF10A
:1047C00029C149F128C148F100019ADD00C040F13A
:1047D00001C041F102C042F103C043F103C047F1FF
:1047E00002C046F101C045F100C044F1DB0E0101F9
:1047F0004B6F0F0E4A6F490E496F7F0E486F0001D5
:1048000054DC03C021F102C020F101C01FF100C03F
:104810001EF134D00101D8822BC147F12AC146F1E3
:1048200029C145F128C144F14B6B4A6B496B7F0E9E
:10483000486F000165DD00C040F101C041F102C0D8
:1048400042F103C043F103C047F102C046F101C089
:1048500045F100C044F1DB0E01014B6F0F0E4A6FB2
:10486000490E496F7F0E486F00011FDC03C021F124
:1048700002C020F101C01FF100C01EF101011D6B3B
:104880001C6B1B6B7F0E1A6F21C147F120C146F1D3
:104890001FC145F11EC144F121C14BF120C14AF1B4
:1048A0001FC149F11EC148F1000155EC20F003C0C1
:1048B00021F102C020F101C01FF100C01EF1010171
:1048C000276B2751040865E325C147F124C146F150
:1048D00023C145F122C144F121C14BF120C14AF16C
:1048E0001FC149F11EC148F1000155EC20F003C081
:1048F00025F102C024F101C023F100C022F1010121
:104900002751040DF350036A2C0FE96E010E0320AA
:10491000EA6EEFCF40F1ECCF41F1ECCF42F1ECCFBA
:1049200043F143C147F142C146F141C145F140C1A4
:1049300044F125C14BF124C14AF123C149F122C1FF
:1049400048F1000155EC20F0EACF41F1E9CF40F108
:10495000D8921DC147F11CC146F11BC145F11AC1D6
:1049600044F103C04BF102C04AF101C049F100C05B
:1049700048F1C6DC41C1EAFF40C1E9FF03C01DF1B7
:1049800002C01CF101C01BF100C01AF10101272B6C
:1049900098D72651020802E0262D03D01B51800A29
:1049A0001B6F1AC100F01BC101F01CC102F01DC138
:1049B00003F0000101EF25F0D88211C147F110C1C9
:1049C00046F10FC145F10EC144F1DB0E01014B6F01
:1049D0000F0E4A6F490E496F7F0E486F000190DC41
:1049E00000C012F101C013F102C014F103C015F1AF
:1049F00003C019F102C018F101C017F100C016F18F
:104A000017D6C4EF25F00101056B046B036B026B35
:104A1000076B066B086B096BEA6A590EE96E000EAC
:104A200000017FEC0EF00A000900F550EE6E00095F
:104A3000FBE101010A6B0B6B010E0C6F0D6B0001AA
:104A4000C1EC12F0EA6A590EE96E000E8AEC0EF023
:104A50000A000900F550EE6E0009FBE101010A6B46
:104A6000080E0B6F010E0C6F0D6B0001C1EC12F004
:104A7000040E01010A6FFA0E136F0001EFEC12F041
:104A800001010A2FF8D70A6B000148EC0FF0640E01
:104A90000101136F0001EFEC12F00101076B066BCF
:104AA0000753D8A4BDD006511208D8A0B9D0000130
:104AB000FE6BFE510F0809E3FEC015F10101166BF4
:104AC000000104EC13F0FE2BF4D707C145F106C139
:104AD00044F13AEC20F0DB0E0101476F0F0E466FF8
:104AE000490E456F800E446F03C04BF102C04AF17E
:104AF00001C049F100C048F1000155EC20F000C0B0
:104B00000AF101C00BF102C00CF103C00DF103C0AA
:104B100011F102C010F101C00FF100C00EF101014E
:104B2000156B146B340E136F860E126F0001D0EFED
:104B300020F003C005F102C004F101C003F100C080
:104B400002F10101476B466B180E456F830E446FEF
:104B500005C14BF104C14AF103C149F102C148F159
:104B6000000155EC20F000C00AF101C00BF102C0B9
:104B70000CF103C00DF103C011F102C010F101C02E
:104B80000FF100C00EF118D70101476B466B600EA4
:104B9000456F810E446F03C04BF102C04AF101C062
:104BA00049F100C048F1000155EC20F0EACF0BF1CB
:104BB000E9CF0AF1D8920101476B466B456B820E33
:104BC000446F03C04BF102C04AF101C049F100C07B
:104BD00048F1000180EC21F00BC1EAFF0AC1E9FFB6
:104BE00003C043F102C042F101C041F100C040F1F5
:104BF00001DD01C008F11F0E0101246F08C125F17C
:104C0000010E266F000172EC0FF01E0E0101136FF2
:104C10000001EFEC12F00101062BD8B4072B40D7AE
:104C2000092B09510A0801E101D038D70A6B0001AC
:104C300048EC0FF076EF29F0016A026A006A036A15
:104C40000101175102E1165118E0100E186FD890AB
:104C500014371537003603361751035C02E116513D
:104C6000005C07E31651005ED8A003061751035EEF
:104C7000D88001360236182FEAD700011200010150
:104C80000C6B0D6B0E6B0F6B116B106B0651085D8F
:104C900003E20851065D0C6F0851065D03E2065100
:104CA000085D0C6F0751095D03E20951075D0D6F47
:104CB0000951075D03E20751095D0D6F0B5164084F
:104CC00002E2640E0B6F0A5356E0136B0BC112F134
:104CD00013C11AF10BC119F11C6B0DC11BF10001BD
:104CE00014EC0FF002C013F101C012F102C015F173
:104CF00001C014F10101176B640E166F00019CDFF7
:104D000002C011F101C010F101010E6B010E0D2561
:104D10000E5D30E20F6B010E0C250F5D29E2115381
:104D200003E10E51105D12E30F510625126F0F0EB5
:104D3000D8800E550725136F12C124F1256F010E7F
:104D4000266F000172EC0FF010D001010F51062503
:104D5000126F0F0ED8800E550725136F12C124F164
:104D6000256F266B000172EC0FF001010F2BD3D7DA
:104D70000E2BCCD751D0136B0BC112F113C11AF10A
:104D80000BC119F11C6B0CC11BF1000114EC0FF0ED
:104D900002C013F101C012F102C015F101C014F1FB
:104DA0000101176B640E166F000146DF02C011F19E
:104DB00001C010F101010E6B010E0C250E5D2CE2FD
:104DC0000F6B010E0D250F5D25E2115303E10E510E
:104DD000105D10E30E510625126F0F510725136F5A
:104DE00012C124F1256F010E266F000172EC0FF045
:104DF0000ED001010E510625126F0F510725136FBA
:104E000012C124F1256F266B000172EC0FF0010135
:104E10000F2BD7D70E2BD0D7000112000101026B48
:104E2000030E036FEA6A590EE96E000E000195EC5D
:104E30000EF00A000900F550EE6E0009FBE10101D9
:104E40000A6B0B6B010E0C6F0D6B0001C1EC12F0C5
:104E5000EA6A590EE96E000E91EC0DF00A000900A5
:104E6000F550EE6E0009FBE101010A6B080E0B6FB5
:104E7000010E0C6F0D6B0001C1EC12F0040E01016C
:104E8000046FFA0E136F0001EFEC12F00101042F12
:104E9000F8D70A6B000148EC0FF0640E0101136FA4
:104EA0000001EFEC12F0FF6BFF51070823E3FE6BEC
:104EB000FE51640818E3010E0101035D046F02C195
:104EC00006F1076B086F0F0E096F010E0A6FFEC027
:104ED0000BF10001D4DE020E0101136F0001EFECB3
:104EE00012F0FE2BE5D7040E010102270327000173
:104EF000FF2BDAD70101026B030E036F0001FF6B7A
:104F0000FF5107082AE3FE6BFE5164081FE3010E00
:104F10000101035D046F640ED8800001FE5501019C
:104F2000056F02C106F1076B04C108F10F0E096F8E
:104F3000010E0A6F05C10BF10001A1DE020E010195
:104F4000136F0001EFEC12F0FE2BDED7040E01010F
:104F5000022703270001FF2BD3D701010A6B0001B1
:104F600048EC0FF00101026B030E036F0001FF6BB1
:104F7000FF51030823E3FE6BFE51640818E3010EA2
:104F80000101035D046F066B02C107F11F0E086F7C
:104F900004C109F10A6BFEC00BF1000170DE020EC4
:104FA0000101136F0001EFEC12F0FE2BE5D7040EA8
:104FB0000101022703270001FF2BDAD70101026B51
:104FC000030E036F0001FF6BFF51030829E3FE6B23
:104FD000FE5164081EE3010E0101035D046F640EBF
:104FE000D8800001FE550101056F066B02C107F173
:104FF0001F0E086F04C109F10A6B05C10BF1000116
:105000003EDE020E0101136F0001EFEC12F0FE2BE9
:10501000DFD7040E0101022703270001FF2BD4D79D
:1050200001010A6B000148EC0FF0FF6BFF51010812
:1050300038E3FE6BFE51640815E30101066B076B54
:105040001F0E086F0F0E096F010E0A6FFEC00BF1E5
:10505000000115DE010E0101136F0001EFEC12F0EB
:10506000FE2BE8D7FE6BFE51640819E3640ED8806E
:10507000FE550101046F066B076B1F0E086F0F0EC4
:10508000096F010E0A6F04C10BF10001F8DD010E7A
:105090000101136F0001EFEC12F0FE2BE4D7FF2BA0
:1050A000C5D701010A6B000148EC0FF0FF6BFF51FF
:1050B00001083BE3FE6BFE51640814E30101066B3B
:1050C000076B1F0E086F0F0E096F0A6BFEC00BF106
:1050D0000001D5DD010E0101136F0001EFEC12F0AC
:1050E000FE2BE9D7FE6BFE51640818E3640ED880EE
:1050F000FE550101046F066B076B1F0E086F0F0E44
:10510000096F0A6B04C10BF10001B9DD010E010149
:10511000136F0001EFEC12F0FE2BE5D701010A6BD3
:10512000000148EC0FF0FF2BC2D783EF29F0F86A9B
:10513000D09E078EEA6AE96AFD6BFE6BFF6B010188
:10514000016B006BC150C00B0F09C16E070EB46E2E
:10515000596A030E926E000E936E946E956E969041
:10516000969296949696C69A210EC66E000EC76EBB
:10517000C2908B940C0EBD6EB76AB66AF00EBA166A
:10518000C50ED56E000E0509CA6EF90ECB6EF28AF9
:10519000C00EF212D76A850ED66E896A8A6A8B6A49
:1051A0008C6A8D6A0A0E026F000125EC0FF0010176
:1051B0000A6B000148EC0FF0EA6A590EE96E000E26
:1051C00087EC0DF00A000900F550EE6E0009FBE1D6
:1051D000070E01010A6F0B6B010E0C6F0D6B0001C6
:1051E000C1EC12F0EA6A590EE96E000E91EC0DF076
:1051F0000A000900F550EE6E0009FBE1040E010102
:105200000A6F080E0B6F010E0C6F0D6B0001C1ECE5
:1052100012F0060E0101026FFA0E136F0001EFEC9F
:1052200012F00101022FF8D70001FE6BFE511F089A
:1052300015E3FF6BFF510F0809E3FFC015F10101F2
:10524000166B000104EC13F0FF2BF4D71E0E0101C6
:10525000136F0001EFEC12F0FE2BE8D732EF14F0E1
:10526000040E0101026FFA0E136F0001EFEC12F051
:105270000101022FF8D700019AEF15F0040E010189
:10528000026FFA0E136F0001EFEC12F00101022F12
:10529000F8D7000131EF1AF0040E0101026FFA0E87
:1052A000136F0001EFEC12F00101022FF8D700019B
:1052B00016EF1BF0040E0101026FFA0E136F0001CE
:1052C000EFEC12F00101022FF8D700016AEF1EF097
:1052D000040E0101026FFA0E136F0001EFEC12F0E1
:1052E0000101022FF8D7000103EF25F0040E0101A0
:1052F000026FFA0E136F0001EFEC12F00101022FA2
:10530000F8D700018BD5080E0101026FFA0E136F5A
:105310000001EFEC12F00101022FF8D7EA6A590EF2
:10532000E96E000E00019CEC0DF00A000900F5503A
:10533000EE6E0009FBE1040E0101026F010E036F26
:10534000090E046F056B000103EC1AF0080E010151
:10535000026FFA0E136F0001EFEC12F00101022F41
:08536000F8D700017BD7030020
:020000040030CA
:0E00000000C6180E008781000FC00FE00F40F1
:00000001FF
;PIC18F4620
;CRC=273D  CREATED="06-Aðu-13 19:29"
